{
  "_format": "hh-sol-artifact-1",
  "contractName": "TimelockController",
  "sourceName": "@openzeppelin/contracts/governance/TimelockController.sol",
  "abi": [
    {
      "inputs": [
        {
          "internalType": "uint256",
          "name": "minDelay",
          "type": "uint256"
        },
        {
          "internalType": "address[]",
          "name": "proposers",
          "type": "address[]"
        },
        {
          "internalType": "address[]",
          "name": "executors",
          "type": "address[]"
        },
        {
          "internalType": "address",
          "name": "admin",
          "type": "address"
        }
      ],
      "stateMutability": "nonpayable",
      "type": "constructor"
    },
    {
      "inputs": [],
      "name": "AccessControlBadConfirmation",
      "type": "error"
    },
    {
      "inputs": [
        {
          "internalType": "address",
          "name": "account",
          "type": "address"
        },
        {
          "internalType": "bytes32",
          "name": "neededRole",
          "type": "bytes32"
        }
      ],
      "name": "AccessControlUnauthorizedAccount",
      "type": "error"
    },
    {
      "inputs": [],
      "name": "FailedInnerCall",
      "type": "error"
    },
    {
      "inputs": [
        {
          "internalType": "uint256",
          "name": "delay",
          "type": "uint256"
        },
        {
          "internalType": "uint256",
          "name": "minDelay",
          "type": "uint256"
        }
      ],
      "name": "TimelockInsufficientDelay",
      "type": "error"
    },
    {
      "inputs": [
        {
          "internalType": "uint256",
          "name": "targets",
          "type": "uint256"
        },
        {
          "internalType": "uint256",
          "name": "payloads",
          "type": "uint256"
        },
        {
          "internalType": "uint256",
          "name": "values",
          "type": "uint256"
        }
      ],
      "name": "TimelockInvalidOperationLength",
      "type": "error"
    },
    {
      "inputs": [
        {
          "internalType": "address",
          "name": "caller",
          "type": "address"
        }
      ],
      "name": "TimelockUnauthorizedCaller",
      "type": "error"
    },
    {
      "inputs": [
        {
          "internalType": "bytes32",
          "name": "predecessorId",
          "type": "bytes32"
        }
      ],
      "name": "TimelockUnexecutedPredecessor",
      "type": "error"
    },
    {
      "inputs": [
        {
          "internalType": "bytes32",
          "name": "operationId",
          "type": "bytes32"
        },
        {
          "internalType": "bytes32",
          "name": "expectedStates",
          "type": "bytes32"
        }
      ],
      "name": "TimelockUnexpectedOperationState",
      "type": "error"
    },
    {
      "anonymous": false,
      "inputs": [
        {
          "indexed": true,
          "internalType": "bytes32",
          "name": "id",
          "type": "bytes32"
        },
        {
          "indexed": true,
          "internalType": "uint256",
          "name": "index",
          "type": "uint256"
        },
        {
          "indexed": false,
          "internalType": "address",
          "name": "target",
          "type": "address"
        },
        {
          "indexed": false,
          "internalType": "uint256",
          "name": "value",
          "type": "uint256"
        },
        {
          "indexed": false,
          "internalType": "bytes",
          "name": "data",
          "type": "bytes"
        }
      ],
      "name": "CallExecuted",
      "type": "event"
    },
    {
      "anonymous": false,
      "inputs": [
        {
          "indexed": true,
          "internalType": "bytes32",
          "name": "id",
          "type": "bytes32"
        },
        {
          "indexed": false,
          "internalType": "bytes32",
          "name": "salt",
          "type": "bytes32"
        }
      ],
      "name": "CallSalt",
      "type": "event"
    },
    {
      "anonymous": false,
      "inputs": [
        {
          "indexed": true,
          "internalType": "bytes32",
          "name": "id",
          "type": "bytes32"
        },
        {
          "indexed": true,
          "internalType": "uint256",
          "name": "index",
          "type": "uint256"
        },
        {
          "indexed": false,
          "internalType": "address",
          "name": "target",
          "type": "address"
        },
        {
          "indexed": false,
          "internalType": "uint256",
          "name": "value",
          "type": "uint256"
        },
        {
          "indexed": false,
          "internalType": "bytes",
          "name": "data",
          "type": "bytes"
        },
        {
          "indexed": false,
          "internalType": "bytes32",
          "name": "predecessor",
          "type": "bytes32"
        },
        {
          "indexed": false,
          "internalType": "uint256",
          "name": "delay",
          "type": "uint256"
        }
      ],
      "name": "CallScheduled",
      "type": "event"
    },
    {
      "anonymous": false,
      "inputs": [
        {
          "indexed": true,
          "internalType": "bytes32",
          "name": "id",
          "type": "bytes32"
        }
      ],
      "name": "Cancelled",
      "type": "event"
    },
    {
      "anonymous": false,
      "inputs": [
        {
          "indexed": false,
          "internalType": "uint256",
          "name": "oldDuration",
          "type": "uint256"
        },
        {
          "indexed": false,
          "internalType": "uint256",
          "name": "newDuration",
          "type": "uint256"
        }
      ],
      "name": "MinDelayChange",
      "type": "event"
    },
    {
      "anonymous": false,
      "inputs": [
        {
          "indexed": true,
          "internalType": "bytes32",
          "name": "role",
          "type": "bytes32"
        },
        {
          "indexed": true,
          "internalType": "bytes32",
          "name": "previousAdminRole",
          "type": "bytes32"
        },
        {
          "indexed": true,
          "internalType": "bytes32",
          "name": "newAdminRole",
          "type": "bytes32"
        }
      ],
      "name": "RoleAdminChanged",
      "type": "event"
    },
    {
      "anonymous": false,
      "inputs": [
        {
          "indexed": true,
          "internalType": "bytes32",
          "name": "role",
          "type": "bytes32"
        },
        {
          "indexed": true,
          "internalType": "address",
          "name": "account",
          "type": "address"
        },
        {
          "indexed": true,
          "internalType": "address",
          "name": "sender",
          "type": "address"
        }
      ],
      "name": "RoleGranted",
      "type": "event"
    },
    {
      "anonymous": false,
      "inputs": [
        {
          "indexed": true,
          "internalType": "bytes32",
          "name": "role",
          "type": "bytes32"
        },
        {
          "indexed": true,
          "internalType": "address",
          "name": "account",
          "type": "address"
        },
        {
          "indexed": true,
          "internalType": "address",
          "name": "sender",
          "type": "address"
        }
      ],
      "name": "RoleRevoked",
      "type": "event"
    },
    {
      "inputs": [],
      "name": "CANCELLER_ROLE",
      "outputs": [
        {
          "internalType": "bytes32",
          "name": "",
          "type": "bytes32"
        }
      ],
      "stateMutability": "view",
      "type": "function"
    },
    {
      "inputs": [],
      "name": "DEFAULT_ADMIN_ROLE",
      "outputs": [
        {
          "internalType": "bytes32",
          "name": "",
          "type": "bytes32"
        }
      ],
      "stateMutability": "view",
      "type": "function"
    },
    {
      "inputs": [],
      "name": "EXECUTOR_ROLE",
      "outputs": [
        {
          "internalType": "bytes32",
          "name": "",
          "type": "bytes32"
        }
      ],
      "stateMutability": "view",
      "type": "function"
    },
    {
      "inputs": [],
      "name": "PROPOSER_ROLE",
      "outputs": [
        {
          "internalType": "bytes32",
          "name": "",
          "type": "bytes32"
        }
      ],
      "stateMutability": "view",
      "type": "function"
    },
    {
      "inputs": [
        {
          "internalType": "bytes32",
          "name": "id",
          "type": "bytes32"
        }
      ],
      "name": "cancel",
      "outputs": [],
      "stateMutability": "nonpayable",
      "type": "function"
    },
    {
      "inputs": [
        {
          "internalType": "address",
          "name": "target",
          "type": "address"
        },
        {
          "internalType": "uint256",
          "name": "value",
          "type": "uint256"
        },
        {
          "internalType": "bytes",
          "name": "payload",
          "type": "bytes"
        },
        {
          "internalType": "bytes32",
          "name": "predecessor",
          "type": "bytes32"
        },
        {
          "internalType": "bytes32",
          "name": "salt",
          "type": "bytes32"
        }
      ],
      "name": "execute",
      "outputs": [],
      "stateMutability": "payable",
      "type": "function"
    },
    {
      "inputs": [
        {
          "internalType": "address[]",
          "name": "targets",
          "type": "address[]"
        },
        {
          "internalType": "uint256[]",
          "name": "values",
          "type": "uint256[]"
        },
        {
          "internalType": "bytes[]",
          "name": "payloads",
          "type": "bytes[]"
        },
        {
          "internalType": "bytes32",
          "name": "predecessor",
          "type": "bytes32"
        },
        {
          "internalType": "bytes32",
          "name": "salt",
          "type": "bytes32"
        }
      ],
      "name": "executeBatch",
      "outputs": [],
      "stateMutability": "payable",
      "type": "function"
    },
    {
      "inputs": [],
      "name": "getMinDelay",
      "outputs": [
        {
          "internalType": "uint256",
          "name": "",
          "type": "uint256"
        }
      ],
      "stateMutability": "view",
      "type": "function"
    },
    {
      "inputs": [
        {
          "internalType": "bytes32",
          "name": "id",
          "type": "bytes32"
        }
      ],
      "name": "getOperationState",
      "outputs": [
        {
          "internalType": "enum TimelockController.OperationState",
          "name": "",
          "type": "uint8"
        }
      ],
      "stateMutability": "view",
      "type": "function"
    },
    {
      "inputs": [
        {
          "internalType": "bytes32",
          "name": "role",
          "type": "bytes32"
        }
      ],
      "name": "getRoleAdmin",
      "outputs": [
        {
          "internalType": "bytes32",
          "name": "",
          "type": "bytes32"
        }
      ],
      "stateMutability": "view",
      "type": "function"
    },
    {
      "inputs": [
        {
          "internalType": "bytes32",
          "name": "id",
          "type": "bytes32"
        }
      ],
      "name": "getTimestamp",
      "outputs": [
        {
          "internalType": "uint256",
          "name": "",
          "type": "uint256"
        }
      ],
      "stateMutability": "view",
      "type": "function"
    },
    {
      "inputs": [
        {
          "internalType": "bytes32",
          "name": "role",
          "type": "bytes32"
        },
        {
          "internalType": "address",
          "name": "account",
          "type": "address"
        }
      ],
      "name": "grantRole",
      "outputs": [],
      "stateMutability": "nonpayable",
      "type": "function"
    },
    {
      "inputs": [
        {
          "internalType": "bytes32",
          "name": "role",
          "type": "bytes32"
        },
        {
          "internalType": "address",
          "name": "account",
          "type": "address"
        }
      ],
      "name": "hasRole",
      "outputs": [
        {
          "internalType": "bool",
          "name": "",
          "type": "bool"
        }
      ],
      "stateMutability": "view",
      "type": "function"
    },
    {
      "inputs": [
        {
          "internalType": "address",
          "name": "target",
          "type": "address"
        },
        {
          "internalType": "uint256",
          "name": "value",
          "type": "uint256"
        },
        {
          "internalType": "bytes",
          "name": "data",
          "type": "bytes"
        },
        {
          "internalType": "bytes32",
          "name": "predecessor",
          "type": "bytes32"
        },
        {
          "internalType": "bytes32",
          "name": "salt",
          "type": "bytes32"
        }
      ],
      "name": "hashOperation",
      "outputs": [
        {
          "internalType": "bytes32",
          "name": "",
          "type": "bytes32"
        }
      ],
      "stateMutability": "pure",
      "type": "function"
    },
    {
      "inputs": [
        {
          "internalType": "address[]",
          "name": "targets",
          "type": "address[]"
        },
        {
          "internalType": "uint256[]",
          "name": "values",
          "type": "uint256[]"
        },
        {
          "internalType": "bytes[]",
          "name": "payloads",
          "type": "bytes[]"
        },
        {
          "internalType": "bytes32",
          "name": "predecessor",
          "type": "bytes32"
        },
        {
          "internalType": "bytes32",
          "name": "salt",
          "type": "bytes32"
        }
      ],
      "name": "hashOperationBatch",
      "outputs": [
        {
          "internalType": "bytes32",
          "name": "",
          "type": "bytes32"
        }
      ],
      "stateMutability": "pure",
      "type": "function"
    },
    {
      "inputs": [
        {
          "internalType": "bytes32",
          "name": "id",
          "type": "bytes32"
        }
      ],
      "name": "isOperation",
      "outputs": [
        {
          "internalType": "bool",
          "name": "",
          "type": "bool"
        }
      ],
      "stateMutability": "view",
      "type": "function"
    },
    {
      "inputs": [
        {
          "internalType": "bytes32",
          "name": "id",
          "type": "bytes32"
        }
      ],
      "name": "isOperationDone",
      "outputs": [
        {
          "internalType": "bool",
          "name": "",
          "type": "bool"
        }
      ],
      "stateMutability": "view",
      "type": "function"
    },
    {
      "inputs": [
        {
          "internalType": "bytes32",
          "name": "id",
          "type": "bytes32"
        }
      ],
      "name": "isOperationPending",
      "outputs": [
        {
          "internalType": "bool",
          "name": "",
          "type": "bool"
        }
      ],
      "stateMutability": "view",
      "type": "function"
    },
    {
      "inputs": [
        {
          "internalType": "bytes32",
          "name": "id",
          "type": "bytes32"
        }
      ],
      "name": "isOperationReady",
      "outputs": [
        {
          "internalType": "bool",
          "name": "",
          "type": "bool"
        }
      ],
      "stateMutability": "view",
      "type": "function"
    },
    {
      "inputs": [
        {
          "internalType": "address",
          "name": "",
          "type": "address"
        },
        {
          "internalType": "address",
          "name": "",
          "type": "address"
        },
        {
          "internalType": "uint256[]",
          "name": "",
          "type": "uint256[]"
        },
        {
          "internalType": "uint256[]",
          "name": "",
          "type": "uint256[]"
        },
        {
          "internalType": "bytes",
          "name": "",
          "type": "bytes"
        }
      ],
      "name": "onERC1155BatchReceived",
      "outputs": [
        {
          "internalType": "bytes4",
          "name": "",
          "type": "bytes4"
        }
      ],
      "stateMutability": "nonpayable",
      "type": "function"
    },
    {
      "inputs": [
        {
          "internalType": "address",
          "name": "",
          "type": "address"
        },
        {
          "internalType": "address",
          "name": "",
          "type": "address"
        },
        {
          "internalType": "uint256",
          "name": "",
          "type": "uint256"
        },
        {
          "internalType": "uint256",
          "name": "",
          "type": "uint256"
        },
        {
          "internalType": "bytes",
          "name": "",
          "type": "bytes"
        }
      ],
      "name": "onERC1155Received",
      "outputs": [
        {
          "internalType": "bytes4",
          "name": "",
          "type": "bytes4"
        }
      ],
      "stateMutability": "nonpayable",
      "type": "function"
    },
    {
      "inputs": [
        {
          "internalType": "address",
          "name": "",
          "type": "address"
        },
        {
          "internalType": "address",
          "name": "",
          "type": "address"
        },
        {
          "internalType": "uint256",
          "name": "",
          "type": "uint256"
        },
        {
          "internalType": "bytes",
          "name": "",
          "type": "bytes"
        }
      ],
      "name": "onERC721Received",
      "outputs": [
        {
          "internalType": "bytes4",
          "name": "",
          "type": "bytes4"
        }
      ],
      "stateMutability": "nonpayable",
      "type": "function"
    },
    {
      "inputs": [
        {
          "internalType": "bytes32",
          "name": "role",
          "type": "bytes32"
        },
        {
          "internalType": "address",
          "name": "callerConfirmation",
          "type": "address"
        }
      ],
      "name": "renounceRole",
      "outputs": [],
      "stateMutability": "nonpayable",
      "type": "function"
    },
    {
      "inputs": [
        {
          "internalType": "bytes32",
          "name": "role",
          "type": "bytes32"
        },
        {
          "internalType": "address",
          "name": "account",
          "type": "address"
        }
      ],
      "name": "revokeRole",
      "outputs": [],
      "stateMutability": "nonpayable",
      "type": "function"
    },
    {
      "inputs": [
        {
          "internalType": "address",
          "name": "target",
          "type": "address"
        },
        {
          "internalType": "uint256",
          "name": "value",
          "type": "uint256"
        },
        {
          "internalType": "bytes",
          "name": "data",
          "type": "bytes"
        },
        {
          "internalType": "bytes32",
          "name": "predecessor",
          "type": "bytes32"
        },
        {
          "internalType": "bytes32",
          "name": "salt",
          "type": "bytes32"
        },
        {
          "internalType": "uint256",
          "name": "delay",
          "type": "uint256"
        }
      ],
      "name": "schedule",
      "outputs": [],
      "stateMutability": "nonpayable",
      "type": "function"
    },
    {
      "inputs": [
        {
          "internalType": "address[]",
          "name": "targets",
          "type": "address[]"
        },
        {
          "internalType": "uint256[]",
          "name": "values",
          "type": "uint256[]"
        },
        {
          "internalType": "bytes[]",
          "name": "payloads",
          "type": "bytes[]"
        },
        {
          "internalType": "bytes32",
          "name": "predecessor",
          "type": "bytes32"
        },
        {
          "internalType": "bytes32",
          "name": "salt",
          "type": "bytes32"
        },
        {
          "internalType": "uint256",
          "name": "delay",
          "type": "uint256"
        }
      ],
      "name": "scheduleBatch",
      "outputs": [],
      "stateMutability": "nonpayable",
      "type": "function"
    },
    {
      "inputs": [
        {
          "internalType": "bytes4",
          "name": "interfaceId",
          "type": "bytes4"
        }
      ],
      "name": "supportsInterface",
      "outputs": [
        {
          "internalType": "bool",
          "name": "",
          "type": "bool"
        }
      ],
      "stateMutability": "view",
      "type": "function"
    },
    {
      "inputs": [
        {
          "internalType": "uint256",
          "name": "newDelay",
          "type": "uint256"
        }
      ],
      "name": "updateDelay",
      "outputs": [],
      "stateMutability": "nonpayable",
      "type": "function"
    },
    {
      "stateMutability": "payable",
      "type": "receive"
    }
  ],
  "bytecode": "0x6080604052346200017c5762001a74803803806200001d8162000181565b9283398101906080818303126200017c57805160208201516001600160401b03908181116200017c578462000054918501620001d2565b9360408401519182116200017c57620000766060916200007e938601620001d2565b9301620001bd565b906200008a3062000295565b506001600160a01b039180831662000169575b5060005b8451811015620000f05780620000c984620000c1620000ea94896200026a565b511662000315565b50620000e384620000db83896200026a565b5116620003b7565b5062000244565b620000a1565b50925060005b8251811015620001245780620000e383620001166200011e94876200026a565b511662000454565b620000f6565b7f11c24f4ead16507c69ac467fbd5e4eed5fb5c699626d2cc6d66421df253886d560408580600255815190600082526020820152a16040516115629081620004f28239f35b620001749062000295565b50386200009d565b600080fd5b6040519190601f01601f191682016001600160401b03811183821017620001a757604052565b634e487b7160e01b600052604160045260246000fd5b51906001600160a01b03821682036200017c57565b81601f820112156200017c578051916001600160401b038311620001a7578260051b60209283806200020681850162000181565b8097815201928201019283116200017c578301905b8282106200022a575050505090565b8380916200023884620001bd565b8152019101906200021b565b6000198114620002545760010190565b634e487b7160e01b600052601160045260246000fd5b80518210156200027f5760209160051b010190565b634e487b7160e01b600052603260045260246000fd5b6001600160a01b031660008181527fad3228b676f7d3cd4284a5443f17f1962b36e491b30a40b2405849e597ba5fb5602052604081205490919060ff166200031157818052816020526040822081835260205260408220600160ff19825416179055339160008051602062001a548339815191528180a4600190565b5090565b6001600160a01b031660008181527f3412d5605ac6cd444957cedb533e5dacad6378b4bc819ebe3652188a665066d560205260408120549091907fb09aa5aeb3702cfd50b6b62bc4532604938f21248a27a1d5ca736082b6819cc19060ff16620003b257808352826020526040832082845260205260408320600160ff1982541617905560008051602062001a54833981519152339380a4600190565b505090565b6001600160a01b031660008181527fc3ad33e20b0c56a223ad5104fff154aa010f8715b9c981fd38fdc60a4d1a52fb60205260408120549091907ffd643c72710c63c0180259aba6b2d05451e3591a24e58b62239378085726f7839060ff16620003b257808352826020526040832082845260205260408320600160ff1982541617905560008051602062001a54833981519152339380a4600190565b6001600160a01b031660008181527fdae2aa361dfd1ca020a396615627d436107c35eff9fe7738a3512819782d706960205260408120549091907fd8aa0f3194971a2a116679f7c2090f6939c8d4e01a2a8d7e41d55e5351469e639060ff16620003b257808352826020526040832082845260205260408320600160ff1982541617905560008051602062001a54833981519152339380a460019056fe60406080815260049081361015610020575b5050361561001e57600080fd5b005b600091823560e01c90816301d5062a14610b0c57816301ffc9a714610a9957816307bd026514610a7057838263134008d3146109c65750816313bc9f20146109a6578163150b7a0214610951578163248a9ca3146109275781632ab0f529146109075781632f2ff15d146108dd57816331d50750146108bd57816336568abe14610877578163584b153e1461084e57816364d62353146107e25781637958004c1461079f5781638065657f1461077d5781638f2a0bb0146105e05781638f61f4f5146105a557816391d148541461055f578163a217fddf14610544578163b08e51c014610509578163b1c5f427146104dd578163bc197c8114610457578163c4d252f514610388578163d45c443514610360578163d547741f1461031b578163e38335e5146101d8578163f23a6e6114610180575063f27a0c9203610011573461017c578160031936011261017c576020906002549051908152f35b5080fd5b8284346101d55760a03660031901126101d55761019b610bea565b506101a4610c05565b50608435906001600160401b0382116101d557506020926101c791369101610ce8565b505163f23a6e6160e01b8152f35b80fd5b90506101e336610d5f565b90989495919392969760008051602061150d8339815191528b528a602052858b208b805260205260ff868c2054161561030d575b838314801590610303575b6102d5575061023a610241918a868a878b888f611158565b988961145b565b885b81811061025757896102548a6114c1565b80f35b80808a7fc2617efa69bab66782fa219543714338489c4e9e178271560a91b82c3f612b588a8a6102c86102b08f988c6102a9828e6102a38f6102d09f61029e9185916112f3565b611319565b976112f3565b359561132d565b906102bd82828787611406565b8d51948594856113df565b0390a36112ce565b610243565b85516001624fcdef60e01b031981529081019283526020830185905260408301849052918291506060010390fd5b5084831415610222565b61031633610ea9565b610217565b9190503461035c578060031936011261035c5761035891356103536001610340610c05565b9383875286602052862001543390610efc565b610fab565b5080f35b8280fd5b90503461035c57602036600319011261035c5760209282913581526001845220549051908152f35b9190503461035c57602036600319011261035c578135917ffd643c72710c63c0180259aba6b2d05451e3591a24e58b62239378085726f7838085528460205282852033865260205260ff83862054161561043c57506103e68361104d565b156104205750829082825260016020528120557fbaa1eb22f2a492ba1a5fea61b8df4d27c6c8b5f3971e63bb58fa14ff72eedb708280a280f35b826044925191635ead8eb560e01b835282015260066024820152fd5b604492519163e2517d3f60e01b835233908301526024820152fd5b8284346101d55760a03660031901126101d557610472610bea565b5061047b610c05565b506001600160401b039060443582811161017c5761049c9036908601610dc0565b5060643582811161017c576104b49036908601610dc0565b506084359182116101d557506020926104cf91369101610ce8565b505163bc197c8160e01b8152f35b50503461017c576020906105026104f336610d5f565b96959095949194939293611158565b9051908152f35b50503461017c578160031936011261017c57602090517ffd643c72710c63c0180259aba6b2d05451e3591a24e58b62239378085726f7838152f35b50503461017c578160031936011261017c5751908152602090f35b90503461035c578160031936011261035c578160209360ff92610580610c05565b903582528186528282206001600160a01b039091168252855220549151911615158152f35b50503461017c578160031936011261017c57602090517fb09aa5aeb3702cfd50b6b62bc4532604938f21248a27a1d5ca736082b6819cc18152f35b9190503461035c5760c036600319011261035c576001600160401b03908235828111610779576106139036908501610d2f565b936024358481116107755761062b9036908301610d2f565b94604435908111610771576106439036908401610d2f565b606493919335906084359760a4359361065b33610e26565b818b14801590610767575b610739575061067c89848489858f8b908e611158565b99610687858c61136e565b8a8c5b8a8382106106d0578e838e838161069f578380f35b7f20fda5fd27a1ea7bf5b9567f143ac5470bb059374a27e8f67cb44f946f6d03879160209151908152a28180808380f35b610732927f4cf4410cc57040e44862ef0f45f3dd5a5e02db8eb8add648d4b0e236f1d07dca8b8b6102c88f8c88978f92898f8f8f6107209161071a61029e868094610727996112f3565b9a6112f3565b359861132d565b915196879687611296565b8b9061068a565b88516001624fcdef60e01b031981529081018b81526020810184905260408101929092529081906060010390fd5b50828b1415610666565b8780fd5b8680fd5b8480fd5b50503461017c5760209061050261079336610c48565b94939093929192611103565b83833461017c57602036600319011261017c576107bc83356110a6565b905191838210156107cf57602083838152f35b634e487b7160e01b815260218452602490fd5b9190503461035c57602036600319011261035c5781359130330361083857507f11c24f4ead16507c69ac467fbd5e4eed5fb5c699626d2cc6d66421df253886d5906002548151908152836020820152a160025580f35b602491519063e2850c5960e01b82523390820152fd5b8284346101d55760203660031901126101d5575061086e6020923561104d565b90519015158152f35b83833461017c578060031936011261017c57610891610c05565b90336001600160a01b038316036108ae5750610358919235610fab565b5163334bd91960e11b81528390fd5b8284346101d55760203660031901126101d5575061086e60209235611020565b9190503461035c578060031936011261035c5761035891356109026001610340610c05565b610f2d565b8284346101d55760203660031901126101d5575061086e6020923561108e565b90503461035c57602036600319011261035c57816020936001923581528085522001549051908152f35b8284346101d55760803660031901126101d55761096c610bea565b50610975610c05565b50606435906001600160401b0382116101d5575060209261099891369101610ce8565b5051630a85bd0160e11b8152f35b8284346101d55760203660031901126101d5575061086e60209235611076565b610254610a4482610a5a7fc2617efa69bab66782fa219543714338489c4e9e178271560a91b82c3f612b58610a3b896109fe36610c48565b60008051602061150d8339815191528b9a9697939598929a528a602052828b208b805260205260ff838c20541615610a62575b8985858a8a611103565b998a988961145b565b610a5083838888611406565b51948594856113df565b0390a36114c1565b610a6b33610ea9565b610a31565b50503461017c578160031936011261017c576020905160008051602061150d8339815191528152f35b90503461035c57602036600319011261035c57359063ffffffff60e01b821680920361035c5760209250630271189760e51b8214918215610ade575b50519015158152f35b909150637965db0b60e01b8114908115610afb575b509038610ad5565b6301ffc9a760e01b14905038610af3565b9190503461035c5760c036600319011261035c57610b28610bea565b90836024356044356001600160401b03811161035c577f4cf4410cc57040e44862ef0f45f3dd5a5e02db8eb8add648d4b0e236f1d07dca95610b6c91369101610c1b565b95909160643595610bad6084359760a43590610b8733610e26565b610b958a828d8a8989611103565b9a8b97610ba2848a61136e565b8a5196879687611296565b0390a381610bb9578380f35b7f20fda5fd27a1ea7bf5b9567f143ac5470bb059374a27e8f67cb44f946f6d03879160209151908152a23880808380f35b600435906001600160a01b0382168203610c0057565b600080fd5b602435906001600160a01b0382168203610c0057565b9181601f84011215610c00578235916001600160401b038311610c005760208381860195010111610c0057565b60a0600319820112610c00576004356001600160a01b0381168103610c00579160243591604435906001600160401b038211610c0057610c8a91600401610c1b565b90916064359060843590565b90601f801991011681019081106001600160401b03821117610cb757604052565b634e487b7160e01b600052604160045260246000fd5b6001600160401b038111610cb757601f01601f191660200190565b81601f82011215610c0057803590610cff82610ccd565b92610d0d6040519485610c96565b82845260208383010111610c0057816000926020809301838601378301015290565b9181601f84011215610c00578235916001600160401b038311610c00576020808501948460051b010111610c0057565b9060a0600319830112610c00576001600160401b03600435818111610c005783610d8b91600401610d2f565b93909392602435838111610c005782610da691600401610d2f565b93909392604435918211610c0057610c8a91600401610d2f565b9080601f83011215610c00578135906001600160401b038211610cb7578160051b60405193602093610df485840187610c96565b85528380860192820101928311610c00578301905b828210610e17575050505090565b81358152908301908301610e09565b6001600160a01b031660008181527f3412d5605ac6cd444957cedb533e5dacad6378b4bc819ebe3652188a665066d560205260409020547fb09aa5aeb3702cfd50b6b62bc4532604938f21248a27a1d5ca736082b6819cc19060ff1615610e8b575050565b604492506040519163e2517d3f60e01b835260048301526024820152fd5b6001600160a01b031660008181527fdae2aa361dfd1ca020a396615627d436107c35eff9fe7738a3512819782d7069602052604090205460008051602061150d8339815191529060ff1615610e8b575050565b80600052600060205260406000209160018060a01b0316918260005260205260ff6040600020541615610e8b575050565b9060009180835282602052604083209160018060a01b03169182845260205260ff60408420541615600014610fa657808352826020526040832082845260205260408320600160ff198254161790557f2f8788117e7eff1d82e926ec794901d17c78024a50270940304540a733656f0d339380a4600190565b505090565b9060009180835282602052604083209160018060a01b03169182845260205260ff604084205416600014610fa65780835282602052604083208284526020526040832060ff1981541690557ff6391f5c32d9c69d2a47ea670b442974b53935d1edc7fd64eb21e047a839171b339380a4600190565b611029906110a6565b600481101561103757151590565b634e487b7160e01b600052602160045260246000fd5b611056906110a6565b6004811015611037576001811490811561106e575090565b600291501490565b61107f906110a6565b60048110156110375760021490565b611097906110a6565b60048110156110375760031490565b600052600160205260406000205480156000146110c35750600090565b600181036110d15750600390565b4210156110dd57600190565b600290565b908060209392818452848401376000828201840152601f01601f1916010190565b9461113961115294959293604051968795602087019960018060a01b03168a52604087015260a0606087015260c08601916110e2565b91608084015260a083015203601f198101835282610c96565b51902090565b969294909695919560405196602091828901998060c08b0160a08d525260e08a01919060005b81811061126e57505050601f19898203810160408b0152888252976001600160fb1b038111610c00579089969495939897929160051b80928a830137019380888601878703606089015252604085019460408260051b82010195836000925b848410611205575050505050506111529550608084015260a083015203908101835282610c96565b9193969850919398999496603f198282030184528935601e1984360301811215610c005783018681019190356001600160401b038111610c00578036038313610c0057611257889283926001956110e2565b9b0194019401918b98969394919a9997959a6111dd565b90919283359060018060a01b038216809203610c00579081528501928501919060010161117e565b9290936112c4926080959897969860018060a01b03168552602085015260a0604085015260a08401916110e2565b9460608201520152565b60001981146112dd5760010190565b634e487b7160e01b600052601160045260246000fd5b91908110156113035760051b0190565b634e487b7160e01b600052603260045260246000fd5b356001600160a01b0381168103610c005790565b91908110156113035760051b81013590601e1981360301821215610c005701908135916001600160401b038311610c00576020018236038113610c00579190565b9061137882611020565b6113bf576002548082106113a157504201908142116112dd576000526001602052604060002055565b6044925060405191635433660960e01b835260048301526024820152fd5b604051635ead8eb560e01b81526004810183905260016024820152604490fd5b611403949260609260018060a01b03168252602082015281604082015201916110e2565b90565b61145093600093928493826040519384928337810185815203925af13d15611453573d9061143382610ccd565b916114416040519384610c96565b82523d6000602084013e6114e1565b50565b6060906114e1565b61146481611076565b156114a2575080151580611492575b61147a5750565b6024906040519063121534c360e31b82526004820152fd5b5061149c8161108e565b15611473565b60449060405190635ead8eb560e01b8252600482015260046024820152fd5b6114ca81611076565b156114a25760005260016020526001604060002055565b90919061150a57508051156114f857805190602001fd5b604051630a12f52160e11b8152600490fd5b56fed8aa0f3194971a2a116679f7c2090f6939c8d4e01a2a8d7e41d55e5351469e63a264697066735822122037f820e54d9023b576a66773a2bfadd225365f4a9701378632bc3d669270a64364736f6c634300081400332f8788117e7eff1d82e926ec794901d17c78024a50270940304540a733656f0d",
  "linkReferences": {},
  "deployedLinkReferences": {}
}