{"contracts/InstitutionalStablecoinBridge.sol":{"InstitutionalStablecoinBridge":{"abi":[{"inputs":[],"stateMutability":"nonpayable","type":"constructor"},{"inputs":[],"name":"AccessControlBadConfirmation","type":"error"},{"inputs":[{"internalType":"address","name":"account","type":"address"},{"internalType":"bytes32","name":"neededRole","type":"bytes32"}],"name":"AccessControlUnauthorizedAccount","type":"error"},{"inputs":[{"internalType":"address","name":"target","type":"address"}],"name":"AddressEmptyCode","type":"error"},{"inputs":[{"internalType":"address","name":"account","type":"address"}],"name":"AddressInsufficientBalance","type":"error"},{"inputs":[],"name":"AssetNotSupported","type":"error"},{"inputs":[],"name":"DailyTxLimitExceeded","type":"error"},{"inputs":[],"name":"DuplicateOperation","type":"error"},{"inputs":[{"internalType":"address","name":"implementation","type":"address"}],"name":"ERC1967InvalidImplementation","type":"error"},{"inputs":[],"name":"ERC1967NonPayable","type":"error"},{"inputs":[],"name":"EnclaveMeasurementNotApproved","type":"error"},{"inputs":[],"name":"EnforcedPause","type":"error"},{"inputs":[],"name":"ExpectedPause","type":"error"},{"inputs":[],"name":"ExpiredOperation","type":"error"},{"inputs":[],"name":"FailedInnerCall","type":"error"},{"inputs":[],"name":"InsufficientIssuerSignatures","type":"error"},{"inputs":[],"name":"InvalidAddress","type":"error"},{"inputs":[],"name":"InvalidAmount","type":"error"},{"inputs":[],"name":"InvalidConfig","type":"error"},{"inputs":[],"name":"InvalidInitialization","type":"error"},{"inputs":[],"name":"InvalidRecipient","type":"error"},{"inputs":[],"name":"InvalidRoutingType","type":"error"},{"inputs":[],"name":"InvalidSignature","type":"error"},{"inputs":[],"name":"MintCeilingExceeded","type":"error"},{"inputs":[],"name":"MintPausedForAsset","type":"error"},{"inputs":[],"name":"NotCCTPAsset","type":"error"},{"inputs":[],"name":"NotInitializing","type":"error"},{"inputs":[],"name":"NotTeeMintAsset","type":"error"},{"inputs":[],"name":"ReentrancyGuardReentrantCall","type":"error"},{"inputs":[],"name":"RelayerBondInsufficient","type":"error"},{"inputs":[],"name":"RelayerBondNotFound","type":"error"},{"inputs":[],"name":"RelayerBondTokenNotConfigured","type":"error"},{"inputs":[{"internalType":"address","name":"token","type":"address"}],"name":"SafeERC20FailedOperation","type":"error"},{"inputs":[],"name":"TimelockDelayTooShort","type":"error"},{"inputs":[],"name":"TimelockRequired","type":"error"},{"inputs":[],"name":"UUPSUnauthorizedCallContext","type":"error"},{"inputs":[{"internalType":"bytes32","name":"slot","type":"bytes32"}],"name":"UUPSUnsupportedProxiableUUID","type":"error"},{"anonymous":false,"inputs":[{"indexed":true,"internalType":"bytes32","name":"assetId","type":"bytes32"},{"indexed":false,"internalType":"uint256","name":"timestamp","type":"uint256"},{"indexed":false,"internalType":"bool","name":"breached","type":"bool"}],"name":"AutomatedReserveCheckPerformed","type":"event"},{"anonymous":false,"inputs":[{"indexed":true,"internalType":"bytes32","name":"assetId","type":"bytes32"},{"indexed":true,"internalType":"address","name":"sender","type":"address"},{"indexed":true,"internalType":"uint32","name":"destinationDomain","type":"uint32"},{"indexed":false,"internalType":"uint256","name":"amount","type":"uint256"},{"indexed":false,"internalType":"uint64","name":"cctpNonce","type":"uint64"}],"name":"CCTPBurnInitiated","type":"event"},{"anonymous":false,"inputs":[{"indexed":true,"internalType":"bytes32","name":"assetId","type":"bytes32"},{"indexed":true,"internalType":"address","name":"relayer","type":"address"},{"indexed":false,"internalType":"bool","name":"success","type":"bool"}],"name":"CCTPFastMessageRelayed","type":"event"},{"anonymous":false,"inputs":[{"indexed":true,"internalType":"bytes32","name":"assetId","type":"bytes32"},{"indexed":true,"internalType":"address","name":"relayer","type":"address"},{"indexed":false,"internalType":"bool","name":"success","type":"bool"}],"name":"CCTPMessageRelayed","type":"event"},{"anonymous":false,"inputs":[{"indexed":true,"internalType":"bytes32","name":"assetId","type":"bytes32"},{"indexed":true,"internalType":"bytes32","name":"reasonCode","type":"bytes32"},{"indexed":false,"internalType":"uint256","name":"observed","type":"uint256"},{"indexed":false,"internalType":"uint256","name":"threshold","type":"uint256"}],"name":"CircuitBreakerTriggered","type":"event"},{"anonymous":false,"inputs":[{"indexed":true,"internalType":"bytes32","name":"measurement","type":"bytes32"},{"indexed":false,"internalType":"bool","name":"allowed","type":"bool"}],"name":"EnclaveMeasurementUpdated","type":"event"},{"anonymous":false,"inputs":[{"indexed":false,"internalType":"address","name":"issuerKey","type":"address"},{"indexed":false,"internalType":"address","name":"foundationKey","type":"address"},{"indexed":false,"internalType":"address","name":"auditorKey","type":"address"}],"name":"GovernanceKeysUpdated","type":"event"},{"anonymous":false,"inputs":[{"indexed":true,"internalType":"address","name":"timelock","type":"address"},{"indexed":false,"internalType":"uint48","name":"delaySeconds","type":"uint48"}],"name":"GovernanceTimelockConfigured","type":"event"},{"anonymous":false,"inputs":[{"indexed":false,"internalType":"uint64","name":"version","type":"uint64"}],"name":"Initialized","type":"event"},{"anonymous":false,"inputs":[{"indexed":true,"internalType":"address","name":"irisAttester","type":"address"}],"name":"IrisAttesterUpdated","type":"event"},{"anonymous":false,"inputs":[{"indexed":true,"internalType":"bytes32","name":"assetId","type":"bytes32"},{"indexed":false,"internalType":"address[]","name":"signers","type":"address[]"},{"indexed":false,"internalType":"uint8","name":"threshold","type":"uint8"}],"name":"IssuerSignerSet","type":"event"},{"anonymous":false,"inputs":[{"indexed":true,"internalType":"bytes32","name":"actionId","type":"bytes32"},{"indexed":true,"internalType":"address","name":"executor","type":"address"}],"name":"JointUnpauseExecuted","type":"event"},{"anonymous":false,"inputs":[{"indexed":true,"internalType":"bytes32","name":"assetId","type":"bytes32"},{"indexed":true,"internalType":"bytes32","name":"merkleRoot","type":"bytes32"},{"indexed":true,"internalType":"bytes32","name":"reportHash","type":"bytes32"},{"indexed":false,"internalType":"uint64","name":"reportTimestamp","type":"uint64"}],"name":"MerkleAuditRootRecorded","type":"event"},{"anonymous":false,"inputs":[{"indexed":true,"internalType":"bytes32","name":"assetId","type":"bytes32"},{"indexed":true,"internalType":"bytes32","name":"mintOperationId","type":"bytes32"},{"indexed":true,"internalType":"address","name":"recipient","type":"address"},{"indexed":false,"internalType":"uint256","name":"amount","type":"uint256"}],"name":"MintExecuted","type":"event"},{"anonymous":false,"inputs":[{"indexed":false,"internalType":"address","name":"account","type":"address"}],"name":"Paused","type":"event"},{"anonymous":false,"inputs":[{"indexed":true,"internalType":"address","name":"bondToken","type":"address"},{"indexed":false,"internalType":"uint256","name":"requiredBond","type":"uint256"}],"name":"RelayerBondConfigured","type":"event"},{"anonymous":false,"inputs":[{"indexed":true,"internalType":"address","name":"relayer","type":"address"},{"indexed":false,"internalType":"uint256","name":"amount","type":"uint256"},{"indexed":false,"internalType":"uint256","name":"totalBonded","type":"uint256"}],"name":"RelayerBondPosted","type":"event"},{"anonymous":false,"inputs":[{"indexed":true,"internalType":"address","name":"relayer","type":"address"},{"indexed":true,"internalType":"address","name":"recipient","type":"address"},{"indexed":false,"internalType":"uint256","name":"amount","type":"uint256"},{"indexed":false,"internalType":"bytes32","name":"reasonCode","type":"bytes32"}],"name":"RelayerBondSlashed","type":"event"},{"anonymous":false,"inputs":[{"indexed":true,"internalType":"address","name":"relayer","type":"address"},{"indexed":true,"internalType":"address","name":"recipient","type":"address"},{"indexed":false,"internalType":"uint256","name":"amount","type":"uint256"},{"indexed":false,"internalType":"uint256","name":"remainingBond","type":"uint256"}],"name":"RelayerBondWithdrawn","type":"event"},{"anonymous":false,"inputs":[{"indexed":true,"internalType":"bytes32","name":"assetId","type":"bytes32"},{"indexed":false,"internalType":"uint256","name":"reserveAmount18","type":"uint256"},{"indexed":false,"internalType":"uint256","name":"liabilities18","type":"uint256"},{"indexed":false,"internalType":"uint256","name":"deviationBps","type":"uint256"},{"indexed":false,"internalType":"bool","name":"heartbeatStale","type":"bool"}],"name":"ReserveCheckPerformed","type":"event"},{"anonymous":false,"inputs":[{"indexed":true,"internalType":"bytes32","name":"role","type":"bytes32"},{"indexed":true,"internalType":"bytes32","name":"previousAdminRole","type":"bytes32"},{"indexed":true,"internalType":"bytes32","name":"newAdminRole","type":"bytes32"}],"name":"RoleAdminChanged","type":"event"},{"anonymous":false,"inputs":[{"indexed":true,"internalType":"bytes32","name":"role","type":"bytes32"},{"indexed":true,"internalType":"address","name":"account","type":"address"},{"indexed":true,"internalType":"address","name":"sender","type":"address"}],"name":"RoleGranted","type":"event"},{"anonymous":false,"inputs":[{"indexed":true,"internalType":"bytes32","name":"role","type":"bytes32"},{"indexed":true,"internalType":"address","name":"account","type":"address"},{"indexed":true,"internalType":"address","name":"sender","type":"address"}],"name":"RoleRevoked","type":"event"},{"anonymous":false,"inputs":[{"indexed":true,"internalType":"bytes32","name":"assetId","type":"bytes32"},{"indexed":true,"internalType":"address","name":"token","type":"address"},{"indexed":false,"internalType":"enum InstitutionalStablecoinBridge.RoutingType","name":"routingType","type":"uint8"},{"indexed":false,"internalType":"bool","name":"enabled","type":"bool"}],"name":"StablecoinConfigured","type":"event"},{"anonymous":false,"inputs":[{"indexed":true,"internalType":"bytes32","name":"assetId","type":"bytes32"},{"indexed":true,"internalType":"address","name":"account","type":"address"},{"indexed":false,"internalType":"uint256","name":"amount","type":"uint256"},{"indexed":false,"internalType":"bytes32","name":"issuerReference","type":"bytes32"}],"name":"TeeRedemptionRequested","type":"event"},{"anonymous":false,"inputs":[{"indexed":false,"internalType":"address","name":"account","type":"address"}],"name":"Unpaused","type":"event"},{"anonymous":false,"inputs":[{"indexed":true,"internalType":"address","name":"implementation","type":"address"}],"name":"Upgraded","type":"event"},{"inputs":[],"name":"CONFIG_ROLE","outputs":[{"internalType":"bytes32","name":"","type":"bytes32"}],"stateMutability":"view","type":"function"},{"inputs":[],"name":"DEFAULT_ADMIN_ROLE","outputs":[{"internalType":"bytes32","name":"","type":"bytes32"}],"stateMutability":"view","type":"function"},{"inputs":[],"name":"MINTER_ROLE","outputs":[{"internalType":"bytes32","name":"","type":"bytes32"}],"stateMutability":"view","type":"function"},{"inputs":[],"name":"PAUSER_ROLE","outputs":[{"internalType":"bytes32","name":"","type":"bytes32"}],"stateMutability":"view","type":"function"},{"inputs":[],"name":"RELAYER_ROLE","outputs":[{"internalType":"bytes32","name":"","type":"bytes32"}],"stateMutability":"view","type":"function"},{"inputs":[],"name":"UNPAUSER_ROLE","outputs":[{"internalType":"bytes32","name":"","type":"bytes32"}],"stateMutability":"view","type":"function"},{"inputs":[],"name":"UPGRADER_ROLE","outputs":[{"internalType":"bytes32","name":"","type":"bytes32"}],"stateMutability":"view","type":"function"},{"inputs":[],"name":"UPGRADE_INTERFACE_VERSION","outputs":[{"internalType":"string","name":"","type":"string"}],"stateMutability":"view","type":"function"},{"inputs":[],"name":"auditorGovernanceKey","outputs":[{"internalType":"address","name":"","type":"address"}],"stateMutability":"view","type":"function"},{"inputs":[{"internalType":"bytes32","name":"assetId","type":"bytes32"},{"internalType":"uint256","name":"amount","type":"uint256"},{"internalType":"uint32","name":"destinationDomain","type":"uint32"},{"internalType":"bytes32","name":"mintRecipient","type":"bytes32"}],"name":"bridgeOutViaCCTP","outputs":[{"internalType":"uint64","name":"cctpNonce","type":"uint64"}],"stateMutability":"nonpayable","type":"function"},{"inputs":[{"internalType":"bytes","name":"checkData","type":"bytes"}],"name":"checkUpkeep","outputs":[{"internalType":"bool","name":"upkeepNeeded","type":"bool"},{"internalType":"bytes","name":"performData","type":"bytes"}],"stateMutability":"view","type":"function"},{"inputs":[{"internalType":"address","name":"timelock","type":"address"},{"internalType":"uint48","name":"delaySeconds","type":"uint48"}],"name":"configureGovernanceTimelock","outputs":[],"stateMutability":"nonpayable","type":"function"},{"inputs":[{"internalType":"address","name":"bondToken","type":"address"},{"internalType":"uint256","name":"requiredBond","type":"uint256"}],"name":"configureRelayerBonding","outputs":[],"stateMutability":"nonpayable","type":"function"},{"inputs":[{"components":[{"internalType":"bytes32","name":"assetId","type":"bytes32"},{"internalType":"bool","name":"enabled","type":"bool"},{"internalType":"enum InstitutionalStablecoinBridge.RoutingType","name":"routingType","type":"uint8"},{"internalType":"address","name":"token","type":"address"},{"internalType":"address","name":"tokenMessengerV2","type":"address"},{"internalType":"address","name":"messageTransmitterV2","type":"address"},{"internalType":"address","name":"proofOfReserveFeed","type":"address"}],"internalType":"struct InstitutionalStablecoinBridge.ConfigureStablecoinCore","name":"core","type":"tuple"},{"components":[{"internalType":"uint256","name":"mintCeilingPerEpoch","type":"uint256"},{"internalType":"uint256","name":"dailyTxLimit","type":"uint256"},{"internalType":"uint16","name":"hourlyOutflowBps","type":"uint16"},{"internalType":"uint16","name":"dailyOutflowBps","type":"uint16"},{"internalType":"uint16","name":"porDeviationBps","type":"uint16"},{"internalType":"uint48","name":"porHeartbeatSeconds","type":"uint48"}],"internalType":"struct InstitutionalStablecoinBridge.ConfigureStablecoinLimits","name":"limits","type":"tuple"}],"name":"configureStablecoin","outputs":[],"stateMutability":"nonpayable","type":"function"},{"inputs":[],"name":"foundationGovernanceKey","outputs":[{"internalType":"address","name":"","type":"address"}],"stateMutability":"view","type":"function"},{"inputs":[{"internalType":"address","name":"relayer","type":"address"}],"name":"getRelayerBondStatus","outputs":[{"internalType":"uint256","name":"bondedAmount","type":"uint256"},{"internalType":"uint256","name":"requiredBond","type":"uint256"},{"internalType":"address","name":"bondToken","type":"address"}],"stateMutability":"view","type":"function"},{"inputs":[{"internalType":"bytes32","name":"role","type":"bytes32"}],"name":"getRoleAdmin","outputs":[{"internalType":"bytes32","name":"","type":"bytes32"}],"stateMutability":"view","type":"function"},{"inputs":[],"name":"governanceTimelock","outputs":[{"internalType":"address","name":"","type":"address"}],"stateMutability":"view","type":"function"},{"inputs":[{"internalType":"bytes32","name":"role","type":"bytes32"},{"internalType":"address","name":"account","type":"address"}],"name":"grantRole","outputs":[],"stateMutability":"nonpayable","type":"function"},{"inputs":[],"name":"guardianGovernanceKey","outputs":[{"internalType":"address","name":"","type":"address"}],"stateMutability":"view","type":"function"},{"inputs":[{"internalType":"bytes32","name":"role","type":"bytes32"},{"internalType":"address","name":"account","type":"address"}],"name":"hasRole","outputs":[{"internalType":"bool","name":"","type":"bool"}],"stateMutability":"view","type":"function"},{"inputs":[{"internalType":"address","name":"admin","type":"address"},{"internalType":"address","name":"issuerKey","type":"address"},{"internalType":"address","name":"foundationKey","type":"address"},{"internalType":"address","name":"auditorKey","type":"address"}],"name":"initialize","outputs":[],"stateMutability":"nonpayable","type":"function"},{"inputs":[],"name":"irisAttester","outputs":[{"internalType":"address","name":"","type":"address"}],"stateMutability":"view","type":"function"},{"inputs":[{"internalType":"bytes32","name":"measurement","type":"bytes32"}],"name":"isEnclaveMeasurementApproved","outputs":[{"internalType":"bool","name":"","type":"bool"}],"stateMutability":"view","type":"function"},{"inputs":[],"name":"issuerGovernanceKey","outputs":[{"internalType":"address","name":"","type":"address"}],"stateMutability":"view","type":"function"},{"inputs":[],"name":"issuerRecoveryGovernanceKey","outputs":[{"internalType":"address","name":"","type":"address"}],"stateMutability":"view","type":"function"},{"inputs":[{"internalType":"bytes32","name":"","type":"bytes32"}],"name":"issuerThreshold","outputs":[{"internalType":"uint8","name":"","type":"uint8"}],"stateMutability":"view","type":"function"},{"inputs":[],"name":"lastAutomatedCheckTimestamp","outputs":[{"internalType":"uint256","name":"","type":"uint256"}],"stateMutability":"view","type":"function"},{"inputs":[{"internalType":"bytes32","name":"assetId","type":"bytes32"},{"internalType":"address","name":"recipient","type":"address"},{"internalType":"uint256","name":"amount","type":"uint256"},{"internalType":"bytes32","name":"mintOperationId","type":"bytes32"},{"internalType":"bytes32","name":"enclaveMeasurement","type":"bytes32"},{"internalType":"uint256","name":"deadline","type":"uint256"},{"internalType":"bytes[]","name":"issuerSignatures","type":"bytes[]"}],"name":"mintFromAttestedRelayer","outputs":[],"stateMutability":"nonpayable","type":"function"},{"inputs":[{"internalType":"bytes32","name":"assetId","type":"bytes32"}],"name":"monitorReserve","outputs":[],"stateMutability":"nonpayable","type":"function"},{"inputs":[{"internalType":"bytes32","name":"assetId","type":"bytes32"},{"internalType":"bytes32","name":"reasonCode","type":"bytes32"}],"name":"pauseFromCircuitBreaker","outputs":[],"stateMutability":"nonpayable","type":"function"},{"inputs":[],"name":"paused","outputs":[{"internalType":"bool","name":"","type":"bool"}],"stateMutability":"view","type":"function"},{"inputs":[{"internalType":"bytes","name":"performData","type":"bytes"}],"name":"performUpkeep","outputs":[],"stateMutability":"nonpayable","type":"function"},{"inputs":[{"internalType":"uint256","name":"amount","type":"uint256"}],"name":"postRelayerBond","outputs":[],"stateMutability":"nonpayable","type":"function"},{"inputs":[],"name":"proxiableUUID","outputs":[{"internalType":"bytes32","name":"","type":"bytes32"}],"stateMutability":"view","type":"function"},{"inputs":[{"internalType":"bytes32","name":"assetId","type":"bytes32"},{"internalType":"bytes32","name":"merkleRoot","type":"bytes32"},{"internalType":"bytes32","name":"reportHash","type":"bytes32"},{"internalType":"uint64","name":"reportTimestamp","type":"uint64"}],"name":"recordMerkleAuditRoot","outputs":[],"stateMutability":"nonpayable","type":"function"},{"inputs":[{"internalType":"bytes32","name":"assetId","type":"bytes32"},{"internalType":"uint256","name":"amount","type":"uint256"},{"internalType":"bytes32","name":"issuerReference","type":"bytes32"}],"name":"redeemTeeStablecoin","outputs":[],"stateMutability":"nonpayable","type":"function"},{"inputs":[{"internalType":"bytes32","name":"assetId","type":"bytes32"},{"internalType":"bytes","name":"message","type":"bytes"},{"internalType":"bytes","name":"attestation","type":"bytes"},{"internalType":"uint256","name":"deadline","type":"uint256"},{"internalType":"bytes","name":"irisSignature","type":"bytes"}],"name":"relayCCTPFastMessage","outputs":[{"internalType":"bool","name":"success","type":"bool"}],"stateMutability":"nonpayable","type":"function"},{"inputs":[{"internalType":"bytes32","name":"assetId","type":"bytes32"},{"internalType":"bytes","name":"message","type":"bytes"},{"internalType":"bytes","name":"attestation","type":"bytes"}],"name":"relayCCTPMessage","outputs":[{"internalType":"bool","name":"success","type":"bool"}],"stateMutability":"nonpayable","type":"function"},{"inputs":[{"internalType":"bytes32","name":"role","type":"bytes32"},{"internalType":"address","name":"callerConfirmation","type":"address"}],"name":"renounceRole","outputs":[],"stateMutability":"nonpayable","type":"function"},{"inputs":[{"internalType":"bytes32","name":"role","type":"bytes32"},{"internalType":"address","name":"account","type":"address"}],"name":"revokeRole","outputs":[],"stateMutability":"nonpayable","type":"function"},{"inputs":[{"internalType":"bytes32","name":"assetId","type":"bytes32"},{"internalType":"address","name":"module","type":"address"}],"name":"setCircuitBreakerModule","outputs":[],"stateMutability":"nonpayable","type":"function"},{"inputs":[{"internalType":"bytes32","name":"measurement","type":"bytes32"},{"internalType":"bool","name":"allowed","type":"bool"}],"name":"setEnclaveMeasurement","outputs":[],"stateMutability":"nonpayable","type":"function"},{"inputs":[{"internalType":"address","name":"issuerKey","type":"address"},{"internalType":"address","name":"foundationKey","type":"address"},{"internalType":"address","name":"auditorKey","type":"address"}],"name":"setGovernanceKeys","outputs":[],"stateMutability":"nonpayable","type":"function"},{"inputs":[{"internalType":"address","name":"attester","type":"address"}],"name":"setIrisAttester","outputs":[],"stateMutability":"nonpayable","type":"function"},{"inputs":[{"internalType":"bytes32","name":"assetId","type":"bytes32"},{"internalType":"address[]","name":"signers","type":"address[]"},{"internalType":"uint8","name":"threshold","type":"uint8"}],"name":"setIssuerSignerSet","outputs":[],"stateMutability":"nonpayable","type":"function"},{"inputs":[{"internalType":"address","name":"issuerRecoveryKey","type":"address"},{"internalType":"address","name":"guardianKey","type":"address"}],"name":"setSovereignUnpauseKeys","outputs":[],"stateMutability":"nonpayable","type":"function"},{"inputs":[{"internalType":"address","name":"relayer","type":"address"},{"internalType":"bytes32","name":"reasonCode","type":"bytes32"},{"internalType":"address","name":"recipient","type":"address"}],"name":"slashRelayerBond","outputs":[],"stateMutability":"nonpayable","type":"function"},{"inputs":[{"internalType":"bytes32","name":"","type":"bytes32"}],"name":"stablecoins","outputs":[{"internalType":"bool","name":"enabled","type":"bool"},{"internalType":"bool","name":"mintPaused","type":"bool"},{"internalType":"enum InstitutionalStablecoinBridge.RoutingType","name":"routingType","type":"uint8"},{"internalType":"address","name":"token","type":"address"},{"internalType":"address","name":"tokenMessengerV2","type":"address"},{"internalType":"address","name":"messageTransmitterV2","type":"address"},{"internalType":"address","name":"proofOfReserveFeed","type":"address"},{"internalType":"uint256","name":"mintCeilingPerEpoch","type":"uint256"},{"internalType":"uint256","name":"dailyTxLimit","type":"uint256"},{"internalType":"uint16","name":"hourlyOutflowBps","type":"uint16"},{"internalType":"uint16","name":"dailyOutflowBps","type":"uint16"},{"internalType":"uint16","name":"porDeviationBps","type":"uint16"},{"internalType":"uint48","name":"porHeartbeatSeconds","type":"uint48"}],"stateMutability":"view","type":"function"},{"inputs":[{"internalType":"bytes4","name":"interfaceId","type":"bytes4"}],"name":"supportsInterface","outputs":[{"internalType":"bool","name":"","type":"bool"}],"stateMutability":"view","type":"function"},{"inputs":[{"internalType":"bytes32","name":"actionId","type":"bytes32"},{"internalType":"uint256","name":"deadline","type":"uint256"},{"internalType":"bytes[]","name":"signatures","type":"bytes[]"}],"name":"unpauseWithJointSignatures","outputs":[],"stateMutability":"nonpayable","type":"function"},{"inputs":[{"internalType":"address","name":"newImplementation","type":"address"},{"internalType":"bytes","name":"data","type":"bytes"}],"name":"upgradeToAndCall","outputs":[],"stateMutability":"payable","type":"function"},{"inputs":[{"internalType":"bytes32","name":"assetId","type":"bytes32"},{"internalType":"bytes32","name":"leaf","type":"bytes32"},{"internalType":"bytes32[]","name":"proof","type":"bytes32[]"}],"name":"verifyReserveMerkleProof","outputs":[{"internalType":"bool","name":"","type":"bool"}],"stateMutability":"view","type":"function"},{"inputs":[{"internalType":"uint256","name":"amount","type":"uint256"},{"internalType":"address","name":"recipient","type":"address"}],"name":"withdrawRelayerBond","outputs":[],"stateMutability":"nonpayable","type":"function"}],"evm":{"bytecode":{"linkReferences":{},"object":"60a08060405234620000d157306080527ff0c57e16840df040f15088dc2f81fe391c3923bec73e23a9662efc9c229c6a009081549060ff8260401c16620000c257506001600160401b036002600160401b0319828216016200007c575b6040516153819081620000d7823960805181818161265801526127db0152f35b6001600160401b031990911681179091556040519081527fc7f505b2f371ae2175ee4913f4499e1f2633a7b5936321eed1cdaeb6115181d290602090a13880806200005c565b63f92ee8a960e01b8152600490fd5b600080fdfe608080604052600436101561001357600080fd5b600090813560e01c90816301ffc9a714612f2d5750806309ee084814612edd5780631900eb7f14612eb45780631cb278c314612d905780631f23e10514612d67578063248a9ca314612d2d5780632ef1f2ee14612d045780632f2ff15d14612cb757806332479d8014612bd557806336568abe14612b8d5780634585e33b14612a9857806346e11980146129b85780634f1ef2861461278a578063522b10be146126b057806352d1902d146126455780635a19274e146124b35780635c975abb146124835780635e2b7d9c1461245a57806361fb937f1461242d57806367ae6de31461210f5780636e04ff0d146120b65780637a00a7b01461206a5780637a61b02514611b975780637ed5a2b214611a46578063801f17701461198c57806388dbe6741461190057806391d14854146118a7578063926d7d7f1461187e57806397b767be1461182c5780639a1fdd7914611803578063a217fddf146117e7578063a4981ba5146117be578063a4d19feb14611795578063a4f826bf146116c0578063a548b57114611691578063aa3f9dc5146113bc578063ab2cc90a14611243578063ad3cb1cc146111d1578063b368334e14611131578063b3ff18df14611075578063c04ed29c14610f5e578063c533e95d14610f35578063d539139314610f0c578063d547741f14610ebb578063d975a71514610e22578063da4a695514610e04578063ddde95f014610d55578063e3032c9014610c31578063e63ab1e914610c08578063e72bffba14610830578063f65a10d11461056e578063f72c0d8b14610545578063f8c8765e1461029e5763fb1bb9de1461027357600080fd5b3461029b578060031936011261029b5760206040516000805160206152018339815191528152f35b80fd5b503461029b57608036600319011261029b576102b8612f82565b6102c0612f98565b906102c9612fae565b916064356001600160a01b0381811692918390036105405760008051602061534183398151915280549095604082901c60ff16159590916001600160401b03811680159081610538575b600114908161052e575b159081610525575b50610513576001600160401b031981166001178855866104f8575b508281161580156104ee575b80156104e4575b80156104dc575b6104ca57803b15806104be575b806104b2575b6104a05761040f9061037d6137d1565b6103856137d1565b61038d6137d1565b6103956137d1565b6000805160206152a1833981519152805460ff191690556103b46137d1565b6103bc6137d1565b60016000805160206152c1833981519152556103d78161327c565b506103e18161330a565b506103eb81613396565b506103f58161341c565b506103ff816134b4565b506104098161353a565b506135c0565b508160018060a01b0319931683600f541617600f5516816011541617601155601254161760125561127560a71b65ffffffffffff60a01b1960155416176015556969e10de76676d0800000601755610465575080f35b805460ff60401b19169055604051600181527fc7f505b2f371ae2175ee4913f4499e1f2633a7b5936321eed1cdaeb6115181d290602090a180f35b6040516306b7c75960e31b8152600490fd5b5061053946141561036d565b50617a69461415610367565b60405163e6c4247b60e01b8152600490fd5b50841561035a565b5082821615610353565b508284161561034c565b6001600160481b0319166001600160401b0117875538610340565b60405163f92ee8a960e01b8152600490fd5b90501538610325565b303b15915061031d565b889150610313565b600080fd5b503461029b578060031936011261029b5760206040516000805160206151a18339815191528152f35b503461029b5736600319016101a0811261082c5760e01361029b5760c03660e319011261029b5761059e336131fd565b6015546001600160a01b039081168015159081610821575b5061080f57600435801580156107fe575b6104a0576044359160038310156107fa5782156107e85761ffff9061271080836105ef6139d6565b16119081156107d4575b81156107c1575b506104a05760018414610787575b828552846020526040852090610637610625613a0c565b839060ff801983541691151516179055565b81546301000000600160b81b0361064c613994565b610100600160b81b0319909216601088901b62ff0000161760189290921b161782556106766139aa565b6001830180549183166001600160a01b03199283161790556106966139c0565b826002850191168282541617905560c43582811680910361054057600384019182541617905560e435600483015561010435600583015560066106d76139d6565b920180549263ffff00006106e96139e8565b60101b1661ffff60201b6106fb6139fa565b60201b1690610184359565ffffffffffff87168703610783577f2553f3fc52017d501d27d572a510d4ebb2d09556eb79c29f2463dfe65ba44ae39760409765ffffffffffff60301b9060301b1694169060018060601b031916171717179055610762613994565b61076a613a0c565b610776845180986130ca565b151560208701521693a380f35b8a80fd5b806107906139aa565b161580156107b0575b1561060e576040516306b7c75960e31b8152600490fd5b50806107ba6139c0565b1615610799565b9050826107cc6139fa565b161138610600565b809150836107e06139e8565b1611906105f9565b60405163090b223b60e21b8152600490fd5b8380fd5b5081610808613994565b16156105c7565b6040516399f26d5b60e01b8152600490fd5b9050331415386105b6565b5080fd5b503461029b57606036600319011261029b576024356044356001600160401b038111610c045761086490369060040161312d565b33600090815260008051602061530183398151915260205260409020549192916000805160206152018339815191529060ff1615610be6575060ff6000805160206152a18339815191525416156104a057428210610bd4576004358452600660205260ff604085205416610bc2576010546001600160a01b03169182158015610baf575b6104a057600382108015610ba5575b610ab25761094c9060405160208101917fe851404a3a159d9c74bb4edd28137539775f1efaf488a588e5fa3d4410d484b08352600435604083015260608201526060815261094481613004565b519020614b5c565b906040516109598161303a565b60058152602081019360a036863760018060a01b03600f541694825115610b8f57859052815160011015610b8f5780604083015260018060a01b0360115416825160021015610b8f57606083015260018060a01b0360125416825160031015610b8f57608083015260018060a01b0360135416825160041015610b8f5760a08301526000946000966109ea85613b46565b90885b868110610acd578a60038a108b8115610ac4575b50610ab257600435815260066020526040812060ff19906001828254161790556000805160206152a18339815191525460ff811615610aa057166000805160206152a1833981519152557f5db9ee0a495bf2e6ff9c91a7834c1ba4fdd244a5e8aa4e537bd38aeae4b073aa6020604051338152a1336004357f0f88cc02e193b76523c78992e91af1fe48496b38a6354dcdd2264cda036001bf8380a380f35b604051638dfc202b60e01b8152600490fd5b604051638baa579f60e01b8152600490fd5b90501582610a01565b8060051b820135601e19833603018112156105405782018035906001600160401b0382116105405760200190803603821361054057610b0c918a614c1e565b98610b198751888c613bb9565b15610b8457610b2981858c613bb9565b610b845780610b3b610b4f9286613b78565b6001600160a01b03909b169a8b9052613a1b565b9885858214918215610b7a575b5050610b71575b610b6c90613a1b565b6109ed565b60019950610b63565b1490508538610b5c565b9850610b6c90613a1b565b634e487b7160e01b600052603260045260246000fd5b50600582116108f7565b506013546001600160a01b0316156108e8565b604051632fbdc8ad60e11b8152600490fd5b6040516339b9939160e21b8152600490fd5b6044906040519063e2517d3f60e01b82523360048301526024820152fd5b8280fd5b503461029b578060031936011261029b5760206040516000805160206152418339815191528152f35b503461029b57604036600319011261029b57600435610c4e612f98565b90610c58336131bc565b610c60613830565b6001600160a01b03828116928315610d43578215610d3157816016541615610d1f57338552600e6020526040852054838110610d0d5783610ca091613800565b916017548310610d0d57610cc7918491338852600e6020528460408920556016541661395f565b60405191825260208201527f3850739c98a575863cbec9ae6f1701b93bd8b99ffad9a1c65a373dd832826c9f60403392a360016000805160206152c18339815191525580f35b60405163bb26bf9d60e01b8152600490fd5b6040516356c9878560e11b8152600490fd5b60405163162908e360e11b8152600490fd5b604051634e46966960e11b8152600490fd5b503461029b57604036600319011261029b57610d6f612f82565b60243590610d7c336131fd565b6015546001600160a01b03919082168015159081610df9575b5061080f57169081156104ca576969e10de76676d080000081106104a057601680546001600160a01b0319168317905560178190556040519081527f7ba3e3db9c7f11f2fe7b0956184eeaf60b04f790d017269757fd30ff39659efc90602090a280f35b905033141538610d95565b503461029b578060031936011261029b576020601854604051908152f35b503461029b57604036600319011261029b57600435610e3f612f98565b90610e49336131fd565b6015546001600160a01b03919082168015159081610eb0575b5061080f578084528360205281604085205460181c1615610e9e578352600d6020526040832080546001600160a01b0319169190921617905580f35b60405163981a2a2b60e01b8152600490fd5b905033141538610e62565b503461029b57604036600319011261029b57610f08600435610edb612f98565b90808452600080516020615281833981519152602052610f036001604086200154339061323e565b6136bb565b5080f35b503461029b578060031936011261029b5760206040516000805160206152618339815191528152f35b503461029b578060031936011261029b576011546040516001600160a01b039091168152602090f35b503461029b57604036600319011261029b57610f78612f82565b610f80612f98565b90610f8a336131fd565b6015546001600160a01b0391908216801515908161106a575b5061080f5781169182158015611060575b6104ca5781600f5416808414908115611052575b8115611044575b8115611038575b508015611029575b801561101a575b801561100f575b6104a05760018060a01b0319928360105416176010551690601354161760135580f35b508181168314610fec565b50816012541682821614610fe5565b50816011541682821614610fde565b90508282161438610fd6565b601254841685149150610fcf565b601154841685149150610fc8565b5081811615610fb4565b905033141538610fa3565b503461029b57606036600319011261029b576001600160401b03906004359060243583811161082c576110ac903690600401612fc4565b93909160443591821161029b5750926110fa916110cf6020953690600401612fc4565b9290916110db336131bc565b6110e433613b8c565b6110ec613a65565b6110f58661433a565b6143e1565b604051901515918282527f4b29df9d5bbfc2633516ba708a02acc9114d6dcbde488b5e16e75841c0366936843393a3604051908152f35b503461029b57604036600319011261029b57600435602435801515908181036107fa5761115d336131fd565b6015546001600160a01b031680151590816111c6575b5061080f577fb88da9eadf7bec23c2087269e8a013078dc5341ba7f389fe6ea014199f59112a916111bc60209285875260048452604087209060ff801983541691151516179055565b604051908152a280f35b905033141538611173565b503461029b578060031936011261029b5760408051908101906001600160401b0382118183101761122d576112299160405260058152640352e302e360dc1b60208201526040519182916020835260208301906130ed565b0390f35b634e487b7160e01b600052604160045260246000fd5b503461029b5760a036600319011261029b576001600160401b03906004359060243583811161082c5761127a903690600401612fc4565b90936044358181116107fa57611294903690600401612fc4565b9290916064359460843591821161029b57506112b4903690600401612fc4565b6112bd336131bc565b6112c633613b8c565b6112ce613a65565b6112d78761433a565b9560018060a01b039182601454169384156104a057428310610bd45761136e8a611373946113078e8a3691613093565b602081519101209061131a368d8d613093565b602081519101206040519260208401947f6a5bd257d1158833d74c8d0a3c95f90438ff79a596ec607f4a4dcc721a0de92e865260408501526060840152608083015260a082015260a081526109448161303a565b614c1e565b1603610ab257602095611385946143e1565b604051901515918282527f1d9b9d96895678087a5543fe8c53e4cc70afbaddd792e1e5510631e401fc26d5843393a3604051908152f35b503461029b57606036600319011261029b57600435602480356001600160401b0381116107fa576113f190369060040161312d565b90926044359060ff9485831680930361168d5781158015611685575b6104a0576015546001600160a01b0393908416801561166657330361080f575b6005851480159061165b575b6104a05782885260029460209580875260408a20978a5b895481101561149857868c526001895260408c20611493919089611474838e613a2a565b90549060031b1c166000528a52604060002060ff198154169055613a1b565b611450565b50908a96949792918a878952828552604089208054908a81558161163e575b5050889693965b878110611551575050505084865260038252604086208360ff19825416179055604051938060408601604087525260608501979187905b82821061152d5788887fa25a820e9f6ba0b2abfcd9114f461d047f57117ab520dc6cadd3c9388695ef4989808e8b8b8301520390a280f35b909192988935908282168092036105405790815284019884019291600101906114f5565b61155f81898d9a979a613a55565b358881168091036105405780156104ca57886011541681148015611631575b8015611624575b6104a057898b52600180885260408c2082600052885283604060002054166104a0578a8c528088526040808d206000848152908a52819020805460ff1916831790558b8d528689528c20805491600160401b83101561161157820181556116099392916115f191613a2a565b8b829392549160031b92831b921b1916179055613a1b565b9693966114be565b634e487b7160e01b8e526041600452868efd5b5088601354168114611585565b508860125416811461157e565b8a52858a20908101905b818110156114b7578a8155600101611648565b506003811415611439565b5083600f541633031561142d57604051638baa579f60e01b8152600490fd5b50831561140d565b8680fd5b503461029b57602036600319011261029b5760ff60406020926004358152600484522054166040519015158152f35b503461029b57604036600319011261029b576004356116de3361315d565b6015546001600160a01b0316801515908161178a575b5061080f57806000526000602052604060002061010061ff00198254161790556000805160206152a1833981519152805460ff811615611759575b5050604051906001825260016020830152600080516020615121833981519152604060243593a380f35b600190611764613a65565b60ff19161790556000805160206152e18339815191526020604051338152a1388061172f565b9050331415386116f4565b503461029b578060031936011261029b5760206040516000805160206151818339815191528152f35b503461029b578060031936011261029b576012546040516001600160a01b039091168152602090f35b503461029b578060031936011261029b57602090604051908152f35b503461029b578060031936011261029b576015546040516001600160a01b039091168152602090f35b503461029b57602036600319011261029b5760043561184a3361315d565b808252816020526040822060ff81541615610e9e5760038101546001600160a01b0316156104a05761187b91613e06565b80f35b503461029b578060031936011261029b5760206040516000805160206151418339815191528152f35b503461029b57604036600319011261029b5760406118c3612f98565b916004358152600080516020615281833981519152602052209060018060a01b0316600052602052602060ff604060002054166040519015158152f35b503461029b57602036600319011261029b5761191a612f82565b611923336131fd565b6015546001600160a01b03919082168015159081611981575b5061080f571680156104ca57601480546001600160a01b031916821790557f8b2076b12e56028bcd776cba4be97dbc80b49838308a6f70b2be8d72a938eb478280a280f35b90503314153861193c565b503461029b57604036600319011261029b576119a6612f82565b6024359065ffffffffffff8216908183036107fa576119c4336131fd565b6001600160a01b03169182156104ca5762093a808210611a3457601580546001600160d01b031916841760a09290921b65ffffffffffff60a01b169190911790556040519081527f2af330feba9cff0abeda1f9e0d8b9ffda51eb6d3959ca9e39b6d89edd3ee054990602090a280f35b60405163010a67d160e11b8152600490fd5b503461029b57606036600319011261029b57611a60612f82565b611a68612f98565b90611a71612fae565b91611a7b336131fd565b6015546001600160a01b03929083168015159081611b8c575b5061080f5782169081158015611b82575b8015611b78575b6104ca5782601054168015159081611b6e575b506104a05782601354168015159081611b3c575b506104a0577fb07dd9fe97ca554077fd819f53391e89d1c7f37ee7811be76fe27d0f3ab9aef2938360609460018060a01b0319938585600f541617600f55169182846011541617601155168092601254161760125560405192835260208301526040820152a180f35b83811491508115611b62575b8115611b56575b5038611ad3565b90508385161438611b4f565b82851681149150611b48565b9050821438611abf565b5082841615611aac565b5082811615611aa5565b905033141538611a94565b503461029b5760e036600319011261029b57611bb1612f98565b60c4356001600160401b038111610c0457611bd090369060040161312d565b611bd9336131bc565b611be233613b8c565b611bea613a65565b611bf2613830565b611bfd60043561438a565b9160ff835460081c16612058576001600160a01b03841615610d435760443515610d31574260a43510610bd4576084358552600460205260ff60408620541615612046576040516004356020820152606435604082015260408152611c618161301f565b60208151910120808652600560205260ff604087205416610bc2578552600560209081526040808720805460ff1916600117905560043587528682528087206007909252862080546201518042046001600160401b0390811691908116829003612024575b5050611cd86044356001830154613823565b90611ce96044356002830154613823565b926004810154801515908161201a575b5061200857600501548015159081611ffe575b50611fec5760029160018201550155611d2a60443584600435614174565b611d38604435600435613c21565b6040517f4f43586f4bc4e2854d05029b51443c943b264262f53210ef6b52e2b170e202276020820152600435604082015260018060a01b0385166060820152604435608082015260643560a082015260843560c082015260a43560e082015260e081528061010081011060018060401b036101008301111761122d57610100810160405260208151910120916004358652600360205260ff6040872054169283156104a057611de990929192614b5c565b6004358752600260205260408720928354611e0381613b46565b94895b828110611faf57505050600093611e1c82613b46565b9085945b838610611f045750505050505010611ef25754829060181c6001600160a01b0316803b1561082c578160405180926340c10f1960e01b8252818381611e6b6044358a60048401613944565b03925af18015611ee757611ed3575b505060405160443581526001600160a01b039091169060643590600435907fcbeb0728b0714ddb330bd3e112709eaafeededf4fec93e3dc7af4749f1552d7390602090a460016000805160206152c18339815191525580f35b611edc90612ff1565b61082c578138611e7a565b6040513d84823e3d90fd5b604051631c84784160e11b8152600490fd5b909192939495601e19823603018760051b830135121561054057600587901b82013582018035906001600160401b0382116105405760200190803603821361054057611f509188614c1e565b611f5c84518583613bb9565b15611fa457611f6c828683613bb9565b611fa45781611f9491611f82611f9a9488613b78565b6001600160a01b039091169052613a1b565b96613a1b565b9493929190611e20565b5095611f9a90613a1b565b80611fc1611fe3928498969798613a2a565b905460039190911b1c6001600160a01b0316611fdd828a613b78565b52613a1b565b94939294611e06565b6040516334304bd960e11b8152600490fd5b9050831138611d0c565b604051633b9ca82d60e01b8152600490fd5b9050831138611cf9565b6001600160401b03191617815560018101879055600281018790553880611cc6565b604051631adccb3760e31b8152600490fd5b60405163bff8ac7560e01b8152600490fd5b503461029b57606036600319011261029b57604435906001600160401b03821161029b5760206120ac6120a0366004860161312d565b90602435600435613a90565b6040519015158152f35b503461029b57602036600319011261029b57600435906001600160401b03821161029b576120f06120ea3660048501612fc4565b90614d51565b90611229604051928392151583526040602084015260408301906130ed565b503461029b57608036600319011261029b576004356024918235926044359163ffffffff831680930361029b57612144613a65565b61214c613830565b6121558461433a565b908515610d315760018060a01b0380835460181c1693604051916370a0823160e01b8084523060048501526020998a8585818b5afa9485156124225786956123f1575b506121a59030338a613860565b604051908152306004820152898184818a5afa9081156123e65788928b9492879283916123a9575b506121dd60849596978392613800565b9960018a01908b8383541691878b88806040519561221e87612210868201938b63095ea7b360e01b998a87528401613944565b03601f198101895288613055565b86519082875af161222d61373e565b81612379575b508061236f575b15612334575b50505050505416975460181c169660405197889586946337e9a82760e11b86528b6004870152850152606435604485015260648401525af19182156123275781926122e6575b5050612292828561446e565b60405191825260018060401b03169283858301527f49e4a5d7c04158beb01b5e4366f5cac760d42896014a75d9c8b3e40587cc840e60403393a460016000805160206152c183398151915255604051908152f35b9091508581813d8311612320575b6122fe8183613055565b8101031261082c5751906001600160401b038216820361029b57503880612286565b503d6122f4565b50604051903d90823e3d90fd5b6123659461236092604051928301528a8201528860448201526044815261235a81613004565b826138d2565b6138d2565b388080808b612240565b50823b151561223a565b80518015925083908315612391575b50505038612233565b6123a193508201810191016138ba565b388281612388565b9694505093905084813d83116123df575b6123c48183613055565b810103126105405792519092899288928691906121dd6121cd565b503d6123ba565b6040513d87823e3d90fd5b9094508a81813d831161241b575b6124098183613055565b810103126105405751936121a5612198565b503d6123ff565b6040513d88823e3d90fd5b503461029b57602036600319011261029b5760ff6040602092600435815260038452205416604051908152f35b503461029b578060031936011261029b576010546040516001600160a01b039091168152602090f35b503461029b578060031936011261029b57602060ff6000805160206152a183398151915254166040519015158152f35b503461029b5760208060031936011261082c576004356124d2336131bc565b6124da613830565b6016546001600160a01b03908116908115610d1f578215610d3157604051906370a0823160e01b938483523060048401528583602481875afa93841561263a5786938895612605575b50906125329130903390613860565b601654169260246040518095819382523060048301525afa80156125fa5784906125cb575b6125619250613800565b90338352600e815260408320612578838254613823565b9055338352600e81526040832054906040519283528201527f1873deeb1cbada6199a555331a9c965443c96f9554c1d737b325ffe2703aad7060403392a260016000805160206152c18339815191525580f35b508282813d83116125f3575b6125e18183613055565b81010312610540576125619151612557565b503d6125d7565b6040513d86823e3d90fd5b848193959296503d8311612633575b61261e8183613055565b81010312610540575192859290612532612523565b503d612614565b6040513d89823e3d90fd5b503461029b578060031936011261029b577f00000000000000000000000000000000000000000000000000000000000000006001600160a01b0316300361269e5760206040516000805160206151c18339815191528152f35b60405163703e46dd60e11b8152600490fd5b503461029b57602036600319011261029b5760406101a0916004358152806020522065ffffffffffff81549160018060a01b03908160018201541682600283015416836003840154169060048401549260066005860154950154956040519860ff811615158a5260ff8160081c16151560208b015261273860408b0160ff8360101c166130ca565b60181c166060890152608088015260a087015260c086015260e085015261010084015261ffff808216610120850152808260101c166101408501528160201c1661016084015260301c16610180820152f35b50604036600319011261029b5761279f612f82565b60249182356001600160401b03811161082c573660238201121561082c576127d09036908581600401359101613093565b6001600160a01b03927f0000000000000000000000000000000000000000000000000000000000000000841630811490811561299c575b5061269e5733600090815260008051602061532183398151915260209081526040909120549094906000805160206151a18339815191529060ff161561297f57508116936040516352d1902d60e01b81528181600481895afa85918161294c575b5061288557604051634c9c8ce360e01b8152600481018790528790fd5b8590876000805160206151c1833981519152918281036129375750843b15612921575080546001600160a01b031916821790556040518592917fbc7cd75a20ee27fd9adebab32041f755214dbc6bffa90cc0225b39da2e5c2d3b8480a284511561290457508351610f0894839201845af46128fe61373e565b9161376e565b935050505034612912575080f35b63b398979f60e01b8152600490fd5b604051634c9c8ce360e01b815260048101849052fd5b60405190632a87526960e21b82526004820152fd5b9091508281813d8311612978575b6129648183613055565b8101031261297457519038612868565b8580fd5b503d61295a565b866044916040519163e2517d3f60e01b8352336004840152820152fd5b9050846000805160206151c18339815191525416141538612807565b503461029b57606036600319011261029b576129d2612f82565b6129da612fae565b6129e33361315d565b6129eb613830565b6001600160a01b039182169081156104ca57828116928315610d4357806016541615610d1f57828552600e60205260408520548015612a8657612a63817f9bab352d80e4f1e3f2f2cf88f1a6ea107543e5036e0ad6b0ced13482ccf1fa3094604094878a52600e60205289868120556016541661395f565b81519081526024356020820152a360016000805160206152c18339815191525580f35b60405163054c1de160e11b8152600490fd5b503461029b5760208060031936011261082c576004356001600160401b038111610c0457612acd612ad5913690600401612fc4565b810190614cd8565b90825b8251811015612b855780612aef612b6c9285613b78565b51855284835260408520805460ff908180821615918215612b78575b5050612b715760407fd38b9eacadc0f98c8515240c1603e55e1687e192c3d815bf7f252ff5b9179fe191612b4984612b43878b613b78565b51613e06565b612b538589613b78565b51935460081c16815190428252151587820152a2613a1b565b612ad8565b5050613a1b565b60081c1690508138612b0b565b834260185580f35b503461029b57604036600319011261029b57612ba7612f98565b336001600160a01b03821603612bc357610f08906004356136bb565b60405163334bd91960e11b8152600490fd5b503461029b57606036600319011261029b57602435600435612bf5613a65565b612bfd613830565b612c068161438a565b8215610d31575460181c6001600160a01b0316803b156107fa5783604051809263079cc67960e41b8252818381612c41893360048401613944565b03925af180156125fa57612ca4575b50612c5b828261446e565b60405191825260443560208301527fcdbc456bc1831269ded58b25cb0f590e6104a97f5f91c93826936d663ed498b660403393a360016000805160206152c18339815191525580f35b612cb090939193612ff1565b9138612c50565b503461029b57604036600319011261029b57610f08600435612cd7612f98565b90808452600080516020615281833981519152602052612cff6001604086200154339061323e565b613646565b503461029b578060031936011261029b576014546040516001600160a01b039091168152602090f35b503461029b57602036600319011261029b576001604060209260043581526000805160206152818339815191528452200154604051908152f35b503461029b578060031936011261029b57600f546040516001600160a01b039091168152602090f35b503461029b57608036600319011261029b576044356024356004356064356001600160401b038181169182900361297457612dca3361315d565b8286526020869052604086205460181c6001600160a01b031615610e9e5783158015612eac575b6104a057604051906080820182811082821117612e98576040908152858352602080840188815284830186815242851660608701908152888c52600c8452848c20965187559151600187015551600290950180549151600160401b600160801b0390851b16959094166001600160801b03199091161793909317909155519182527f1359314fda8ad3ed79217ab5fb96c2d792691faacbef29d940d7607304536f9b91a480f35b634e487b7160e01b88526041600452602488fd5b508415612df1565b503461029b578060031936011261029b576013546040516001600160a01b039091168152602090f35b503461029b57602036600319011261029b576060906001600160a01b039060409082612f07612f82565b168152600e60205220549060175490601654169060405192835260208301526040820152f35b90503461082c57602036600319011261082c5760043563ffffffff60e01b8116809103610c045760209250637965db0b60e01b8114908115612f71575b5015158152f35b6301ffc9a760e01b14905038612f6a565b600435906001600160a01b038216820361054057565b602435906001600160a01b038216820361054057565b604435906001600160a01b038216820361054057565b9181601f84011215610540578235916001600160401b038311610540576020838186019501011161054057565b6001600160401b03811161122d57604052565b608081019081106001600160401b0382111761122d57604052565b606081019081106001600160401b0382111761122d57604052565b60c081019081106001600160401b0382111761122d57604052565b601f909101601f19168101906001600160401b0382119082101761122d57604052565b6001600160401b03811161122d57601f01601f191660200190565b92919261309f82613078565b916130ad6040519384613055565b829481845281830111610540578281602093846000960137010152565b9060038210156130d75752565b634e487b7160e01b600052602160045260246000fd5b919082519283825260005b848110613119575050826000602080949584010152601f8019910116010190565b6020818301810151848301820152016130f8565b9181601f84011215610540578235916001600160401b038311610540576020808501948460051b01011161054057565b6001600160a01b031660008181526000805160206151e183398151915260205260409020546000805160206152418339815191529060ff161561319e575050565b604492506040519163e2517d3f60e01b835260048301526024820152fd5b6001600160a01b0316600081815260008051602061522183398151915260205260409020546000805160206151418339815191529060ff161561319e575050565b6001600160a01b0316600081815260008051602061516183398151915260205260409020546000805160206151818339815191529060ff161561319e575050565b8060005260008051602061528183398151915260205260406000209160018060a01b0316918260005260205260ff604060002054161561319e575050565b6001600160a01b031660008181527fb7db2dd08fcb62d0c9e08c51941cae53c267786a0b75803fb7960902fc8ef97d60205260408120549091906000805160206152818339815191529060ff16613305578280526020526040822081835260205260408220600160ff1982541617905533916000805160206151018339815191528180a4600190565b505090565b6001600160a01b031660008181526000805160206151618339815191526020526040812054909190600080516020615181833981519152906000805160206152818339815191529060ff16613390578184526020526040832082845260205260408320600160ff19825416179055600080516020615101833981519152339380a4600190565b50505090565b6001600160a01b031660008181526000805160206151e18339815191526020526040812054909190600080516020615241833981519152906000805160206152818339815191529060ff16613390578184526020526040832082845260205260408320600160ff19825416179055600080516020615101833981519152339380a4600190565b6001600160a01b031660008181527f549fe2656c81d2947b3b913f0a53b9ea86c71e049f3a1b8aa23c09a8a05cb8d46020526040812054909190600080516020615261833981519152906000805160206152818339815191529060ff16613390578184526020526040832082845260205260408320600160ff19825416179055600080516020615101833981519152339380a4600190565b6001600160a01b031660008181526000805160206152218339815191526020526040812054909190600080516020615141833981519152906000805160206152818339815191529060ff16613390578184526020526040832082845260205260408320600160ff19825416179055600080516020615101833981519152339380a4600190565b6001600160a01b031660008181526000805160206153018339815191526020526040812054909190600080516020615201833981519152906000805160206152818339815191529060ff16613390578184526020526040832082845260205260408320600160ff19825416179055600080516020615101833981519152339380a4600190565b6001600160a01b0316600081815260008051602061532183398151915260205260408120549091906000805160206151a1833981519152906000805160206152818339815191529060ff16613390578184526020526040832082845260205260408320600160ff19825416179055600080516020615101833981519152339380a4600190565b9060009180835260008051602061528183398151915280602052604084209260018060a01b03169283855260205260ff60408520541615600014613390578184526020526040832082845260205260408320600160ff19825416179055600080516020615101833981519152339380a4600190565b9060009180835260008051602061528183398151915280602052604084209260018060a01b03169283855260205260ff60408520541660001461339057818452602052604083208284526020526040832060ff1981541690557ff6391f5c32d9c69d2a47ea670b442974b53935d1edc7fd64eb21e047a839171b339380a4600190565b3d15613769573d9061374f82613078565b9161375d6040519384613055565b82523d6000602084013e565b606090565b90613795575080511561378357805190602001fd5b604051630a12f52160e11b8152600490fd5b815115806137c8575b6137a6575090565b604051639996b31560e01b81526001600160a01b039091166004820152602490fd5b50803b1561379e565b60ff6000805160206153418339815191525460401c16156137ee57565b604051631afcd79f60e31b8152600490fd5b9190820391821161380d57565b634e487b7160e01b600052601160045260246000fd5b9190820180921161380d57565b6000805160206152c1833981519152600281541461384e5760029055565b604051633ee5aeb560e01b8152600490fd5b6040516323b872dd60e01b60208201526001600160a01b03928316602482015292909116604483015260648083019390935291815260a08101918183106001600160401b0384111761122d576138b8926040526138d2565b565b90816020910312610540575180151581036105405790565b6000806138fb9260018060a01b03169360208151910182865af16138f461373e565b908361376e565b8051908115159182613929575b50506139115750565b60249060405190635274afe760e01b82526004820152fd5b61393c92506020809183010191016138ba565b153880613908565b6001600160a01b039091168152602081019190915260400190565b6123606138b8939261398660405194859263a9059cbb60e01b602085015260248401613944565b03601f198101845283613055565b6064356001600160a01b03811681036105405790565b6084356001600160a01b03811681036105405790565b60a4356001600160a01b03811681036105405790565b6101243561ffff811681036105405790565b6101443561ffff811681036105405790565b6101643561ffff811681036105405790565b60243580151581036105405790565b600019811461380d5760010190565b8054821015610b8f5760005260206000200190600090565b8181029291811591840414171561380d57565b9190811015610b8f5760051b0190565b60ff6000805160206152a18339815191525416613a7e57565b60405163d93c066560e01b8152600490fd5b929190926000526020600c815260408060002054948515613b2457939291906000935b808510613ac35750505050501490565b9091929394613b0190613ad7878488613a55565b35808211613b0a5784519086820192835285820152848152613af88161301f565b51902095613a1b565b93929190613ab3565b9084519086820192835285820152848152613af88161301f565b505050505050600090565b6001600160401b03811161122d5760051b60200190565b90613b5082613b2f565b613b5d6040519182613055565b8281528092613b6e601f1991613b2f565b0190602036910137565b8051821015610b8f5760209160051b010190565b6016546001600160a01b039190821615610d1f5716600052600e60205260406000205460175411610d0d57565b9060005b838110613bcd5750505050600090565b6001600160a01b0380613be08385613b78565b511690841614613bf857613bf390613a1b565b613bbd565b50505050600190565b8115613c0b570490565b634e487b7160e01b600052601260045260246000fd5b600091818352602090600d825260409360018060a01b038582205416918215613d9c57823b1561082c57855190630486713b60e21b82526004820152818160248183875af18015613d9257908491613d80575b5085516358c3de9360e11b81529192829060049082905afa918215613d755791613d48575b50613ca357505050565b7ffd34503c00cfbc5a0eea075a7727749d184d460bbe6ba12c88c5f98b61479495926000805160206151218339815191529183600052600081528160002061010061ff00198254161790556000805160206152a1833981519152805460ff811615613d19575b50506001825191818352820152a3565b600190613d24613a65565b60ff19161790556000805160206152e1833981519152818351338152a13880613d09565b613d689150823d8411613d6e575b613d608183613055565b8101906138ba565b38613c99565b503d613d56565b8551903d90823e3d90fd5b91613d8c600493612ff1565b91613c74565b86513d84823e3d90fd5b505050505050565b51906001600160501b038216820361054057565b908160a091031261054057613dcc81613da4565b91602082015191604081015191613dea608060608401519301613da4565b90565b90816020910312610540575160ff811681036105405790565b6003820180549192916001600160a01b0391908216801561416d5760049360a0604092835196878092633fabe5a360e21b82525afa928315614162576000958694614129575b5060008613156140e9578490541694825195869563313ce56760e01b918288528760046020998a935afa9788156140bf576000986140ca575b50835460181c1696845191825286826004818b5afa9182156140bf57908791600093614089575b50613eba9060049394614b07565b978551928380926318160ddd60e01b82525afa90811561407e57600091614050575b50600691613ee991614b07565b9101549365ffffffffffff8560301c16801515948561403b575b505060009386831180614032575b613fcf575b916080959391836000805160206153618339815191529896949581159687613fc0575b613f54575b50508251958652850152830152156060820152a2565b613f8e9115613f95578561ffff7fae90404c71d3e50c5bf36b24ae1a55adb402e23120e6dbc8a1f9728cbadbfdf8925b851c16918c614a6d565b3880613f3e565b8561ffff7fa189dcf700501e22416bbb3e259ddb902ecce84e6641e781e0b0477ea305667992613f84565b5061ffff81841c168611613f39565b93613fda8784613800565b906127109182810292818404149015171561401e575091608095939161401182600080516020615361833981519152999795613c01565b9597509193955091613f16565b634e487b7160e01b81526011600452602490fd5b50821515613f11565b614046929550613823565b4211923880613f03565b908682813d8311614077575b6140668183613055565b8101031261029b5750516006613edc565b503d61405c565b84513d6000823e3d90fd5b60049350906140b0613eba92843d86116140b8575b6140a88183613055565b810190613ded565b935090613eac565b503d61409e565b85513d6000823e3d90fd5b6140e2919850873d89116140b8576140a88183613055565b9638613e85565b5050905060008051602061536183398151915292506080915061410b846149c1565b612710815191600083526000602084015282015260016060820152a2565b90935061414e91955060a03d811161415b575b6141468183613055565b810190613db8565b5096925050949238613e4c565b503d61413c565b82513d6000823e3d90fd5b5050505050565b6003820180549193926001600160a01b03928316908115613d9c5760049460a0604093845197888092633fabe5a360e21b82525afa93841561432f576000968795614306575b5060008713156142e35785905416908351809663313ce56760e01b9384835282600460209a8b935afa9182156142b9576000926142c4575b50845460181c1697855193845287846004818c5afa9384156142b9579088929160009561428f575b506004929161422891614b07565b988651928380926318160ddd60e01b82525afa9081156140bf57600091614260575b509161425b613ee992600694613823565b614b07565b908782813d8311614288575b6142768183613055565b8101031261029b57505161425b61424a565b503d61426c565b614228919550916142af84936004953d86116140b8576140a88183613055565b959150919261421a565b86513d6000823e3d90fd5b6142dc919250883d8a116140b8576140a88183613055565b90386141f2565b505050905060008051602061536183398151915292506080915061410b846149c1565b90945061432291965060a03d811161415b576141468183613055565b50979250509593386141ba565b83513d6000823e3d90fd5b61434390614370565b9060ff825460101c1660038110156130d75760010361435e57565b60405163cc82bd6960e01b8152600490fd5b600052600060205260406000209060ff82541615610e9e57565b61439390614370565b9060ff825460101c1660038110156130d7576002036143ae57565b604051632576584160e11b8152600490fd5b908060209392818452848401376000828201840152601f01601f1916010190565b9060006144229361443460209694600260018060a01b03910154169460405198899788968795630afd9fa560e31b87526040600488015260448701916143c0565b848103600319016024860152916143c0565b03925af19081156144625760009161444a575090565b613dea915060203d8111613d6e57613d608183613055565b6040513d6000823e3d90fd5b60009181835260209183835260409081852091600785528086209060026201518042049260018060401b038085169081835491821603614684575b5050016144b7868254613823565b80915560058501548015158061467b575b6145d55750506138b896610e1042046030810693600e810691868452600a8a528484208685528a528085852054036145a8575b50858352600b8952838320828452895280848420540361457b575b5084825260088852828220848352885261454f6145368885852054613823565b9786845260098a528484208385528a5284842054613823565b9788948684526008825284842090845281528784842055858352600981528383209183525220556146a5565b858352600b8952838320828452895283832055848252600988528282208183528852818381205538614516565b868452600a8a528484208685528a52848420558583526008895283832085845289528284812055386144fb565b9250929590600080516020615121833981519152955080945087877f5434e111b71ee141086cd80149f7ca54aaa084db1210a87431468e97a07c84b199528083522061010061ff00198254161790556000805160206152a1833981519152805460ff81161561464c575b50508351928352820152a3565b600190614657613a65565b60ff19161790556000805160206152e1833981519152818551338152a1388061463f565b508082116144c8565b6001600160401b0319161781556001810189905581810189905538806144a9565b81546040805163313ce56760e01b815292959094909360209360049360181c6001600160a01b031685828681845afa91821561499757859187916000946149a2575b5089516318160ddd60e01b815292839182905afa8015614997578290600090614965575b6147159250614b07565b92831561495a5761472882600692614b07565b92019561ffff928388541680151580614921575b6148865750509061474c91614b07565b945460101c16918215158061484d575b61476a575b50505050505050565b612710948581029581870414901517156148385750916147bd60008051602061512183398151915294927fd18711642b6b950f42f9939719d4bf2365b33dab663671378a08df75c148bf06979694613a42565b9085600052600081528360002061010061ff00198254161790556000805160206152a1833981519152805460ff811615614809575b50508351928352820152a338808080808080614761565b600190614814613a65565b60ff19161790556000805160206152e1833981519152818551338152a138806147f2565b601190634e487b7160e01b6000525260246000fd5b506127108086029086820414861517156148715761486b8484613a42565b1061475c565b601182634e487b7160e01b6000525260246000fd5b95935096505050612710948581029581870414901517156148385750916148e060008051602061512183398151915294927fb4842c9a937e956a3a6b98d2d3e024c31aabbea0be7d9c7ed4f76e9d88b7bec8979694613a42565b9085600052600081528360002061010061ff00198254161790556000805160206152a1833981519152805460ff81161561464c5750508351928352820152a3565b506127108083029083820414831517156149455761493f8288613a42565b1061473c565b601188634e487b7160e01b6000525260246000fd5b505050505050505050565b90508682813d8311614990575b61497c8183613055565b8101031261029b575081614715915161470b565b503d614972565b88513d6000823e3d90fd5b6149ba919450823d84116140b8576140a88183613055565b92386146e7565b7f9d68f11d6c7147935dd7f154a186441cea8f783d4979f64f16ed40f3b116c49890806000526000602052604060002061010061ff00198254161790556000805160206152a1833981519152805460ff811615614a3c575b5050600080516020615121833981519152604080516000815260016020820152a3565b600190614a47613a65565b60ff19161790556000805160206152e18339815191526020604051338152a13880614a19565b9160409060008051602061512183398151915292948460005260006020528260002061010061ff00198254161790556000805160206152a1833981519152805460ff811615614ac6575b505082519182526020820152a3565b600190614ad1613a65565b60ff19161790556000805160206152e183398151915260208451338152a13880614ab7565b60ff16604d811161380d57600a0a90565b9060ff1660128114614b585760128110614b3a57601119019060ff821161380d57614b34613dea92614af6565b90613c01565b6012039060ff821161380d57614b52613dea92614af6565b90613a42565b5090565b60405160208101907f8b73c3c69bb8fe3d512ecc4cf759cc79239f7b179b0ffacaa9a75d522b39400f82527fe14f49bb05444a02e4ab87c68f06f7f023700afe90c8504e4bf67b271c5abdb660408201527fad7c5bef027816a800da1736444fb58a807ef4c9603b7848673f7e3a68eb14a560608201524660808201523060a082015260a08152614bec8161303a565b5190209060405190602082019261190160f01b84526022830152604282015260428152614c1881613004565b51902090565b91604103610ab25760208101359160409260009284810135841a601b81141580614ccd575b614cbc576fa2a8918ca85bafe22016d0b997e4df60600160ff1b038311614cbc579284926080926020958851938452868401523587830152606082015282805260015afa15614cb15751906001600160a01b03821615614ca1575090565b51638baa579f60e01b8152600490fd5b9051903d90823e3d90fd5b8551638baa579f60e01b8152600490fd5b50601c811415614c43565b6020908181840312610540578035906001600160401b03821161054057019180601f84011215610540578235614d0d81613b2f565b93614d1b6040519586613055565b818552838086019260051b820101928311610540578301905b828210614d42575050505090565b81358152908301908301614d34565b614d5d91810190614cd8565b90614d688251613b46565b600092835b815181101561503e57614d808183613b78565b516000526020600081526040806000209081549160ff8316158015615029575b61501c5760038101548251633fabe5a360e21b81529360a0936004936001600160a01b03938416939192919086888781885afa97881561407e576000978899614ff2575b50506000871315614fdb57600601549665ffffffffffff8860301c168015159182614fc8575b5050614fa5578251918883878163313ce56760e01b988982525afa92831561407e57600093614f86575b5060181c1694825193845287848681895afa93841561432f579188918693600096614f61575b5090614e6591614b07565b958351928380926318160ddd60e01b82525afa918215614f575750600091614f28575b5090614e9391614b07565b9180831180614f1f575b614eb5575b5050505050614eb090613a1b565b614d6d565b614ebf9083613800565b9061271091828102928184041490151715614838575091614ee861ffff92614eb0969594613c01565b921c1610614efb575b9038808080614ea2565b614f058184613b78565b51614f19614f1288613a1b565b9786613b78565b52614ef1565b50821515614e9d565b908682813d8311614f50575b614f3e8183613055565b8101031261029b575051614e93614e88565b503d614f34565b513d6000823e3d90fd5b614e6592919650614f7e90843d86116140b8576140a88183613055565b959091614e5a565b614f9e919350893d8b116140b8576140a88183613055565b9138614e34565b505050505050505080614fbb614eb09284613b78565b51611fdd614f1288613a1b565b614fd29250613823565b42113880614e0a565b50505050505050505080614fbb614eb09284613b78565b809192995061500e939850903d1061415b576141468183613055565b509792505095963880614de4565b50505050614eb090613a1b565b5060038101546001600160a01b031615614da0565b5050918061506f57506040519150602082016001600160401b0381118382101761122d576040526000825260009190565b61507881613b46565b9260005b8281106150e2575050506040519182604081019160209283808401528151809152836060840192019360005b8281106150cb575050506150c5925003601f198101845283613055565b60019190565b8551845294810194879450928101926001016150a8565b806150f06150fb9284613b78565b51611fdd8288613b78565b61507c56fe2f8788117e7eff1d82e926ec794901d17c78024a50270940304540a733656f0d41712fd2e0ca344a6f0a99cc53b622e1f2c74414dd4a01369d77d5cd6afd91dce2b7fb3b832174769106daebcfd6d1970523240dda11281102db9363b83b0dc4fa006db768b1e8c7c1632e058ea72e339a9273fbcc219d3c747e82fc536729b082db594318110a04b6349ce48645aa69f0892751bc893d15e61d9e2b9c4630f5189ab7a9244df0848122154315af71fe140f3db0fe014031783b0946b8c9d2e3360894a13ba1a3210667c828492db98dca3e2076cc3735a920a3ca505d382bbc75442b0a96088b5456bc4ed01394c96a4feec0f883c9494257d76b96ab1c9b6b427da25fe773164f88948d3e215c94b6554e2ed5e5f203a821c9f2f6131cf75aa9ed30483ca8e7e18edb58c7d68a44612fe881c88cebad0b52b41698e9844de265d7a28e3265b37a6474929f336521b332c1681b933f6cb9f3376673440d862a9f2df0fed2c77648de5860a4cc508cd0818c85b8b8a1ab4ceeef8d981c8956a602dd7bc7dec4dceedda775e58dd541e08a116c6c53815c0bd028192f7b626800cd5ed15c6e187e77e9aee88184c21f4f2182ab5827cb3b7e07fbedcd63f033009b779b17422d0df92223018b32b4d1fa46e071723d6817e2486d003becc55f0062e78cea01bee320cd4e420270b5ea74000d11b0c9f74754ebdbfc544b05a258475b312747b0505dfd322c59063ca43b615bb2e6d10fdf52fb58877bbcde4011ab71e3f32666744d246edff3f96e4bdafee2e9867098cdd118a979a7464786a8f0c57e16840df040f15088dc2f81fe391c3923bec73e23a9662efc9c229c6a00c83c47520c06ba502fb47e00f82d4e567ed964426ddc9a2f60e8996047250694","opcodes":"PUSH1 0xA0 DUP1 PUSH1 0x40 MSTORE CALLVALUE PUSH3 0xD1 JUMPI ADDRESS PUSH1 0x80 MSTORE PUSH32 0xF0C57E16840DF040F15088DC2F81FE391C3923BEC73E23A9662EFC9C229C6A00 SWAP1 DUP2 SLOAD SWAP1 PUSH1 0xFF DUP3 PUSH1 0x40 SHR AND PUSH3 0xC2 JUMPI POP PUSH1 0x1 PUSH1 0x1 PUSH1 0x40 SHL SUB PUSH1 0x2 PUSH1 0x1 PUSH1 0x40 SHL SUB NOT DUP3 DUP3 AND ADD PUSH3 0x7C JUMPI JUMPDEST PUSH1 0x40 MLOAD PUSH2 0x5381 SWAP1 DUP2 PUSH3 0xD7 DUP3 CODECOPY PUSH1 0x80 MLOAD DUP2 DUP2 DUP2 PUSH2 0x2658 ADD MSTORE PUSH2 0x27DB ADD MSTORE RETURN JUMPDEST PUSH1 0x1 PUSH1 0x1 PUSH1 0x40 SHL SUB NOT SWAP1 SWAP2 AND DUP2 OR SWAP1 SWAP2 SSTORE PUSH1 0x40 MLOAD SWAP1 DUP2 MSTORE PUSH32 0xC7F505B2F371AE2175EE4913F4499E1F2633A7B5936321EED1CDAEB6115181D2 SWAP1 PUSH1 0x20 SWAP1 LOG1 CODESIZE DUP1 DUP1 PUSH3 0x5C JUMP JUMPDEST PUSH4 0xF92EE8A9 PUSH1 0xE0 SHL DUP2 MSTORE PUSH1 0x4 SWAP1 REVERT JUMPDEST PUSH1 0x0 DUP1 REVERT INVALID PUSH1 0x80 DUP1 PUSH1 0x40 MSTORE PUSH1 0x4 CALLDATASIZE LT ISZERO PUSH2 0x13 JUMPI PUSH1 0x0 DUP1 REVERT JUMPDEST PUSH1 0x0 SWAP1 DUP2 CALLDATALOAD PUSH1 0xE0 SHR SWAP1 DUP2 PUSH4 0x1FFC9A7 EQ PUSH2 0x2F2D JUMPI POP DUP1 PUSH4 0x9EE0848 EQ PUSH2 0x2EDD JUMPI DUP1 PUSH4 0x1900EB7F EQ PUSH2 0x2EB4 JUMPI DUP1 PUSH4 0x1CB278C3 EQ PUSH2 0x2D90 JUMPI DUP1 PUSH4 0x1F23E105 EQ PUSH2 0x2D67 JUMPI DUP1 PUSH4 0x248A9CA3 EQ PUSH2 0x2D2D JUMPI DUP1 PUSH4 0x2EF1F2EE EQ PUSH2 0x2D04 JUMPI DUP1 PUSH4 0x2F2FF15D EQ PUSH2 0x2CB7 JUMPI DUP1 PUSH4 0x32479D80 EQ PUSH2 0x2BD5 JUMPI DUP1 PUSH4 0x36568ABE EQ PUSH2 0x2B8D JUMPI DUP1 PUSH4 0x4585E33B EQ PUSH2 0x2A98 JUMPI DUP1 PUSH4 0x46E11980 EQ PUSH2 0x29B8 JUMPI DUP1 PUSH4 0x4F1EF286 EQ PUSH2 0x278A JUMPI DUP1 PUSH4 0x522B10BE EQ PUSH2 0x26B0 JUMPI DUP1 PUSH4 0x52D1902D EQ PUSH2 0x2645 JUMPI DUP1 PUSH4 0x5A19274E EQ PUSH2 0x24B3 JUMPI DUP1 PUSH4 0x5C975ABB EQ PUSH2 0x2483 JUMPI DUP1 PUSH4 0x5E2B7D9C EQ PUSH2 0x245A JUMPI DUP1 PUSH4 0x61FB937F EQ PUSH2 0x242D JUMPI DUP1 PUSH4 0x67AE6DE3 EQ PUSH2 0x210F JUMPI DUP1 PUSH4 0x6E04FF0D EQ PUSH2 0x20B6 JUMPI DUP1 PUSH4 0x7A00A7B0 EQ PUSH2 0x206A JUMPI DUP1 PUSH4 0x7A61B025 EQ PUSH2 0x1B97 JUMPI DUP1 PUSH4 0x7ED5A2B2 EQ PUSH2 0x1A46 JUMPI DUP1 PUSH4 0x801F1770 EQ PUSH2 0x198C JUMPI DUP1 PUSH4 0x88DBE674 EQ PUSH2 0x1900 JUMPI DUP1 PUSH4 0x91D14854 EQ PUSH2 0x18A7 JUMPI DUP1 PUSH4 0x926D7D7F EQ PUSH2 0x187E JUMPI DUP1 PUSH4 0x97B767BE EQ PUSH2 0x182C JUMPI DUP1 PUSH4 0x9A1FDD79 EQ PUSH2 0x1803 JUMPI DUP1 PUSH4 0xA217FDDF EQ PUSH2 0x17E7 JUMPI DUP1 PUSH4 0xA4981BA5 EQ PUSH2 0x17BE JUMPI DUP1 PUSH4 0xA4D19FEB EQ PUSH2 0x1795 JUMPI DUP1 PUSH4 0xA4F826BF EQ PUSH2 0x16C0 JUMPI DUP1 PUSH4 0xA548B571 EQ PUSH2 0x1691 JUMPI DUP1 PUSH4 0xAA3F9DC5 EQ PUSH2 0x13BC JUMPI DUP1 PUSH4 0xAB2CC90A EQ PUSH2 0x1243 JUMPI DUP1 PUSH4 0xAD3CB1CC EQ PUSH2 0x11D1 JUMPI DUP1 PUSH4 0xB368334E EQ PUSH2 0x1131 JUMPI DUP1 PUSH4 0xB3FF18DF EQ PUSH2 0x1075 JUMPI DUP1 PUSH4 0xC04ED29C EQ PUSH2 0xF5E JUMPI DUP1 PUSH4 0xC533E95D EQ PUSH2 0xF35 JUMPI DUP1 PUSH4 0xD5391393 EQ PUSH2 0xF0C JUMPI DUP1 PUSH4 0xD547741F EQ PUSH2 0xEBB JUMPI DUP1 PUSH4 0xD975A715 EQ PUSH2 0xE22 JUMPI DUP1 PUSH4 0xDA4A6955 EQ PUSH2 0xE04 JUMPI DUP1 PUSH4 0xDDDE95F0 EQ PUSH2 0xD55 JUMPI DUP1 PUSH4 0xE3032C90 EQ PUSH2 0xC31 JUMPI DUP1 PUSH4 0xE63AB1E9 EQ PUSH2 0xC08 JUMPI DUP1 PUSH4 0xE72BFFBA EQ PUSH2 0x830 JUMPI DUP1 PUSH4 0xF65A10D1 EQ PUSH2 0x56E JUMPI DUP1 PUSH4 0xF72C0D8B EQ PUSH2 0x545 JUMPI DUP1 PUSH4 0xF8C8765E EQ PUSH2 0x29E JUMPI PUSH4 0xFB1BB9DE EQ PUSH2 0x273 JUMPI PUSH1 0x0 DUP1 REVERT JUMPDEST CALLVALUE PUSH2 0x29B JUMPI DUP1 PUSH1 0x3 NOT CALLDATASIZE ADD SLT PUSH2 0x29B JUMPI PUSH1 0x20 PUSH1 0x40 MLOAD PUSH1 0x0 DUP1 MLOAD PUSH1 0x20 PUSH2 0x5201 DUP4 CODECOPY DUP2 MLOAD SWAP2 MSTORE DUP2 MSTORE RETURN JUMPDEST DUP1 REVERT JUMPDEST POP CALLVALUE PUSH2 0x29B JUMPI PUSH1 0x80 CALLDATASIZE PUSH1 0x3 NOT ADD SLT PUSH2 0x29B JUMPI PUSH2 0x2B8 PUSH2 0x2F82 JUMP JUMPDEST PUSH2 0x2C0 PUSH2 0x2F98 JUMP JUMPDEST SWAP1 PUSH2 0x2C9 PUSH2 0x2FAE JUMP JUMPDEST SWAP2 PUSH1 0x64 CALLDATALOAD PUSH1 0x1 PUSH1 0x1 PUSH1 0xA0 SHL SUB DUP2 DUP2 AND SWAP3 SWAP2 DUP4 SWAP1 SUB PUSH2 0x540 JUMPI PUSH1 0x0 DUP1 MLOAD PUSH1 0x20 PUSH2 0x5341 DUP4 CODECOPY DUP2 MLOAD SWAP2 MSTORE DUP1 SLOAD SWAP1 SWAP6 PUSH1 0x40 DUP3 SWAP1 SHR PUSH1 0xFF AND ISZERO SWAP6 SWAP1 SWAP2 PUSH1 0x1 PUSH1 0x1 PUSH1 0x40 SHL SUB DUP2 AND DUP1 ISZERO SWAP1 DUP2 PUSH2 0x538 JUMPI JUMPDEST PUSH1 0x1 EQ SWAP1 DUP2 PUSH2 0x52E JUMPI JUMPDEST ISZERO SWAP1 DUP2 PUSH2 0x525 JUMPI JUMPDEST POP PUSH2 0x513 JUMPI PUSH1 0x1 PUSH1 0x1 PUSH1 0x40 SHL SUB NOT DUP2 AND PUSH1 0x1 OR DUP9 SSTORE DUP7 PUSH2 0x4F8 JUMPI JUMPDEST POP DUP3 DUP2 AND ISZERO DUP1 ISZERO PUSH2 0x4EE JUMPI JUMPDEST DUP1 ISZERO PUSH2 0x4E4 JUMPI JUMPDEST DUP1 ISZERO PUSH2 0x4DC JUMPI JUMPDEST PUSH2 0x4CA JUMPI DUP1 EXTCODESIZE ISZERO DUP1 PUSH2 0x4BE JUMPI JUMPDEST DUP1 PUSH2 0x4B2 JUMPI JUMPDEST PUSH2 0x4A0 JUMPI PUSH2 0x40F SWAP1 PUSH2 0x37D PUSH2 0x37D1 JUMP JUMPDEST PUSH2 0x385 PUSH2 0x37D1 JUMP JUMPDEST PUSH2 0x38D PUSH2 0x37D1 JUMP JUMPDEST PUSH2 0x395 PUSH2 0x37D1 JUMP JUMPDEST PUSH1 0x0 DUP1 MLOAD PUSH1 0x20 PUSH2 0x52A1 DUP4 CODECOPY DUP2 MLOAD SWAP2 MSTORE DUP1 SLOAD PUSH1 0xFF NOT AND SWAP1 SSTORE PUSH2 0x3B4 PUSH2 0x37D1 JUMP JUMPDEST PUSH2 0x3BC PUSH2 0x37D1 JUMP JUMPDEST PUSH1 0x1 PUSH1 0x0 DUP1 MLOAD PUSH1 0x20 PUSH2 0x52C1 DUP4 CODECOPY DUP2 MLOAD SWAP2 MSTORE SSTORE PUSH2 0x3D7 DUP2 PUSH2 0x327C JUMP JUMPDEST POP PUSH2 0x3E1 DUP2 PUSH2 0x330A JUMP JUMPDEST POP PUSH2 0x3EB DUP2 PUSH2 0x3396 JUMP JUMPDEST POP PUSH2 0x3F5 DUP2 PUSH2 0x341C JUMP JUMPDEST POP PUSH2 0x3FF DUP2 PUSH2 0x34B4 JUMP JUMPDEST POP PUSH2 0x409 DUP2 PUSH2 0x353A JUMP JUMPDEST POP PUSH2 0x35C0 JUMP JUMPDEST POP DUP2 PUSH1 0x1 DUP1 PUSH1 0xA0 SHL SUB NOT SWAP4 AND DUP4 PUSH1 0xF SLOAD AND OR PUSH1 0xF SSTORE AND DUP2 PUSH1 0x11 SLOAD AND OR PUSH1 0x11 SSTORE PUSH1 0x12 SLOAD AND OR PUSH1 0x12 SSTORE PUSH2 0x1275 PUSH1 0xA7 SHL PUSH6 0xFFFFFFFFFFFF PUSH1 0xA0 SHL NOT PUSH1 0x15 SLOAD AND OR PUSH1 0x15 SSTORE PUSH10 0x69E10DE76676D0800000 PUSH1 0x17 SSTORE PUSH2 0x465 JUMPI POP DUP1 RETURN JUMPDEST DUP1 SLOAD PUSH1 0xFF PUSH1 0x40 SHL NOT AND SWAP1 SSTORE PUSH1 0x40 MLOAD PUSH1 0x1 DUP2 MSTORE PUSH32 0xC7F505B2F371AE2175EE4913F4499E1F2633A7B5936321EED1CDAEB6115181D2 SWAP1 PUSH1 0x20 SWAP1 LOG1 DUP1 RETURN JUMPDEST PUSH1 0x40 MLOAD PUSH4 0x6B7C759 PUSH1 0xE3 SHL DUP2 MSTORE PUSH1 0x4 SWAP1 REVERT JUMPDEST POP PUSH2 0x539 CHAINID EQ ISZERO PUSH2 0x36D JUMP JUMPDEST POP PUSH2 0x7A69 CHAINID EQ ISZERO PUSH2 0x367 JUMP JUMPDEST PUSH1 0x40 MLOAD PUSH4 0xE6C4247B PUSH1 0xE0 SHL DUP2 MSTORE PUSH1 0x4 SWAP1 REVERT JUMPDEST POP DUP5 ISZERO PUSH2 0x35A JUMP JUMPDEST POP DUP3 DUP3 AND ISZERO PUSH2 0x353 JUMP JUMPDEST POP DUP3 DUP5 AND ISZERO PUSH2 0x34C JUMP JUMPDEST PUSH1 0x1 PUSH1 0x1 PUSH1 0x48 SHL SUB NOT AND PUSH1 0x1 PUSH1 0x1 PUSH1 0x40 SHL ADD OR DUP8 SSTORE CODESIZE PUSH2 0x340 JUMP JUMPDEST PUSH1 0x40 MLOAD PUSH4 0xF92EE8A9 PUSH1 0xE0 SHL DUP2 MSTORE PUSH1 0x4 SWAP1 REVERT JUMPDEST SWAP1 POP ISZERO CODESIZE PUSH2 0x325 JUMP JUMPDEST ADDRESS EXTCODESIZE ISZERO SWAP2 POP PUSH2 0x31D JUMP JUMPDEST DUP9 SWAP2 POP PUSH2 0x313 JUMP JUMPDEST PUSH1 0x0 DUP1 REVERT JUMPDEST POP CALLVALUE PUSH2 0x29B JUMPI DUP1 PUSH1 0x3 NOT CALLDATASIZE ADD SLT PUSH2 0x29B JUMPI PUSH1 0x20 PUSH1 0x40 MLOAD PUSH1 0x0 DUP1 MLOAD PUSH1 0x20 PUSH2 0x51A1 DUP4 CODECOPY DUP2 MLOAD SWAP2 MSTORE DUP2 MSTORE RETURN JUMPDEST POP CALLVALUE PUSH2 0x29B JUMPI CALLDATASIZE PUSH1 0x3 NOT ADD PUSH2 0x1A0 DUP2 SLT PUSH2 0x82C JUMPI PUSH1 0xE0 SGT PUSH2 0x29B JUMPI PUSH1 0xC0 CALLDATASIZE PUSH1 0xE3 NOT ADD SLT PUSH2 0x29B JUMPI PUSH2 0x59E CALLER PUSH2 0x31FD JUMP JUMPDEST PUSH1 0x15 SLOAD PUSH1 0x1 PUSH1 0x1 PUSH1 0xA0 SHL SUB SWAP1 DUP2 AND DUP1 ISZERO ISZERO SWAP1 DUP2 PUSH2 0x821 JUMPI JUMPDEST POP PUSH2 0x80F JUMPI PUSH1 0x4 CALLDATALOAD DUP1 ISZERO DUP1 ISZERO PUSH2 0x7FE JUMPI JUMPDEST PUSH2 0x4A0 JUMPI PUSH1 0x44 CALLDATALOAD SWAP2 PUSH1 0x3 DUP4 LT ISZERO PUSH2 0x7FA JUMPI DUP3 ISZERO PUSH2 0x7E8 JUMPI PUSH2 0xFFFF SWAP1 PUSH2 0x2710 DUP1 DUP4 PUSH2 0x5EF PUSH2 0x39D6 JUMP JUMPDEST AND GT SWAP1 DUP2 ISZERO PUSH2 0x7D4 JUMPI JUMPDEST DUP2 ISZERO PUSH2 0x7C1 JUMPI JUMPDEST POP PUSH2 0x4A0 JUMPI PUSH1 0x1 DUP5 EQ PUSH2 0x787 JUMPI JUMPDEST DUP3 DUP6 MSTORE DUP5 PUSH1 0x20 MSTORE PUSH1 0x40 DUP6 KECCAK256 SWAP1 PUSH2 0x637 PUSH2 0x625 PUSH2 0x3A0C JUMP JUMPDEST DUP4 SWAP1 PUSH1 0xFF DUP1 NOT DUP4 SLOAD AND SWAP2 ISZERO ISZERO AND OR SWAP1 SSTORE JUMP JUMPDEST DUP2 SLOAD PUSH4 0x1000000 PUSH1 0x1 PUSH1 0xB8 SHL SUB PUSH2 0x64C PUSH2 0x3994 JUMP JUMPDEST PUSH2 0x100 PUSH1 0x1 PUSH1 0xB8 SHL SUB NOT SWAP1 SWAP3 AND PUSH1 0x10 DUP9 SWAP1 SHL PUSH3 0xFF0000 AND OR PUSH1 0x18 SWAP3 SWAP1 SWAP3 SHL AND OR DUP3 SSTORE PUSH2 0x676 PUSH2 0x39AA JUMP JUMPDEST PUSH1 0x1 DUP4 ADD DUP1 SLOAD SWAP2 DUP4 AND PUSH1 0x1 PUSH1 0x1 PUSH1 0xA0 SHL SUB NOT SWAP3 DUP4 AND OR SWAP1 SSTORE PUSH2 0x696 PUSH2 0x39C0 JUMP JUMPDEST DUP3 PUSH1 0x2 DUP6 ADD SWAP2 AND DUP3 DUP3 SLOAD AND OR SWAP1 SSTORE PUSH1 0xC4 CALLDATALOAD DUP3 DUP2 AND DUP1 SWAP2 SUB PUSH2 0x540 JUMPI PUSH1 0x3 DUP5 ADD SWAP2 DUP3 SLOAD AND OR SWAP1 SSTORE PUSH1 0xE4 CALLDATALOAD PUSH1 0x4 DUP4 ADD SSTORE PUSH2 0x104 CALLDATALOAD PUSH1 0x5 DUP4 ADD SSTORE PUSH1 0x6 PUSH2 0x6D7 PUSH2 0x39D6 JUMP JUMPDEST SWAP3 ADD DUP1 SLOAD SWAP3 PUSH4 0xFFFF0000 PUSH2 0x6E9 PUSH2 0x39E8 JUMP JUMPDEST PUSH1 0x10 SHL AND PUSH2 0xFFFF PUSH1 0x20 SHL PUSH2 0x6FB PUSH2 0x39FA JUMP JUMPDEST PUSH1 0x20 SHL AND SWAP1 PUSH2 0x184 CALLDATALOAD SWAP6 PUSH6 0xFFFFFFFFFFFF DUP8 AND DUP8 SUB PUSH2 0x783 JUMPI PUSH32 0x2553F3FC52017D501D27D572A510D4EBB2D09556EB79C29F2463DFE65BA44AE3 SWAP8 PUSH1 0x40 SWAP8 PUSH6 0xFFFFFFFFFFFF PUSH1 0x30 SHL SWAP1 PUSH1 0x30 SHL AND SWAP5 AND SWAP1 PUSH1 0x1 DUP1 PUSH1 0x60 SHL SUB NOT AND OR OR OR OR SWAP1 SSTORE PUSH2 0x762 PUSH2 0x3994 JUMP JUMPDEST PUSH2 0x76A PUSH2 0x3A0C JUMP JUMPDEST PUSH2 0x776 DUP5 MLOAD DUP1 SWAP9 PUSH2 0x30CA JUMP JUMPDEST ISZERO ISZERO PUSH1 0x20 DUP8 ADD MSTORE AND SWAP4 LOG3 DUP1 RETURN JUMPDEST DUP11 DUP1 REVERT JUMPDEST DUP1 PUSH2 0x790 PUSH2 0x39AA JUMP JUMPDEST AND ISZERO DUP1 ISZERO PUSH2 0x7B0 JUMPI JUMPDEST ISZERO PUSH2 0x60E JUMPI PUSH1 0x40 MLOAD PUSH4 0x6B7C759 PUSH1 0xE3 SHL DUP2 MSTORE PUSH1 0x4 SWAP1 REVERT JUMPDEST POP DUP1 PUSH2 0x7BA PUSH2 0x39C0 JUMP JUMPDEST AND ISZERO PUSH2 0x799 JUMP JUMPDEST SWAP1 POP DUP3 PUSH2 0x7CC PUSH2 0x39FA JUMP JUMPDEST AND GT CODESIZE PUSH2 0x600 JUMP JUMPDEST DUP1 SWAP2 POP DUP4 PUSH2 0x7E0 PUSH2 0x39E8 JUMP JUMPDEST AND GT SWAP1 PUSH2 0x5F9 JUMP JUMPDEST PUSH1 0x40 MLOAD PUSH4 0x90B223B PUSH1 0xE2 SHL DUP2 MSTORE PUSH1 0x4 SWAP1 REVERT JUMPDEST DUP4 DUP1 REVERT JUMPDEST POP DUP2 PUSH2 0x808 PUSH2 0x3994 JUMP JUMPDEST AND ISZERO PUSH2 0x5C7 JUMP JUMPDEST PUSH1 0x40 MLOAD PUSH4 0x99F26D5B PUSH1 0xE0 SHL DUP2 MSTORE PUSH1 0x4 SWAP1 REVERT JUMPDEST SWAP1 POP CALLER EQ ISZERO CODESIZE PUSH2 0x5B6 JUMP JUMPDEST POP DUP1 REVERT JUMPDEST POP CALLVALUE PUSH2 0x29B JUMPI PUSH1 0x60 CALLDATASIZE PUSH1 0x3 NOT ADD SLT PUSH2 0x29B JUMPI PUSH1 0x24 CALLDATALOAD PUSH1 0x44 CALLDATALOAD PUSH1 0x1 PUSH1 0x1 PUSH1 0x40 SHL SUB DUP2 GT PUSH2 0xC04 JUMPI PUSH2 0x864 SWAP1 CALLDATASIZE SWAP1 PUSH1 0x4 ADD PUSH2 0x312D JUMP JUMPDEST CALLER PUSH1 0x0 SWAP1 DUP2 MSTORE PUSH1 0x0 DUP1 MLOAD PUSH1 0x20 PUSH2 0x5301 DUP4 CODECOPY DUP2 MLOAD SWAP2 MSTORE PUSH1 0x20 MSTORE PUSH1 0x40 SWAP1 KECCAK256 SLOAD SWAP2 SWAP3 SWAP2 PUSH1 0x0 DUP1 MLOAD PUSH1 0x20 PUSH2 0x5201 DUP4 CODECOPY DUP2 MLOAD SWAP2 MSTORE SWAP1 PUSH1 0xFF AND ISZERO PUSH2 0xBE6 JUMPI POP PUSH1 0xFF PUSH1 0x0 DUP1 MLOAD PUSH1 0x20 PUSH2 0x52A1 DUP4 CODECOPY DUP2 MLOAD SWAP2 MSTORE SLOAD AND ISZERO PUSH2 0x4A0 JUMPI TIMESTAMP DUP3 LT PUSH2 0xBD4 JUMPI PUSH1 0x4 CALLDATALOAD DUP5 MSTORE PUSH1 0x6 PUSH1 0x20 MSTORE PUSH1 0xFF PUSH1 0x40 DUP6 KECCAK256 SLOAD AND PUSH2 0xBC2 JUMPI PUSH1 0x10 SLOAD PUSH1 0x1 PUSH1 0x1 PUSH1 0xA0 SHL SUB AND SWAP2 DUP3 ISZERO DUP1 ISZERO PUSH2 0xBAF JUMPI JUMPDEST PUSH2 0x4A0 JUMPI PUSH1 0x3 DUP3 LT DUP1 ISZERO PUSH2 0xBA5 JUMPI JUMPDEST PUSH2 0xAB2 JUMPI PUSH2 0x94C SWAP1 PUSH1 0x40 MLOAD PUSH1 0x20 DUP2 ADD SWAP2 PUSH32 0xE851404A3A159D9C74BB4EDD28137539775F1EFAF488A588E5FA3D4410D484B0 DUP4 MSTORE PUSH1 0x4 CALLDATALOAD PUSH1 0x40 DUP4 ADD MSTORE PUSH1 0x60 DUP3 ADD MSTORE PUSH1 0x60 DUP2 MSTORE PUSH2 0x944 DUP2 PUSH2 0x3004 JUMP JUMPDEST MLOAD SWAP1 KECCAK256 PUSH2 0x4B5C JUMP JUMPDEST SWAP1 PUSH1 0x40 MLOAD PUSH2 0x959 DUP2 PUSH2 0x303A JUMP JUMPDEST PUSH1 0x5 DUP2 MSTORE PUSH1 0x20 DUP2 ADD SWAP4 PUSH1 0xA0 CALLDATASIZE DUP7 CALLDATACOPY PUSH1 0x1 DUP1 PUSH1 0xA0 SHL SUB PUSH1 0xF SLOAD AND SWAP5 DUP3 MLOAD ISZERO PUSH2 0xB8F JUMPI DUP6 SWAP1 MSTORE DUP2 MLOAD PUSH1 0x1 LT ISZERO PUSH2 0xB8F JUMPI DUP1 PUSH1 0x40 DUP4 ADD MSTORE PUSH1 0x1 DUP1 PUSH1 0xA0 SHL SUB PUSH1 0x11 SLOAD AND DUP3 MLOAD PUSH1 0x2 LT ISZERO PUSH2 0xB8F JUMPI PUSH1 0x60 DUP4 ADD MSTORE PUSH1 0x1 DUP1 PUSH1 0xA0 SHL SUB PUSH1 0x12 SLOAD AND DUP3 MLOAD PUSH1 0x3 LT ISZERO PUSH2 0xB8F JUMPI PUSH1 0x80 DUP4 ADD MSTORE PUSH1 0x1 DUP1 PUSH1 0xA0 SHL SUB PUSH1 0x13 SLOAD AND DUP3 MLOAD PUSH1 0x4 LT ISZERO PUSH2 0xB8F JUMPI PUSH1 0xA0 DUP4 ADD MSTORE PUSH1 0x0 SWAP5 PUSH1 0x0 SWAP7 PUSH2 0x9EA DUP6 PUSH2 0x3B46 JUMP JUMPDEST SWAP1 DUP9 JUMPDEST DUP7 DUP2 LT PUSH2 0xACD JUMPI DUP11 PUSH1 0x3 DUP11 LT DUP12 DUP2 ISZERO PUSH2 0xAC4 JUMPI JUMPDEST POP PUSH2 0xAB2 JUMPI PUSH1 0x4 CALLDATALOAD DUP2 MSTORE PUSH1 0x6 PUSH1 0x20 MSTORE PUSH1 0x40 DUP2 KECCAK256 PUSH1 0xFF NOT SWAP1 PUSH1 0x1 DUP3 DUP3 SLOAD AND OR SWAP1 SSTORE PUSH1 0x0 DUP1 MLOAD PUSH1 0x20 PUSH2 0x52A1 DUP4 CODECOPY DUP2 MLOAD SWAP2 MSTORE SLOAD PUSH1 0xFF DUP2 AND ISZERO PUSH2 0xAA0 JUMPI AND PUSH1 0x0 DUP1 MLOAD PUSH1 0x20 PUSH2 0x52A1 DUP4 CODECOPY DUP2 MLOAD SWAP2 MSTORE SSTORE PUSH32 0x5DB9EE0A495BF2E6FF9C91A7834C1BA4FDD244A5E8AA4E537BD38AEAE4B073AA PUSH1 0x20 PUSH1 0x40 MLOAD CALLER DUP2 MSTORE LOG1 CALLER PUSH1 0x4 CALLDATALOAD PUSH32 0xF88CC02E193B76523C78992E91AF1FE48496B38A6354DCDD2264CDA036001BF DUP4 DUP1 LOG3 DUP1 RETURN JUMPDEST PUSH1 0x40 MLOAD PUSH4 0x8DFC202B PUSH1 0xE0 SHL DUP2 MSTORE PUSH1 0x4 SWAP1 REVERT JUMPDEST PUSH1 0x40 MLOAD PUSH4 0x8BAA579F PUSH1 0xE0 SHL DUP2 MSTORE PUSH1 0x4 SWAP1 REVERT JUMPDEST SWAP1 POP ISZERO DUP3 PUSH2 0xA01 JUMP JUMPDEST DUP1 PUSH1 0x5 SHL DUP3 ADD CALLDATALOAD PUSH1 0x1E NOT DUP4 CALLDATASIZE SUB ADD DUP2 SLT ISZERO PUSH2 0x540 JUMPI DUP3 ADD DUP1 CALLDATALOAD SWAP1 PUSH1 0x1 PUSH1 0x1 PUSH1 0x40 SHL SUB DUP3 GT PUSH2 0x540 JUMPI PUSH1 0x20 ADD SWAP1 DUP1 CALLDATASIZE SUB DUP3 SGT PUSH2 0x540 JUMPI PUSH2 0xB0C SWAP2 DUP11 PUSH2 0x4C1E JUMP JUMPDEST SWAP9 PUSH2 0xB19 DUP8 MLOAD DUP9 DUP13 PUSH2 0x3BB9 JUMP JUMPDEST ISZERO PUSH2 0xB84 JUMPI PUSH2 0xB29 DUP2 DUP6 DUP13 PUSH2 0x3BB9 JUMP JUMPDEST PUSH2 0xB84 JUMPI DUP1 PUSH2 0xB3B PUSH2 0xB4F SWAP3 DUP7 PUSH2 0x3B78 JUMP JUMPDEST PUSH1 0x1 PUSH1 0x1 PUSH1 0xA0 SHL SUB SWAP1 SWAP12 AND SWAP11 DUP12 SWAP1 MSTORE PUSH2 0x3A1B JUMP JUMPDEST SWAP9 DUP6 DUP6 DUP3 EQ SWAP2 DUP3 ISZERO PUSH2 0xB7A JUMPI JUMPDEST POP POP PUSH2 0xB71 JUMPI JUMPDEST PUSH2 0xB6C SWAP1 PUSH2 0x3A1B JUMP JUMPDEST PUSH2 0x9ED JUMP JUMPDEST PUSH1 0x1 SWAP10 POP PUSH2 0xB63 JUMP JUMPDEST EQ SWAP1 POP DUP6 CODESIZE PUSH2 0xB5C JUMP JUMPDEST SWAP9 POP PUSH2 0xB6C SWAP1 PUSH2 0x3A1B JUMP JUMPDEST PUSH4 0x4E487B71 PUSH1 0xE0 SHL PUSH1 0x0 MSTORE PUSH1 0x32 PUSH1 0x4 MSTORE PUSH1 0x24 PUSH1 0x0 REVERT JUMPDEST POP PUSH1 0x5 DUP3 GT PUSH2 0x8F7 JUMP JUMPDEST POP PUSH1 0x13 SLOAD PUSH1 0x1 PUSH1 0x1 PUSH1 0xA0 SHL SUB AND ISZERO PUSH2 0x8E8 JUMP JUMPDEST PUSH1 0x40 MLOAD PUSH4 0x2FBDC8AD PUSH1 0xE1 SHL DUP2 MSTORE PUSH1 0x4 SWAP1 REVERT JUMPDEST PUSH1 0x40 MLOAD PUSH4 0x39B99391 PUSH1 0xE2 SHL DUP2 MSTORE PUSH1 0x4 SWAP1 REVERT JUMPDEST PUSH1 0x44 SWAP1 PUSH1 0x40 MLOAD SWAP1 PUSH4 0xE2517D3F PUSH1 0xE0 SHL DUP3 MSTORE CALLER PUSH1 0x4 DUP4 ADD MSTORE PUSH1 0x24 DUP3 ADD MSTORE REVERT JUMPDEST DUP3 DUP1 REVERT JUMPDEST POP CALLVALUE PUSH2 0x29B JUMPI DUP1 PUSH1 0x3 NOT CALLDATASIZE ADD SLT PUSH2 0x29B JUMPI PUSH1 0x20 PUSH1 0x40 MLOAD PUSH1 0x0 DUP1 MLOAD PUSH1 0x20 PUSH2 0x5241 DUP4 CODECOPY DUP2 MLOAD SWAP2 MSTORE DUP2 MSTORE RETURN JUMPDEST POP CALLVALUE PUSH2 0x29B JUMPI PUSH1 0x40 CALLDATASIZE PUSH1 0x3 NOT ADD SLT PUSH2 0x29B JUMPI PUSH1 0x4 CALLDATALOAD PUSH2 0xC4E PUSH2 0x2F98 JUMP JUMPDEST SWAP1 PUSH2 0xC58 CALLER PUSH2 0x31BC JUMP JUMPDEST PUSH2 0xC60 PUSH2 0x3830 JUMP JUMPDEST PUSH1 0x1 PUSH1 0x1 PUSH1 0xA0 SHL SUB DUP3 DUP2 AND SWAP3 DUP4 ISZERO PUSH2 0xD43 JUMPI DUP3 ISZERO PUSH2 0xD31 JUMPI DUP2 PUSH1 0x16 SLOAD AND ISZERO PUSH2 0xD1F JUMPI CALLER DUP6 MSTORE PUSH1 0xE PUSH1 0x20 MSTORE PUSH1 0x40 DUP6 KECCAK256 SLOAD DUP4 DUP2 LT PUSH2 0xD0D JUMPI DUP4 PUSH2 0xCA0 SWAP2 PUSH2 0x3800 JUMP JUMPDEST SWAP2 PUSH1 0x17 SLOAD DUP4 LT PUSH2 0xD0D JUMPI PUSH2 0xCC7 SWAP2 DUP5 SWAP2 CALLER DUP9 MSTORE PUSH1 0xE PUSH1 0x20 MSTORE DUP5 PUSH1 0x40 DUP10 KECCAK256 SSTORE PUSH1 0x16 SLOAD AND PUSH2 0x395F JUMP JUMPDEST PUSH1 0x40 MLOAD SWAP2 DUP3 MSTORE PUSH1 0x20 DUP3 ADD MSTORE PUSH32 0x3850739C98A575863CBEC9AE6F1701B93BD8B99FFAD9A1C65A373DD832826C9F PUSH1 0x40 CALLER SWAP3 LOG3 PUSH1 0x1 PUSH1 0x0 DUP1 MLOAD PUSH1 0x20 PUSH2 0x52C1 DUP4 CODECOPY DUP2 MLOAD SWAP2 MSTORE SSTORE DUP1 RETURN JUMPDEST PUSH1 0x40 MLOAD PUSH4 0xBB26BF9D PUSH1 0xE0 SHL DUP2 MSTORE PUSH1 0x4 SWAP1 REVERT JUMPDEST PUSH1 0x40 MLOAD PUSH4 0x56C98785 PUSH1 0xE1 SHL DUP2 MSTORE PUSH1 0x4 SWAP1 REVERT JUMPDEST PUSH1 0x40 MLOAD PUSH4 0x162908E3 PUSH1 0xE1 SHL DUP2 MSTORE PUSH1 0x4 SWAP1 REVERT JUMPDEST PUSH1 0x40 MLOAD PUSH4 0x4E469669 PUSH1 0xE1 SHL DUP2 MSTORE PUSH1 0x4 SWAP1 REVERT JUMPDEST POP CALLVALUE PUSH2 0x29B JUMPI PUSH1 0x40 CALLDATASIZE PUSH1 0x3 NOT ADD SLT PUSH2 0x29B JUMPI PUSH2 0xD6F PUSH2 0x2F82 JUMP JUMPDEST PUSH1 0x24 CALLDATALOAD SWAP1 PUSH2 0xD7C CALLER PUSH2 0x31FD JUMP JUMPDEST PUSH1 0x15 SLOAD PUSH1 0x1 PUSH1 0x1 PUSH1 0xA0 SHL SUB SWAP2 SWAP1 DUP3 AND DUP1 ISZERO ISZERO SWAP1 DUP2 PUSH2 0xDF9 JUMPI JUMPDEST POP PUSH2 0x80F JUMPI AND SWAP1 DUP2 ISZERO PUSH2 0x4CA JUMPI PUSH10 0x69E10DE76676D0800000 DUP2 LT PUSH2 0x4A0 JUMPI PUSH1 0x16 DUP1 SLOAD PUSH1 0x1 PUSH1 0x1 PUSH1 0xA0 SHL SUB NOT AND DUP4 OR SWAP1 SSTORE PUSH1 0x17 DUP2 SWAP1 SSTORE PUSH1 0x40 MLOAD SWAP1 DUP2 MSTORE PUSH32 0x7BA3E3DB9C7F11F2FE7B0956184EEAF60B04F790D017269757FD30FF39659EFC SWAP1 PUSH1 0x20 SWAP1 LOG2 DUP1 RETURN JUMPDEST SWAP1 POP CALLER EQ ISZERO CODESIZE PUSH2 0xD95 JUMP JUMPDEST POP CALLVALUE PUSH2 0x29B JUMPI DUP1 PUSH1 0x3 NOT CALLDATASIZE ADD SLT PUSH2 0x29B JUMPI PUSH1 0x20 PUSH1 0x18 SLOAD PUSH1 0x40 MLOAD SWAP1 DUP2 MSTORE RETURN JUMPDEST POP CALLVALUE PUSH2 0x29B JUMPI PUSH1 0x40 CALLDATASIZE PUSH1 0x3 NOT ADD SLT PUSH2 0x29B JUMPI PUSH1 0x4 CALLDATALOAD PUSH2 0xE3F PUSH2 0x2F98 JUMP JUMPDEST SWAP1 PUSH2 0xE49 CALLER PUSH2 0x31FD JUMP JUMPDEST PUSH1 0x15 SLOAD PUSH1 0x1 PUSH1 0x1 PUSH1 0xA0 SHL SUB SWAP2 SWAP1 DUP3 AND DUP1 ISZERO ISZERO SWAP1 DUP2 PUSH2 0xEB0 JUMPI JUMPDEST POP PUSH2 0x80F JUMPI DUP1 DUP5 MSTORE DUP4 PUSH1 0x20 MSTORE DUP2 PUSH1 0x40 DUP6 KECCAK256 SLOAD PUSH1 0x18 SHR AND ISZERO PUSH2 0xE9E JUMPI DUP4 MSTORE PUSH1 0xD PUSH1 0x20 MSTORE PUSH1 0x40 DUP4 KECCAK256 DUP1 SLOAD PUSH1 0x1 PUSH1 0x1 PUSH1 0xA0 SHL SUB NOT AND SWAP2 SWAP1 SWAP3 AND OR SWAP1 SSTORE DUP1 RETURN JUMPDEST PUSH1 0x40 MLOAD PUSH4 0x981A2A2B PUSH1 0xE0 SHL DUP2 MSTORE PUSH1 0x4 SWAP1 REVERT JUMPDEST SWAP1 POP CALLER EQ ISZERO CODESIZE PUSH2 0xE62 JUMP JUMPDEST POP CALLVALUE PUSH2 0x29B JUMPI PUSH1 0x40 CALLDATASIZE PUSH1 0x3 NOT ADD SLT PUSH2 0x29B JUMPI PUSH2 0xF08 PUSH1 0x4 CALLDATALOAD PUSH2 0xEDB PUSH2 0x2F98 JUMP JUMPDEST SWAP1 DUP1 DUP5 MSTORE PUSH1 0x0 DUP1 MLOAD PUSH1 0x20 PUSH2 0x5281 DUP4 CODECOPY DUP2 MLOAD SWAP2 MSTORE PUSH1 0x20 MSTORE PUSH2 0xF03 PUSH1 0x1 PUSH1 0x40 DUP7 KECCAK256 ADD SLOAD CALLER SWAP1 PUSH2 0x323E JUMP JUMPDEST PUSH2 0x36BB JUMP JUMPDEST POP DUP1 RETURN JUMPDEST POP CALLVALUE PUSH2 0x29B JUMPI DUP1 PUSH1 0x3 NOT CALLDATASIZE ADD SLT PUSH2 0x29B JUMPI PUSH1 0x20 PUSH1 0x40 MLOAD PUSH1 0x0 DUP1 MLOAD PUSH1 0x20 PUSH2 0x5261 DUP4 CODECOPY DUP2 MLOAD SWAP2 MSTORE DUP2 MSTORE RETURN JUMPDEST POP CALLVALUE PUSH2 0x29B JUMPI DUP1 PUSH1 0x3 NOT CALLDATASIZE ADD SLT PUSH2 0x29B JUMPI PUSH1 0x11 SLOAD PUSH1 0x40 MLOAD PUSH1 0x1 PUSH1 0x1 PUSH1 0xA0 SHL SUB SWAP1 SWAP2 AND DUP2 MSTORE PUSH1 0x20 SWAP1 RETURN JUMPDEST POP CALLVALUE PUSH2 0x29B JUMPI PUSH1 0x40 CALLDATASIZE PUSH1 0x3 NOT ADD SLT PUSH2 0x29B JUMPI PUSH2 0xF78 PUSH2 0x2F82 JUMP JUMPDEST PUSH2 0xF80 PUSH2 0x2F98 JUMP JUMPDEST SWAP1 PUSH2 0xF8A CALLER PUSH2 0x31FD JUMP JUMPDEST PUSH1 0x15 SLOAD PUSH1 0x1 PUSH1 0x1 PUSH1 0xA0 SHL SUB SWAP2 SWAP1 DUP3 AND DUP1 ISZERO ISZERO SWAP1 DUP2 PUSH2 0x106A JUMPI JUMPDEST POP PUSH2 0x80F JUMPI DUP2 AND SWAP2 DUP3 ISZERO DUP1 ISZERO PUSH2 0x1060 JUMPI JUMPDEST PUSH2 0x4CA JUMPI DUP2 PUSH1 0xF SLOAD AND DUP1 DUP5 EQ SWAP1 DUP2 ISZERO PUSH2 0x1052 JUMPI JUMPDEST DUP2 ISZERO PUSH2 0x1044 JUMPI JUMPDEST DUP2 ISZERO PUSH2 0x1038 JUMPI JUMPDEST POP DUP1 ISZERO PUSH2 0x1029 JUMPI JUMPDEST DUP1 ISZERO PUSH2 0x101A JUMPI JUMPDEST DUP1 ISZERO PUSH2 0x100F JUMPI JUMPDEST PUSH2 0x4A0 JUMPI PUSH1 0x1 DUP1 PUSH1 0xA0 SHL SUB NOT SWAP3 DUP4 PUSH1 0x10 SLOAD AND OR PUSH1 0x10 SSTORE AND SWAP1 PUSH1 0x13 SLOAD AND OR PUSH1 0x13 SSTORE DUP1 RETURN JUMPDEST POP DUP2 DUP2 AND DUP4 EQ PUSH2 0xFEC JUMP JUMPDEST POP DUP2 PUSH1 0x12 SLOAD AND DUP3 DUP3 AND EQ PUSH2 0xFE5 JUMP JUMPDEST POP DUP2 PUSH1 0x11 SLOAD AND DUP3 DUP3 AND EQ PUSH2 0xFDE JUMP JUMPDEST SWAP1 POP DUP3 DUP3 AND EQ CODESIZE PUSH2 0xFD6 JUMP JUMPDEST PUSH1 0x12 SLOAD DUP5 AND DUP6 EQ SWAP2 POP PUSH2 0xFCF JUMP JUMPDEST PUSH1 0x11 SLOAD DUP5 AND DUP6 EQ SWAP2 POP PUSH2 0xFC8 JUMP JUMPDEST POP DUP2 DUP2 AND ISZERO PUSH2 0xFB4 JUMP JUMPDEST SWAP1 POP CALLER EQ ISZERO CODESIZE PUSH2 0xFA3 JUMP JUMPDEST POP CALLVALUE PUSH2 0x29B JUMPI PUSH1 0x60 CALLDATASIZE PUSH1 0x3 NOT ADD SLT PUSH2 0x29B JUMPI PUSH1 0x1 PUSH1 0x1 PUSH1 0x40 SHL SUB SWAP1 PUSH1 0x4 CALLDATALOAD SWAP1 PUSH1 0x24 CALLDATALOAD DUP4 DUP2 GT PUSH2 0x82C JUMPI PUSH2 0x10AC SWAP1 CALLDATASIZE SWAP1 PUSH1 0x4 ADD PUSH2 0x2FC4 JUMP JUMPDEST SWAP4 SWAP1 SWAP2 PUSH1 0x44 CALLDATALOAD SWAP2 DUP3 GT PUSH2 0x29B JUMPI POP SWAP3 PUSH2 0x10FA SWAP2 PUSH2 0x10CF PUSH1 0x20 SWAP6 CALLDATASIZE SWAP1 PUSH1 0x4 ADD PUSH2 0x2FC4 JUMP JUMPDEST SWAP3 SWAP1 SWAP2 PUSH2 0x10DB CALLER PUSH2 0x31BC JUMP JUMPDEST PUSH2 0x10E4 CALLER PUSH2 0x3B8C JUMP JUMPDEST PUSH2 0x10EC PUSH2 0x3A65 JUMP JUMPDEST PUSH2 0x10F5 DUP7 PUSH2 0x433A JUMP JUMPDEST PUSH2 0x43E1 JUMP JUMPDEST PUSH1 0x40 MLOAD SWAP1 ISZERO ISZERO SWAP2 DUP3 DUP3 MSTORE PUSH32 0x4B29DF9D5BBFC2633516BA708A02ACC9114D6DCBDE488B5E16E75841C0366936 DUP5 CALLER SWAP4 LOG3 PUSH1 0x40 MLOAD SWAP1 DUP2 MSTORE RETURN JUMPDEST POP CALLVALUE PUSH2 0x29B JUMPI PUSH1 0x40 CALLDATASIZE PUSH1 0x3 NOT ADD SLT PUSH2 0x29B JUMPI PUSH1 0x4 CALLDATALOAD PUSH1 0x24 CALLDATALOAD DUP1 ISZERO ISZERO SWAP1 DUP2 DUP2 SUB PUSH2 0x7FA JUMPI PUSH2 0x115D CALLER PUSH2 0x31FD JUMP JUMPDEST PUSH1 0x15 SLOAD PUSH1 0x1 PUSH1 0x1 PUSH1 0xA0 SHL SUB AND DUP1 ISZERO ISZERO SWAP1 DUP2 PUSH2 0x11C6 JUMPI JUMPDEST POP PUSH2 0x80F JUMPI PUSH32 0xB88DA9EADF7BEC23C2087269E8A013078DC5341BA7F389FE6EA014199F59112A SWAP2 PUSH2 0x11BC PUSH1 0x20 SWAP3 DUP6 DUP8 MSTORE PUSH1 0x4 DUP5 MSTORE PUSH1 0x40 DUP8 KECCAK256 SWAP1 PUSH1 0xFF DUP1 NOT DUP4 SLOAD AND SWAP2 ISZERO ISZERO AND OR SWAP1 SSTORE JUMP JUMPDEST PUSH1 0x40 MLOAD SWAP1 DUP2 MSTORE LOG2 DUP1 RETURN JUMPDEST SWAP1 POP CALLER EQ ISZERO CODESIZE PUSH2 0x1173 JUMP JUMPDEST POP CALLVALUE PUSH2 0x29B JUMPI DUP1 PUSH1 0x3 NOT CALLDATASIZE ADD SLT PUSH2 0x29B JUMPI PUSH1 0x40 DUP1 MLOAD SWAP1 DUP2 ADD SWAP1 PUSH1 0x1 PUSH1 0x1 PUSH1 0x40 SHL SUB DUP3 GT DUP2 DUP4 LT OR PUSH2 0x122D JUMPI PUSH2 0x1229 SWAP2 PUSH1 0x40 MSTORE PUSH1 0x5 DUP2 MSTORE PUSH5 0x352E302E3 PUSH1 0xDC SHL PUSH1 0x20 DUP3 ADD MSTORE PUSH1 0x40 MLOAD SWAP2 DUP3 SWAP2 PUSH1 0x20 DUP4 MSTORE PUSH1 0x20 DUP4 ADD SWAP1 PUSH2 0x30ED JUMP JUMPDEST SUB SWAP1 RETURN JUMPDEST PUSH4 0x4E487B71 PUSH1 0xE0 SHL PUSH1 0x0 MSTORE PUSH1 0x41 PUSH1 0x4 MSTORE PUSH1 0x24 PUSH1 0x0 REVERT JUMPDEST POP CALLVALUE PUSH2 0x29B JUMPI PUSH1 0xA0 CALLDATASIZE PUSH1 0x3 NOT ADD SLT PUSH2 0x29B JUMPI PUSH1 0x1 PUSH1 0x1 PUSH1 0x40 SHL SUB SWAP1 PUSH1 0x4 CALLDATALOAD SWAP1 PUSH1 0x24 CALLDATALOAD DUP4 DUP2 GT PUSH2 0x82C JUMPI PUSH2 0x127A SWAP1 CALLDATASIZE SWAP1 PUSH1 0x4 ADD PUSH2 0x2FC4 JUMP JUMPDEST SWAP1 SWAP4 PUSH1 0x44 CALLDATALOAD DUP2 DUP2 GT PUSH2 0x7FA JUMPI PUSH2 0x1294 SWAP1 CALLDATASIZE SWAP1 PUSH1 0x4 ADD PUSH2 0x2FC4 JUMP JUMPDEST SWAP3 SWAP1 SWAP2 PUSH1 0x64 CALLDATALOAD SWAP5 PUSH1 0x84 CALLDATALOAD SWAP2 DUP3 GT PUSH2 0x29B JUMPI POP PUSH2 0x12B4 SWAP1 CALLDATASIZE SWAP1 PUSH1 0x4 ADD PUSH2 0x2FC4 JUMP JUMPDEST PUSH2 0x12BD CALLER PUSH2 0x31BC JUMP JUMPDEST PUSH2 0x12C6 CALLER PUSH2 0x3B8C JUMP JUMPDEST PUSH2 0x12CE PUSH2 0x3A65 JUMP JUMPDEST PUSH2 0x12D7 DUP8 PUSH2 0x433A JUMP JUMPDEST SWAP6 PUSH1 0x1 DUP1 PUSH1 0xA0 SHL SUB SWAP2 DUP3 PUSH1 0x14 SLOAD AND SWAP4 DUP5 ISZERO PUSH2 0x4A0 JUMPI TIMESTAMP DUP4 LT PUSH2 0xBD4 JUMPI PUSH2 0x136E DUP11 PUSH2 0x1373 SWAP5 PUSH2 0x1307 DUP15 DUP11 CALLDATASIZE SWAP2 PUSH2 0x3093 JUMP JUMPDEST PUSH1 0x20 DUP2 MLOAD SWAP2 ADD KECCAK256 SWAP1 PUSH2 0x131A CALLDATASIZE DUP14 DUP14 PUSH2 0x3093 JUMP JUMPDEST PUSH1 0x20 DUP2 MLOAD SWAP2 ADD KECCAK256 PUSH1 0x40 MLOAD SWAP3 PUSH1 0x20 DUP5 ADD SWAP5 PUSH32 0x6A5BD257D1158833D74C8D0A3C95F90438FF79A596EC607F4A4DCC721A0DE92E DUP7 MSTORE PUSH1 0x40 DUP6 ADD MSTORE PUSH1 0x60 DUP5 ADD MSTORE PUSH1 0x80 DUP4 ADD MSTORE PUSH1 0xA0 DUP3 ADD MSTORE PUSH1 0xA0 DUP2 MSTORE PUSH2 0x944 DUP2 PUSH2 0x303A JUMP JUMPDEST PUSH2 0x4C1E JUMP JUMPDEST AND SUB PUSH2 0xAB2 JUMPI PUSH1 0x20 SWAP6 PUSH2 0x1385 SWAP5 PUSH2 0x43E1 JUMP JUMPDEST PUSH1 0x40 MLOAD SWAP1 ISZERO ISZERO SWAP2 DUP3 DUP3 MSTORE PUSH32 0x1D9B9D96895678087A5543FE8C53E4CC70AFBADDD792E1E5510631E401FC26D5 DUP5 CALLER SWAP4 LOG3 PUSH1 0x40 MLOAD SWAP1 DUP2 MSTORE RETURN JUMPDEST POP CALLVALUE PUSH2 0x29B JUMPI PUSH1 0x60 CALLDATASIZE PUSH1 0x3 NOT ADD SLT PUSH2 0x29B JUMPI PUSH1 0x4 CALLDATALOAD PUSH1 0x24 DUP1 CALLDATALOAD PUSH1 0x1 PUSH1 0x1 PUSH1 0x40 SHL SUB DUP2 GT PUSH2 0x7FA JUMPI PUSH2 0x13F1 SWAP1 CALLDATASIZE SWAP1 PUSH1 0x4 ADD PUSH2 0x312D JUMP JUMPDEST SWAP1 SWAP3 PUSH1 0x44 CALLDATALOAD SWAP1 PUSH1 0xFF SWAP5 DUP6 DUP4 AND DUP1 SWAP4 SUB PUSH2 0x168D JUMPI DUP2 ISZERO DUP1 ISZERO PUSH2 0x1685 JUMPI JUMPDEST PUSH2 0x4A0 JUMPI PUSH1 0x15 SLOAD PUSH1 0x1 PUSH1 0x1 PUSH1 0xA0 SHL SUB SWAP4 SWAP1 DUP5 AND DUP1 ISZERO PUSH2 0x1666 JUMPI CALLER SUB PUSH2 0x80F JUMPI JUMPDEST PUSH1 0x5 DUP6 EQ DUP1 ISZERO SWAP1 PUSH2 0x165B JUMPI JUMPDEST PUSH2 0x4A0 JUMPI DUP3 DUP9 MSTORE PUSH1 0x2 SWAP5 PUSH1 0x20 SWAP6 DUP1 DUP8 MSTORE PUSH1 0x40 DUP11 KECCAK256 SWAP8 DUP11 JUMPDEST DUP10 SLOAD DUP2 LT ISZERO PUSH2 0x1498 JUMPI DUP7 DUP13 MSTORE PUSH1 0x1 DUP10 MSTORE PUSH1 0x40 DUP13 KECCAK256 PUSH2 0x1493 SWAP2 SWAP1 DUP10 PUSH2 0x1474 DUP4 DUP15 PUSH2 0x3A2A JUMP JUMPDEST SWAP1 SLOAD SWAP1 PUSH1 0x3 SHL SHR AND PUSH1 0x0 MSTORE DUP11 MSTORE PUSH1 0x40 PUSH1 0x0 KECCAK256 PUSH1 0xFF NOT DUP2 SLOAD AND SWAP1 SSTORE PUSH2 0x3A1B JUMP JUMPDEST PUSH2 0x1450 JUMP JUMPDEST POP SWAP1 DUP11 SWAP7 SWAP5 SWAP8 SWAP3 SWAP2 DUP11 DUP8 DUP10 MSTORE DUP3 DUP6 MSTORE PUSH1 0x40 DUP10 KECCAK256 DUP1 SLOAD SWAP1 DUP11 DUP2 SSTORE DUP2 PUSH2 0x163E JUMPI JUMPDEST POP POP DUP9 SWAP7 SWAP4 SWAP7 JUMPDEST DUP8 DUP2 LT PUSH2 0x1551 JUMPI POP POP POP POP DUP5 DUP7 MSTORE PUSH1 0x3 DUP3 MSTORE PUSH1 0x40 DUP7 KECCAK256 DUP4 PUSH1 0xFF NOT DUP3 SLOAD AND OR SWAP1 SSTORE PUSH1 0x40 MLOAD SWAP4 DUP1 PUSH1 0x40 DUP7 ADD PUSH1 0x40 DUP8 MSTORE MSTORE PUSH1 0x60 DUP6 ADD SWAP8 SWAP2 DUP8 SWAP1 JUMPDEST DUP3 DUP3 LT PUSH2 0x152D JUMPI DUP9 DUP9 PUSH32 0xA25A820E9F6BA0B2ABFCD9114F461D047F57117AB520DC6CADD3C9388695EF49 DUP10 DUP1 DUP15 DUP12 DUP12 DUP4 ADD MSTORE SUB SWAP1 LOG2 DUP1 RETURN JUMPDEST SWAP1 SWAP2 SWAP3 SWAP9 DUP10 CALLDATALOAD SWAP1 DUP3 DUP3 AND DUP1 SWAP3 SUB PUSH2 0x540 JUMPI SWAP1 DUP2 MSTORE DUP5 ADD SWAP9 DUP5 ADD SWAP3 SWAP2 PUSH1 0x1 ADD SWAP1 PUSH2 0x14F5 JUMP JUMPDEST PUSH2 0x155F DUP2 DUP10 DUP14 SWAP11 SWAP8 SWAP11 PUSH2 0x3A55 JUMP JUMPDEST CALLDATALOAD DUP9 DUP2 AND DUP1 SWAP2 SUB PUSH2 0x540 JUMPI DUP1 ISZERO PUSH2 0x4CA JUMPI DUP9 PUSH1 0x11 SLOAD AND DUP2 EQ DUP1 ISZERO PUSH2 0x1631 JUMPI JUMPDEST DUP1 ISZERO PUSH2 0x1624 JUMPI JUMPDEST PUSH2 0x4A0 JUMPI DUP10 DUP12 MSTORE PUSH1 0x1 DUP1 DUP9 MSTORE PUSH1 0x40 DUP13 KECCAK256 DUP3 PUSH1 0x0 MSTORE DUP9 MSTORE DUP4 PUSH1 0x40 PUSH1 0x0 KECCAK256 SLOAD AND PUSH2 0x4A0 JUMPI DUP11 DUP13 MSTORE DUP1 DUP9 MSTORE PUSH1 0x40 DUP1 DUP14 KECCAK256 PUSH1 0x0 DUP5 DUP2 MSTORE SWAP1 DUP11 MSTORE DUP2 SWAP1 KECCAK256 DUP1 SLOAD PUSH1 0xFF NOT AND DUP4 OR SWAP1 SSTORE DUP12 DUP14 MSTORE DUP7 DUP10 MSTORE DUP13 KECCAK256 DUP1 SLOAD SWAP2 PUSH1 0x1 PUSH1 0x40 SHL DUP4 LT ISZERO PUSH2 0x1611 JUMPI DUP3 ADD DUP2 SSTORE PUSH2 0x1609 SWAP4 SWAP3 SWAP2 PUSH2 0x15F1 SWAP2 PUSH2 0x3A2A JUMP JUMPDEST DUP12 DUP3 SWAP4 SWAP3 SLOAD SWAP2 PUSH1 0x3 SHL SWAP3 DUP4 SHL SWAP3 SHL NOT AND OR SWAP1 SSTORE PUSH2 0x3A1B JUMP JUMPDEST SWAP7 SWAP4 SWAP7 PUSH2 0x14BE JUMP JUMPDEST PUSH4 0x4E487B71 PUSH1 0xE0 SHL DUP15 MSTORE PUSH1 0x41 PUSH1 0x4 MSTORE DUP7 DUP15 REVERT JUMPDEST POP DUP9 PUSH1 0x13 SLOAD AND DUP2 EQ PUSH2 0x1585 JUMP JUMPDEST POP DUP9 PUSH1 0x12 SLOAD AND DUP2 EQ PUSH2 0x157E JUMP JUMPDEST DUP11 MSTORE DUP6 DUP11 KECCAK256 SWAP1 DUP2 ADD SWAP1 JUMPDEST DUP2 DUP2 LT ISZERO PUSH2 0x14B7 JUMPI DUP11 DUP2 SSTORE PUSH1 0x1 ADD PUSH2 0x1648 JUMP JUMPDEST POP PUSH1 0x3 DUP2 EQ ISZERO PUSH2 0x1439 JUMP JUMPDEST POP DUP4 PUSH1 0xF SLOAD AND CALLER SUB ISZERO PUSH2 0x142D JUMPI PUSH1 0x40 MLOAD PUSH4 0x8BAA579F PUSH1 0xE0 SHL DUP2 MSTORE PUSH1 0x4 SWAP1 REVERT JUMPDEST POP DUP4 ISZERO PUSH2 0x140D JUMP JUMPDEST DUP7 DUP1 REVERT JUMPDEST POP CALLVALUE PUSH2 0x29B JUMPI PUSH1 0x20 CALLDATASIZE PUSH1 0x3 NOT ADD SLT PUSH2 0x29B JUMPI PUSH1 0xFF PUSH1 0x40 PUSH1 0x20 SWAP3 PUSH1 0x4 CALLDATALOAD DUP2 MSTORE PUSH1 0x4 DUP5 MSTORE KECCAK256 SLOAD AND PUSH1 0x40 MLOAD SWAP1 ISZERO ISZERO DUP2 MSTORE RETURN JUMPDEST POP CALLVALUE PUSH2 0x29B JUMPI PUSH1 0x40 CALLDATASIZE PUSH1 0x3 NOT ADD SLT PUSH2 0x29B JUMPI PUSH1 0x4 CALLDATALOAD PUSH2 0x16DE CALLER PUSH2 0x315D JUMP JUMPDEST PUSH1 0x15 SLOAD PUSH1 0x1 PUSH1 0x1 PUSH1 0xA0 SHL SUB AND DUP1 ISZERO ISZERO SWAP1 DUP2 PUSH2 0x178A JUMPI JUMPDEST POP PUSH2 0x80F JUMPI DUP1 PUSH1 0x0 MSTORE PUSH1 0x0 PUSH1 0x20 MSTORE PUSH1 0x40 PUSH1 0x0 KECCAK256 PUSH2 0x100 PUSH2 0xFF00 NOT DUP3 SLOAD AND OR SWAP1 SSTORE PUSH1 0x0 DUP1 MLOAD PUSH1 0x20 PUSH2 0x52A1 DUP4 CODECOPY DUP2 MLOAD SWAP2 MSTORE DUP1 SLOAD PUSH1 0xFF DUP2 AND ISZERO PUSH2 0x1759 JUMPI JUMPDEST POP POP PUSH1 0x40 MLOAD SWAP1 PUSH1 0x1 DUP3 MSTORE PUSH1 0x1 PUSH1 0x20 DUP4 ADD MSTORE PUSH1 0x0 DUP1 MLOAD PUSH1 0x20 PUSH2 0x5121 DUP4 CODECOPY DUP2 MLOAD SWAP2 MSTORE PUSH1 0x40 PUSH1 0x24 CALLDATALOAD SWAP4 LOG3 DUP1 RETURN JUMPDEST PUSH1 0x1 SWAP1 PUSH2 0x1764 PUSH2 0x3A65 JUMP JUMPDEST PUSH1 0xFF NOT AND OR SWAP1 SSTORE PUSH1 0x0 DUP1 MLOAD PUSH1 0x20 PUSH2 0x52E1 DUP4 CODECOPY DUP2 MLOAD SWAP2 MSTORE PUSH1 0x20 PUSH1 0x40 MLOAD CALLER DUP2 MSTORE LOG1 CODESIZE DUP1 PUSH2 0x172F JUMP JUMPDEST SWAP1 POP CALLER EQ ISZERO CODESIZE PUSH2 0x16F4 JUMP JUMPDEST POP CALLVALUE PUSH2 0x29B JUMPI DUP1 PUSH1 0x3 NOT CALLDATASIZE ADD SLT PUSH2 0x29B JUMPI PUSH1 0x20 PUSH1 0x40 MLOAD PUSH1 0x0 DUP1 MLOAD PUSH1 0x20 PUSH2 0x5181 DUP4 CODECOPY DUP2 MLOAD SWAP2 MSTORE DUP2 MSTORE RETURN JUMPDEST POP CALLVALUE PUSH2 0x29B JUMPI DUP1 PUSH1 0x3 NOT CALLDATASIZE ADD SLT PUSH2 0x29B JUMPI PUSH1 0x12 SLOAD PUSH1 0x40 MLOAD PUSH1 0x1 PUSH1 0x1 PUSH1 0xA0 SHL SUB SWAP1 SWAP2 AND DUP2 MSTORE PUSH1 0x20 SWAP1 RETURN JUMPDEST POP CALLVALUE PUSH2 0x29B JUMPI DUP1 PUSH1 0x3 NOT CALLDATASIZE ADD SLT PUSH2 0x29B JUMPI PUSH1 0x20 SWAP1 PUSH1 0x40 MLOAD SWAP1 DUP2 MSTORE RETURN JUMPDEST POP CALLVALUE PUSH2 0x29B JUMPI DUP1 PUSH1 0x3 NOT CALLDATASIZE ADD SLT PUSH2 0x29B JUMPI PUSH1 0x15 SLOAD PUSH1 0x40 MLOAD PUSH1 0x1 PUSH1 0x1 PUSH1 0xA0 SHL SUB SWAP1 SWAP2 AND DUP2 MSTORE PUSH1 0x20 SWAP1 RETURN JUMPDEST POP CALLVALUE PUSH2 0x29B JUMPI PUSH1 0x20 CALLDATASIZE PUSH1 0x3 NOT ADD SLT PUSH2 0x29B JUMPI PUSH1 0x4 CALLDATALOAD PUSH2 0x184A CALLER PUSH2 0x315D JUMP JUMPDEST DUP1 DUP3 MSTORE DUP2 PUSH1 0x20 MSTORE PUSH1 0x40 DUP3 KECCAK256 PUSH1 0xFF DUP2 SLOAD AND ISZERO PUSH2 0xE9E JUMPI PUSH1 0x3 DUP2 ADD SLOAD PUSH1 0x1 PUSH1 0x1 PUSH1 0xA0 SHL SUB AND ISZERO PUSH2 0x4A0 JUMPI PUSH2 0x187B SWAP2 PUSH2 0x3E06 JUMP JUMPDEST DUP1 RETURN JUMPDEST POP CALLVALUE PUSH2 0x29B JUMPI DUP1 PUSH1 0x3 NOT CALLDATASIZE ADD SLT PUSH2 0x29B JUMPI PUSH1 0x20 PUSH1 0x40 MLOAD PUSH1 0x0 DUP1 MLOAD PUSH1 0x20 PUSH2 0x5141 DUP4 CODECOPY DUP2 MLOAD SWAP2 MSTORE DUP2 MSTORE RETURN JUMPDEST POP CALLVALUE PUSH2 0x29B JUMPI PUSH1 0x40 CALLDATASIZE PUSH1 0x3 NOT ADD SLT PUSH2 0x29B JUMPI PUSH1 0x40 PUSH2 0x18C3 PUSH2 0x2F98 JUMP JUMPDEST SWAP2 PUSH1 0x4 CALLDATALOAD DUP2 MSTORE PUSH1 0x0 DUP1 MLOAD PUSH1 0x20 PUSH2 0x5281 DUP4 CODECOPY DUP2 MLOAD SWAP2 MSTORE PUSH1 0x20 MSTORE KECCAK256 SWAP1 PUSH1 0x1 DUP1 PUSH1 0xA0 SHL SUB AND PUSH1 0x0 MSTORE PUSH1 0x20 MSTORE PUSH1 0x20 PUSH1 0xFF PUSH1 0x40 PUSH1 0x0 KECCAK256 SLOAD AND PUSH1 0x40 MLOAD SWAP1 ISZERO ISZERO DUP2 MSTORE RETURN JUMPDEST POP CALLVALUE PUSH2 0x29B JUMPI PUSH1 0x20 CALLDATASIZE PUSH1 0x3 NOT ADD SLT PUSH2 0x29B JUMPI PUSH2 0x191A PUSH2 0x2F82 JUMP JUMPDEST PUSH2 0x1923 CALLER PUSH2 0x31FD JUMP JUMPDEST PUSH1 0x15 SLOAD PUSH1 0x1 PUSH1 0x1 PUSH1 0xA0 SHL SUB SWAP2 SWAP1 DUP3 AND DUP1 ISZERO ISZERO SWAP1 DUP2 PUSH2 0x1981 JUMPI JUMPDEST POP PUSH2 0x80F JUMPI AND DUP1 ISZERO PUSH2 0x4CA JUMPI PUSH1 0x14 DUP1 SLOAD PUSH1 0x1 PUSH1 0x1 PUSH1 0xA0 SHL SUB NOT AND DUP3 OR SWAP1 SSTORE PUSH32 0x8B2076B12E56028BCD776CBA4BE97DBC80B49838308A6F70B2BE8D72A938EB47 DUP3 DUP1 LOG2 DUP1 RETURN JUMPDEST SWAP1 POP CALLER EQ ISZERO CODESIZE PUSH2 0x193C JUMP JUMPDEST POP CALLVALUE PUSH2 0x29B JUMPI PUSH1 0x40 CALLDATASIZE PUSH1 0x3 NOT ADD SLT PUSH2 0x29B JUMPI PUSH2 0x19A6 PUSH2 0x2F82 JUMP JUMPDEST PUSH1 0x24 CALLDATALOAD SWAP1 PUSH6 0xFFFFFFFFFFFF DUP3 AND SWAP1 DUP2 DUP4 SUB PUSH2 0x7FA JUMPI PUSH2 0x19C4 CALLER PUSH2 0x31FD JUMP JUMPDEST PUSH1 0x1 PUSH1 0x1 PUSH1 0xA0 SHL SUB AND SWAP2 DUP3 ISZERO PUSH2 0x4CA JUMPI PUSH3 0x93A80 DUP3 LT PUSH2 0x1A34 JUMPI PUSH1 0x15 DUP1 SLOAD PUSH1 0x1 PUSH1 0x1 PUSH1 0xD0 SHL SUB NOT AND DUP5 OR PUSH1 0xA0 SWAP3 SWAP1 SWAP3 SHL PUSH6 0xFFFFFFFFFFFF PUSH1 0xA0 SHL AND SWAP2 SWAP1 SWAP2 OR SWAP1 SSTORE PUSH1 0x40 MLOAD SWAP1 DUP2 MSTORE PUSH32 0x2AF330FEBA9CFF0ABEDA1F9E0D8B9FFDA51EB6D3959CA9E39B6D89EDD3EE0549 SWAP1 PUSH1 0x20 SWAP1 LOG2 DUP1 RETURN JUMPDEST PUSH1 0x40 MLOAD PUSH4 0x10A67D1 PUSH1 0xE1 SHL DUP2 MSTORE PUSH1 0x4 SWAP1 REVERT JUMPDEST POP CALLVALUE PUSH2 0x29B JUMPI PUSH1 0x60 CALLDATASIZE PUSH1 0x3 NOT ADD SLT PUSH2 0x29B JUMPI PUSH2 0x1A60 PUSH2 0x2F82 JUMP JUMPDEST PUSH2 0x1A68 PUSH2 0x2F98 JUMP JUMPDEST SWAP1 PUSH2 0x1A71 PUSH2 0x2FAE JUMP JUMPDEST SWAP2 PUSH2 0x1A7B CALLER PUSH2 0x31FD JUMP JUMPDEST PUSH1 0x15 SLOAD PUSH1 0x1 PUSH1 0x1 PUSH1 0xA0 SHL SUB SWAP3 SWAP1 DUP4 AND DUP1 ISZERO ISZERO SWAP1 DUP2 PUSH2 0x1B8C JUMPI JUMPDEST POP PUSH2 0x80F JUMPI DUP3 AND SWAP1 DUP2 ISZERO DUP1 ISZERO PUSH2 0x1B82 JUMPI JUMPDEST DUP1 ISZERO PUSH2 0x1B78 JUMPI JUMPDEST PUSH2 0x4CA JUMPI DUP3 PUSH1 0x10 SLOAD AND DUP1 ISZERO ISZERO SWAP1 DUP2 PUSH2 0x1B6E JUMPI JUMPDEST POP PUSH2 0x4A0 JUMPI DUP3 PUSH1 0x13 SLOAD AND DUP1 ISZERO ISZERO SWAP1 DUP2 PUSH2 0x1B3C JUMPI JUMPDEST POP PUSH2 0x4A0 JUMPI PUSH32 0xB07DD9FE97CA554077FD819F53391E89D1C7F37EE7811BE76FE27D0F3AB9AEF2 SWAP4 DUP4 PUSH1 0x60 SWAP5 PUSH1 0x1 DUP1 PUSH1 0xA0 SHL SUB NOT SWAP4 DUP6 DUP6 PUSH1 0xF SLOAD AND OR PUSH1 0xF SSTORE AND SWAP2 DUP3 DUP5 PUSH1 0x11 SLOAD AND OR PUSH1 0x11 SSTORE AND DUP1 SWAP3 PUSH1 0x12 SLOAD AND OR PUSH1 0x12 SSTORE PUSH1 0x40 MLOAD SWAP3 DUP4 MSTORE PUSH1 0x20 DUP4 ADD MSTORE PUSH1 0x40 DUP3 ADD MSTORE LOG1 DUP1 RETURN JUMPDEST DUP4 DUP2 EQ SWAP2 POP DUP2 ISZERO PUSH2 0x1B62 JUMPI JUMPDEST DUP2 ISZERO PUSH2 0x1B56 JUMPI JUMPDEST POP CODESIZE PUSH2 0x1AD3 JUMP JUMPDEST SWAP1 POP DUP4 DUP6 AND EQ CODESIZE PUSH2 0x1B4F JUMP JUMPDEST DUP3 DUP6 AND DUP2 EQ SWAP2 POP PUSH2 0x1B48 JUMP JUMPDEST SWAP1 POP DUP3 EQ CODESIZE PUSH2 0x1ABF JUMP JUMPDEST POP DUP3 DUP5 AND ISZERO PUSH2 0x1AAC JUMP JUMPDEST POP DUP3 DUP2 AND ISZERO PUSH2 0x1AA5 JUMP JUMPDEST SWAP1 POP CALLER EQ ISZERO CODESIZE PUSH2 0x1A94 JUMP JUMPDEST POP CALLVALUE PUSH2 0x29B JUMPI PUSH1 0xE0 CALLDATASIZE PUSH1 0x3 NOT ADD SLT PUSH2 0x29B JUMPI PUSH2 0x1BB1 PUSH2 0x2F98 JUMP JUMPDEST PUSH1 0xC4 CALLDATALOAD PUSH1 0x1 PUSH1 0x1 PUSH1 0x40 SHL SUB DUP2 GT PUSH2 0xC04 JUMPI PUSH2 0x1BD0 SWAP1 CALLDATASIZE SWAP1 PUSH1 0x4 ADD PUSH2 0x312D JUMP JUMPDEST PUSH2 0x1BD9 CALLER PUSH2 0x31BC JUMP JUMPDEST PUSH2 0x1BE2 CALLER PUSH2 0x3B8C JUMP JUMPDEST PUSH2 0x1BEA PUSH2 0x3A65 JUMP JUMPDEST PUSH2 0x1BF2 PUSH2 0x3830 JUMP JUMPDEST PUSH2 0x1BFD PUSH1 0x4 CALLDATALOAD PUSH2 0x438A JUMP JUMPDEST SWAP2 PUSH1 0xFF DUP4 SLOAD PUSH1 0x8 SHR AND PUSH2 0x2058 JUMPI PUSH1 0x1 PUSH1 0x1 PUSH1 0xA0 SHL SUB DUP5 AND ISZERO PUSH2 0xD43 JUMPI PUSH1 0x44 CALLDATALOAD ISZERO PUSH2 0xD31 JUMPI TIMESTAMP PUSH1 0xA4 CALLDATALOAD LT PUSH2 0xBD4 JUMPI PUSH1 0x84 CALLDATALOAD DUP6 MSTORE PUSH1 0x4 PUSH1 0x20 MSTORE PUSH1 0xFF PUSH1 0x40 DUP7 KECCAK256 SLOAD AND ISZERO PUSH2 0x2046 JUMPI PUSH1 0x40 MLOAD PUSH1 0x4 CALLDATALOAD PUSH1 0x20 DUP3 ADD MSTORE PUSH1 0x64 CALLDATALOAD PUSH1 0x40 DUP3 ADD MSTORE PUSH1 0x40 DUP2 MSTORE PUSH2 0x1C61 DUP2 PUSH2 0x301F JUMP JUMPDEST PUSH1 0x20 DUP2 MLOAD SWAP2 ADD KECCAK256 DUP1 DUP7 MSTORE PUSH1 0x5 PUSH1 0x20 MSTORE PUSH1 0xFF PUSH1 0x40 DUP8 KECCAK256 SLOAD AND PUSH2 0xBC2 JUMPI DUP6 MSTORE PUSH1 0x5 PUSH1 0x20 SWAP1 DUP2 MSTORE PUSH1 0x40 DUP1 DUP8 KECCAK256 DUP1 SLOAD PUSH1 0xFF NOT AND PUSH1 0x1 OR SWAP1 SSTORE PUSH1 0x4 CALLDATALOAD DUP8 MSTORE DUP7 DUP3 MSTORE DUP1 DUP8 KECCAK256 PUSH1 0x7 SWAP1 SWAP3 MSTORE DUP7 KECCAK256 DUP1 SLOAD PUSH3 0x15180 TIMESTAMP DIV PUSH1 0x1 PUSH1 0x1 PUSH1 0x40 SHL SUB SWAP1 DUP2 AND SWAP2 SWAP1 DUP2 AND DUP3 SWAP1 SUB PUSH2 0x2024 JUMPI JUMPDEST POP POP PUSH2 0x1CD8 PUSH1 0x44 CALLDATALOAD PUSH1 0x1 DUP4 ADD SLOAD PUSH2 0x3823 JUMP JUMPDEST SWAP1 PUSH2 0x1CE9 PUSH1 0x44 CALLDATALOAD PUSH1 0x2 DUP4 ADD SLOAD PUSH2 0x3823 JUMP JUMPDEST SWAP3 PUSH1 0x4 DUP2 ADD SLOAD DUP1 ISZERO ISZERO SWAP1 DUP2 PUSH2 0x201A JUMPI JUMPDEST POP PUSH2 0x2008 JUMPI PUSH1 0x5 ADD SLOAD DUP1 ISZERO ISZERO SWAP1 DUP2 PUSH2 0x1FFE JUMPI JUMPDEST POP PUSH2 0x1FEC JUMPI PUSH1 0x2 SWAP2 PUSH1 0x1 DUP3 ADD SSTORE ADD SSTORE PUSH2 0x1D2A PUSH1 0x44 CALLDATALOAD DUP5 PUSH1 0x4 CALLDATALOAD PUSH2 0x4174 JUMP JUMPDEST PUSH2 0x1D38 PUSH1 0x44 CALLDATALOAD PUSH1 0x4 CALLDATALOAD PUSH2 0x3C21 JUMP JUMPDEST PUSH1 0x40 MLOAD PUSH32 0x4F43586F4BC4E2854D05029B51443C943B264262F53210EF6B52E2B170E20227 PUSH1 0x20 DUP3 ADD MSTORE PUSH1 0x4 CALLDATALOAD PUSH1 0x40 DUP3 ADD MSTORE PUSH1 0x1 DUP1 PUSH1 0xA0 SHL SUB DUP6 AND PUSH1 0x60 DUP3 ADD MSTORE PUSH1 0x44 CALLDATALOAD PUSH1 0x80 DUP3 ADD MSTORE PUSH1 0x64 CALLDATALOAD PUSH1 0xA0 DUP3 ADD MSTORE PUSH1 0x84 CALLDATALOAD PUSH1 0xC0 DUP3 ADD MSTORE PUSH1 0xA4 CALLDATALOAD PUSH1 0xE0 DUP3 ADD MSTORE PUSH1 0xE0 DUP2 MSTORE DUP1 PUSH2 0x100 DUP2 ADD LT PUSH1 0x1 DUP1 PUSH1 0x40 SHL SUB PUSH2 0x100 DUP4 ADD GT OR PUSH2 0x122D JUMPI PUSH2 0x100 DUP2 ADD PUSH1 0x40 MSTORE PUSH1 0x20 DUP2 MLOAD SWAP2 ADD KECCAK256 SWAP2 PUSH1 0x4 CALLDATALOAD DUP7 MSTORE PUSH1 0x3 PUSH1 0x20 MSTORE PUSH1 0xFF PUSH1 0x40 DUP8 KECCAK256 SLOAD AND SWAP3 DUP4 ISZERO PUSH2 0x4A0 JUMPI PUSH2 0x1DE9 SWAP1 SWAP3 SWAP2 SWAP3 PUSH2 0x4B5C JUMP JUMPDEST PUSH1 0x4 CALLDATALOAD DUP8 MSTORE PUSH1 0x2 PUSH1 0x20 MSTORE PUSH1 0x40 DUP8 KECCAK256 SWAP3 DUP4 SLOAD PUSH2 0x1E03 DUP2 PUSH2 0x3B46 JUMP JUMPDEST SWAP5 DUP10 JUMPDEST DUP3 DUP2 LT PUSH2 0x1FAF JUMPI POP POP POP PUSH1 0x0 SWAP4 PUSH2 0x1E1C DUP3 PUSH2 0x3B46 JUMP JUMPDEST SWAP1 DUP6 SWAP5 JUMPDEST DUP4 DUP7 LT PUSH2 0x1F04 JUMPI POP POP POP POP POP POP LT PUSH2 0x1EF2 JUMPI SLOAD DUP3 SWAP1 PUSH1 0x18 SHR PUSH1 0x1 PUSH1 0x1 PUSH1 0xA0 SHL SUB AND DUP1 EXTCODESIZE ISZERO PUSH2 0x82C JUMPI DUP2 PUSH1 0x40 MLOAD DUP1 SWAP3 PUSH4 0x40C10F19 PUSH1 0xE0 SHL DUP3 MSTORE DUP2 DUP4 DUP2 PUSH2 0x1E6B PUSH1 0x44 CALLDATALOAD DUP11 PUSH1 0x4 DUP5 ADD PUSH2 0x3944 JUMP JUMPDEST SUB SWAP3 GAS CALL DUP1 ISZERO PUSH2 0x1EE7 JUMPI PUSH2 0x1ED3 JUMPI JUMPDEST POP POP PUSH1 0x40 MLOAD PUSH1 0x44 CALLDATALOAD DUP2 MSTORE PUSH1 0x1 PUSH1 0x1 PUSH1 0xA0 SHL SUB SWAP1 SWAP2 AND SWAP1 PUSH1 0x64 CALLDATALOAD SWAP1 PUSH1 0x4 CALLDATALOAD SWAP1 PUSH32 0xCBEB0728B0714DDB330BD3E112709EAAFEEDEDF4FEC93E3DC7AF4749F1552D73 SWAP1 PUSH1 0x20 SWAP1 LOG4 PUSH1 0x1 PUSH1 0x0 DUP1 MLOAD PUSH1 0x20 PUSH2 0x52C1 DUP4 CODECOPY DUP2 MLOAD SWAP2 MSTORE SSTORE DUP1 RETURN JUMPDEST PUSH2 0x1EDC SWAP1 PUSH2 0x2FF1 JUMP JUMPDEST PUSH2 0x82C JUMPI DUP2 CODESIZE PUSH2 0x1E7A JUMP JUMPDEST PUSH1 0x40 MLOAD RETURNDATASIZE DUP5 DUP3 RETURNDATACOPY RETURNDATASIZE SWAP1 REVERT JUMPDEST PUSH1 0x40 MLOAD PUSH4 0x1C847841 PUSH1 0xE1 SHL DUP2 MSTORE PUSH1 0x4 SWAP1 REVERT JUMPDEST SWAP1 SWAP2 SWAP3 SWAP4 SWAP5 SWAP6 PUSH1 0x1E NOT DUP3 CALLDATASIZE SUB ADD DUP8 PUSH1 0x5 SHL DUP4 ADD CALLDATALOAD SLT ISZERO PUSH2 0x540 JUMPI PUSH1 0x5 DUP8 SWAP1 SHL DUP3 ADD CALLDATALOAD DUP3 ADD DUP1 CALLDATALOAD SWAP1 PUSH1 0x1 PUSH1 0x1 PUSH1 0x40 SHL SUB DUP3 GT PUSH2 0x540 JUMPI PUSH1 0x20 ADD SWAP1 DUP1 CALLDATASIZE SUB DUP3 SGT PUSH2 0x540 JUMPI PUSH2 0x1F50 SWAP2 DUP9 PUSH2 0x4C1E JUMP JUMPDEST PUSH2 0x1F5C DUP5 MLOAD DUP6 DUP4 PUSH2 0x3BB9 JUMP JUMPDEST ISZERO PUSH2 0x1FA4 JUMPI PUSH2 0x1F6C DUP3 DUP7 DUP4 PUSH2 0x3BB9 JUMP JUMPDEST PUSH2 0x1FA4 JUMPI DUP2 PUSH2 0x1F94 SWAP2 PUSH2 0x1F82 PUSH2 0x1F9A SWAP5 DUP9 PUSH2 0x3B78 JUMP JUMPDEST PUSH1 0x1 PUSH1 0x1 PUSH1 0xA0 SHL SUB SWAP1 SWAP2 AND SWAP1 MSTORE PUSH2 0x3A1B JUMP JUMPDEST SWAP7 PUSH2 0x3A1B JUMP JUMPDEST SWAP5 SWAP4 SWAP3 SWAP2 SWAP1 PUSH2 0x1E20 JUMP JUMPDEST POP SWAP6 PUSH2 0x1F9A SWAP1 PUSH2 0x3A1B JUMP JUMPDEST DUP1 PUSH2 0x1FC1 PUSH2 0x1FE3 SWAP3 DUP5 SWAP9 SWAP7 SWAP8 SWAP9 PUSH2 0x3A2A JUMP JUMPDEST SWAP1 SLOAD PUSH1 0x3 SWAP2 SWAP1 SWAP2 SHL SHR PUSH1 0x1 PUSH1 0x1 PUSH1 0xA0 SHL SUB AND PUSH2 0x1FDD DUP3 DUP11 PUSH2 0x3B78 JUMP JUMPDEST MSTORE PUSH2 0x3A1B JUMP JUMPDEST SWAP5 SWAP4 SWAP3 SWAP5 PUSH2 0x1E06 JUMP JUMPDEST PUSH1 0x40 MLOAD PUSH4 0x34304BD9 PUSH1 0xE1 SHL DUP2 MSTORE PUSH1 0x4 SWAP1 REVERT JUMPDEST SWAP1 POP DUP4 GT CODESIZE PUSH2 0x1D0C JUMP JUMPDEST PUSH1 0x40 MLOAD PUSH4 0x3B9CA82D PUSH1 0xE0 SHL DUP2 MSTORE PUSH1 0x4 SWAP1 REVERT JUMPDEST SWAP1 POP DUP4 GT CODESIZE PUSH2 0x1CF9 JUMP JUMPDEST PUSH1 0x1 PUSH1 0x1 PUSH1 0x40 SHL SUB NOT AND OR DUP2 SSTORE PUSH1 0x1 DUP2 ADD DUP8 SWAP1 SSTORE PUSH1 0x2 DUP2 ADD DUP8 SWAP1 SSTORE CODESIZE DUP1 PUSH2 0x1CC6 JUMP JUMPDEST PUSH1 0x40 MLOAD PUSH4 0x1ADCCB37 PUSH1 0xE3 SHL DUP2 MSTORE PUSH1 0x4 SWAP1 REVERT JUMPDEST PUSH1 0x40 MLOAD PUSH4 0xBFF8AC75 PUSH1 0xE0 SHL DUP2 MSTORE PUSH1 0x4 SWAP1 REVERT JUMPDEST POP CALLVALUE PUSH2 0x29B JUMPI PUSH1 0x60 CALLDATASIZE PUSH1 0x3 NOT ADD SLT PUSH2 0x29B JUMPI PUSH1 0x44 CALLDATALOAD SWAP1 PUSH1 0x1 PUSH1 0x1 PUSH1 0x40 SHL SUB DUP3 GT PUSH2 0x29B JUMPI PUSH1 0x20 PUSH2 0x20AC PUSH2 0x20A0 CALLDATASIZE PUSH1 0x4 DUP7 ADD PUSH2 0x312D JUMP JUMPDEST SWAP1 PUSH1 0x24 CALLDATALOAD PUSH1 0x4 CALLDATALOAD PUSH2 0x3A90 JUMP JUMPDEST PUSH1 0x40 MLOAD SWAP1 ISZERO ISZERO DUP2 MSTORE RETURN JUMPDEST POP CALLVALUE PUSH2 0x29B JUMPI PUSH1 0x20 CALLDATASIZE PUSH1 0x3 NOT ADD SLT PUSH2 0x29B JUMPI PUSH1 0x4 CALLDATALOAD SWAP1 PUSH1 0x1 PUSH1 0x1 PUSH1 0x40 SHL SUB DUP3 GT PUSH2 0x29B JUMPI PUSH2 0x20F0 PUSH2 0x20EA CALLDATASIZE PUSH1 0x4 DUP6 ADD PUSH2 0x2FC4 JUMP JUMPDEST SWAP1 PUSH2 0x4D51 JUMP JUMPDEST SWAP1 PUSH2 0x1229 PUSH1 0x40 MLOAD SWAP3 DUP4 SWAP3 ISZERO ISZERO DUP4 MSTORE PUSH1 0x40 PUSH1 0x20 DUP5 ADD MSTORE PUSH1 0x40 DUP4 ADD SWAP1 PUSH2 0x30ED JUMP JUMPDEST POP CALLVALUE PUSH2 0x29B JUMPI PUSH1 0x80 CALLDATASIZE PUSH1 0x3 NOT ADD SLT PUSH2 0x29B JUMPI PUSH1 0x4 CALLDATALOAD PUSH1 0x24 SWAP2 DUP3 CALLDATALOAD SWAP3 PUSH1 0x44 CALLDATALOAD SWAP2 PUSH4 0xFFFFFFFF DUP4 AND DUP1 SWAP4 SUB PUSH2 0x29B JUMPI PUSH2 0x2144 PUSH2 0x3A65 JUMP JUMPDEST PUSH2 0x214C PUSH2 0x3830 JUMP JUMPDEST PUSH2 0x2155 DUP5 PUSH2 0x433A JUMP JUMPDEST SWAP1 DUP6 ISZERO PUSH2 0xD31 JUMPI PUSH1 0x1 DUP1 PUSH1 0xA0 SHL SUB DUP1 DUP4 SLOAD PUSH1 0x18 SHR AND SWAP4 PUSH1 0x40 MLOAD SWAP2 PUSH4 0x70A08231 PUSH1 0xE0 SHL DUP1 DUP5 MSTORE ADDRESS PUSH1 0x4 DUP6 ADD MSTORE PUSH1 0x20 SWAP10 DUP11 DUP6 DUP6 DUP2 DUP12 GAS STATICCALL SWAP5 DUP6 ISZERO PUSH2 0x2422 JUMPI DUP7 SWAP6 PUSH2 0x23F1 JUMPI JUMPDEST POP PUSH2 0x21A5 SWAP1 ADDRESS CALLER DUP11 PUSH2 0x3860 JUMP JUMPDEST PUSH1 0x40 MLOAD SWAP1 DUP2 MSTORE ADDRESS PUSH1 0x4 DUP3 ADD MSTORE DUP10 DUP2 DUP5 DUP2 DUP11 GAS STATICCALL SWAP1 DUP2 ISZERO PUSH2 0x23E6 JUMPI DUP9 SWAP3 DUP12 SWAP5 SWAP3 DUP8 SWAP3 DUP4 SWAP2 PUSH2 0x23A9 JUMPI JUMPDEST POP PUSH2 0x21DD PUSH1 0x84 SWAP6 SWAP7 SWAP8 DUP4 SWAP3 PUSH2 0x3800 JUMP JUMPDEST SWAP10 PUSH1 0x1 DUP11 ADD SWAP1 DUP12 DUP4 DUP4 SLOAD AND SWAP2 DUP8 DUP12 DUP9 DUP1 PUSH1 0x40 MLOAD SWAP6 PUSH2 0x221E DUP8 PUSH2 0x2210 DUP7 DUP3 ADD SWAP4 DUP12 PUSH4 0x95EA7B3 PUSH1 0xE0 SHL SWAP10 DUP11 DUP8 MSTORE DUP5 ADD PUSH2 0x3944 JUMP JUMPDEST SUB PUSH1 0x1F NOT DUP2 ADD DUP10 MSTORE DUP9 PUSH2 0x3055 JUMP JUMPDEST DUP7 MLOAD SWAP1 DUP3 DUP8 GAS CALL PUSH2 0x222D PUSH2 0x373E JUMP JUMPDEST DUP2 PUSH2 0x2379 JUMPI JUMPDEST POP DUP1 PUSH2 0x236F JUMPI JUMPDEST ISZERO PUSH2 0x2334 JUMPI JUMPDEST POP POP POP POP POP SLOAD AND SWAP8 SLOAD PUSH1 0x18 SHR AND SWAP7 PUSH1 0x40 MLOAD SWAP8 DUP9 SWAP6 DUP7 SWAP5 PUSH4 0x37E9A827 PUSH1 0xE1 SHL DUP7 MSTORE DUP12 PUSH1 0x4 DUP8 ADD MSTORE DUP6 ADD MSTORE PUSH1 0x64 CALLDATALOAD PUSH1 0x44 DUP6 ADD MSTORE PUSH1 0x64 DUP5 ADD MSTORE GAS CALL SWAP2 DUP3 ISZERO PUSH2 0x2327 JUMPI DUP2 SWAP3 PUSH2 0x22E6 JUMPI JUMPDEST POP POP PUSH2 0x2292 DUP3 DUP6 PUSH2 0x446E JUMP JUMPDEST PUSH1 0x40 MLOAD SWAP2 DUP3 MSTORE PUSH1 0x1 DUP1 PUSH1 0x40 SHL SUB AND SWAP3 DUP4 DUP6 DUP4 ADD MSTORE PUSH32 0x49E4A5D7C04158BEB01B5E4366F5CAC760D42896014A75D9C8B3E40587CC840E PUSH1 0x40 CALLER SWAP4 LOG4 PUSH1 0x1 PUSH1 0x0 DUP1 MLOAD PUSH1 0x20 PUSH2 0x52C1 DUP4 CODECOPY DUP2 MLOAD SWAP2 MSTORE SSTORE PUSH1 0x40 MLOAD SWAP1 DUP2 MSTORE RETURN JUMPDEST SWAP1 SWAP2 POP DUP6 DUP2 DUP2 RETURNDATASIZE DUP4 GT PUSH2 0x2320 JUMPI JUMPDEST PUSH2 0x22FE DUP2 DUP4 PUSH2 0x3055 JUMP JUMPDEST DUP2 ADD SUB SLT PUSH2 0x82C JUMPI MLOAD SWAP1 PUSH1 0x1 PUSH1 0x1 PUSH1 0x40 SHL SUB DUP3 AND DUP3 SUB PUSH2 0x29B JUMPI POP CODESIZE DUP1 PUSH2 0x2286 JUMP JUMPDEST POP RETURNDATASIZE PUSH2 0x22F4 JUMP JUMPDEST POP PUSH1 0x40 MLOAD SWAP1 RETURNDATASIZE SWAP1 DUP3 RETURNDATACOPY RETURNDATASIZE SWAP1 REVERT JUMPDEST PUSH2 0x2365 SWAP5 PUSH2 0x2360 SWAP3 PUSH1 0x40 MLOAD SWAP3 DUP4 ADD MSTORE DUP11 DUP3 ADD MSTORE DUP9 PUSH1 0x44 DUP3 ADD MSTORE PUSH1 0x44 DUP2 MSTORE PUSH2 0x235A DUP2 PUSH2 0x3004 JUMP JUMPDEST DUP3 PUSH2 0x38D2 JUMP JUMPDEST PUSH2 0x38D2 JUMP JUMPDEST CODESIZE DUP1 DUP1 DUP1 DUP12 PUSH2 0x2240 JUMP JUMPDEST POP DUP3 EXTCODESIZE ISZERO ISZERO PUSH2 0x223A JUMP JUMPDEST DUP1 MLOAD DUP1 ISZERO SWAP3 POP DUP4 SWAP1 DUP4 ISZERO PUSH2 0x2391 JUMPI JUMPDEST POP POP POP CODESIZE PUSH2 0x2233 JUMP JUMPDEST PUSH2 0x23A1 SWAP4 POP DUP3 ADD DUP2 ADD SWAP2 ADD PUSH2 0x38BA JUMP JUMPDEST CODESIZE DUP3 DUP2 PUSH2 0x2388 JUMP JUMPDEST SWAP7 SWAP5 POP POP SWAP4 SWAP1 POP DUP5 DUP2 RETURNDATASIZE DUP4 GT PUSH2 0x23DF JUMPI JUMPDEST PUSH2 0x23C4 DUP2 DUP4 PUSH2 0x3055 JUMP JUMPDEST DUP2 ADD SUB SLT PUSH2 0x540 JUMPI SWAP3 MLOAD SWAP1 SWAP3 DUP10 SWAP3 DUP9 SWAP3 DUP7 SWAP2 SWAP1 PUSH2 0x21DD PUSH2 0x21CD JUMP JUMPDEST POP RETURNDATASIZE PUSH2 0x23BA JUMP JUMPDEST PUSH1 0x40 MLOAD RETURNDATASIZE DUP8 DUP3 RETURNDATACOPY RETURNDATASIZE SWAP1 REVERT JUMPDEST SWAP1 SWAP5 POP DUP11 DUP2 DUP2 RETURNDATASIZE DUP4 GT PUSH2 0x241B JUMPI JUMPDEST PUSH2 0x2409 DUP2 DUP4 PUSH2 0x3055 JUMP JUMPDEST DUP2 ADD SUB SLT PUSH2 0x540 JUMPI MLOAD SWAP4 PUSH2 0x21A5 PUSH2 0x2198 JUMP JUMPDEST POP RETURNDATASIZE PUSH2 0x23FF JUMP JUMPDEST PUSH1 0x40 MLOAD RETURNDATASIZE DUP9 DUP3 RETURNDATACOPY RETURNDATASIZE SWAP1 REVERT JUMPDEST POP CALLVALUE PUSH2 0x29B JUMPI PUSH1 0x20 CALLDATASIZE PUSH1 0x3 NOT ADD SLT PUSH2 0x29B JUMPI PUSH1 0xFF PUSH1 0x40 PUSH1 0x20 SWAP3 PUSH1 0x4 CALLDATALOAD DUP2 MSTORE PUSH1 0x3 DUP5 MSTORE KECCAK256 SLOAD AND PUSH1 0x40 MLOAD SWAP1 DUP2 MSTORE RETURN JUMPDEST POP CALLVALUE PUSH2 0x29B JUMPI DUP1 PUSH1 0x3 NOT CALLDATASIZE ADD SLT PUSH2 0x29B JUMPI PUSH1 0x10 SLOAD PUSH1 0x40 MLOAD PUSH1 0x1 PUSH1 0x1 PUSH1 0xA0 SHL SUB SWAP1 SWAP2 AND DUP2 MSTORE PUSH1 0x20 SWAP1 RETURN JUMPDEST POP CALLVALUE PUSH2 0x29B JUMPI DUP1 PUSH1 0x3 NOT CALLDATASIZE ADD SLT PUSH2 0x29B JUMPI PUSH1 0x20 PUSH1 0xFF PUSH1 0x0 DUP1 MLOAD PUSH1 0x20 PUSH2 0x52A1 DUP4 CODECOPY DUP2 MLOAD SWAP2 MSTORE SLOAD AND PUSH1 0x40 MLOAD SWAP1 ISZERO ISZERO DUP2 MSTORE RETURN JUMPDEST POP CALLVALUE PUSH2 0x29B JUMPI PUSH1 0x20 DUP1 PUSH1 0x3 NOT CALLDATASIZE ADD SLT PUSH2 0x82C JUMPI PUSH1 0x4 CALLDATALOAD PUSH2 0x24D2 CALLER PUSH2 0x31BC JUMP JUMPDEST PUSH2 0x24DA PUSH2 0x3830 JUMP JUMPDEST PUSH1 0x16 SLOAD PUSH1 0x1 PUSH1 0x1 PUSH1 0xA0 SHL SUB SWAP1 DUP2 AND SWAP1 DUP2 ISZERO PUSH2 0xD1F JUMPI DUP3 ISZERO PUSH2 0xD31 JUMPI PUSH1 0x40 MLOAD SWAP1 PUSH4 0x70A08231 PUSH1 0xE0 SHL SWAP4 DUP5 DUP4 MSTORE ADDRESS PUSH1 0x4 DUP5 ADD MSTORE DUP6 DUP4 PUSH1 0x24 DUP2 DUP8 GAS STATICCALL SWAP4 DUP5 ISZERO PUSH2 0x263A JUMPI DUP7 SWAP4 DUP9 SWAP6 PUSH2 0x2605 JUMPI JUMPDEST POP SWAP1 PUSH2 0x2532 SWAP2 ADDRESS SWAP1 CALLER SWAP1 PUSH2 0x3860 JUMP JUMPDEST PUSH1 0x16 SLOAD AND SWAP3 PUSH1 0x24 PUSH1 0x40 MLOAD DUP1 SWAP6 DUP2 SWAP4 DUP3 MSTORE ADDRESS PUSH1 0x4 DUP4 ADD MSTORE GAS STATICCALL DUP1 ISZERO PUSH2 0x25FA JUMPI DUP5 SWAP1 PUSH2 0x25CB JUMPI JUMPDEST PUSH2 0x2561 SWAP3 POP PUSH2 0x3800 JUMP JUMPDEST SWAP1 CALLER DUP4 MSTORE PUSH1 0xE DUP2 MSTORE PUSH1 0x40 DUP4 KECCAK256 PUSH2 0x2578 DUP4 DUP3 SLOAD PUSH2 0x3823 JUMP JUMPDEST SWAP1 SSTORE CALLER DUP4 MSTORE PUSH1 0xE DUP2 MSTORE PUSH1 0x40 DUP4 KECCAK256 SLOAD SWAP1 PUSH1 0x40 MLOAD SWAP3 DUP4 MSTORE DUP3 ADD MSTORE PUSH32 0x1873DEEB1CBADA6199A555331A9C965443C96F9554C1D737B325FFE2703AAD70 PUSH1 0x40 CALLER SWAP3 LOG2 PUSH1 0x1 PUSH1 0x0 DUP1 MLOAD PUSH1 0x20 PUSH2 0x52C1 DUP4 CODECOPY DUP2 MLOAD SWAP2 MSTORE SSTORE DUP1 RETURN JUMPDEST POP DUP3 DUP3 DUP2 RETURNDATASIZE DUP4 GT PUSH2 0x25F3 JUMPI JUMPDEST PUSH2 0x25E1 DUP2 DUP4 PUSH2 0x3055 JUMP JUMPDEST DUP2 ADD SUB SLT PUSH2 0x540 JUMPI PUSH2 0x2561 SWAP2 MLOAD PUSH2 0x2557 JUMP JUMPDEST POP RETURNDATASIZE PUSH2 0x25D7 JUMP JUMPDEST PUSH1 0x40 MLOAD RETURNDATASIZE DUP7 DUP3 RETURNDATACOPY RETURNDATASIZE SWAP1 REVERT JUMPDEST DUP5 DUP2 SWAP4 SWAP6 SWAP3 SWAP7 POP RETURNDATASIZE DUP4 GT PUSH2 0x2633 JUMPI JUMPDEST PUSH2 0x261E DUP2 DUP4 PUSH2 0x3055 JUMP JUMPDEST DUP2 ADD SUB SLT PUSH2 0x540 JUMPI MLOAD SWAP3 DUP6 SWAP3 SWAP1 PUSH2 0x2532 PUSH2 0x2523 JUMP JUMPDEST POP RETURNDATASIZE PUSH2 0x2614 JUMP JUMPDEST PUSH1 0x40 MLOAD RETURNDATASIZE DUP10 DUP3 RETURNDATACOPY RETURNDATASIZE SWAP1 REVERT JUMPDEST POP CALLVALUE PUSH2 0x29B JUMPI DUP1 PUSH1 0x3 NOT CALLDATASIZE ADD SLT PUSH2 0x29B JUMPI PUSH32 0x0 PUSH1 0x1 PUSH1 0x1 PUSH1 0xA0 SHL SUB AND ADDRESS SUB PUSH2 0x269E JUMPI PUSH1 0x20 PUSH1 0x40 MLOAD PUSH1 0x0 DUP1 MLOAD PUSH1 0x20 PUSH2 0x51C1 DUP4 CODECOPY DUP2 MLOAD SWAP2 MSTORE DUP2 MSTORE RETURN JUMPDEST PUSH1 0x40 MLOAD PUSH4 0x703E46DD PUSH1 0xE1 SHL DUP2 MSTORE PUSH1 0x4 SWAP1 REVERT JUMPDEST POP CALLVALUE PUSH2 0x29B JUMPI PUSH1 0x20 CALLDATASIZE PUSH1 0x3 NOT ADD SLT PUSH2 0x29B JUMPI PUSH1 0x40 PUSH2 0x1A0 SWAP2 PUSH1 0x4 CALLDATALOAD DUP2 MSTORE DUP1 PUSH1 0x20 MSTORE KECCAK256 PUSH6 0xFFFFFFFFFFFF DUP2 SLOAD SWAP2 PUSH1 0x1 DUP1 PUSH1 0xA0 SHL SUB SWAP1 DUP2 PUSH1 0x1 DUP3 ADD SLOAD AND DUP3 PUSH1 0x2 DUP4 ADD SLOAD AND DUP4 PUSH1 0x3 DUP5 ADD SLOAD AND SWAP1 PUSH1 0x4 DUP5 ADD SLOAD SWAP3 PUSH1 0x6 PUSH1 0x5 DUP7 ADD SLOAD SWAP6 ADD SLOAD SWAP6 PUSH1 0x40 MLOAD SWAP9 PUSH1 0xFF DUP2 AND ISZERO ISZERO DUP11 MSTORE PUSH1 0xFF DUP2 PUSH1 0x8 SHR AND ISZERO ISZERO PUSH1 0x20 DUP12 ADD MSTORE PUSH2 0x2738 PUSH1 0x40 DUP12 ADD PUSH1 0xFF DUP4 PUSH1 0x10 SHR AND PUSH2 0x30CA JUMP JUMPDEST PUSH1 0x18 SHR AND PUSH1 0x60 DUP10 ADD MSTORE PUSH1 0x80 DUP9 ADD MSTORE PUSH1 0xA0 DUP8 ADD MSTORE PUSH1 0xC0 DUP7 ADD MSTORE PUSH1 0xE0 DUP6 ADD MSTORE PUSH2 0x100 DUP5 ADD MSTORE PUSH2 0xFFFF DUP1 DUP3 AND PUSH2 0x120 DUP6 ADD MSTORE DUP1 DUP3 PUSH1 0x10 SHR AND PUSH2 0x140 DUP6 ADD MSTORE DUP2 PUSH1 0x20 SHR AND PUSH2 0x160 DUP5 ADD MSTORE PUSH1 0x30 SHR AND PUSH2 0x180 DUP3 ADD MSTORE RETURN JUMPDEST POP PUSH1 0x40 CALLDATASIZE PUSH1 0x3 NOT ADD SLT PUSH2 0x29B JUMPI PUSH2 0x279F PUSH2 0x2F82 JUMP JUMPDEST PUSH1 0x24 SWAP2 DUP3 CALLDATALOAD PUSH1 0x1 PUSH1 0x1 PUSH1 0x40 SHL SUB DUP2 GT PUSH2 0x82C JUMPI CALLDATASIZE PUSH1 0x23 DUP3 ADD SLT ISZERO PUSH2 0x82C JUMPI PUSH2 0x27D0 SWAP1 CALLDATASIZE SWAP1 DUP6 DUP2 PUSH1 0x4 ADD CALLDATALOAD SWAP2 ADD PUSH2 0x3093 JUMP JUMPDEST PUSH1 0x1 PUSH1 0x1 PUSH1 0xA0 SHL SUB SWAP3 PUSH32 0x0 DUP5 AND ADDRESS DUP2 EQ SWAP1 DUP2 ISZERO PUSH2 0x299C JUMPI JUMPDEST POP PUSH2 0x269E JUMPI CALLER PUSH1 0x0 SWAP1 DUP2 MSTORE PUSH1 0x0 DUP1 MLOAD PUSH1 0x20 PUSH2 0x5321 DUP4 CODECOPY DUP2 MLOAD SWAP2 MSTORE PUSH1 0x20 SWAP1 DUP2 MSTORE PUSH1 0x40 SWAP1 SWAP2 KECCAK256 SLOAD SWAP1 SWAP5 SWAP1 PUSH1 0x0 DUP1 MLOAD PUSH1 0x20 PUSH2 0x51A1 DUP4 CODECOPY DUP2 MLOAD SWAP2 MSTORE SWAP1 PUSH1 0xFF AND ISZERO PUSH2 0x297F JUMPI POP DUP2 AND SWAP4 PUSH1 0x40 MLOAD PUSH4 0x52D1902D PUSH1 0xE0 SHL DUP2 MSTORE DUP2 DUP2 PUSH1 0x4 DUP2 DUP10 GAS STATICCALL DUP6 SWAP2 DUP2 PUSH2 0x294C JUMPI JUMPDEST POP PUSH2 0x2885 JUMPI PUSH1 0x40 MLOAD PUSH4 0x4C9C8CE3 PUSH1 0xE0 SHL DUP2 MSTORE PUSH1 0x4 DUP2 ADD DUP8 SWAP1 MSTORE DUP8 SWAP1 REVERT JUMPDEST DUP6 SWAP1 DUP8 PUSH1 0x0 DUP1 MLOAD PUSH1 0x20 PUSH2 0x51C1 DUP4 CODECOPY DUP2 MLOAD SWAP2 MSTORE SWAP2 DUP3 DUP2 SUB PUSH2 0x2937 JUMPI POP DUP5 EXTCODESIZE ISZERO PUSH2 0x2921 JUMPI POP DUP1 SLOAD PUSH1 0x1 PUSH1 0x1 PUSH1 0xA0 SHL SUB NOT AND DUP3 OR SWAP1 SSTORE PUSH1 0x40 MLOAD DUP6 SWAP3 SWAP2 PUSH32 0xBC7CD75A20EE27FD9ADEBAB32041F755214DBC6BFFA90CC0225B39DA2E5C2D3B DUP5 DUP1 LOG2 DUP5 MLOAD ISZERO PUSH2 0x2904 JUMPI POP DUP4 MLOAD PUSH2 0xF08 SWAP5 DUP4 SWAP3 ADD DUP5 GAS DELEGATECALL PUSH2 0x28FE PUSH2 0x373E JUMP JUMPDEST SWAP2 PUSH2 0x376E JUMP JUMPDEST SWAP4 POP POP POP POP CALLVALUE PUSH2 0x2912 JUMPI POP DUP1 RETURN JUMPDEST PUSH4 0xB398979F PUSH1 0xE0 SHL DUP2 MSTORE PUSH1 0x4 SWAP1 REVERT JUMPDEST PUSH1 0x40 MLOAD PUSH4 0x4C9C8CE3 PUSH1 0xE0 SHL DUP2 MSTORE PUSH1 0x4 DUP2 ADD DUP5 SWAP1 MSTORE REVERT JUMPDEST PUSH1 0x40 MLOAD SWAP1 PUSH4 0x2A875269 PUSH1 0xE2 SHL DUP3 MSTORE PUSH1 0x4 DUP3 ADD MSTORE REVERT JUMPDEST SWAP1 SWAP2 POP DUP3 DUP2 DUP2 RETURNDATASIZE DUP4 GT PUSH2 0x2978 JUMPI JUMPDEST PUSH2 0x2964 DUP2 DUP4 PUSH2 0x3055 JUMP JUMPDEST DUP2 ADD SUB SLT PUSH2 0x2974 JUMPI MLOAD SWAP1 CODESIZE PUSH2 0x2868 JUMP JUMPDEST DUP6 DUP1 REVERT JUMPDEST POP RETURNDATASIZE PUSH2 0x295A JUMP JUMPDEST DUP7 PUSH1 0x44 SWAP2 PUSH1 0x40 MLOAD SWAP2 PUSH4 0xE2517D3F PUSH1 0xE0 SHL DUP4 MSTORE CALLER PUSH1 0x4 DUP5 ADD MSTORE DUP3 ADD MSTORE REVERT JUMPDEST SWAP1 POP DUP5 PUSH1 0x0 DUP1 MLOAD PUSH1 0x20 PUSH2 0x51C1 DUP4 CODECOPY DUP2 MLOAD SWAP2 MSTORE SLOAD AND EQ ISZERO CODESIZE PUSH2 0x2807 JUMP JUMPDEST POP CALLVALUE PUSH2 0x29B JUMPI PUSH1 0x60 CALLDATASIZE PUSH1 0x3 NOT ADD SLT PUSH2 0x29B JUMPI PUSH2 0x29D2 PUSH2 0x2F82 JUMP JUMPDEST PUSH2 0x29DA PUSH2 0x2FAE JUMP JUMPDEST PUSH2 0x29E3 CALLER PUSH2 0x315D JUMP JUMPDEST PUSH2 0x29EB PUSH2 0x3830 JUMP JUMPDEST PUSH1 0x1 PUSH1 0x1 PUSH1 0xA0 SHL SUB SWAP2 DUP3 AND SWAP1 DUP2 ISZERO PUSH2 0x4CA JUMPI DUP3 DUP2 AND SWAP3 DUP4 ISZERO PUSH2 0xD43 JUMPI DUP1 PUSH1 0x16 SLOAD AND ISZERO PUSH2 0xD1F JUMPI DUP3 DUP6 MSTORE PUSH1 0xE PUSH1 0x20 MSTORE PUSH1 0x40 DUP6 KECCAK256 SLOAD DUP1 ISZERO PUSH2 0x2A86 JUMPI PUSH2 0x2A63 DUP2 PUSH32 0x9BAB352D80E4F1E3F2F2CF88F1A6EA107543E5036E0AD6B0CED13482CCF1FA30 SWAP5 PUSH1 0x40 SWAP5 DUP8 DUP11 MSTORE PUSH1 0xE PUSH1 0x20 MSTORE DUP10 DUP7 DUP2 KECCAK256 SSTORE PUSH1 0x16 SLOAD AND PUSH2 0x395F JUMP JUMPDEST DUP2 MLOAD SWAP1 DUP2 MSTORE PUSH1 0x24 CALLDATALOAD PUSH1 0x20 DUP3 ADD MSTORE LOG3 PUSH1 0x1 PUSH1 0x0 DUP1 MLOAD PUSH1 0x20 PUSH2 0x52C1 DUP4 CODECOPY DUP2 MLOAD SWAP2 MSTORE SSTORE DUP1 RETURN JUMPDEST PUSH1 0x40 MLOAD PUSH4 0x54C1DE1 PUSH1 0xE1 SHL DUP2 MSTORE PUSH1 0x4 SWAP1 REVERT JUMPDEST POP CALLVALUE PUSH2 0x29B JUMPI PUSH1 0x20 DUP1 PUSH1 0x3 NOT CALLDATASIZE ADD SLT PUSH2 0x82C JUMPI PUSH1 0x4 CALLDATALOAD PUSH1 0x1 PUSH1 0x1 PUSH1 0x40 SHL SUB DUP2 GT PUSH2 0xC04 JUMPI PUSH2 0x2ACD PUSH2 0x2AD5 SWAP2 CALLDATASIZE SWAP1 PUSH1 0x4 ADD PUSH2 0x2FC4 JUMP JUMPDEST DUP2 ADD SWAP1 PUSH2 0x4CD8 JUMP JUMPDEST SWAP1 DUP3 JUMPDEST DUP3 MLOAD DUP2 LT ISZERO PUSH2 0x2B85 JUMPI DUP1 PUSH2 0x2AEF PUSH2 0x2B6C SWAP3 DUP6 PUSH2 0x3B78 JUMP JUMPDEST MLOAD DUP6 MSTORE DUP5 DUP4 MSTORE PUSH1 0x40 DUP6 KECCAK256 DUP1 SLOAD PUSH1 0xFF SWAP1 DUP2 DUP1 DUP3 AND ISZERO SWAP2 DUP3 ISZERO PUSH2 0x2B78 JUMPI JUMPDEST POP POP PUSH2 0x2B71 JUMPI PUSH1 0x40 PUSH32 0xD38B9EACADC0F98C8515240C1603E55E1687E192C3D815BF7F252FF5B9179FE1 SWAP2 PUSH2 0x2B49 DUP5 PUSH2 0x2B43 DUP8 DUP12 PUSH2 0x3B78 JUMP JUMPDEST MLOAD PUSH2 0x3E06 JUMP JUMPDEST PUSH2 0x2B53 DUP6 DUP10 PUSH2 0x3B78 JUMP JUMPDEST MLOAD SWAP4 SLOAD PUSH1 0x8 SHR AND DUP2 MLOAD SWAP1 TIMESTAMP DUP3 MSTORE ISZERO ISZERO DUP8 DUP3 ADD MSTORE LOG2 PUSH2 0x3A1B JUMP JUMPDEST PUSH2 0x2AD8 JUMP JUMPDEST POP POP PUSH2 0x3A1B JUMP JUMPDEST PUSH1 0x8 SHR AND SWAP1 POP DUP2 CODESIZE PUSH2 0x2B0B JUMP JUMPDEST DUP4 TIMESTAMP PUSH1 0x18 SSTORE DUP1 RETURN JUMPDEST POP CALLVALUE PUSH2 0x29B JUMPI PUSH1 0x40 CALLDATASIZE PUSH1 0x3 NOT ADD SLT PUSH2 0x29B JUMPI PUSH2 0x2BA7 PUSH2 0x2F98 JUMP JUMPDEST CALLER PUSH1 0x1 PUSH1 0x1 PUSH1 0xA0 SHL SUB DUP3 AND SUB PUSH2 0x2BC3 JUMPI PUSH2 0xF08 SWAP1 PUSH1 0x4 CALLDATALOAD PUSH2 0x36BB JUMP JUMPDEST PUSH1 0x40 MLOAD PUSH4 0x334BD919 PUSH1 0xE1 SHL DUP2 MSTORE PUSH1 0x4 SWAP1 REVERT JUMPDEST POP CALLVALUE PUSH2 0x29B JUMPI PUSH1 0x60 CALLDATASIZE PUSH1 0x3 NOT ADD SLT PUSH2 0x29B JUMPI PUSH1 0x24 CALLDATALOAD PUSH1 0x4 CALLDATALOAD PUSH2 0x2BF5 PUSH2 0x3A65 JUMP JUMPDEST PUSH2 0x2BFD PUSH2 0x3830 JUMP JUMPDEST PUSH2 0x2C06 DUP2 PUSH2 0x438A JUMP JUMPDEST DUP3 ISZERO PUSH2 0xD31 JUMPI SLOAD PUSH1 0x18 SHR PUSH1 0x1 PUSH1 0x1 PUSH1 0xA0 SHL SUB AND DUP1 EXTCODESIZE ISZERO PUSH2 0x7FA JUMPI DUP4 PUSH1 0x40 MLOAD DUP1 SWAP3 PUSH4 0x79CC679 PUSH1 0xE4 SHL DUP3 MSTORE DUP2 DUP4 DUP2 PUSH2 0x2C41 DUP10 CALLER PUSH1 0x4 DUP5 ADD PUSH2 0x3944 JUMP JUMPDEST SUB SWAP3 GAS CALL DUP1 ISZERO PUSH2 0x25FA JUMPI PUSH2 0x2CA4 JUMPI JUMPDEST POP PUSH2 0x2C5B DUP3 DUP3 PUSH2 0x446E JUMP JUMPDEST PUSH1 0x40 MLOAD SWAP2 DUP3 MSTORE PUSH1 0x44 CALLDATALOAD PUSH1 0x20 DUP4 ADD MSTORE PUSH32 0xCDBC456BC1831269DED58B25CB0F590E6104A97F5F91C93826936D663ED498B6 PUSH1 0x40 CALLER SWAP4 LOG3 PUSH1 0x1 PUSH1 0x0 DUP1 MLOAD PUSH1 0x20 PUSH2 0x52C1 DUP4 CODECOPY DUP2 MLOAD SWAP2 MSTORE SSTORE DUP1 RETURN JUMPDEST PUSH2 0x2CB0 SWAP1 SWAP4 SWAP2 SWAP4 PUSH2 0x2FF1 JUMP JUMPDEST SWAP2 CODESIZE PUSH2 0x2C50 JUMP JUMPDEST POP CALLVALUE PUSH2 0x29B JUMPI PUSH1 0x40 CALLDATASIZE PUSH1 0x3 NOT ADD SLT PUSH2 0x29B JUMPI PUSH2 0xF08 PUSH1 0x4 CALLDATALOAD PUSH2 0x2CD7 PUSH2 0x2F98 JUMP JUMPDEST SWAP1 DUP1 DUP5 MSTORE PUSH1 0x0 DUP1 MLOAD PUSH1 0x20 PUSH2 0x5281 DUP4 CODECOPY DUP2 MLOAD SWAP2 MSTORE PUSH1 0x20 MSTORE PUSH2 0x2CFF PUSH1 0x1 PUSH1 0x40 DUP7 KECCAK256 ADD SLOAD CALLER SWAP1 PUSH2 0x323E JUMP JUMPDEST PUSH2 0x3646 JUMP JUMPDEST POP CALLVALUE PUSH2 0x29B JUMPI DUP1 PUSH1 0x3 NOT CALLDATASIZE ADD SLT PUSH2 0x29B JUMPI PUSH1 0x14 SLOAD PUSH1 0x40 MLOAD PUSH1 0x1 PUSH1 0x1 PUSH1 0xA0 SHL SUB SWAP1 SWAP2 AND DUP2 MSTORE PUSH1 0x20 SWAP1 RETURN JUMPDEST POP CALLVALUE PUSH2 0x29B JUMPI PUSH1 0x20 CALLDATASIZE PUSH1 0x3 NOT ADD SLT PUSH2 0x29B JUMPI PUSH1 0x1 PUSH1 0x40 PUSH1 0x20 SWAP3 PUSH1 0x4 CALLDATALOAD DUP2 MSTORE PUSH1 0x0 DUP1 MLOAD PUSH1 0x20 PUSH2 0x5281 DUP4 CODECOPY DUP2 MLOAD SWAP2 MSTORE DUP5 MSTORE KECCAK256 ADD SLOAD PUSH1 0x40 MLOAD SWAP1 DUP2 MSTORE RETURN JUMPDEST POP CALLVALUE PUSH2 0x29B JUMPI DUP1 PUSH1 0x3 NOT CALLDATASIZE ADD SLT PUSH2 0x29B JUMPI PUSH1 0xF SLOAD PUSH1 0x40 MLOAD PUSH1 0x1 PUSH1 0x1 PUSH1 0xA0 SHL SUB SWAP1 SWAP2 AND DUP2 MSTORE PUSH1 0x20 SWAP1 RETURN JUMPDEST POP CALLVALUE PUSH2 0x29B JUMPI PUSH1 0x80 CALLDATASIZE PUSH1 0x3 NOT ADD SLT PUSH2 0x29B JUMPI PUSH1 0x44 CALLDATALOAD PUSH1 0x24 CALLDATALOAD PUSH1 0x4 CALLDATALOAD PUSH1 0x64 CALLDATALOAD PUSH1 0x1 PUSH1 0x1 PUSH1 0x40 SHL SUB DUP2 DUP2 AND SWAP2 DUP3 SWAP1 SUB PUSH2 0x2974 JUMPI PUSH2 0x2DCA CALLER PUSH2 0x315D JUMP JUMPDEST DUP3 DUP7 MSTORE PUSH1 0x20 DUP7 SWAP1 MSTORE PUSH1 0x40 DUP7 KECCAK256 SLOAD PUSH1 0x18 SHR PUSH1 0x1 PUSH1 0x1 PUSH1 0xA0 SHL SUB AND ISZERO PUSH2 0xE9E JUMPI DUP4 ISZERO DUP1 ISZERO PUSH2 0x2EAC JUMPI JUMPDEST PUSH2 0x4A0 JUMPI PUSH1 0x40 MLOAD SWAP1 PUSH1 0x80 DUP3 ADD DUP3 DUP2 LT DUP3 DUP3 GT OR PUSH2 0x2E98 JUMPI PUSH1 0x40 SWAP1 DUP2 MSTORE DUP6 DUP4 MSTORE PUSH1 0x20 DUP1 DUP5 ADD DUP9 DUP2 MSTORE DUP5 DUP4 ADD DUP7 DUP2 MSTORE TIMESTAMP DUP6 AND PUSH1 0x60 DUP8 ADD SWAP1 DUP2 MSTORE DUP9 DUP13 MSTORE PUSH1 0xC DUP5 MSTORE DUP5 DUP13 KECCAK256 SWAP7 MLOAD DUP8 SSTORE SWAP2 MLOAD PUSH1 0x1 DUP8 ADD SSTORE MLOAD PUSH1 0x2 SWAP1 SWAP6 ADD DUP1 SLOAD SWAP2 MLOAD PUSH1 0x1 PUSH1 0x40 SHL PUSH1 0x1 PUSH1 0x80 SHL SUB SWAP1 DUP6 SHL AND SWAP6 SWAP1 SWAP5 AND PUSH1 0x1 PUSH1 0x1 PUSH1 0x80 SHL SUB NOT SWAP1 SWAP2 AND OR SWAP4 SWAP1 SWAP4 OR SWAP1 SWAP2 SSTORE MLOAD SWAP2 DUP3 MSTORE PUSH32 0x1359314FDA8AD3ED79217AB5FB96C2D792691FAACBEF29D940D7607304536F9B SWAP2 LOG4 DUP1 RETURN JUMPDEST PUSH4 0x4E487B71 PUSH1 0xE0 SHL DUP9 MSTORE PUSH1 0x41 PUSH1 0x4 MSTORE PUSH1 0x24 DUP9 REVERT JUMPDEST POP DUP5 ISZERO PUSH2 0x2DF1 JUMP JUMPDEST POP CALLVALUE PUSH2 0x29B JUMPI DUP1 PUSH1 0x3 NOT CALLDATASIZE ADD SLT PUSH2 0x29B JUMPI PUSH1 0x13 SLOAD PUSH1 0x40 MLOAD PUSH1 0x1 PUSH1 0x1 PUSH1 0xA0 SHL SUB SWAP1 SWAP2 AND DUP2 MSTORE PUSH1 0x20 SWAP1 RETURN JUMPDEST POP CALLVALUE PUSH2 0x29B JUMPI PUSH1 0x20 CALLDATASIZE PUSH1 0x3 NOT ADD SLT PUSH2 0x29B JUMPI PUSH1 0x60 SWAP1 PUSH1 0x1 PUSH1 0x1 PUSH1 0xA0 SHL SUB SWAP1 PUSH1 0x40 SWAP1 DUP3 PUSH2 0x2F07 PUSH2 0x2F82 JUMP JUMPDEST AND DUP2 MSTORE PUSH1 0xE PUSH1 0x20 MSTORE KECCAK256 SLOAD SWAP1 PUSH1 0x17 SLOAD SWAP1 PUSH1 0x16 SLOAD AND SWAP1 PUSH1 0x40 MLOAD SWAP3 DUP4 MSTORE PUSH1 0x20 DUP4 ADD MSTORE PUSH1 0x40 DUP3 ADD MSTORE RETURN JUMPDEST SWAP1 POP CALLVALUE PUSH2 0x82C JUMPI PUSH1 0x20 CALLDATASIZE PUSH1 0x3 NOT ADD SLT PUSH2 0x82C JUMPI PUSH1 0x4 CALLDATALOAD PUSH4 0xFFFFFFFF PUSH1 0xE0 SHL DUP2 AND DUP1 SWAP2 SUB PUSH2 0xC04 JUMPI PUSH1 0x20 SWAP3 POP PUSH4 0x7965DB0B PUSH1 0xE0 SHL DUP2 EQ SWAP1 DUP2 ISZERO PUSH2 0x2F71 JUMPI JUMPDEST POP ISZERO ISZERO DUP2 MSTORE RETURN JUMPDEST PUSH4 0x1FFC9A7 PUSH1 0xE0 SHL EQ SWAP1 POP CODESIZE PUSH2 0x2F6A JUMP JUMPDEST PUSH1 0x4 CALLDATALOAD SWAP1 PUSH1 0x1 PUSH1 0x1 PUSH1 0xA0 SHL SUB DUP3 AND DUP3 SUB PUSH2 0x540 JUMPI JUMP JUMPDEST PUSH1 0x24 CALLDATALOAD SWAP1 PUSH1 0x1 PUSH1 0x1 PUSH1 0xA0 SHL SUB DUP3 AND DUP3 SUB PUSH2 0x540 JUMPI JUMP JUMPDEST PUSH1 0x44 CALLDATALOAD SWAP1 PUSH1 0x1 PUSH1 0x1 PUSH1 0xA0 SHL SUB DUP3 AND DUP3 SUB PUSH2 0x540 JUMPI JUMP JUMPDEST SWAP2 DUP2 PUSH1 0x1F DUP5 ADD SLT ISZERO PUSH2 0x540 JUMPI DUP3 CALLDATALOAD SWAP2 PUSH1 0x1 PUSH1 0x1 PUSH1 0x40 SHL SUB DUP4 GT PUSH2 0x540 JUMPI PUSH1 0x20 DUP4 DUP2 DUP7 ADD SWAP6 ADD ADD GT PUSH2 0x540 JUMPI JUMP JUMPDEST PUSH1 0x1 PUSH1 0x1 PUSH1 0x40 SHL SUB DUP2 GT PUSH2 0x122D JUMPI PUSH1 0x40 MSTORE JUMP JUMPDEST PUSH1 0x80 DUP2 ADD SWAP1 DUP2 LT PUSH1 0x1 PUSH1 0x1 PUSH1 0x40 SHL SUB DUP3 GT OR PUSH2 0x122D JUMPI PUSH1 0x40 MSTORE JUMP JUMPDEST PUSH1 0x60 DUP2 ADD SWAP1 DUP2 LT PUSH1 0x1 PUSH1 0x1 PUSH1 0x40 SHL SUB DUP3 GT OR PUSH2 0x122D JUMPI PUSH1 0x40 MSTORE JUMP JUMPDEST PUSH1 0xC0 DUP2 ADD SWAP1 DUP2 LT PUSH1 0x1 PUSH1 0x1 PUSH1 0x40 SHL SUB DUP3 GT OR PUSH2 0x122D JUMPI PUSH1 0x40 MSTORE JUMP JUMPDEST PUSH1 0x1F SWAP1 SWAP2 ADD PUSH1 0x1F NOT AND DUP2 ADD SWAP1 PUSH1 0x1 PUSH1 0x1 PUSH1 0x40 SHL SUB DUP3 GT SWAP1 DUP3 LT OR PUSH2 0x122D JUMPI PUSH1 0x40 MSTORE JUMP JUMPDEST PUSH1 0x1 PUSH1 0x1 PUSH1 0x40 SHL SUB DUP2 GT PUSH2 0x122D JUMPI PUSH1 0x1F ADD PUSH1 0x1F NOT AND PUSH1 0x20 ADD SWAP1 JUMP JUMPDEST SWAP3 SWAP2 SWAP3 PUSH2 0x309F DUP3 PUSH2 0x3078 JUMP JUMPDEST SWAP2 PUSH2 0x30AD PUSH1 0x40 MLOAD SWAP4 DUP5 PUSH2 0x3055 JUMP JUMPDEST DUP3 SWAP5 DUP2 DUP5 MSTORE DUP2 DUP4 ADD GT PUSH2 0x540 JUMPI DUP3 DUP2 PUSH1 0x20 SWAP4 DUP5 PUSH1 0x0 SWAP7 ADD CALLDATACOPY ADD ADD MSTORE JUMP JUMPDEST SWAP1 PUSH1 0x3 DUP3 LT ISZERO PUSH2 0x30D7 JUMPI MSTORE JUMP JUMPDEST PUSH4 0x4E487B71 PUSH1 0xE0 SHL PUSH1 0x0 MSTORE PUSH1 0x21 PUSH1 0x4 MSTORE PUSH1 0x24 PUSH1 0x0 REVERT JUMPDEST SWAP2 SWAP1 DUP3 MLOAD SWAP3 DUP4 DUP3 MSTORE PUSH1 0x0 JUMPDEST DUP5 DUP2 LT PUSH2 0x3119 JUMPI POP POP DUP3 PUSH1 0x0 PUSH1 0x20 DUP1 SWAP5 SWAP6 DUP5 ADD ADD MSTORE PUSH1 0x1F DUP1 NOT SWAP2 ADD AND ADD ADD SWAP1 JUMP JUMPDEST PUSH1 0x20 DUP2 DUP4 ADD DUP2 ADD MLOAD DUP5 DUP4 ADD DUP3 ADD MSTORE ADD PUSH2 0x30F8 JUMP JUMPDEST SWAP2 DUP2 PUSH1 0x1F DUP5 ADD SLT ISZERO PUSH2 0x540 JUMPI DUP3 CALLDATALOAD SWAP2 PUSH1 0x1 PUSH1 0x1 PUSH1 0x40 SHL SUB DUP4 GT PUSH2 0x540 JUMPI PUSH1 0x20 DUP1 DUP6 ADD SWAP5 DUP5 PUSH1 0x5 SHL ADD ADD GT PUSH2 0x540 JUMPI JUMP JUMPDEST PUSH1 0x1 PUSH1 0x1 PUSH1 0xA0 SHL SUB AND PUSH1 0x0 DUP2 DUP2 MSTORE PUSH1 0x0 DUP1 MLOAD PUSH1 0x20 PUSH2 0x51E1 DUP4 CODECOPY DUP2 MLOAD SWAP2 MSTORE PUSH1 0x20 MSTORE PUSH1 0x40 SWAP1 KECCAK256 SLOAD PUSH1 0x0 DUP1 MLOAD PUSH1 0x20 PUSH2 0x5241 DUP4 CODECOPY DUP2 MLOAD SWAP2 MSTORE SWAP1 PUSH1 0xFF AND ISZERO PUSH2 0x319E JUMPI POP POP JUMP JUMPDEST PUSH1 0x44 SWAP3 POP PUSH1 0x40 MLOAD SWAP2 PUSH4 0xE2517D3F PUSH1 0xE0 SHL DUP4 MSTORE PUSH1 0x4 DUP4 ADD MSTORE PUSH1 0x24 DUP3 ADD MSTORE REVERT JUMPDEST PUSH1 0x1 PUSH1 0x1 PUSH1 0xA0 SHL SUB AND PUSH1 0x0 DUP2 DUP2 MSTORE PUSH1 0x0 DUP1 MLOAD PUSH1 0x20 PUSH2 0x5221 DUP4 CODECOPY DUP2 MLOAD SWAP2 MSTORE PUSH1 0x20 MSTORE PUSH1 0x40 SWAP1 KECCAK256 SLOAD PUSH1 0x0 DUP1 MLOAD PUSH1 0x20 PUSH2 0x5141 DUP4 CODECOPY DUP2 MLOAD SWAP2 MSTORE SWAP1 PUSH1 0xFF AND ISZERO PUSH2 0x319E JUMPI POP POP JUMP JUMPDEST PUSH1 0x1 PUSH1 0x1 PUSH1 0xA0 SHL SUB AND PUSH1 0x0 DUP2 DUP2 MSTORE PUSH1 0x0 DUP1 MLOAD PUSH1 0x20 PUSH2 0x5161 DUP4 CODECOPY DUP2 MLOAD SWAP2 MSTORE PUSH1 0x20 MSTORE PUSH1 0x40 SWAP1 KECCAK256 SLOAD PUSH1 0x0 DUP1 MLOAD PUSH1 0x20 PUSH2 0x5181 DUP4 CODECOPY DUP2 MLOAD SWAP2 MSTORE SWAP1 PUSH1 0xFF AND ISZERO PUSH2 0x319E JUMPI POP POP JUMP JUMPDEST DUP1 PUSH1 0x0 MSTORE PUSH1 0x0 DUP1 MLOAD PUSH1 0x20 PUSH2 0x5281 DUP4 CODECOPY DUP2 MLOAD SWAP2 MSTORE PUSH1 0x20 MSTORE PUSH1 0x40 PUSH1 0x0 KECCAK256 SWAP2 PUSH1 0x1 DUP1 PUSH1 0xA0 SHL SUB AND SWAP2 DUP3 PUSH1 0x0 MSTORE PUSH1 0x20 MSTORE PUSH1 0xFF PUSH1 0x40 PUSH1 0x0 KECCAK256 SLOAD AND ISZERO PUSH2 0x319E JUMPI POP POP JUMP JUMPDEST PUSH1 0x1 PUSH1 0x1 PUSH1 0xA0 SHL SUB AND PUSH1 0x0 DUP2 DUP2 MSTORE PUSH32 0xB7DB2DD08FCB62D0C9E08C51941CAE53C267786A0B75803FB7960902FC8EF97D PUSH1 0x20 MSTORE PUSH1 0x40 DUP2 KECCAK256 SLOAD SWAP1 SWAP2 SWAP1 PUSH1 0x0 DUP1 MLOAD PUSH1 0x20 PUSH2 0x5281 DUP4 CODECOPY DUP2 MLOAD SWAP2 MSTORE SWAP1 PUSH1 0xFF AND PUSH2 0x3305 JUMPI DUP3 DUP1 MSTORE PUSH1 0x20 MSTORE PUSH1 0x40 DUP3 KECCAK256 DUP2 DUP4 MSTORE PUSH1 0x20 MSTORE PUSH1 0x40 DUP3 KECCAK256 PUSH1 0x1 PUSH1 0xFF NOT DUP3 SLOAD AND OR SWAP1 SSTORE CALLER SWAP2 PUSH1 0x0 DUP1 MLOAD PUSH1 0x20 PUSH2 0x5101 DUP4 CODECOPY DUP2 MLOAD SWAP2 MSTORE DUP2 DUP1 LOG4 PUSH1 0x1 SWAP1 JUMP JUMPDEST POP POP SWAP1 JUMP JUMPDEST PUSH1 0x1 PUSH1 0x1 PUSH1 0xA0 SHL SUB AND PUSH1 0x0 DUP2 DUP2 MSTORE PUSH1 0x0 DUP1 MLOAD PUSH1 0x20 PUSH2 0x5161 DUP4 CODECOPY DUP2 MLOAD SWAP2 MSTORE PUSH1 0x20 MSTORE PUSH1 0x40 DUP2 KECCAK256 SLOAD SWAP1 SWAP2 SWAP1 PUSH1 0x0 DUP1 MLOAD PUSH1 0x20 PUSH2 0x5181 DUP4 CODECOPY DUP2 MLOAD SWAP2 MSTORE SWAP1 PUSH1 0x0 DUP1 MLOAD PUSH1 0x20 PUSH2 0x5281 DUP4 CODECOPY DUP2 MLOAD SWAP2 MSTORE SWAP1 PUSH1 0xFF AND PUSH2 0x3390 JUMPI DUP2 DUP5 MSTORE PUSH1 0x20 MSTORE PUSH1 0x40 DUP4 KECCAK256 DUP3 DUP5 MSTORE PUSH1 0x20 MSTORE PUSH1 0x40 DUP4 KECCAK256 PUSH1 0x1 PUSH1 0xFF NOT DUP3 SLOAD AND OR SWAP1 SSTORE PUSH1 0x0 DUP1 MLOAD PUSH1 0x20 PUSH2 0x5101 DUP4 CODECOPY DUP2 MLOAD SWAP2 MSTORE CALLER SWAP4 DUP1 LOG4 PUSH1 0x1 SWAP1 JUMP JUMPDEST POP POP POP SWAP1 JUMP JUMPDEST PUSH1 0x1 PUSH1 0x1 PUSH1 0xA0 SHL SUB AND PUSH1 0x0 DUP2 DUP2 MSTORE PUSH1 0x0 DUP1 MLOAD PUSH1 0x20 PUSH2 0x51E1 DUP4 CODECOPY DUP2 MLOAD SWAP2 MSTORE PUSH1 0x20 MSTORE PUSH1 0x40 DUP2 KECCAK256 SLOAD SWAP1 SWAP2 SWAP1 PUSH1 0x0 DUP1 MLOAD PUSH1 0x20 PUSH2 0x5241 DUP4 CODECOPY DUP2 MLOAD SWAP2 MSTORE SWAP1 PUSH1 0x0 DUP1 MLOAD PUSH1 0x20 PUSH2 0x5281 DUP4 CODECOPY DUP2 MLOAD SWAP2 MSTORE SWAP1 PUSH1 0xFF AND PUSH2 0x3390 JUMPI DUP2 DUP5 MSTORE PUSH1 0x20 MSTORE PUSH1 0x40 DUP4 KECCAK256 DUP3 DUP5 MSTORE PUSH1 0x20 MSTORE PUSH1 0x40 DUP4 KECCAK256 PUSH1 0x1 PUSH1 0xFF NOT DUP3 SLOAD AND OR SWAP1 SSTORE PUSH1 0x0 DUP1 MLOAD PUSH1 0x20 PUSH2 0x5101 DUP4 CODECOPY DUP2 MLOAD SWAP2 MSTORE CALLER SWAP4 DUP1 LOG4 PUSH1 0x1 SWAP1 JUMP JUMPDEST PUSH1 0x1 PUSH1 0x1 PUSH1 0xA0 SHL SUB AND PUSH1 0x0 DUP2 DUP2 MSTORE PUSH32 0x549FE2656C81D2947B3B913F0A53B9EA86C71E049F3A1B8AA23C09A8A05CB8D4 PUSH1 0x20 MSTORE PUSH1 0x40 DUP2 KECCAK256 SLOAD SWAP1 SWAP2 SWAP1 PUSH1 0x0 DUP1 MLOAD PUSH1 0x20 PUSH2 0x5261 DUP4 CODECOPY DUP2 MLOAD SWAP2 MSTORE SWAP1 PUSH1 0x0 DUP1 MLOAD PUSH1 0x20 PUSH2 0x5281 DUP4 CODECOPY DUP2 MLOAD SWAP2 MSTORE SWAP1 PUSH1 0xFF AND PUSH2 0x3390 JUMPI DUP2 DUP5 MSTORE PUSH1 0x20 MSTORE PUSH1 0x40 DUP4 KECCAK256 DUP3 DUP5 MSTORE PUSH1 0x20 MSTORE PUSH1 0x40 DUP4 KECCAK256 PUSH1 0x1 PUSH1 0xFF NOT DUP3 SLOAD AND OR SWAP1 SSTORE PUSH1 0x0 DUP1 MLOAD PUSH1 0x20 PUSH2 0x5101 DUP4 CODECOPY DUP2 MLOAD SWAP2 MSTORE CALLER SWAP4 DUP1 LOG4 PUSH1 0x1 SWAP1 JUMP JUMPDEST PUSH1 0x1 PUSH1 0x1 PUSH1 0xA0 SHL SUB AND PUSH1 0x0 DUP2 DUP2 MSTORE PUSH1 0x0 DUP1 MLOAD PUSH1 0x20 PUSH2 0x5221 DUP4 CODECOPY DUP2 MLOAD SWAP2 MSTORE PUSH1 0x20 MSTORE PUSH1 0x40 DUP2 KECCAK256 SLOAD SWAP1 SWAP2 SWAP1 PUSH1 0x0 DUP1 MLOAD PUSH1 0x20 PUSH2 0x5141 DUP4 CODECOPY DUP2 MLOAD SWAP2 MSTORE SWAP1 PUSH1 0x0 DUP1 MLOAD PUSH1 0x20 PUSH2 0x5281 DUP4 CODECOPY DUP2 MLOAD SWAP2 MSTORE SWAP1 PUSH1 0xFF AND PUSH2 0x3390 JUMPI DUP2 DUP5 MSTORE PUSH1 0x20 MSTORE PUSH1 0x40 DUP4 KECCAK256 DUP3 DUP5 MSTORE PUSH1 0x20 MSTORE PUSH1 0x40 DUP4 KECCAK256 PUSH1 0x1 PUSH1 0xFF NOT DUP3 SLOAD AND OR SWAP1 SSTORE PUSH1 0x0 DUP1 MLOAD PUSH1 0x20 PUSH2 0x5101 DUP4 CODECOPY DUP2 MLOAD SWAP2 MSTORE CALLER SWAP4 DUP1 LOG4 PUSH1 0x1 SWAP1 JUMP JUMPDEST PUSH1 0x1 PUSH1 0x1 PUSH1 0xA0 SHL SUB AND PUSH1 0x0 DUP2 DUP2 MSTORE PUSH1 0x0 DUP1 MLOAD PUSH1 0x20 PUSH2 0x5301 DUP4 CODECOPY DUP2 MLOAD SWAP2 MSTORE PUSH1 0x20 MSTORE PUSH1 0x40 DUP2 KECCAK256 SLOAD SWAP1 SWAP2 SWAP1 PUSH1 0x0 DUP1 MLOAD PUSH1 0x20 PUSH2 0x5201 DUP4 CODECOPY DUP2 MLOAD SWAP2 MSTORE SWAP1 PUSH1 0x0 DUP1 MLOAD PUSH1 0x20 PUSH2 0x5281 DUP4 CODECOPY DUP2 MLOAD SWAP2 MSTORE SWAP1 PUSH1 0xFF AND PUSH2 0x3390 JUMPI DUP2 DUP5 MSTORE PUSH1 0x20 MSTORE PUSH1 0x40 DUP4 KECCAK256 DUP3 DUP5 MSTORE PUSH1 0x20 MSTORE PUSH1 0x40 DUP4 KECCAK256 PUSH1 0x1 PUSH1 0xFF NOT DUP3 SLOAD AND OR SWAP1 SSTORE PUSH1 0x0 DUP1 MLOAD PUSH1 0x20 PUSH2 0x5101 DUP4 CODECOPY DUP2 MLOAD SWAP2 MSTORE CALLER SWAP4 DUP1 LOG4 PUSH1 0x1 SWAP1 JUMP JUMPDEST PUSH1 0x1 PUSH1 0x1 PUSH1 0xA0 SHL SUB AND PUSH1 0x0 DUP2 DUP2 MSTORE PUSH1 0x0 DUP1 MLOAD PUSH1 0x20 PUSH2 0x5321 DUP4 CODECOPY DUP2 MLOAD SWAP2 MSTORE PUSH1 0x20 MSTORE PUSH1 0x40 DUP2 KECCAK256 SLOAD SWAP1 SWAP2 SWAP1 PUSH1 0x0 DUP1 MLOAD PUSH1 0x20 PUSH2 0x51A1 DUP4 CODECOPY DUP2 MLOAD SWAP2 MSTORE SWAP1 PUSH1 0x0 DUP1 MLOAD PUSH1 0x20 PUSH2 0x5281 DUP4 CODECOPY DUP2 MLOAD SWAP2 MSTORE SWAP1 PUSH1 0xFF AND PUSH2 0x3390 JUMPI DUP2 DUP5 MSTORE PUSH1 0x20 MSTORE PUSH1 0x40 DUP4 KECCAK256 DUP3 DUP5 MSTORE PUSH1 0x20 MSTORE PUSH1 0x40 DUP4 KECCAK256 PUSH1 0x1 PUSH1 0xFF NOT DUP3 SLOAD AND OR SWAP1 SSTORE PUSH1 0x0 DUP1 MLOAD PUSH1 0x20 PUSH2 0x5101 DUP4 CODECOPY DUP2 MLOAD SWAP2 MSTORE CALLER SWAP4 DUP1 LOG4 PUSH1 0x1 SWAP1 JUMP JUMPDEST SWAP1 PUSH1 0x0 SWAP2 DUP1 DUP4 MSTORE PUSH1 0x0 DUP1 MLOAD PUSH1 0x20 PUSH2 0x5281 DUP4 CODECOPY DUP2 MLOAD SWAP2 MSTORE DUP1 PUSH1 0x20 MSTORE PUSH1 0x40 DUP5 KECCAK256 SWAP3 PUSH1 0x1 DUP1 PUSH1 0xA0 SHL SUB AND SWAP3 DUP4 DUP6 MSTORE PUSH1 0x20 MSTORE PUSH1 0xFF PUSH1 0x40 DUP6 KECCAK256 SLOAD AND ISZERO PUSH1 0x0 EQ PUSH2 0x3390 JUMPI DUP2 DUP5 MSTORE PUSH1 0x20 MSTORE PUSH1 0x40 DUP4 KECCAK256 DUP3 DUP5 MSTORE PUSH1 0x20 MSTORE PUSH1 0x40 DUP4 KECCAK256 PUSH1 0x1 PUSH1 0xFF NOT DUP3 SLOAD AND OR SWAP1 SSTORE PUSH1 0x0 DUP1 MLOAD PUSH1 0x20 PUSH2 0x5101 DUP4 CODECOPY DUP2 MLOAD SWAP2 MSTORE CALLER SWAP4 DUP1 LOG4 PUSH1 0x1 SWAP1 JUMP JUMPDEST SWAP1 PUSH1 0x0 SWAP2 DUP1 DUP4 MSTORE PUSH1 0x0 DUP1 MLOAD PUSH1 0x20 PUSH2 0x5281 DUP4 CODECOPY DUP2 MLOAD SWAP2 MSTORE DUP1 PUSH1 0x20 MSTORE PUSH1 0x40 DUP5 KECCAK256 SWAP3 PUSH1 0x1 DUP1 PUSH1 0xA0 SHL SUB AND SWAP3 DUP4 DUP6 MSTORE PUSH1 0x20 MSTORE PUSH1 0xFF PUSH1 0x40 DUP6 KECCAK256 SLOAD AND PUSH1 0x0 EQ PUSH2 0x3390 JUMPI DUP2 DUP5 MSTORE PUSH1 0x20 MSTORE PUSH1 0x40 DUP4 KECCAK256 DUP3 DUP5 MSTORE PUSH1 0x20 MSTORE PUSH1 0x40 DUP4 KECCAK256 PUSH1 0xFF NOT DUP2 SLOAD AND SWAP1 SSTORE PUSH32 0xF6391F5C32D9C69D2A47EA670B442974B53935D1EDC7FD64EB21E047A839171B CALLER SWAP4 DUP1 LOG4 PUSH1 0x1 SWAP1 JUMP JUMPDEST RETURNDATASIZE ISZERO PUSH2 0x3769 JUMPI RETURNDATASIZE SWAP1 PUSH2 0x374F DUP3 PUSH2 0x3078 JUMP JUMPDEST SWAP2 PUSH2 0x375D PUSH1 0x40 MLOAD SWAP4 DUP5 PUSH2 0x3055 JUMP JUMPDEST DUP3 MSTORE RETURNDATASIZE PUSH1 0x0 PUSH1 0x20 DUP5 ADD RETURNDATACOPY JUMP JUMPDEST PUSH1 0x60 SWAP1 JUMP JUMPDEST SWAP1 PUSH2 0x3795 JUMPI POP DUP1 MLOAD ISZERO PUSH2 0x3783 JUMPI DUP1 MLOAD SWAP1 PUSH1 0x20 ADD REVERT JUMPDEST PUSH1 0x40 MLOAD PUSH4 0xA12F521 PUSH1 0xE1 SHL DUP2 MSTORE PUSH1 0x4 SWAP1 REVERT JUMPDEST DUP2 MLOAD ISZERO DUP1 PUSH2 0x37C8 JUMPI JUMPDEST PUSH2 0x37A6 JUMPI POP SWAP1 JUMP JUMPDEST PUSH1 0x40 MLOAD PUSH4 0x9996B315 PUSH1 0xE0 SHL DUP2 MSTORE PUSH1 0x1 PUSH1 0x1 PUSH1 0xA0 SHL SUB SWAP1 SWAP2 AND PUSH1 0x4 DUP3 ADD MSTORE PUSH1 0x24 SWAP1 REVERT JUMPDEST POP DUP1 EXTCODESIZE ISZERO PUSH2 0x379E JUMP JUMPDEST PUSH1 0xFF PUSH1 0x0 DUP1 MLOAD PUSH1 0x20 PUSH2 0x5341 DUP4 CODECOPY DUP2 MLOAD SWAP2 MSTORE SLOAD PUSH1 0x40 SHR AND ISZERO PUSH2 0x37EE JUMPI JUMP JUMPDEST PUSH1 0x40 MLOAD PUSH4 0x1AFCD79F PUSH1 0xE3 SHL DUP2 MSTORE PUSH1 0x4 SWAP1 REVERT JUMPDEST SWAP2 SWAP1 DUP3 SUB SWAP2 DUP3 GT PUSH2 0x380D JUMPI JUMP JUMPDEST PUSH4 0x4E487B71 PUSH1 0xE0 SHL PUSH1 0x0 MSTORE PUSH1 0x11 PUSH1 0x4 MSTORE PUSH1 0x24 PUSH1 0x0 REVERT JUMPDEST SWAP2 SWAP1 DUP3 ADD DUP1 SWAP3 GT PUSH2 0x380D JUMPI JUMP JUMPDEST PUSH1 0x0 DUP1 MLOAD PUSH1 0x20 PUSH2 0x52C1 DUP4 CODECOPY DUP2 MLOAD SWAP2 MSTORE PUSH1 0x2 DUP2 SLOAD EQ PUSH2 0x384E JUMPI PUSH1 0x2 SWAP1 SSTORE JUMP JUMPDEST PUSH1 0x40 MLOAD PUSH4 0x3EE5AEB5 PUSH1 0xE0 SHL DUP2 MSTORE PUSH1 0x4 SWAP1 REVERT JUMPDEST PUSH1 0x40 MLOAD PUSH4 0x23B872DD PUSH1 0xE0 SHL PUSH1 0x20 DUP3 ADD MSTORE PUSH1 0x1 PUSH1 0x1 PUSH1 0xA0 SHL SUB SWAP3 DUP4 AND PUSH1 0x24 DUP3 ADD MSTORE SWAP3 SWAP1 SWAP2 AND PUSH1 0x44 DUP4 ADD MSTORE PUSH1 0x64 DUP1 DUP4 ADD SWAP4 SWAP1 SWAP4 MSTORE SWAP2 DUP2 MSTORE PUSH1 0xA0 DUP2 ADD SWAP2 DUP2 DUP4 LT PUSH1 0x1 PUSH1 0x1 PUSH1 0x40 SHL SUB DUP5 GT OR PUSH2 0x122D JUMPI PUSH2 0x38B8 SWAP3 PUSH1 0x40 MSTORE PUSH2 0x38D2 JUMP JUMPDEST JUMP JUMPDEST SWAP1 DUP2 PUSH1 0x20 SWAP2 SUB SLT PUSH2 0x540 JUMPI MLOAD DUP1 ISZERO ISZERO DUP2 SUB PUSH2 0x540 JUMPI SWAP1 JUMP JUMPDEST PUSH1 0x0 DUP1 PUSH2 0x38FB SWAP3 PUSH1 0x1 DUP1 PUSH1 0xA0 SHL SUB AND SWAP4 PUSH1 0x20 DUP2 MLOAD SWAP2 ADD DUP3 DUP7 GAS CALL PUSH2 0x38F4 PUSH2 0x373E JUMP JUMPDEST SWAP1 DUP4 PUSH2 0x376E JUMP JUMPDEST DUP1 MLOAD SWAP1 DUP2 ISZERO ISZERO SWAP2 DUP3 PUSH2 0x3929 JUMPI JUMPDEST POP POP PUSH2 0x3911 JUMPI POP JUMP JUMPDEST PUSH1 0x24 SWAP1 PUSH1 0x40 MLOAD SWAP1 PUSH4 0x5274AFE7 PUSH1 0xE0 SHL DUP3 MSTORE PUSH1 0x4 DUP3 ADD MSTORE REVERT JUMPDEST PUSH2 0x393C SWAP3 POP PUSH1 0x20 DUP1 SWAP2 DUP4 ADD ADD SWAP2 ADD PUSH2 0x38BA JUMP JUMPDEST ISZERO CODESIZE DUP1 PUSH2 0x3908 JUMP JUMPDEST PUSH1 0x1 PUSH1 0x1 PUSH1 0xA0 SHL SUB SWAP1 SWAP2 AND DUP2 MSTORE PUSH1 0x20 DUP2 ADD SWAP2 SWAP1 SWAP2 MSTORE PUSH1 0x40 ADD SWAP1 JUMP JUMPDEST PUSH2 0x2360 PUSH2 0x38B8 SWAP4 SWAP3 PUSH2 0x3986 PUSH1 0x40 MLOAD SWAP5 DUP6 SWAP3 PUSH4 0xA9059CBB PUSH1 0xE0 SHL PUSH1 0x20 DUP6 ADD MSTORE PUSH1 0x24 DUP5 ADD PUSH2 0x3944 JUMP JUMPDEST SUB PUSH1 0x1F NOT DUP2 ADD DUP5 MSTORE DUP4 PUSH2 0x3055 JUMP JUMPDEST PUSH1 0x64 CALLDATALOAD PUSH1 0x1 PUSH1 0x1 PUSH1 0xA0 SHL SUB DUP2 AND DUP2 SUB PUSH2 0x540 JUMPI SWAP1 JUMP JUMPDEST PUSH1 0x84 CALLDATALOAD PUSH1 0x1 PUSH1 0x1 PUSH1 0xA0 SHL SUB DUP2 AND DUP2 SUB PUSH2 0x540 JUMPI SWAP1 JUMP JUMPDEST PUSH1 0xA4 CALLDATALOAD PUSH1 0x1 PUSH1 0x1 PUSH1 0xA0 SHL SUB DUP2 AND DUP2 SUB PUSH2 0x540 JUMPI SWAP1 JUMP JUMPDEST PUSH2 0x124 CALLDATALOAD PUSH2 0xFFFF DUP2 AND DUP2 SUB PUSH2 0x540 JUMPI SWAP1 JUMP JUMPDEST PUSH2 0x144 CALLDATALOAD PUSH2 0xFFFF DUP2 AND DUP2 SUB PUSH2 0x540 JUMPI SWAP1 JUMP JUMPDEST PUSH2 0x164 CALLDATALOAD PUSH2 0xFFFF DUP2 AND DUP2 SUB PUSH2 0x540 JUMPI SWAP1 JUMP JUMPDEST PUSH1 0x24 CALLDATALOAD DUP1 ISZERO ISZERO DUP2 SUB PUSH2 0x540 JUMPI SWAP1 JUMP JUMPDEST PUSH1 0x0 NOT DUP2 EQ PUSH2 0x380D JUMPI PUSH1 0x1 ADD SWAP1 JUMP JUMPDEST DUP1 SLOAD DUP3 LT ISZERO PUSH2 0xB8F JUMPI PUSH1 0x0 MSTORE PUSH1 0x20 PUSH1 0x0 KECCAK256 ADD SWAP1 PUSH1 0x0 SWAP1 JUMP JUMPDEST DUP2 DUP2 MUL SWAP3 SWAP2 DUP2 ISZERO SWAP2 DUP5 DIV EQ OR ISZERO PUSH2 0x380D JUMPI JUMP JUMPDEST SWAP2 SWAP1 DUP2 LT ISZERO PUSH2 0xB8F JUMPI PUSH1 0x5 SHL ADD SWAP1 JUMP JUMPDEST PUSH1 0xFF PUSH1 0x0 DUP1 MLOAD PUSH1 0x20 PUSH2 0x52A1 DUP4 CODECOPY DUP2 MLOAD SWAP2 MSTORE SLOAD AND PUSH2 0x3A7E JUMPI JUMP JUMPDEST PUSH1 0x40 MLOAD PUSH4 0xD93C0665 PUSH1 0xE0 SHL DUP2 MSTORE PUSH1 0x4 SWAP1 REVERT JUMPDEST SWAP3 SWAP2 SWAP1 SWAP3 PUSH1 0x0 MSTORE PUSH1 0x20 PUSH1 0xC DUP2 MSTORE PUSH1 0x40 DUP1 PUSH1 0x0 KECCAK256 SLOAD SWAP5 DUP6 ISZERO PUSH2 0x3B24 JUMPI SWAP4 SWAP3 SWAP2 SWAP1 PUSH1 0x0 SWAP4 JUMPDEST DUP1 DUP6 LT PUSH2 0x3AC3 JUMPI POP POP POP POP POP EQ SWAP1 JUMP JUMPDEST SWAP1 SWAP2 SWAP3 SWAP4 SWAP5 PUSH2 0x3B01 SWAP1 PUSH2 0x3AD7 DUP8 DUP5 DUP9 PUSH2 0x3A55 JUMP JUMPDEST CALLDATALOAD DUP1 DUP3 GT PUSH2 0x3B0A JUMPI DUP5 MLOAD SWAP1 DUP7 DUP3 ADD SWAP3 DUP4 MSTORE DUP6 DUP3 ADD MSTORE DUP5 DUP2 MSTORE PUSH2 0x3AF8 DUP2 PUSH2 0x301F JUMP JUMPDEST MLOAD SWAP1 KECCAK256 SWAP6 PUSH2 0x3A1B JUMP JUMPDEST SWAP4 SWAP3 SWAP2 SWAP1 PUSH2 0x3AB3 JUMP JUMPDEST SWAP1 DUP5 MLOAD SWAP1 DUP7 DUP3 ADD SWAP3 DUP4 MSTORE DUP6 DUP3 ADD MSTORE DUP5 DUP2 MSTORE PUSH2 0x3AF8 DUP2 PUSH2 0x301F JUMP JUMPDEST POP POP POP POP POP POP PUSH1 0x0 SWAP1 JUMP JUMPDEST PUSH1 0x1 PUSH1 0x1 PUSH1 0x40 SHL SUB DUP2 GT PUSH2 0x122D JUMPI PUSH1 0x5 SHL PUSH1 0x20 ADD SWAP1 JUMP JUMPDEST SWAP1 PUSH2 0x3B50 DUP3 PUSH2 0x3B2F JUMP JUMPDEST PUSH2 0x3B5D PUSH1 0x40 MLOAD SWAP2 DUP3 PUSH2 0x3055 JUMP JUMPDEST DUP3 DUP2 MSTORE DUP1 SWAP3 PUSH2 0x3B6E PUSH1 0x1F NOT SWAP2 PUSH2 0x3B2F JUMP JUMPDEST ADD SWAP1 PUSH1 0x20 CALLDATASIZE SWAP2 ADD CALLDATACOPY JUMP JUMPDEST DUP1 MLOAD DUP3 LT ISZERO PUSH2 0xB8F JUMPI PUSH1 0x20 SWAP2 PUSH1 0x5 SHL ADD ADD SWAP1 JUMP JUMPDEST PUSH1 0x16 SLOAD PUSH1 0x1 PUSH1 0x1 PUSH1 0xA0 SHL SUB SWAP2 SWAP1 DUP3 AND ISZERO PUSH2 0xD1F JUMPI AND PUSH1 0x0 MSTORE PUSH1 0xE PUSH1 0x20 MSTORE PUSH1 0x40 PUSH1 0x0 KECCAK256 SLOAD PUSH1 0x17 SLOAD GT PUSH2 0xD0D JUMPI JUMP JUMPDEST SWAP1 PUSH1 0x0 JUMPDEST DUP4 DUP2 LT PUSH2 0x3BCD JUMPI POP POP POP POP PUSH1 0x0 SWAP1 JUMP JUMPDEST PUSH1 0x1 PUSH1 0x1 PUSH1 0xA0 SHL SUB DUP1 PUSH2 0x3BE0 DUP4 DUP6 PUSH2 0x3B78 JUMP JUMPDEST MLOAD AND SWAP1 DUP5 AND EQ PUSH2 0x3BF8 JUMPI PUSH2 0x3BF3 SWAP1 PUSH2 0x3A1B JUMP JUMPDEST PUSH2 0x3BBD JUMP JUMPDEST POP POP POP POP PUSH1 0x1 SWAP1 JUMP JUMPDEST DUP2 ISZERO PUSH2 0x3C0B JUMPI DIV SWAP1 JUMP JUMPDEST PUSH4 0x4E487B71 PUSH1 0xE0 SHL PUSH1 0x0 MSTORE PUSH1 0x12 PUSH1 0x4 MSTORE PUSH1 0x24 PUSH1 0x0 REVERT JUMPDEST PUSH1 0x0 SWAP2 DUP2 DUP4 MSTORE PUSH1 0x20 SWAP1 PUSH1 0xD DUP3 MSTORE PUSH1 0x40 SWAP4 PUSH1 0x1 DUP1 PUSH1 0xA0 SHL SUB DUP6 DUP3 KECCAK256 SLOAD AND SWAP2 DUP3 ISZERO PUSH2 0x3D9C JUMPI DUP3 EXTCODESIZE ISZERO PUSH2 0x82C JUMPI DUP6 MLOAD SWAP1 PUSH4 0x486713B PUSH1 0xE2 SHL DUP3 MSTORE PUSH1 0x4 DUP3 ADD MSTORE DUP2 DUP2 PUSH1 0x24 DUP2 DUP4 DUP8 GAS CALL DUP1 ISZERO PUSH2 0x3D92 JUMPI SWAP1 DUP5 SWAP2 PUSH2 0x3D80 JUMPI JUMPDEST POP DUP6 MLOAD PUSH4 0x58C3DE93 PUSH1 0xE1 SHL DUP2 MSTORE SWAP2 SWAP3 DUP3 SWAP1 PUSH1 0x4 SWAP1 DUP3 SWAP1 GAS STATICCALL SWAP2 DUP3 ISZERO PUSH2 0x3D75 JUMPI SWAP2 PUSH2 0x3D48 JUMPI JUMPDEST POP PUSH2 0x3CA3 JUMPI POP POP POP JUMP JUMPDEST PUSH32 0xFD34503C00CFBC5A0EEA075A7727749D184D460BBE6BA12C88C5F98B61479495 SWAP3 PUSH1 0x0 DUP1 MLOAD PUSH1 0x20 PUSH2 0x5121 DUP4 CODECOPY DUP2 MLOAD SWAP2 MSTORE SWAP2 DUP4 PUSH1 0x0 MSTORE PUSH1 0x0 DUP2 MSTORE DUP2 PUSH1 0x0 KECCAK256 PUSH2 0x100 PUSH2 0xFF00 NOT DUP3 SLOAD AND OR SWAP1 SSTORE PUSH1 0x0 DUP1 MLOAD PUSH1 0x20 PUSH2 0x52A1 DUP4 CODECOPY DUP2 MLOAD SWAP2 MSTORE DUP1 SLOAD PUSH1 0xFF DUP2 AND ISZERO PUSH2 0x3D19 JUMPI JUMPDEST POP POP PUSH1 0x1 DUP3 MLOAD SWAP2 DUP2 DUP4 MSTORE DUP3 ADD MSTORE LOG3 JUMP JUMPDEST PUSH1 0x1 SWAP1 PUSH2 0x3D24 PUSH2 0x3A65 JUMP JUMPDEST PUSH1 0xFF NOT AND OR SWAP1 SSTORE PUSH1 0x0 DUP1 MLOAD PUSH1 0x20 PUSH2 0x52E1 DUP4 CODECOPY DUP2 MLOAD SWAP2 MSTORE DUP2 DUP4 MLOAD CALLER DUP2 MSTORE LOG1 CODESIZE DUP1 PUSH2 0x3D09 JUMP JUMPDEST PUSH2 0x3D68 SWAP2 POP DUP3 RETURNDATASIZE DUP5 GT PUSH2 0x3D6E JUMPI JUMPDEST PUSH2 0x3D60 DUP2 DUP4 PUSH2 0x3055 JUMP JUMPDEST DUP2 ADD SWAP1 PUSH2 0x38BA JUMP JUMPDEST CODESIZE PUSH2 0x3C99 JUMP JUMPDEST POP RETURNDATASIZE PUSH2 0x3D56 JUMP JUMPDEST DUP6 MLOAD SWAP1 RETURNDATASIZE SWAP1 DUP3 RETURNDATACOPY RETURNDATASIZE SWAP1 REVERT JUMPDEST SWAP2 PUSH2 0x3D8C PUSH1 0x4 SWAP4 PUSH2 0x2FF1 JUMP JUMPDEST SWAP2 PUSH2 0x3C74 JUMP JUMPDEST DUP7 MLOAD RETURNDATASIZE DUP5 DUP3 RETURNDATACOPY RETURNDATASIZE SWAP1 REVERT JUMPDEST POP POP POP POP POP POP JUMP JUMPDEST MLOAD SWAP1 PUSH1 0x1 PUSH1 0x1 PUSH1 0x50 SHL SUB DUP3 AND DUP3 SUB PUSH2 0x540 JUMPI JUMP JUMPDEST SWAP1 DUP2 PUSH1 0xA0 SWAP2 SUB SLT PUSH2 0x540 JUMPI PUSH2 0x3DCC DUP2 PUSH2 0x3DA4 JUMP JUMPDEST SWAP2 PUSH1 0x20 DUP3 ADD MLOAD SWAP2 PUSH1 0x40 DUP2 ADD MLOAD SWAP2 PUSH2 0x3DEA PUSH1 0x80 PUSH1 0x60 DUP5 ADD MLOAD SWAP4 ADD PUSH2 0x3DA4 JUMP JUMPDEST SWAP1 JUMP JUMPDEST SWAP1 DUP2 PUSH1 0x20 SWAP2 SUB SLT PUSH2 0x540 JUMPI MLOAD PUSH1 0xFF DUP2 AND DUP2 SUB PUSH2 0x540 JUMPI SWAP1 JUMP JUMPDEST PUSH1 0x3 DUP3 ADD DUP1 SLOAD SWAP2 SWAP3 SWAP2 PUSH1 0x1 PUSH1 0x1 PUSH1 0xA0 SHL SUB SWAP2 SWAP1 DUP3 AND DUP1 ISZERO PUSH2 0x416D JUMPI PUSH1 0x4 SWAP4 PUSH1 0xA0 PUSH1 0x40 SWAP3 DUP4 MLOAD SWAP7 DUP8 DUP1 SWAP3 PUSH4 0x3FABE5A3 PUSH1 0xE2 SHL DUP3 MSTORE GAS STATICCALL SWAP3 DUP4 ISZERO PUSH2 0x4162 JUMPI PUSH1 0x0 SWAP6 DUP7 SWAP5 PUSH2 0x4129 JUMPI JUMPDEST POP PUSH1 0x0 DUP7 SGT ISZERO PUSH2 0x40E9 JUMPI DUP5 SWAP1 SLOAD AND SWAP5 DUP3 MLOAD SWAP6 DUP7 SWAP6 PUSH4 0x313CE567 PUSH1 0xE0 SHL SWAP2 DUP3 DUP9 MSTORE DUP8 PUSH1 0x4 PUSH1 0x20 SWAP10 DUP11 SWAP4 GAS STATICCALL SWAP8 DUP9 ISZERO PUSH2 0x40BF JUMPI PUSH1 0x0 SWAP9 PUSH2 0x40CA JUMPI JUMPDEST POP DUP4 SLOAD PUSH1 0x18 SHR AND SWAP7 DUP5 MLOAD SWAP2 DUP3 MSTORE DUP7 DUP3 PUSH1 0x4 DUP2 DUP12 GAS STATICCALL SWAP2 DUP3 ISZERO PUSH2 0x40BF JUMPI SWAP1 DUP8 SWAP2 PUSH1 0x0 SWAP4 PUSH2 0x4089 JUMPI JUMPDEST POP PUSH2 0x3EBA SWAP1 PUSH1 0x4 SWAP4 SWAP5 PUSH2 0x4B07 JUMP JUMPDEST SWAP8 DUP6 MLOAD SWAP3 DUP4 DUP1 SWAP3 PUSH4 0x18160DDD PUSH1 0xE0 SHL DUP3 MSTORE GAS STATICCALL SWAP1 DUP2 ISZERO PUSH2 0x407E JUMPI PUSH1 0x0 SWAP2 PUSH2 0x4050 JUMPI JUMPDEST POP PUSH1 0x6 SWAP2 PUSH2 0x3EE9 SWAP2 PUSH2 0x4B07 JUMP JUMPDEST SWAP2 ADD SLOAD SWAP4 PUSH6 0xFFFFFFFFFFFF DUP6 PUSH1 0x30 SHR AND DUP1 ISZERO ISZERO SWAP5 DUP6 PUSH2 0x403B JUMPI JUMPDEST POP POP PUSH1 0x0 SWAP4 DUP7 DUP4 GT DUP1 PUSH2 0x4032 JUMPI JUMPDEST PUSH2 0x3FCF JUMPI JUMPDEST SWAP2 PUSH1 0x80 SWAP6 SWAP4 SWAP2 DUP4 PUSH1 0x0 DUP1 MLOAD PUSH1 0x20 PUSH2 0x5361 DUP4 CODECOPY DUP2 MLOAD SWAP2 MSTORE SWAP9 SWAP7 SWAP5 SWAP6 DUP2 ISZERO SWAP7 DUP8 PUSH2 0x3FC0 JUMPI JUMPDEST PUSH2 0x3F54 JUMPI JUMPDEST POP POP DUP3 MLOAD SWAP6 DUP7 MSTORE DUP6 ADD MSTORE DUP4 ADD MSTORE ISZERO PUSH1 0x60 DUP3 ADD MSTORE LOG2 JUMP JUMPDEST PUSH2 0x3F8E SWAP2 ISZERO PUSH2 0x3F95 JUMPI DUP6 PUSH2 0xFFFF PUSH32 0xAE90404C71D3E50C5BF36B24AE1A55ADB402E23120E6DBC8A1F9728CBADBFDF8 SWAP3 JUMPDEST DUP6 SHR AND SWAP2 DUP13 PUSH2 0x4A6D JUMP JUMPDEST CODESIZE DUP1 PUSH2 0x3F3E JUMP JUMPDEST DUP6 PUSH2 0xFFFF PUSH32 0xA189DCF700501E22416BBB3E259DDB902ECCE84E6641E781E0B0477EA3056679 SWAP3 PUSH2 0x3F84 JUMP JUMPDEST POP PUSH2 0xFFFF DUP2 DUP5 SHR AND DUP7 GT PUSH2 0x3F39 JUMP JUMPDEST SWAP4 PUSH2 0x3FDA DUP8 DUP5 PUSH2 0x3800 JUMP JUMPDEST SWAP1 PUSH2 0x2710 SWAP2 DUP3 DUP2 MUL SWAP3 DUP2 DUP5 DIV EQ SWAP1 ISZERO OR ISZERO PUSH2 0x401E JUMPI POP SWAP2 PUSH1 0x80 SWAP6 SWAP4 SWAP2 PUSH2 0x4011 DUP3 PUSH1 0x0 DUP1 MLOAD PUSH1 0x20 PUSH2 0x5361 DUP4 CODECOPY DUP2 MLOAD SWAP2 MSTORE SWAP10 SWAP8 SWAP6 PUSH2 0x3C01 JUMP JUMPDEST SWAP6 SWAP8 POP SWAP2 SWAP4 SWAP6 POP SWAP2 PUSH2 0x3F16 JUMP JUMPDEST PUSH4 0x4E487B71 PUSH1 0xE0 SHL DUP2 MSTORE PUSH1 0x11 PUSH1 0x4 MSTORE PUSH1 0x24 SWAP1 REVERT JUMPDEST POP DUP3 ISZERO ISZERO PUSH2 0x3F11 JUMP JUMPDEST PUSH2 0x4046 SWAP3 SWAP6 POP PUSH2 0x3823 JUMP JUMPDEST TIMESTAMP GT SWAP3 CODESIZE DUP1 PUSH2 0x3F03 JUMP JUMPDEST SWAP1 DUP7 DUP3 DUP2 RETURNDATASIZE DUP4 GT PUSH2 0x4077 JUMPI JUMPDEST PUSH2 0x4066 DUP2 DUP4 PUSH2 0x3055 JUMP JUMPDEST DUP2 ADD SUB SLT PUSH2 0x29B JUMPI POP MLOAD PUSH1 0x6 PUSH2 0x3EDC JUMP JUMPDEST POP RETURNDATASIZE PUSH2 0x405C JUMP JUMPDEST DUP5 MLOAD RETURNDATASIZE PUSH1 0x0 DUP3 RETURNDATACOPY RETURNDATASIZE SWAP1 REVERT JUMPDEST PUSH1 0x4 SWAP4 POP SWAP1 PUSH2 0x40B0 PUSH2 0x3EBA SWAP3 DUP5 RETURNDATASIZE DUP7 GT PUSH2 0x40B8 JUMPI JUMPDEST PUSH2 0x40A8 DUP2 DUP4 PUSH2 0x3055 JUMP JUMPDEST DUP2 ADD SWAP1 PUSH2 0x3DED JUMP JUMPDEST SWAP4 POP SWAP1 PUSH2 0x3EAC JUMP JUMPDEST POP RETURNDATASIZE PUSH2 0x409E JUMP JUMPDEST DUP6 MLOAD RETURNDATASIZE PUSH1 0x0 DUP3 RETURNDATACOPY RETURNDATASIZE SWAP1 REVERT JUMPDEST PUSH2 0x40E2 SWAP2 SWAP9 POP DUP8 RETURNDATASIZE DUP10 GT PUSH2 0x40B8 JUMPI PUSH2 0x40A8 DUP2 DUP4 PUSH2 0x3055 JUMP JUMPDEST SWAP7 CODESIZE PUSH2 0x3E85 JUMP JUMPDEST POP POP SWAP1 POP PUSH1 0x0 DUP1 MLOAD PUSH1 0x20 PUSH2 0x5361 DUP4 CODECOPY DUP2 MLOAD SWAP2 MSTORE SWAP3 POP PUSH1 0x80 SWAP2 POP PUSH2 0x410B DUP5 PUSH2 0x49C1 JUMP JUMPDEST PUSH2 0x2710 DUP2 MLOAD SWAP2 PUSH1 0x0 DUP4 MSTORE PUSH1 0x0 PUSH1 0x20 DUP5 ADD MSTORE DUP3 ADD MSTORE PUSH1 0x1 PUSH1 0x60 DUP3 ADD MSTORE LOG2 JUMP JUMPDEST SWAP1 SWAP4 POP PUSH2 0x414E SWAP2 SWAP6 POP PUSH1 0xA0 RETURNDATASIZE DUP2 GT PUSH2 0x415B JUMPI JUMPDEST PUSH2 0x4146 DUP2 DUP4 PUSH2 0x3055 JUMP JUMPDEST DUP2 ADD SWAP1 PUSH2 0x3DB8 JUMP JUMPDEST POP SWAP7 SWAP3 POP POP SWAP5 SWAP3 CODESIZE PUSH2 0x3E4C JUMP JUMPDEST POP RETURNDATASIZE PUSH2 0x413C JUMP JUMPDEST DUP3 MLOAD RETURNDATASIZE PUSH1 0x0 DUP3 RETURNDATACOPY RETURNDATASIZE SWAP1 REVERT JUMPDEST POP POP POP POP POP JUMP JUMPDEST PUSH1 0x3 DUP3 ADD DUP1 SLOAD SWAP2 SWAP4 SWAP3 PUSH1 0x1 PUSH1 0x1 PUSH1 0xA0 SHL SUB SWAP3 DUP4 AND SWAP1 DUP2 ISZERO PUSH2 0x3D9C JUMPI PUSH1 0x4 SWAP5 PUSH1 0xA0 PUSH1 0x40 SWAP4 DUP5 MLOAD SWAP8 DUP9 DUP1 SWAP3 PUSH4 0x3FABE5A3 PUSH1 0xE2 SHL DUP3 MSTORE GAS STATICCALL SWAP4 DUP5 ISZERO PUSH2 0x432F JUMPI PUSH1 0x0 SWAP7 DUP8 SWAP6 PUSH2 0x4306 JUMPI JUMPDEST POP PUSH1 0x0 DUP8 SGT ISZERO PUSH2 0x42E3 JUMPI DUP6 SWAP1 SLOAD AND SWAP1 DUP4 MLOAD DUP1 SWAP7 PUSH4 0x313CE567 PUSH1 0xE0 SHL SWAP4 DUP5 DUP4 MSTORE DUP3 PUSH1 0x4 PUSH1 0x20 SWAP11 DUP12 SWAP4 GAS STATICCALL SWAP2 DUP3 ISZERO PUSH2 0x42B9 JUMPI PUSH1 0x0 SWAP3 PUSH2 0x42C4 JUMPI JUMPDEST POP DUP5 SLOAD PUSH1 0x18 SHR AND SWAP8 DUP6 MLOAD SWAP4 DUP5 MSTORE DUP8 DUP5 PUSH1 0x4 DUP2 DUP13 GAS STATICCALL SWAP4 DUP5 ISZERO PUSH2 0x42B9 JUMPI SWAP1 DUP9 SWAP3 SWAP2 PUSH1 0x0 SWAP6 PUSH2 0x428F JUMPI JUMPDEST POP PUSH1 0x4 SWAP3 SWAP2 PUSH2 0x4228 SWAP2 PUSH2 0x4B07 JUMP JUMPDEST SWAP9 DUP7 MLOAD SWAP3 DUP4 DUP1 SWAP3 PUSH4 0x18160DDD PUSH1 0xE0 SHL DUP3 MSTORE GAS STATICCALL SWAP1 DUP2 ISZERO PUSH2 0x40BF JUMPI PUSH1 0x0 SWAP2 PUSH2 0x4260 JUMPI JUMPDEST POP SWAP2 PUSH2 0x425B PUSH2 0x3EE9 SWAP3 PUSH1 0x6 SWAP5 PUSH2 0x3823 JUMP JUMPDEST PUSH2 0x4B07 JUMP JUMPDEST SWAP1 DUP8 DUP3 DUP2 RETURNDATASIZE DUP4 GT PUSH2 0x4288 JUMPI JUMPDEST PUSH2 0x4276 DUP2 DUP4 PUSH2 0x3055 JUMP JUMPDEST DUP2 ADD SUB SLT PUSH2 0x29B JUMPI POP MLOAD PUSH2 0x425B PUSH2 0x424A JUMP JUMPDEST POP RETURNDATASIZE PUSH2 0x426C JUMP JUMPDEST PUSH2 0x4228 SWAP2 SWAP6 POP SWAP2 PUSH2 0x42AF DUP5 SWAP4 PUSH1 0x4 SWAP6 RETURNDATASIZE DUP7 GT PUSH2 0x40B8 JUMPI PUSH2 0x40A8 DUP2 DUP4 PUSH2 0x3055 JUMP JUMPDEST SWAP6 SWAP2 POP SWAP2 SWAP3 PUSH2 0x421A JUMP JUMPDEST DUP7 MLOAD RETURNDATASIZE PUSH1 0x0 DUP3 RETURNDATACOPY RETURNDATASIZE SWAP1 REVERT JUMPDEST PUSH2 0x42DC SWAP2 SWAP3 POP DUP9 RETURNDATASIZE DUP11 GT PUSH2 0x40B8 JUMPI PUSH2 0x40A8 DUP2 DUP4 PUSH2 0x3055 JUMP JUMPDEST SWAP1 CODESIZE PUSH2 0x41F2 JUMP JUMPDEST POP POP POP SWAP1 POP PUSH1 0x0 DUP1 MLOAD PUSH1 0x20 PUSH2 0x5361 DUP4 CODECOPY DUP2 MLOAD SWAP2 MSTORE SWAP3 POP PUSH1 0x80 SWAP2 POP PUSH2 0x410B DUP5 PUSH2 0x49C1 JUMP JUMPDEST SWAP1 SWAP5 POP PUSH2 0x4322 SWAP2 SWAP7 POP PUSH1 0xA0 RETURNDATASIZE DUP2 GT PUSH2 0x415B JUMPI PUSH2 0x4146 DUP2 DUP4 PUSH2 0x3055 JUMP JUMPDEST POP SWAP8 SWAP3 POP POP SWAP6 SWAP4 CODESIZE PUSH2 0x41BA JUMP JUMPDEST DUP4 MLOAD RETURNDATASIZE PUSH1 0x0 DUP3 RETURNDATACOPY RETURNDATASIZE SWAP1 REVERT JUMPDEST PUSH2 0x4343 SWAP1 PUSH2 0x4370 JUMP JUMPDEST SWAP1 PUSH1 0xFF DUP3 SLOAD PUSH1 0x10 SHR AND PUSH1 0x3 DUP2 LT ISZERO PUSH2 0x30D7 JUMPI PUSH1 0x1 SUB PUSH2 0x435E JUMPI JUMP JUMPDEST PUSH1 0x40 MLOAD PUSH4 0xCC82BD69 PUSH1 0xE0 SHL DUP2 MSTORE PUSH1 0x4 SWAP1 REVERT JUMPDEST PUSH1 0x0 MSTORE PUSH1 0x0 PUSH1 0x20 MSTORE PUSH1 0x40 PUSH1 0x0 KECCAK256 SWAP1 PUSH1 0xFF DUP3 SLOAD AND ISZERO PUSH2 0xE9E JUMPI JUMP JUMPDEST PUSH2 0x4393 SWAP1 PUSH2 0x4370 JUMP JUMPDEST SWAP1 PUSH1 0xFF DUP3 SLOAD PUSH1 0x10 SHR AND PUSH1 0x3 DUP2 LT ISZERO PUSH2 0x30D7 JUMPI PUSH1 0x2 SUB PUSH2 0x43AE JUMPI JUMP JUMPDEST PUSH1 0x40 MLOAD PUSH4 0x25765841 PUSH1 0xE1 SHL DUP2 MSTORE PUSH1 0x4 SWAP1 REVERT JUMPDEST SWAP1 DUP1 PUSH1 0x20 SWAP4 SWAP3 DUP2 DUP5 MSTORE DUP5 DUP5 ADD CALLDATACOPY PUSH1 0x0 DUP3 DUP3 ADD DUP5 ADD MSTORE PUSH1 0x1F ADD PUSH1 0x1F NOT AND ADD ADD SWAP1 JUMP JUMPDEST SWAP1 PUSH1 0x0 PUSH2 0x4422 SWAP4 PUSH2 0x4434 PUSH1 0x20 SWAP7 SWAP5 PUSH1 0x2 PUSH1 0x1 DUP1 PUSH1 0xA0 SHL SUB SWAP2 ADD SLOAD AND SWAP5 PUSH1 0x40 MLOAD SWAP9 DUP10 SWAP8 DUP9 SWAP7 DUP8 SWAP6 PUSH4 0xAFD9FA5 PUSH1 0xE3 SHL DUP8 MSTORE PUSH1 0x40 PUSH1 0x4 DUP9 ADD MSTORE PUSH1 0x44 DUP8 ADD SWAP2 PUSH2 0x43C0 JUMP JUMPDEST DUP5 DUP2 SUB PUSH1 0x3 NOT ADD PUSH1 0x24 DUP7 ADD MSTORE SWAP2 PUSH2 0x43C0 JUMP JUMPDEST SUB SWAP3 GAS CALL SWAP1 DUP2 ISZERO PUSH2 0x4462 JUMPI PUSH1 0x0 SWAP2 PUSH2 0x444A JUMPI POP SWAP1 JUMP JUMPDEST PUSH2 0x3DEA SWAP2 POP PUSH1 0x20 RETURNDATASIZE DUP2 GT PUSH2 0x3D6E JUMPI PUSH2 0x3D60 DUP2 DUP4 PUSH2 0x3055 JUMP JUMPDEST PUSH1 0x40 MLOAD RETURNDATASIZE PUSH1 0x0 DUP3 RETURNDATACOPY RETURNDATASIZE SWAP1 REVERT JUMPDEST PUSH1 0x0 SWAP2 DUP2 DUP4 MSTORE PUSH1 0x20 SWAP2 DUP4 DUP4 MSTORE PUSH1 0x40 SWAP1 DUP2 DUP6 KECCAK256 SWAP2 PUSH1 0x7 DUP6 MSTORE DUP1 DUP7 KECCAK256 SWAP1 PUSH1 0x2 PUSH3 0x15180 TIMESTAMP DIV SWAP3 PUSH1 0x1 DUP1 PUSH1 0x40 SHL SUB DUP1 DUP6 AND SWAP1 DUP2 DUP4 SLOAD SWAP2 DUP3 AND SUB PUSH2 0x4684 JUMPI JUMPDEST POP POP ADD PUSH2 0x44B7 DUP7 DUP3 SLOAD PUSH2 0x3823 JUMP JUMPDEST DUP1 SWAP2 SSTORE PUSH1 0x5 DUP6 ADD SLOAD DUP1 ISZERO ISZERO DUP1 PUSH2 0x467B JUMPI JUMPDEST PUSH2 0x45D5 JUMPI POP POP PUSH2 0x38B8 SWAP7 PUSH2 0xE10 TIMESTAMP DIV PUSH1 0x30 DUP2 MOD SWAP4 PUSH1 0xE DUP2 MOD SWAP2 DUP7 DUP5 MSTORE PUSH1 0xA DUP11 MSTORE DUP5 DUP5 KECCAK256 DUP7 DUP6 MSTORE DUP11 MSTORE DUP1 DUP6 DUP6 KECCAK256 SLOAD SUB PUSH2 0x45A8 JUMPI JUMPDEST POP DUP6 DUP4 MSTORE PUSH1 0xB DUP10 MSTORE DUP4 DUP4 KECCAK256 DUP3 DUP5 MSTORE DUP10 MSTORE DUP1 DUP5 DUP5 KECCAK256 SLOAD SUB PUSH2 0x457B JUMPI JUMPDEST POP DUP5 DUP3 MSTORE PUSH1 0x8 DUP9 MSTORE DUP3 DUP3 KECCAK256 DUP5 DUP4 MSTORE DUP9 MSTORE PUSH2 0x454F PUSH2 0x4536 DUP9 DUP6 DUP6 KECCAK256 SLOAD PUSH2 0x3823 JUMP JUMPDEST SWAP8 DUP7 DUP5 MSTORE PUSH1 0x9 DUP11 MSTORE DUP5 DUP5 KECCAK256 DUP4 DUP6 MSTORE DUP11 MSTORE DUP5 DUP5 KECCAK256 SLOAD PUSH2 0x3823 JUMP JUMPDEST SWAP8 DUP9 SWAP5 DUP7 DUP5 MSTORE PUSH1 0x8 DUP3 MSTORE DUP5 DUP5 KECCAK256 SWAP1 DUP5 MSTORE DUP2 MSTORE DUP8 DUP5 DUP5 KECCAK256 SSTORE DUP6 DUP4 MSTORE PUSH1 0x9 DUP2 MSTORE DUP4 DUP4 KECCAK256 SWAP2 DUP4 MSTORE MSTORE KECCAK256 SSTORE PUSH2 0x46A5 JUMP JUMPDEST DUP6 DUP4 MSTORE PUSH1 0xB DUP10 MSTORE DUP4 DUP4 KECCAK256 DUP3 DUP5 MSTORE DUP10 MSTORE DUP4 DUP4 KECCAK256 SSTORE DUP5 DUP3 MSTORE PUSH1 0x9 DUP9 MSTORE DUP3 DUP3 KECCAK256 DUP2 DUP4 MSTORE DUP9 MSTORE DUP2 DUP4 DUP2 KECCAK256 SSTORE CODESIZE PUSH2 0x4516 JUMP JUMPDEST DUP7 DUP5 MSTORE PUSH1 0xA DUP11 MSTORE DUP5 DUP5 KECCAK256 DUP7 DUP6 MSTORE DUP11 MSTORE DUP5 DUP5 KECCAK256 SSTORE DUP6 DUP4 MSTORE PUSH1 0x8 DUP10 MSTORE DUP4 DUP4 KECCAK256 DUP6 DUP5 MSTORE DUP10 MSTORE DUP3 DUP5 DUP2 KECCAK256 SSTORE CODESIZE PUSH2 0x44FB JUMP JUMPDEST SWAP3 POP SWAP3 SWAP6 SWAP1 PUSH1 0x0 DUP1 MLOAD PUSH1 0x20 PUSH2 0x5121 DUP4 CODECOPY DUP2 MLOAD SWAP2 MSTORE SWAP6 POP DUP1 SWAP5 POP DUP8 DUP8 PUSH32 0x5434E111B71EE141086CD80149F7CA54AAA084DB1210A87431468E97A07C84B1 SWAP10 MSTORE DUP1 DUP4 MSTORE KECCAK256 PUSH2 0x100 PUSH2 0xFF00 NOT DUP3 SLOAD AND OR SWAP1 SSTORE PUSH1 0x0 DUP1 MLOAD PUSH1 0x20 PUSH2 0x52A1 DUP4 CODECOPY DUP2 MLOAD SWAP2 MSTORE DUP1 SLOAD PUSH1 0xFF DUP2 AND ISZERO PUSH2 0x464C JUMPI JUMPDEST POP POP DUP4 MLOAD SWAP3 DUP4 MSTORE DUP3 ADD MSTORE LOG3 JUMP JUMPDEST PUSH1 0x1 SWAP1 PUSH2 0x4657 PUSH2 0x3A65 JUMP JUMPDEST PUSH1 0xFF NOT AND OR SWAP1 SSTORE PUSH1 0x0 DUP1 MLOAD PUSH1 0x20 PUSH2 0x52E1 DUP4 CODECOPY DUP2 MLOAD SWAP2 MSTORE DUP2 DUP6 MLOAD CALLER DUP2 MSTORE LOG1 CODESIZE DUP1 PUSH2 0x463F JUMP JUMPDEST POP DUP1 DUP3 GT PUSH2 0x44C8 JUMP JUMPDEST PUSH1 0x1 PUSH1 0x1 PUSH1 0x40 SHL SUB NOT AND OR DUP2 SSTORE PUSH1 0x1 DUP2 ADD DUP10 SWAP1 SSTORE DUP2 DUP2 ADD DUP10 SWAP1 SSTORE CODESIZE DUP1 PUSH2 0x44A9 JUMP JUMPDEST DUP2 SLOAD PUSH1 0x40 DUP1 MLOAD PUSH4 0x313CE567 PUSH1 0xE0 SHL DUP2 MSTORE SWAP3 SWAP6 SWAP1 SWAP5 SWAP1 SWAP4 PUSH1 0x20 SWAP4 PUSH1 0x4 SWAP4 PUSH1 0x18 SHR PUSH1 0x1 PUSH1 0x1 PUSH1 0xA0 SHL SUB AND DUP6 DUP3 DUP7 DUP2 DUP5 GAS STATICCALL SWAP2 DUP3 ISZERO PUSH2 0x4997 JUMPI DUP6 SWAP2 DUP8 SWAP2 PUSH1 0x0 SWAP5 PUSH2 0x49A2 JUMPI JUMPDEST POP DUP10 MLOAD PUSH4 0x18160DDD PUSH1 0xE0 SHL DUP2 MSTORE SWAP3 DUP4 SWAP2 DUP3 SWAP1 GAS STATICCALL DUP1 ISZERO PUSH2 0x4997 JUMPI DUP3 SWAP1 PUSH1 0x0 SWAP1 PUSH2 0x4965 JUMPI JUMPDEST PUSH2 0x4715 SWAP3 POP PUSH2 0x4B07 JUMP JUMPDEST SWAP3 DUP4 ISZERO PUSH2 0x495A JUMPI PUSH2 0x4728 DUP3 PUSH1 0x6 SWAP3 PUSH2 0x4B07 JUMP JUMPDEST SWAP3 ADD SWAP6 PUSH2 0xFFFF SWAP3 DUP4 DUP9 SLOAD AND DUP1 ISZERO ISZERO DUP1 PUSH2 0x4921 JUMPI JUMPDEST PUSH2 0x4886 JUMPI POP POP SWAP1 PUSH2 0x474C SWAP2 PUSH2 0x4B07 JUMP JUMPDEST SWAP5 SLOAD PUSH1 0x10 SHR AND SWAP2 DUP3 ISZERO ISZERO DUP1 PUSH2 0x484D JUMPI JUMPDEST PUSH2 0x476A JUMPI JUMPDEST POP POP POP POP POP POP POP JUMP JUMPDEST PUSH2 0x2710 SWAP5 DUP6 DUP2 MUL SWAP6 DUP2 DUP8 DIV EQ SWAP1 ISZERO OR ISZERO PUSH2 0x4838 JUMPI POP SWAP2 PUSH2 0x47BD PUSH1 0x0 DUP1 MLOAD PUSH1 0x20 PUSH2 0x5121 DUP4 CODECOPY DUP2 MLOAD SWAP2 MSTORE SWAP5 SWAP3 PUSH32 0xD18711642B6B950F42F9939719D4BF2365B33DAB663671378A08DF75C148BF06 SWAP8 SWAP7 SWAP5 PUSH2 0x3A42 JUMP JUMPDEST SWAP1 DUP6 PUSH1 0x0 MSTORE PUSH1 0x0 DUP2 MSTORE DUP4 PUSH1 0x0 KECCAK256 PUSH2 0x100 PUSH2 0xFF00 NOT DUP3 SLOAD AND OR SWAP1 SSTORE PUSH1 0x0 DUP1 MLOAD PUSH1 0x20 PUSH2 0x52A1 DUP4 CODECOPY DUP2 MLOAD SWAP2 MSTORE DUP1 SLOAD PUSH1 0xFF DUP2 AND ISZERO PUSH2 0x4809 JUMPI JUMPDEST POP POP DUP4 MLOAD SWAP3 DUP4 MSTORE DUP3 ADD MSTORE LOG3 CODESIZE DUP1 DUP1 DUP1 DUP1 DUP1 DUP1 PUSH2 0x4761 JUMP JUMPDEST PUSH1 0x1 SWAP1 PUSH2 0x4814 PUSH2 0x3A65 JUMP JUMPDEST PUSH1 0xFF NOT AND OR SWAP1 SSTORE PUSH1 0x0 DUP1 MLOAD PUSH1 0x20 PUSH2 0x52E1 DUP4 CODECOPY DUP2 MLOAD SWAP2 MSTORE DUP2 DUP6 MLOAD CALLER DUP2 MSTORE LOG1 CODESIZE DUP1 PUSH2 0x47F2 JUMP JUMPDEST PUSH1 0x11 SWAP1 PUSH4 0x4E487B71 PUSH1 0xE0 SHL PUSH1 0x0 MSTORE MSTORE PUSH1 0x24 PUSH1 0x0 REVERT JUMPDEST POP PUSH2 0x2710 DUP1 DUP7 MUL SWAP1 DUP7 DUP3 DIV EQ DUP7 ISZERO OR ISZERO PUSH2 0x4871 JUMPI PUSH2 0x486B DUP5 DUP5 PUSH2 0x3A42 JUMP JUMPDEST LT PUSH2 0x475C JUMP JUMPDEST PUSH1 0x11 DUP3 PUSH4 0x4E487B71 PUSH1 0xE0 SHL PUSH1 0x0 MSTORE MSTORE PUSH1 0x24 PUSH1 0x0 REVERT JUMPDEST SWAP6 SWAP4 POP SWAP7 POP POP POP PUSH2 0x2710 SWAP5 DUP6 DUP2 MUL SWAP6 DUP2 DUP8 DIV EQ SWAP1 ISZERO OR ISZERO PUSH2 0x4838 JUMPI POP SWAP2 PUSH2 0x48E0 PUSH1 0x0 DUP1 MLOAD PUSH1 0x20 PUSH2 0x5121 DUP4 CODECOPY DUP2 MLOAD SWAP2 MSTORE SWAP5 SWAP3 PUSH32 0xB4842C9A937E956A3A6B98D2D3E024C31AABBEA0BE7D9C7ED4F76E9D88B7BEC8 SWAP8 SWAP7 SWAP5 PUSH2 0x3A42 JUMP JUMPDEST SWAP1 DUP6 PUSH1 0x0 MSTORE PUSH1 0x0 DUP2 MSTORE DUP4 PUSH1 0x0 KECCAK256 PUSH2 0x100 PUSH2 0xFF00 NOT DUP3 SLOAD AND OR SWAP1 SSTORE PUSH1 0x0 DUP1 MLOAD PUSH1 0x20 PUSH2 0x52A1 DUP4 CODECOPY DUP2 MLOAD SWAP2 MSTORE DUP1 SLOAD PUSH1 0xFF DUP2 AND ISZERO PUSH2 0x464C JUMPI POP POP DUP4 MLOAD SWAP3 DUP4 MSTORE DUP3 ADD MSTORE LOG3 JUMP JUMPDEST POP PUSH2 0x2710 DUP1 DUP4 MUL SWAP1 DUP4 DUP3 DIV EQ DUP4 ISZERO OR ISZERO PUSH2 0x4945 JUMPI PUSH2 0x493F DUP3 DUP9 PUSH2 0x3A42 JUMP JUMPDEST LT PUSH2 0x473C JUMP JUMPDEST PUSH1 0x11 DUP9 PUSH4 0x4E487B71 PUSH1 0xE0 SHL PUSH1 0x0 MSTORE MSTORE PUSH1 0x24 PUSH1 0x0 REVERT JUMPDEST POP POP POP POP POP POP POP POP POP JUMP JUMPDEST SWAP1 POP DUP7 DUP3 DUP2 RETURNDATASIZE DUP4 GT PUSH2 0x4990 JUMPI JUMPDEST PUSH2 0x497C DUP2 DUP4 PUSH2 0x3055 JUMP JUMPDEST DUP2 ADD SUB SLT PUSH2 0x29B JUMPI POP DUP2 PUSH2 0x4715 SWAP2 MLOAD PUSH2 0x470B JUMP JUMPDEST POP RETURNDATASIZE PUSH2 0x4972 JUMP JUMPDEST DUP9 MLOAD RETURNDATASIZE PUSH1 0x0 DUP3 RETURNDATACOPY RETURNDATASIZE SWAP1 REVERT JUMPDEST PUSH2 0x49BA SWAP2 SWAP5 POP DUP3 RETURNDATASIZE DUP5 GT PUSH2 0x40B8 JUMPI PUSH2 0x40A8 DUP2 DUP4 PUSH2 0x3055 JUMP JUMPDEST SWAP3 CODESIZE PUSH2 0x46E7 JUMP JUMPDEST PUSH32 0x9D68F11D6C7147935DD7F154A186441CEA8F783D4979F64F16ED40F3B116C498 SWAP1 DUP1 PUSH1 0x0 MSTORE PUSH1 0x0 PUSH1 0x20 MSTORE PUSH1 0x40 PUSH1 0x0 KECCAK256 PUSH2 0x100 PUSH2 0xFF00 NOT DUP3 SLOAD AND OR SWAP1 SSTORE PUSH1 0x0 DUP1 MLOAD PUSH1 0x20 PUSH2 0x52A1 DUP4 CODECOPY DUP2 MLOAD SWAP2 MSTORE DUP1 SLOAD PUSH1 0xFF DUP2 AND ISZERO PUSH2 0x4A3C JUMPI JUMPDEST POP POP PUSH1 0x0 DUP1 MLOAD PUSH1 0x20 PUSH2 0x5121 DUP4 CODECOPY DUP2 MLOAD SWAP2 MSTORE PUSH1 0x40 DUP1 MLOAD PUSH1 0x0 DUP2 MSTORE PUSH1 0x1 PUSH1 0x20 DUP3 ADD MSTORE LOG3 JUMP JUMPDEST PUSH1 0x1 SWAP1 PUSH2 0x4A47 PUSH2 0x3A65 JUMP JUMPDEST PUSH1 0xFF NOT AND OR SWAP1 SSTORE PUSH1 0x0 DUP1 MLOAD PUSH1 0x20 PUSH2 0x52E1 DUP4 CODECOPY DUP2 MLOAD SWAP2 MSTORE PUSH1 0x20 PUSH1 0x40 MLOAD CALLER DUP2 MSTORE LOG1 CODESIZE DUP1 PUSH2 0x4A19 JUMP JUMPDEST SWAP2 PUSH1 0x40 SWAP1 PUSH1 0x0 DUP1 MLOAD PUSH1 0x20 PUSH2 0x5121 DUP4 CODECOPY DUP2 MLOAD SWAP2 MSTORE SWAP3 SWAP5 DUP5 PUSH1 0x0 MSTORE PUSH1 0x0 PUSH1 0x20 MSTORE DUP3 PUSH1 0x0 KECCAK256 PUSH2 0x100 PUSH2 0xFF00 NOT DUP3 SLOAD AND OR SWAP1 SSTORE PUSH1 0x0 DUP1 MLOAD PUSH1 0x20 PUSH2 0x52A1 DUP4 CODECOPY DUP2 MLOAD SWAP2 MSTORE DUP1 SLOAD PUSH1 0xFF DUP2 AND ISZERO PUSH2 0x4AC6 JUMPI JUMPDEST POP POP DUP3 MLOAD SWAP2 DUP3 MSTORE PUSH1 0x20 DUP3 ADD MSTORE LOG3 JUMP JUMPDEST PUSH1 0x1 SWAP1 PUSH2 0x4AD1 PUSH2 0x3A65 JUMP JUMPDEST PUSH1 0xFF NOT AND OR SWAP1 SSTORE PUSH1 0x0 DUP1 MLOAD PUSH1 0x20 PUSH2 0x52E1 DUP4 CODECOPY DUP2 MLOAD SWAP2 MSTORE PUSH1 0x20 DUP5 MLOAD CALLER DUP2 MSTORE LOG1 CODESIZE DUP1 PUSH2 0x4AB7 JUMP JUMPDEST PUSH1 0xFF AND PUSH1 0x4D DUP2 GT PUSH2 0x380D JUMPI PUSH1 0xA EXP SWAP1 JUMP JUMPDEST SWAP1 PUSH1 0xFF AND PUSH1 0x12 DUP2 EQ PUSH2 0x4B58 JUMPI PUSH1 0x12 DUP2 LT PUSH2 0x4B3A JUMPI PUSH1 0x11 NOT ADD SWAP1 PUSH1 0xFF DUP3 GT PUSH2 0x380D JUMPI PUSH2 0x4B34 PUSH2 0x3DEA SWAP3 PUSH2 0x4AF6 JUMP JUMPDEST SWAP1 PUSH2 0x3C01 JUMP JUMPDEST PUSH1 0x12 SUB SWAP1 PUSH1 0xFF DUP3 GT PUSH2 0x380D JUMPI PUSH2 0x4B52 PUSH2 0x3DEA SWAP3 PUSH2 0x4AF6 JUMP JUMPDEST SWAP1 PUSH2 0x3A42 JUMP JUMPDEST POP SWAP1 JUMP JUMPDEST PUSH1 0x40 MLOAD PUSH1 0x20 DUP2 ADD SWAP1 PUSH32 0x8B73C3C69BB8FE3D512ECC4CF759CC79239F7B179B0FFACAA9A75D522B39400F DUP3 MSTORE PUSH32 0xE14F49BB05444A02E4AB87C68F06F7F023700AFE90C8504E4BF67B271C5ABDB6 PUSH1 0x40 DUP3 ADD MSTORE PUSH32 0xAD7C5BEF027816A800DA1736444FB58A807EF4C9603B7848673F7E3A68EB14A5 PUSH1 0x60 DUP3 ADD MSTORE CHAINID PUSH1 0x80 DUP3 ADD MSTORE ADDRESS PUSH1 0xA0 DUP3 ADD MSTORE PUSH1 0xA0 DUP2 MSTORE PUSH2 0x4BEC DUP2 PUSH2 0x303A JUMP JUMPDEST MLOAD SWAP1 KECCAK256 SWAP1 PUSH1 0x40 MLOAD SWAP1 PUSH1 0x20 DUP3 ADD SWAP3 PUSH2 0x1901 PUSH1 0xF0 SHL DUP5 MSTORE PUSH1 0x22 DUP4 ADD MSTORE PUSH1 0x42 DUP3 ADD MSTORE PUSH1 0x42 DUP2 MSTORE PUSH2 0x4C18 DUP2 PUSH2 0x3004 JUMP JUMPDEST MLOAD SWAP1 KECCAK256 SWAP1 JUMP JUMPDEST SWAP2 PUSH1 0x41 SUB PUSH2 0xAB2 JUMPI PUSH1 0x20 DUP2 ADD CALLDATALOAD SWAP2 PUSH1 0x40 SWAP3 PUSH1 0x0 SWAP3 DUP5 DUP2 ADD CALLDATALOAD DUP5 BYTE PUSH1 0x1B DUP2 EQ ISZERO DUP1 PUSH2 0x4CCD JUMPI JUMPDEST PUSH2 0x4CBC JUMPI PUSH16 0xA2A8918CA85BAFE22016D0B997E4DF60 PUSH1 0x1 PUSH1 0xFF SHL SUB DUP4 GT PUSH2 0x4CBC JUMPI SWAP3 DUP5 SWAP3 PUSH1 0x80 SWAP3 PUSH1 0x20 SWAP6 DUP9 MLOAD SWAP4 DUP5 MSTORE DUP7 DUP5 ADD MSTORE CALLDATALOAD DUP8 DUP4 ADD MSTORE PUSH1 0x60 DUP3 ADD MSTORE DUP3 DUP1 MSTORE PUSH1 0x1 GAS STATICCALL ISZERO PUSH2 0x4CB1 JUMPI MLOAD SWAP1 PUSH1 0x1 PUSH1 0x1 PUSH1 0xA0 SHL SUB DUP3 AND ISZERO PUSH2 0x4CA1 JUMPI POP SWAP1 JUMP JUMPDEST MLOAD PUSH4 0x8BAA579F PUSH1 0xE0 SHL DUP2 MSTORE PUSH1 0x4 SWAP1 REVERT JUMPDEST SWAP1 MLOAD SWAP1 RETURNDATASIZE SWAP1 DUP3 RETURNDATACOPY RETURNDATASIZE SWAP1 REVERT JUMPDEST DUP6 MLOAD PUSH4 0x8BAA579F PUSH1 0xE0 SHL DUP2 MSTORE PUSH1 0x4 SWAP1 REVERT JUMPDEST POP PUSH1 0x1C DUP2 EQ ISZERO PUSH2 0x4C43 JUMP JUMPDEST PUSH1 0x20 SWAP1 DUP2 DUP2 DUP5 SUB SLT PUSH2 0x540 JUMPI DUP1 CALLDATALOAD SWAP1 PUSH1 0x1 PUSH1 0x1 PUSH1 0x40 SHL SUB DUP3 GT PUSH2 0x540 JUMPI ADD SWAP2 DUP1 PUSH1 0x1F DUP5 ADD SLT ISZERO PUSH2 0x540 JUMPI DUP3 CALLDATALOAD PUSH2 0x4D0D DUP2 PUSH2 0x3B2F JUMP JUMPDEST SWAP4 PUSH2 0x4D1B PUSH1 0x40 MLOAD SWAP6 DUP7 PUSH2 0x3055 JUMP JUMPDEST DUP2 DUP6 MSTORE DUP4 DUP1 DUP7 ADD SWAP3 PUSH1 0x5 SHL DUP3 ADD ADD SWAP3 DUP4 GT PUSH2 0x540 JUMPI DUP4 ADD SWAP1 JUMPDEST DUP3 DUP3 LT PUSH2 0x4D42 JUMPI POP POP POP POP SWAP1 JUMP JUMPDEST DUP2 CALLDATALOAD DUP2 MSTORE SWAP1 DUP4 ADD SWAP1 DUP4 ADD PUSH2 0x4D34 JUMP JUMPDEST PUSH2 0x4D5D SWAP2 DUP2 ADD SWAP1 PUSH2 0x4CD8 JUMP JUMPDEST SWAP1 PUSH2 0x4D68 DUP3 MLOAD PUSH2 0x3B46 JUMP JUMPDEST PUSH1 0x0 SWAP3 DUP4 JUMPDEST DUP2 MLOAD DUP2 LT ISZERO PUSH2 0x503E JUMPI PUSH2 0x4D80 DUP2 DUP4 PUSH2 0x3B78 JUMP JUMPDEST MLOAD PUSH1 0x0 MSTORE PUSH1 0x20 PUSH1 0x0 DUP2 MSTORE PUSH1 0x40 DUP1 PUSH1 0x0 KECCAK256 SWAP1 DUP2 SLOAD SWAP2 PUSH1 0xFF DUP4 AND ISZERO DUP1 ISZERO PUSH2 0x5029 JUMPI JUMPDEST PUSH2 0x501C JUMPI PUSH1 0x3 DUP2 ADD SLOAD DUP3 MLOAD PUSH4 0x3FABE5A3 PUSH1 0xE2 SHL DUP2 MSTORE SWAP4 PUSH1 0xA0 SWAP4 PUSH1 0x4 SWAP4 PUSH1 0x1 PUSH1 0x1 PUSH1 0xA0 SHL SUB SWAP4 DUP5 AND SWAP4 SWAP2 SWAP3 SWAP2 SWAP1 DUP7 DUP9 DUP8 DUP2 DUP9 GAS STATICCALL SWAP8 DUP9 ISZERO PUSH2 0x407E JUMPI PUSH1 0x0 SWAP8 DUP9 SWAP10 PUSH2 0x4FF2 JUMPI JUMPDEST POP POP PUSH1 0x0 DUP8 SGT ISZERO PUSH2 0x4FDB JUMPI PUSH1 0x6 ADD SLOAD SWAP7 PUSH6 0xFFFFFFFFFFFF DUP9 PUSH1 0x30 SHR AND DUP1 ISZERO ISZERO SWAP2 DUP3 PUSH2 0x4FC8 JUMPI JUMPDEST POP POP PUSH2 0x4FA5 JUMPI DUP3 MLOAD SWAP2 DUP9 DUP4 DUP8 DUP2 PUSH4 0x313CE567 PUSH1 0xE0 SHL SWAP9 DUP10 DUP3 MSTORE GAS STATICCALL SWAP3 DUP4 ISZERO PUSH2 0x407E JUMPI PUSH1 0x0 SWAP4 PUSH2 0x4F86 JUMPI JUMPDEST POP PUSH1 0x18 SHR AND SWAP5 DUP3 MLOAD SWAP4 DUP5 MSTORE DUP8 DUP5 DUP7 DUP2 DUP10 GAS STATICCALL SWAP4 DUP5 ISZERO PUSH2 0x432F JUMPI SWAP2 DUP9 SWAP2 DUP7 SWAP4 PUSH1 0x0 SWAP7 PUSH2 0x4F61 JUMPI JUMPDEST POP SWAP1 PUSH2 0x4E65 SWAP2 PUSH2 0x4B07 JUMP JUMPDEST SWAP6 DUP4 MLOAD SWAP3 DUP4 DUP1 SWAP3 PUSH4 0x18160DDD PUSH1 0xE0 SHL DUP3 MSTORE GAS STATICCALL SWAP2 DUP3 ISZERO PUSH2 0x4F57 JUMPI POP PUSH1 0x0 SWAP2 PUSH2 0x4F28 JUMPI JUMPDEST POP SWAP1 PUSH2 0x4E93 SWAP2 PUSH2 0x4B07 JUMP JUMPDEST SWAP2 DUP1 DUP4 GT DUP1 PUSH2 0x4F1F JUMPI JUMPDEST PUSH2 0x4EB5 JUMPI JUMPDEST POP POP POP POP POP PUSH2 0x4EB0 SWAP1 PUSH2 0x3A1B JUMP JUMPDEST PUSH2 0x4D6D JUMP JUMPDEST PUSH2 0x4EBF SWAP1 DUP4 PUSH2 0x3800 JUMP JUMPDEST SWAP1 PUSH2 0x2710 SWAP2 DUP3 DUP2 MUL SWAP3 DUP2 DUP5 DIV EQ SWAP1 ISZERO OR ISZERO PUSH2 0x4838 JUMPI POP SWAP2 PUSH2 0x4EE8 PUSH2 0xFFFF SWAP3 PUSH2 0x4EB0 SWAP7 SWAP6 SWAP5 PUSH2 0x3C01 JUMP JUMPDEST SWAP3 SHR AND LT PUSH2 0x4EFB JUMPI JUMPDEST SWAP1 CODESIZE DUP1 DUP1 DUP1 PUSH2 0x4EA2 JUMP JUMPDEST PUSH2 0x4F05 DUP2 DUP5 PUSH2 0x3B78 JUMP JUMPDEST MLOAD PUSH2 0x4F19 PUSH2 0x4F12 DUP9 PUSH2 0x3A1B JUMP JUMPDEST SWAP8 DUP7 PUSH2 0x3B78 JUMP JUMPDEST MSTORE PUSH2 0x4EF1 JUMP JUMPDEST POP DUP3 ISZERO ISZERO PUSH2 0x4E9D JUMP JUMPDEST SWAP1 DUP7 DUP3 DUP2 RETURNDATASIZE DUP4 GT PUSH2 0x4F50 JUMPI JUMPDEST PUSH2 0x4F3E DUP2 DUP4 PUSH2 0x3055 JUMP JUMPDEST DUP2 ADD SUB SLT PUSH2 0x29B JUMPI POP MLOAD PUSH2 0x4E93 PUSH2 0x4E88 JUMP JUMPDEST POP RETURNDATASIZE PUSH2 0x4F34 JUMP JUMPDEST MLOAD RETURNDATASIZE PUSH1 0x0 DUP3 RETURNDATACOPY RETURNDATASIZE SWAP1 REVERT JUMPDEST PUSH2 0x4E65 SWAP3 SWAP2 SWAP7 POP PUSH2 0x4F7E SWAP1 DUP5 RETURNDATASIZE DUP7 GT PUSH2 0x40B8 JUMPI PUSH2 0x40A8 DUP2 DUP4 PUSH2 0x3055 JUMP JUMPDEST SWAP6 SWAP1 SWAP2 PUSH2 0x4E5A JUMP JUMPDEST PUSH2 0x4F9E SWAP2 SWAP4 POP DUP10 RETURNDATASIZE DUP12 GT PUSH2 0x40B8 JUMPI PUSH2 0x40A8 DUP2 DUP4 PUSH2 0x3055 JUMP JUMPDEST SWAP2 CODESIZE PUSH2 0x4E34 JUMP JUMPDEST POP POP POP POP POP POP POP POP DUP1 PUSH2 0x4FBB PUSH2 0x4EB0 SWAP3 DUP5 PUSH2 0x3B78 JUMP JUMPDEST MLOAD PUSH2 0x1FDD PUSH2 0x4F12 DUP9 PUSH2 0x3A1B JUMP JUMPDEST PUSH2 0x4FD2 SWAP3 POP PUSH2 0x3823 JUMP JUMPDEST TIMESTAMP GT CODESIZE DUP1 PUSH2 0x4E0A JUMP JUMPDEST POP POP POP POP POP POP POP POP POP DUP1 PUSH2 0x4FBB PUSH2 0x4EB0 SWAP3 DUP5 PUSH2 0x3B78 JUMP JUMPDEST DUP1 SWAP2 SWAP3 SWAP10 POP PUSH2 0x500E SWAP4 SWAP9 POP SWAP1 RETURNDATASIZE LT PUSH2 0x415B JUMPI PUSH2 0x4146 DUP2 DUP4 PUSH2 0x3055 JUMP JUMPDEST POP SWAP8 SWAP3 POP POP SWAP6 SWAP7 CODESIZE DUP1 PUSH2 0x4DE4 JUMP JUMPDEST POP POP POP POP PUSH2 0x4EB0 SWAP1 PUSH2 0x3A1B JUMP JUMPDEST POP PUSH1 0x3 DUP2 ADD SLOAD PUSH1 0x1 PUSH1 0x1 PUSH1 0xA0 SHL SUB AND ISZERO PUSH2 0x4DA0 JUMP JUMPDEST POP POP SWAP2 DUP1 PUSH2 0x506F JUMPI POP PUSH1 0x40 MLOAD SWAP2 POP PUSH1 0x20 DUP3 ADD PUSH1 0x1 PUSH1 0x1 PUSH1 0x40 SHL SUB DUP2 GT DUP4 DUP3 LT OR PUSH2 0x122D JUMPI PUSH1 0x40 MSTORE PUSH1 0x0 DUP3 MSTORE PUSH1 0x0 SWAP2 SWAP1 JUMP JUMPDEST PUSH2 0x5078 DUP2 PUSH2 0x3B46 JUMP JUMPDEST SWAP3 PUSH1 0x0 JUMPDEST DUP3 DUP2 LT PUSH2 0x50E2 JUMPI POP POP POP PUSH1 0x40 MLOAD SWAP2 DUP3 PUSH1 0x40 DUP2 ADD SWAP2 PUSH1 0x20 SWAP3 DUP4 DUP1 DUP5 ADD MSTORE DUP2 MLOAD DUP1 SWAP2 MSTORE DUP4 PUSH1 0x60 DUP5 ADD SWAP3 ADD SWAP4 PUSH1 0x0 JUMPDEST DUP3 DUP2 LT PUSH2 0x50CB JUMPI POP POP POP PUSH2 0x50C5 SWAP3 POP SUB PUSH1 0x1F NOT DUP2 ADD DUP5 MSTORE DUP4 PUSH2 0x3055 JUMP JUMPDEST PUSH1 0x1 SWAP2 SWAP1 JUMP JUMPDEST DUP6 MLOAD DUP5 MSTORE SWAP5 DUP2 ADD SWAP5 DUP8 SWAP5 POP SWAP3 DUP2 ADD SWAP3 PUSH1 0x1 ADD PUSH2 0x50A8 JUMP JUMPDEST DUP1 PUSH2 0x50F0 PUSH2 0x50FB SWAP3 DUP5 PUSH2 0x3B78 JUMP JUMPDEST MLOAD PUSH2 0x1FDD DUP3 DUP9 PUSH2 0x3B78 JUMP JUMPDEST PUSH2 0x507C JUMP INVALID 0x2F DUP8 DUP9 GT PUSH31 0x7EFF1D82E926EC794901D17C78024A50270940304540A733656F0D41712FD2 0xE0 0xCA CALLVALUE 0x4A PUSH16 0xA99CC53B622E1F2C74414DD4A01369D PUSH24 0xD5CD6AFD91DCE2B7FB3B832174769106DAEBCFD6D1970523 0x24 0xD 0xDA GT 0x28 GT MUL 0xDB SWAP4 PUSH4 0xB83B0DC4 STATICCALL STOP PUSH14 0xB768B1E8C7C1632E058EA72E339A SWAP3 PUSH20 0xFBCC219D3C747E82FC536729B082DB594318110A DIV 0xB6 CALLVALUE SWAP13 0xE4 DUP7 GASLIMIT 0xAA PUSH10 0xF0892751BC893D15E61D SWAP15 0x2B SWAP13 CHAINID ADDRESS CREATE2 XOR SWAP11 0xB7 0xA9 0x24 0x4D CREATE DUP5 DUP2 0x22 ISZERO NUMBER ISZERO 0xAF PUSH18 0xFE140F3DB0FE014031783B0946B8C9D2E336 ADDMOD SWAP5 LOG1 EXTCODESIZE LOG1 LOG3 0x21 MOD PUSH8 0xC828492DB98DCA3E KECCAK256 PUSH23 0xCC3735A920A3CA505D382BBC75442B0A96088B5456BC4E 0xD0 SGT SWAP5 0xC9 PUSH11 0x4FEEC0F883C9494257D76B SWAP7 0xAB SHR SWAP12 PUSH12 0x427DA25FE773164F88948D3E 0x21 0x5C SWAP5 0xB6 SSTORE 0x4E 0x2E 0xD5 0xE5 CALLCODE SUB 0xA8 0x21 0xC9 CALLCODE 0xF6 SGT SHR 0xF7 GAS 0xA9 0xED ADDRESS BASEFEE EXTCODECOPY 0xA8 0xE7 0xE1 DUP15 0xDB PC 0xC7 0xD6 DUP11 PREVRANDAO PUSH2 0x2FE8 DUP2 0xC8 DUP13 0xEB 0xAD SIGNEXTEND MSTORE 0xB4 AND SWAP9 0xE9 DUP5 0x4D 0xE2 PUSH6 0xD7A28E3265B3 PUSH27 0x6474929F336521B332C1681B933F6CB9F3376673440D862A9F2DF0 INVALID 0xD2 0xC7 PUSH23 0x48DE5860A4CC508CD0818C85B8B8A1AB4CEEEF8D981C89 JUMP 0xA6 MUL 0xDD PUSH28 0xC7DEC4DCEEDDA775E58DD541E08A116C6C53815C0BD028192F7B6268 STOP 0xCD 0x5E 0xD1 0x5C PUSH15 0x187E77E9AEE88184C21F4F2182AB58 0x27 0xCB EXTCODESIZE PUSH31 0x7FBEDCD63F033009B779B17422D0DF92223018B32B4D1FA46E071723D6817 0xE2 BASEFEE PUSH14 0x3BECC55F0062E78CEA01BEE320 0xCD 0x4E TIMESTAMP MUL PUSH17 0xB5EA74000D11B0C9F74754EBDBFC544B05 LOG2 PC SELFBALANCE JUMPDEST BALANCE 0x27 SELFBALANCE 0xB0 POP 0x5D REVERT ORIGIN 0x2C MSIZE MOD EXTCODECOPY LOG4 EXTCODESIZE PUSH2 0x5BB2 0xE6 0xD1 0xF 0xDF MSTORE 0xFB PC DUP8 PUSH28 0xBCDE4011AB71E3F32666744D246EDFF3F96E4BDAFEE2E9867098CDD1 XOR 0xA9 PUSH26 0xA7464786A8F0C57E16840DF040F15088DC2F81FE391C3923BEC7 RETURNDATACOPY 0x23 0xA9 PUSH7 0x2EFC9C229C6A00 0xC8 EXTCODECOPY SELFBALANCE MSTORE 0xC MOD 0xBA POP 0x2F 0xB4 PUSH31 0xF82D4E567ED964426DDC9A2F60E899604725069400000000000000000000 "},"methodIdentifiers":{"CONFIG_ROLE()":"a4d19feb","DEFAULT_ADMIN_ROLE()":"a217fddf","MINTER_ROLE()":"d5391393","PAUSER_ROLE()":"e63ab1e9","RELAYER_ROLE()":"926d7d7f","UNPAUSER_ROLE()":"fb1bb9de","UPGRADER_ROLE()":"f72c0d8b","UPGRADE_INTERFACE_VERSION()":"ad3cb1cc","auditorGovernanceKey()":"a4981ba5","bridgeOutViaCCTP(bytes32,uint256,uint32,bytes32)":"67ae6de3","checkUpkeep(bytes)":"6e04ff0d","configureGovernanceTimelock(address,uint48)":"801f1770","configureRelayerBonding(address,uint256)":"ddde95f0","configureStablecoin((bytes32,bool,uint8,address,address,address,address),(uint256,uint256,uint16,uint16,uint16,uint48))":"f65a10d1","foundationGovernanceKey()":"c533e95d","getRelayerBondStatus(address)":"09ee0848","getRoleAdmin(bytes32)":"248a9ca3","governanceTimelock()":"9a1fdd79","grantRole(bytes32,address)":"2f2ff15d","guardianGovernanceKey()":"1900eb7f","hasRole(bytes32,address)":"91d14854","initialize(address,address,address,address)":"f8c8765e","irisAttester()":"2ef1f2ee","isEnclaveMeasurementApproved(bytes32)":"a548b571","issuerGovernanceKey()":"1f23e105","issuerRecoveryGovernanceKey()":"5e2b7d9c","issuerThreshold(bytes32)":"61fb937f","lastAutomatedCheckTimestamp()":"da4a6955","mintFromAttestedRelayer(bytes32,address,uint256,bytes32,bytes32,uint256,bytes[])":"7a61b025","monitorReserve(bytes32)":"97b767be","pauseFromCircuitBreaker(bytes32,bytes32)":"a4f826bf","paused()":"5c975abb","performUpkeep(bytes)":"4585e33b","postRelayerBond(uint256)":"5a19274e","proxiableUUID()":"52d1902d","recordMerkleAuditRoot(bytes32,bytes32,bytes32,uint64)":"1cb278c3","redeemTeeStablecoin(bytes32,uint256,bytes32)":"32479d80","relayCCTPFastMessage(bytes32,bytes,bytes,uint256,bytes)":"ab2cc90a","relayCCTPMessage(bytes32,bytes,bytes)":"b3ff18df","renounceRole(bytes32,address)":"36568abe","revokeRole(bytes32,address)":"d547741f","setCircuitBreakerModule(bytes32,address)":"d975a715","setEnclaveMeasurement(bytes32,bool)":"b368334e","setGovernanceKeys(address,address,address)":"7ed5a2b2","setIrisAttester(address)":"88dbe674","setIssuerSignerSet(bytes32,address[],uint8)":"aa3f9dc5","setSovereignUnpauseKeys(address,address)":"c04ed29c","slashRelayerBond(address,bytes32,address)":"46e11980","stablecoins(bytes32)":"522b10be","supportsInterface(bytes4)":"01ffc9a7","unpauseWithJointSignatures(bytes32,uint256,bytes[])":"e72bffba","upgradeToAndCall(address,bytes)":"4f1ef286","verifyReserveMerkleProof(bytes32,bytes32,bytes32[])":"7a00a7b0","withdrawRelayerBond(uint256,address)":"e3032c90"}},"storageLayout":{"storage":[{"astId":2653,"contract":"contracts/InstitutionalStablecoinBridge.sol:InstitutionalStablecoinBridge","label":"stablecoins","offset":0,"slot":"0","type":"t_mapping(t_bytes32,t_struct(StablecoinConfig)2602_storage)"},{"astId":2659,"contract":"contracts/InstitutionalStablecoinBridge.sol:InstitutionalStablecoinBridge","label":"isIssuerSigner","offset":0,"slot":"1","type":"t_mapping(t_bytes32,t_mapping(t_address,t_bool))"},{"astId":2664,"contract":"contracts/InstitutionalStablecoinBridge.sol:InstitutionalStablecoinBridge","label":"issuerSignerList","offset":0,"slot":"2","type":"t_mapping(t_bytes32,t_array(t_address)dyn_storage)"},{"astId":2668,"contract":"contracts/InstitutionalStablecoinBridge.sol:InstitutionalStablecoinBridge","label":"issuerThreshold","offset":0,"slot":"3","type":"t_mapping(t_bytes32,t_uint8)"},{"astId":2672,"contract":"contracts/InstitutionalStablecoinBridge.sol:InstitutionalStablecoinBridge","label":"approvedEnclaveMeasurements","offset":0,"slot":"4","type":"t_mapping(t_bytes32,t_bool)"},{"astId":2676,"contract":"contracts/InstitutionalStablecoinBridge.sol:InstitutionalStablecoinBridge","label":"usedMintOperations","offset":0,"slot":"5","type":"t_mapping(t_bytes32,t_bool)"},{"astId":2680,"contract":"contracts/InstitutionalStablecoinBridge.sol:InstitutionalStablecoinBridge","label":"usedUnpauseActions","offset":0,"slot":"6","type":"t_mapping(t_bytes32,t_bool)"},{"astId":2685,"contract":"contracts/InstitutionalStablecoinBridge.sol:InstitutionalStablecoinBridge","label":"epochUsage","offset":0,"slot":"7","type":"t_mapping(t_bytes32,t_struct(EpochUsage)2639_storage)"},{"astId":2691,"contract":"contracts/InstitutionalStablecoinBridge.sol:InstitutionalStablecoinBridge","label":"hourlyOutflow","offset":0,"slot":"8","type":"t_mapping(t_bytes32,t_mapping(t_uint256,t_uint256))"},{"astId":2697,"contract":"contracts/InstitutionalStablecoinBridge.sol:InstitutionalStablecoinBridge","label":"dailyOutflow","offset":0,"slot":"9","type":"t_mapping(t_bytes32,t_mapping(t_uint256,t_uint256))"},{"astId":2703,"contract":"contracts/InstitutionalStablecoinBridge.sol:InstitutionalStablecoinBridge","label":"hourlyOutflowBucketTag","offset":0,"slot":"10","type":"t_mapping(t_bytes32,t_mapping(t_uint256,t_uint256))"},{"astId":2709,"contract":"contracts/InstitutionalStablecoinBridge.sol:InstitutionalStablecoinBridge","label":"dailyOutflowBucketTag","offset":0,"slot":"11","type":"t_mapping(t_bytes32,t_mapping(t_uint256,t_uint256))"},{"astId":2714,"contract":"contracts/InstitutionalStablecoinBridge.sol:InstitutionalStablecoinBridge","label":"latestMerkleAudit","offset":0,"slot":"12","type":"t_mapping(t_bytes32,t_struct(MerkleAuditRecord)2648_storage)"},{"astId":2718,"contract":"contracts/InstitutionalStablecoinBridge.sol:InstitutionalStablecoinBridge","label":"circuitBreakerModule","offset":0,"slot":"13","type":"t_mapping(t_bytes32,t_address)"},{"astId":2722,"contract":"contracts/InstitutionalStablecoinBridge.sol:InstitutionalStablecoinBridge","label":"relayerBonds","offset":0,"slot":"14","type":"t_mapping(t_address,t_uint256)"},{"astId":2724,"contract":"contracts/InstitutionalStablecoinBridge.sol:InstitutionalStablecoinBridge","label":"issuerGovernanceKey","offset":0,"slot":"15","type":"t_address"},{"astId":2726,"contract":"contracts/InstitutionalStablecoinBridge.sol:InstitutionalStablecoinBridge","label":"issuerRecoveryGovernanceKey","offset":0,"slot":"16","type":"t_address"},{"astId":2728,"contract":"contracts/InstitutionalStablecoinBridge.sol:InstitutionalStablecoinBridge","label":"foundationGovernanceKey","offset":0,"slot":"17","type":"t_address"},{"astId":2730,"contract":"contracts/InstitutionalStablecoinBridge.sol:InstitutionalStablecoinBridge","label":"auditorGovernanceKey","offset":0,"slot":"18","type":"t_address"},{"astId":2732,"contract":"contracts/InstitutionalStablecoinBridge.sol:InstitutionalStablecoinBridge","label":"guardianGovernanceKey","offset":0,"slot":"19","type":"t_address"},{"astId":2734,"contract":"contracts/InstitutionalStablecoinBridge.sol:InstitutionalStablecoinBridge","label":"irisAttester","offset":0,"slot":"20","type":"t_address"},{"astId":2736,"contract":"contracts/InstitutionalStablecoinBridge.sol:InstitutionalStablecoinBridge","label":"governanceTimelock","offset":0,"slot":"21","type":"t_address"},{"astId":2738,"contract":"contracts/InstitutionalStablecoinBridge.sol:InstitutionalStablecoinBridge","label":"governanceActionDelaySeconds","offset":20,"slot":"21","type":"t_uint48"},{"astId":2740,"contract":"contracts/InstitutionalStablecoinBridge.sol:InstitutionalStablecoinBridge","label":"relayerBondToken","offset":0,"slot":"22","type":"t_address"},{"astId":2742,"contract":"contracts/InstitutionalStablecoinBridge.sol:InstitutionalStablecoinBridge","label":"relayerBondRequirement","offset":0,"slot":"23","type":"t_uint256"},{"astId":2745,"contract":"contracts/InstitutionalStablecoinBridge.sol:InstitutionalStablecoinBridge","label":"lastAutomatedCheckTimestamp","offset":0,"slot":"24","type":"t_uint256"},{"astId":6563,"contract":"contracts/InstitutionalStablecoinBridge.sol:InstitutionalStablecoinBridge","label":"__gap","offset":0,"slot":"25","type":"t_array(t_uint256)50_storage"}],"types":{"t_address":{"encoding":"inplace","label":"address","numberOfBytes":"20"},"t_array(t_address)dyn_storage":{"base":"t_address","encoding":"dynamic_array","label":"address[]","numberOfBytes":"32"},"t_array(t_uint256)50_storage":{"base":"t_uint256","encoding":"inplace","label":"uint256[50]","numberOfBytes":"1600"},"t_bool":{"encoding":"inplace","label":"bool","numberOfBytes":"1"},"t_bytes32":{"encoding":"inplace","label":"bytes32","numberOfBytes":"32"},"t_enum(RoutingType)2574":{"encoding":"inplace","label":"enum InstitutionalStablecoinBridge.RoutingType","numberOfBytes":"1"},"t_mapping(t_address,t_bool)":{"encoding":"mapping","key":"t_address","label":"mapping(address => bool)","numberOfBytes":"32","value":"t_bool"},"t_mapping(t_address,t_uint256)":{"encoding":"mapping","key":"t_address","label":"mapping(address => uint256)","numberOfBytes":"32","value":"t_uint256"},"t_mapping(t_bytes32,t_address)":{"encoding":"mapping","key":"t_bytes32","label":"mapping(bytes32 => address)","numberOfBytes":"32","value":"t_address"},"t_mapping(t_bytes32,t_array(t_address)dyn_storage)":{"encoding":"mapping","key":"t_bytes32","label":"mapping(bytes32 => address[])","numberOfBytes":"32","value":"t_array(t_address)dyn_storage"},"t_mapping(t_bytes32,t_bool)":{"encoding":"mapping","key":"t_bytes32","label":"mapping(bytes32 => bool)","numberOfBytes":"32","value":"t_bool"},"t_mapping(t_bytes32,t_mapping(t_address,t_bool))":{"encoding":"mapping","key":"t_bytes32","label":"mapping(bytes32 => mapping(address => bool))","numberOfBytes":"32","value":"t_mapping(t_address,t_bool)"},"t_mapping(t_bytes32,t_mapping(t_uint256,t_uint256))":{"encoding":"mapping","key":"t_bytes32","label":"mapping(bytes32 => mapping(uint256 => uint256))","numberOfBytes":"32","value":"t_mapping(t_uint256,t_uint256)"},"t_mapping(t_bytes32,t_struct(EpochUsage)2639_storage)":{"encoding":"mapping","key":"t_bytes32","label":"mapping(bytes32 => struct InstitutionalStablecoinBridge.EpochUsage)","numberOfBytes":"32","value":"t_struct(EpochUsage)2639_storage"},"t_mapping(t_bytes32,t_struct(MerkleAuditRecord)2648_storage)":{"encoding":"mapping","key":"t_bytes32","label":"mapping(bytes32 => struct InstitutionalStablecoinBridge.MerkleAuditRecord)","numberOfBytes":"32","value":"t_struct(MerkleAuditRecord)2648_storage"},"t_mapping(t_bytes32,t_struct(StablecoinConfig)2602_storage)":{"encoding":"mapping","key":"t_bytes32","label":"mapping(bytes32 => struct InstitutionalStablecoinBridge.StablecoinConfig)","numberOfBytes":"32","value":"t_struct(StablecoinConfig)2602_storage"},"t_mapping(t_bytes32,t_uint8)":{"encoding":"mapping","key":"t_bytes32","label":"mapping(bytes32 => uint8)","numberOfBytes":"32","value":"t_uint8"},"t_mapping(t_uint256,t_uint256)":{"encoding":"mapping","key":"t_uint256","label":"mapping(uint256 => uint256)","numberOfBytes":"32","value":"t_uint256"},"t_struct(EpochUsage)2639_storage":{"encoding":"inplace","label":"struct InstitutionalStablecoinBridge.EpochUsage","members":[{"astId":2634,"contract":"contracts/InstitutionalStablecoinBridge.sol:InstitutionalStablecoinBridge","label":"epochId","offset":0,"slot":"0","type":"t_uint64"},{"astId":2636,"contract":"contracts/InstitutionalStablecoinBridge.sol:InstitutionalStablecoinBridge","label":"mintedAmount","offset":0,"slot":"1","type":"t_uint256"},{"astId":2638,"contract":"contracts/InstitutionalStablecoinBridge.sol:InstitutionalStablecoinBridge","label":"txVolume","offset":0,"slot":"2","type":"t_uint256"}],"numberOfBytes":"96"},"t_struct(MerkleAuditRecord)2648_storage":{"encoding":"inplace","label":"struct InstitutionalStablecoinBridge.MerkleAuditRecord","members":[{"astId":2641,"contract":"contracts/InstitutionalStablecoinBridge.sol:InstitutionalStablecoinBridge","label":"merkleRoot","offset":0,"slot":"0","type":"t_bytes32"},{"astId":2643,"contract":"contracts/InstitutionalStablecoinBridge.sol:InstitutionalStablecoinBridge","label":"reportHash","offset":0,"slot":"1","type":"t_bytes32"},{"astId":2645,"contract":"contracts/InstitutionalStablecoinBridge.sol:InstitutionalStablecoinBridge","label":"reportTimestamp","offset":0,"slot":"2","type":"t_uint64"},{"astId":2647,"contract":"contracts/InstitutionalStablecoinBridge.sol:InstitutionalStablecoinBridge","label":"recordedAt","offset":8,"slot":"2","type":"t_uint64"}],"numberOfBytes":"96"},"t_struct(StablecoinConfig)2602_storage":{"encoding":"inplace","label":"struct InstitutionalStablecoinBridge.StablecoinConfig","members":[{"astId":2576,"contract":"contracts/InstitutionalStablecoinBridge.sol:InstitutionalStablecoinBridge","label":"enabled","offset":0,"slot":"0","type":"t_bool"},{"astId":2578,"contract":"contracts/InstitutionalStablecoinBridge.sol:InstitutionalStablecoinBridge","label":"mintPaused","offset":1,"slot":"0","type":"t_bool"},{"astId":2581,"contract":"contracts/InstitutionalStablecoinBridge.sol:InstitutionalStablecoinBridge","label":"routingType","offset":2,"slot":"0","type":"t_enum(RoutingType)2574"},{"astId":2583,"contract":"contracts/InstitutionalStablecoinBridge.sol:InstitutionalStablecoinBridge","label":"token","offset":3,"slot":"0","type":"t_address"},{"astId":2585,"contract":"contracts/InstitutionalStablecoinBridge.sol:InstitutionalStablecoinBridge","label":"tokenMessengerV2","offset":0,"slot":"1","type":"t_address"},{"astId":2587,"contract":"contracts/InstitutionalStablecoinBridge.sol:InstitutionalStablecoinBridge","label":"messageTransmitterV2","offset":0,"slot":"2","type":"t_address"},{"astId":2589,"contract":"contracts/InstitutionalStablecoinBridge.sol:InstitutionalStablecoinBridge","label":"proofOfReserveFeed","offset":0,"slot":"3","type":"t_address"},{"astId":2591,"contract":"contracts/InstitutionalStablecoinBridge.sol:InstitutionalStablecoinBridge","label":"mintCeilingPerEpoch","offset":0,"slot":"4","type":"t_uint256"},{"astId":2593,"contract":"contracts/InstitutionalStablecoinBridge.sol:InstitutionalStablecoinBridge","label":"dailyTxLimit","offset":0,"slot":"5","type":"t_uint256"},{"astId":2595,"contract":"contracts/InstitutionalStablecoinBridge.sol:InstitutionalStablecoinBridge","label":"hourlyOutflowBps","offset":0,"slot":"6","type":"t_uint16"},{"astId":2597,"contract":"contracts/InstitutionalStablecoinBridge.sol:InstitutionalStablecoinBridge","label":"dailyOutflowBps","offset":2,"slot":"6","type":"t_uint16"},{"astId":2599,"contract":"contracts/InstitutionalStablecoinBridge.sol:InstitutionalStablecoinBridge","label":"porDeviationBps","offset":4,"slot":"6","type":"t_uint16"},{"astId":2601,"contract":"contracts/InstitutionalStablecoinBridge.sol:InstitutionalStablecoinBridge","label":"porHeartbeatSeconds","offset":6,"slot":"6","type":"t_uint48"}],"numberOfBytes":"224"},"t_uint16":{"encoding":"inplace","label":"uint16","numberOfBytes":"2"},"t_uint256":{"encoding":"inplace","label":"uint256","numberOfBytes":"32"},"t_uint48":{"encoding":"inplace","label":"uint48","numberOfBytes":"6"},"t_uint64":{"encoding":"inplace","label":"uint64","numberOfBytes":"8"},"t_uint8":{"encoding":"inplace","label":"uint8","numberOfBytes":"1"}}}}}}