{
  "_format": "hh-sol-artifact-1",
  "contractName": "SovereignCircuitBreakerModule",
  "sourceName": "contracts/SovereignCircuitBreakerModule.sol",
  "abi": [
    {
      "inputs": [
        {
          "internalType": "address",
          "name": "owner_",
          "type": "address"
        },
        {
          "internalType": "address",
          "name": "stablecoin_",
          "type": "address"
        },
        {
          "internalType": "address",
          "name": "reserveOracle_",
          "type": "address"
        },
        {
          "internalType": "address",
          "name": "multiSigWallet_",
          "type": "address"
        },
        {
          "internalType": "uint256",
          "name": "maxDeviationBps_",
          "type": "uint256"
        }
      ],
      "stateMutability": "nonpayable",
      "type": "constructor"
    },
    {
      "inputs": [],
      "name": "InvalidAddress",
      "type": "error"
    },
    {
      "inputs": [],
      "name": "InvalidAmount",
      "type": "error"
    },
    {
      "inputs": [],
      "name": "NotPaused",
      "type": "error"
    },
    {
      "inputs": [
        {
          "internalType": "address",
          "name": "owner",
          "type": "address"
        }
      ],
      "name": "OwnableInvalidOwner",
      "type": "error"
    },
    {
      "inputs": [
        {
          "internalType": "address",
          "name": "account",
          "type": "address"
        }
      ],
      "name": "OwnableUnauthorizedAccount",
      "type": "error"
    },
    {
      "inputs": [],
      "name": "Unauthorized",
      "type": "error"
    },
    {
      "anonymous": false,
      "inputs": [
        {
          "indexed": false,
          "internalType": "uint256",
          "name": "onChainSupply",
          "type": "uint256"
        },
        {
          "indexed": false,
          "internalType": "uint256",
          "name": "oracleReserve",
          "type": "uint256"
        },
        {
          "indexed": false,
          "internalType": "uint256",
          "name": "deviationBps",
          "type": "uint256"
        }
      ],
      "name": "AnomalyDetected",
      "type": "event"
    },
    {
      "anonymous": false,
      "inputs": [
        {
          "indexed": true,
          "internalType": "address",
          "name": "triggeredBy",
          "type": "address"
        },
        {
          "indexed": false,
          "internalType": "uint256",
          "name": "timestamp",
          "type": "uint256"
        }
      ],
      "name": "MintingPaused",
      "type": "event"
    },
    {
      "anonymous": false,
      "inputs": [
        {
          "indexed": true,
          "internalType": "address",
          "name": "executedBy",
          "type": "address"
        },
        {
          "indexed": false,
          "internalType": "uint256",
          "name": "timestamp",
          "type": "uint256"
        }
      ],
      "name": "MintingUnpaused",
      "type": "event"
    },
    {
      "anonymous": false,
      "inputs": [
        {
          "indexed": true,
          "internalType": "address",
          "name": "previousOwner",
          "type": "address"
        },
        {
          "indexed": true,
          "internalType": "address",
          "name": "newOwner",
          "type": "address"
        }
      ],
      "name": "OwnershipTransferred",
      "type": "event"
    },
    {
      "inputs": [],
      "name": "BPS_DENOMINATOR",
      "outputs": [
        {
          "internalType": "uint256",
          "name": "",
          "type": "uint256"
        }
      ],
      "stateMutability": "view",
      "type": "function"
    },
    {
      "inputs": [],
      "name": "MAX_DEVIATION_BPS",
      "outputs": [
        {
          "internalType": "uint256",
          "name": "",
          "type": "uint256"
        }
      ],
      "stateMutability": "view",
      "type": "function"
    },
    {
      "inputs": [],
      "name": "MAX_ORACLE_STALENESS_SECONDS",
      "outputs": [
        {
          "internalType": "uint256",
          "name": "",
          "type": "uint256"
        }
      ],
      "stateMutability": "view",
      "type": "function"
    },
    {
      "inputs": [
        {
          "internalType": "uint256",
          "name": "pendingMintAmount",
          "type": "uint256"
        }
      ],
      "name": "checkReserveAnomaly",
      "outputs": [],
      "stateMutability": "nonpayable",
      "type": "function"
    },
    {
      "inputs": [],
      "name": "isPaused",
      "outputs": [
        {
          "internalType": "bool",
          "name": "",
          "type": "bool"
        }
      ],
      "stateMutability": "view",
      "type": "function"
    },
    {
      "inputs": [],
      "name": "multiSigWallet",
      "outputs": [
        {
          "internalType": "address",
          "name": "",
          "type": "address"
        }
      ],
      "stateMutability": "view",
      "type": "function"
    },
    {
      "inputs": [],
      "name": "owner",
      "outputs": [
        {
          "internalType": "address",
          "name": "",
          "type": "address"
        }
      ],
      "stateMutability": "view",
      "type": "function"
    },
    {
      "inputs": [],
      "name": "renounceOwnership",
      "outputs": [],
      "stateMutability": "nonpayable",
      "type": "function"
    },
    {
      "inputs": [],
      "name": "reserveOracle",
      "outputs": [
        {
          "internalType": "address",
          "name": "",
          "type": "address"
        }
      ],
      "stateMutability": "view",
      "type": "function"
    },
    {
      "inputs": [
        {
          "internalType": "address",
          "name": "nextWallet",
          "type": "address"
        }
      ],
      "name": "setMultiSigWallet",
      "outputs": [],
      "stateMutability": "nonpayable",
      "type": "function"
    },
    {
      "inputs": [],
      "name": "stablecoin",
      "outputs": [
        {
          "internalType": "contract IERC20",
          "name": "",
          "type": "address"
        }
      ],
      "stateMutability": "view",
      "type": "function"
    },
    {
      "inputs": [
        {
          "internalType": "address",
          "name": "newOwner",
          "type": "address"
        }
      ],
      "name": "transferOwnership",
      "outputs": [],
      "stateMutability": "nonpayable",
      "type": "function"
    },
    {
      "inputs": [],
      "name": "unpauseMinting",
      "outputs": [],
      "stateMutability": "nonpayable",
      "type": "function"
    }
  ],
  "bytecode": "0x60e03461018457601f610ba638819003918201601f191683019291906001600160401b03841183851017610189578160a092849260409687528339810103126101845761004b8161019f565b6100576020830161019f565b9061006384840161019f565b9260806100726060830161019f565b910151936001600160a01b0392831693841561016c57836000549160018060a01b0319968088851617600055828a5194167f8be0079c531659141344cd1fd0a4f28419497f9722a3daafe3b4186f6b6457e0600080a3169081158015610162575b8015610158575b610149575061271086116101385760c05260a05216906001541617600155608052516109f290816101b482396080518181816103de015261064b015260a0518181816102f30152610584015260c0518181816101b8015261050e0152f35b865163162908e360e11b8152600490fd5b63e6c4247b60e01b8152600490fd5b50848416156100da565b50848316156100d3565b8651631e4fbdf760e01b815260006004820152602490fd5b600080fd5b634e487b7160e01b600052604160045260246000fd5b51906001600160a01b03821682036101845756fe60406080815260048036101561001457600080fd5b600091823560e01c80631219c4ec1461040157806325c68403146103c657806336109fbe146103a85780634b8feb4f1461037f578063715018a614610322578063816bc90b146102de5780638da5cb5b146102b6578063ae2003221461022f578063b187bd2614610208578063e1a45218146101eb578063e9cbd822146101a3578063f03b0c0b1461013f5763f2fde38b146100af57600080fd5b3461013b57602036600319011261013b576001600160a01b03823581811693919290849003610137576100e0610421565b831561012157505082546001600160a01b0319811683178455167f8be0079c531659141344cd1fd0a4f28419497f9722a3daafe3b4186f6b6457e08380a380f35b51631e4fbdf760e01b8152908101849052602490fd5b8480fd5b8280fd5b50903461013b57602036600319011261013b5780356001600160a01b038116929083900361019f5761016f610421565b82156101925750506bffffffffffffffffffffffff60a01b600154161760015580f35b5163e6c4247b60e01b8152fd5b8380fd5b8382346101e757816003193601126101e757517f00000000000000000000000000000000000000000000000000000000000000006001600160a01b03168152602090f35b5080fd5b8382346101e757816003193601126101e757602090516127108152f35b8382346101e757816003193601126101e75760209060ff60015460a01c1690519015158152f35b50903461013b578260031936011261013b57600154906001600160a01b03821633036102a95760ff8260a01c161561029b575060ff60a01b19166001555142815233907f98919f377b52bd0ffd929d3a7fa20e639a66f3d6a9adfe05fc6838442c900a0190602090a280f35b8251636cd6020160e01b8152fd5b82516282b42960e81b8152fd5b8382346101e757816003193601126101e757905490516001600160a01b039091168152602090f35b8382346101e757816003193601126101e757517f00000000000000000000000000000000000000000000000000000000000000006001600160a01b03168152602090f35b833461037c578060031936011261037c5761033b610421565b80546001600160a01b03198116825581906001600160a01b03167f8be0079c531659141344cd1fd0a4f28419497f9722a3daafe3b4186f6b6457e08280a380f35b80fd5b8382346101e757816003193601126101e75760015490516001600160a01b039091168152602090f35b8382346101e757816003193601126101e75760209051620151808152f35b8382346101e757816003193601126101e757602090517f00000000000000000000000000000000000000000000000000000000000000008152f35b5050346101e75760203660031901126101e75761041e90356104da565b80f35b6000546001600160a01b0316330361043557565b60405163118cdaa760e01b8152336004820152602490fd5b90601f8019910116810190811067ffffffffffffffff82111761046f57604052565b634e487b7160e01b600052604160045260246000fd5b9081602091031261049e575160ff8116810361049e5790565b600080fd5b519069ffffffffffffffffffff8216820361049e57565b81156104c4570490565b634e487b7160e01b600052601260045260246000fd5b6001805460ff8160a01c1661092e576040805163313ce56760e01b8082526020956001600160a01b039593946004949390917f0000000000000000000000000000000000000000000000000000000000000000881689838881845afa928315610904578792918b9160009561090f575b5089516318160ddd60e01b815293849182905afa918215610904576000926108d5575b5081018091116107e157906105819161095a565b957f00000000000000000000000000000000000000000000000000000000000000001691855191633fabe5a360e21b835260a0838781875afa9081156108ca57908992916000948592610870575b5060008513156107f6575080159081156107c4575b50610749578587518095819382525afa91821561073e579061060f929160009261070f575b5061095a565b91828511801590610707575b61067157828503908582116106f2576127108083029283041484871417156106f2575082610648916104ba565b937f00000000000000000000000000000000000000000000000000000000000000008511610679575b505050505050565b7fe8f72e3f51c86d1b78391d3ebf225e7cfe05350d46624f6dc683671e4050215c947fd2c16b868ae9eef9fec00ff95e5326a911dc805e6b92a9bd2fe5bc6c77d3ee8693606093600160a01b60ff60a01b1982541617905585519283528783015284820152a151914283523392a2388080808080610671565b601190634e487b7160e01b6000525260246000fd5b50821561061b565b610730919250883d8a11610737575b610728818361044d565b810190610485565b9038610609565b503d61071e565b85513d6000823e3d90fd5b5050825460ff60a01b1916600160a01b179092555050815192835250600083830152612710828201527fe8f72e3f51c86d1b78391d3ebf225e7cfe05350d46624f6dc683671e4050215c917fd2c16b868ae9eef9fec00ff95e5326a911dc805e6b92a9bd2fe5bc6c77d3ee8690606090a151914283523392a2565b80929350620151809150018091116107e1579088914211386105e4565b601186634e487b7160e01b6000525260246000fd5b60ff60a01b1916600160a01b179095555050845195865250506000858501525050612710828201527fe8f72e3f51c86d1b78391d3ebf225e7cfe05350d46624f6dc683671e4050215c917fd2c16b868ae9eef9fec00ff95e5326a911dc805e6b92a9bd2fe5bc6c77d3ee8690606090a151914283523392a2565b94915091925060a0843d82116108c2575b8161088e60a0938361044d565b8101031261037c57509088916108a3846104a3565b50828401516108b96080606087015196016104a3565b509390386105cf565b3d9150610881565b87513d6000823e3d90fd5b90918a82813d83116108fd575b6108ec818361044d565b8101031261037c575051903861056d565b503d6108e2565b88513d6000823e3d90fd5b610927919550823d841161073757610728818361044d565b933861054a565b505050565b60ff16604d811161094457600a0a90565b634e487b7160e01b600052601160045260246000fd5b9060ff16601281146109b8576012811061099057601119019060ff82116109445761098761098d92610933565b906104ba565b90565b60120360ff8111610944576109a490610933565b908181029181830414901517156109445790565b509056fea26469706673582212202c70d0354dfae3503bc380bf186892a67bc4a8f6b58db0996c0089e81fbf89df64736f6c63430008140033",
  "linkReferences": {},
  "deployedLinkReferences": {}
}