{
  "_format": "hh-sol-artifact-1",
  "contractName": "InstitutionalReserveAutomationKeeper",
  "sourceName": "contracts/InstitutionalReserveAutomationKeeper.sol",
  "abi": [
    {
      "inputs": [
        {
          "internalType": "address",
          "name": "bridgeAddress",
          "type": "address"
        },
        {
          "internalType": "bytes32[]",
          "name": "initialAssets",
          "type": "bytes32[]"
        }
      ],
      "stateMutability": "nonpayable",
      "type": "constructor"
    },
    {
      "inputs": [],
      "name": "InvalidAddress",
      "type": "error"
    },
    {
      "inputs": [],
      "name": "InvalidConfig",
      "type": "error"
    },
    {
      "inputs": [],
      "name": "Unauthorized",
      "type": "error"
    },
    {
      "anonymous": false,
      "inputs": [
        {
          "indexed": true,
          "internalType": "bytes32",
          "name": "assetId",
          "type": "bytes32"
        },
        {
          "indexed": false,
          "internalType": "bool",
          "name": "enabled",
          "type": "bool"
        }
      ],
      "name": "AssetConfigured",
      "type": "event"
    },
    {
      "anonymous": false,
      "inputs": [
        {
          "indexed": true,
          "internalType": "address",
          "name": "previousBridge",
          "type": "address"
        },
        {
          "indexed": true,
          "internalType": "address",
          "name": "newBridge",
          "type": "address"
        }
      ],
      "name": "BridgeUpdated",
      "type": "event"
    },
    {
      "anonymous": false,
      "inputs": [
        {
          "indexed": false,
          "internalType": "uint256",
          "name": "oldValue",
          "type": "uint256"
        },
        {
          "indexed": false,
          "internalType": "uint256",
          "name": "newValue",
          "type": "uint256"
        }
      ],
      "name": "MaxAssetsPerRunUpdated",
      "type": "event"
    },
    {
      "anonymous": false,
      "inputs": [
        {
          "indexed": true,
          "internalType": "address",
          "name": "previousOwner",
          "type": "address"
        },
        {
          "indexed": true,
          "internalType": "address",
          "name": "pendingOwner",
          "type": "address"
        }
      ],
      "name": "OwnershipTransferStarted",
      "type": "event"
    },
    {
      "anonymous": false,
      "inputs": [
        {
          "indexed": true,
          "internalType": "address",
          "name": "previousOwner",
          "type": "address"
        },
        {
          "indexed": true,
          "internalType": "address",
          "name": "newOwner",
          "type": "address"
        }
      ],
      "name": "OwnershipTransferred",
      "type": "event"
    },
    {
      "anonymous": false,
      "inputs": [
        {
          "indexed": true,
          "internalType": "bytes32",
          "name": "assetId",
          "type": "bytes32"
        },
        {
          "indexed": false,
          "internalType": "bytes",
          "name": "reason",
          "type": "bytes"
        }
      ],
      "name": "ReserveMonitorFailed",
      "type": "event"
    },
    {
      "anonymous": false,
      "inputs": [
        {
          "indexed": true,
          "internalType": "bytes32",
          "name": "assetId",
          "type": "bytes32"
        }
      ],
      "name": "ReserveMonitorTriggered",
      "type": "event"
    },
    {
      "inputs": [],
      "name": "acceptOwnership",
      "outputs": [],
      "stateMutability": "nonpayable",
      "type": "function"
    },
    {
      "inputs": [],
      "name": "bridge",
      "outputs": [
        {
          "internalType": "contract IInstitutionalStablecoinBridgeMonitor",
          "name": "",
          "type": "address"
        }
      ],
      "stateMutability": "view",
      "type": "function"
    },
    {
      "inputs": [
        {
          "internalType": "bytes",
          "name": "",
          "type": "bytes"
        }
      ],
      "name": "checkUpkeep",
      "outputs": [
        {
          "internalType": "bool",
          "name": "upkeepNeeded",
          "type": "bool"
        },
        {
          "internalType": "bytes",
          "name": "performData",
          "type": "bytes"
        }
      ],
      "stateMutability": "view",
      "type": "function"
    },
    {
      "inputs": [],
      "name": "getTrackedAssets",
      "outputs": [
        {
          "internalType": "bytes32[]",
          "name": "",
          "type": "bytes32[]"
        }
      ],
      "stateMutability": "view",
      "type": "function"
    },
    {
      "inputs": [
        {
          "internalType": "bytes32",
          "name": "",
          "type": "bytes32"
        }
      ],
      "name": "isAssetEnabled",
      "outputs": [
        {
          "internalType": "bool",
          "name": "",
          "type": "bool"
        }
      ],
      "stateMutability": "view",
      "type": "function"
    },
    {
      "inputs": [
        {
          "internalType": "bytes32",
          "name": "",
          "type": "bytes32"
        }
      ],
      "name": "isTrackedAsset",
      "outputs": [
        {
          "internalType": "bool",
          "name": "",
          "type": "bool"
        }
      ],
      "stateMutability": "view",
      "type": "function"
    },
    {
      "inputs": [],
      "name": "maxAssetsPerRun",
      "outputs": [
        {
          "internalType": "uint256",
          "name": "",
          "type": "uint256"
        }
      ],
      "stateMutability": "view",
      "type": "function"
    },
    {
      "inputs": [],
      "name": "owner",
      "outputs": [
        {
          "internalType": "address",
          "name": "",
          "type": "address"
        }
      ],
      "stateMutability": "view",
      "type": "function"
    },
    {
      "inputs": [],
      "name": "pendingOwner",
      "outputs": [
        {
          "internalType": "address",
          "name": "",
          "type": "address"
        }
      ],
      "stateMutability": "view",
      "type": "function"
    },
    {
      "inputs": [
        {
          "internalType": "bytes",
          "name": "performData",
          "type": "bytes"
        }
      ],
      "name": "performUpkeep",
      "outputs": [],
      "stateMutability": "nonpayable",
      "type": "function"
    },
    {
      "inputs": [
        {
          "internalType": "bytes32",
          "name": "assetId",
          "type": "bytes32"
        },
        {
          "internalType": "bool",
          "name": "enabled",
          "type": "bool"
        }
      ],
      "name": "setAsset",
      "outputs": [],
      "stateMutability": "nonpayable",
      "type": "function"
    },
    {
      "inputs": [
        {
          "internalType": "bytes32[]",
          "name": "assetIds",
          "type": "bytes32[]"
        },
        {
          "internalType": "bool",
          "name": "enabled",
          "type": "bool"
        }
      ],
      "name": "setAssets",
      "outputs": [],
      "stateMutability": "nonpayable",
      "type": "function"
    },
    {
      "inputs": [
        {
          "internalType": "address",
          "name": "bridgeAddress",
          "type": "address"
        }
      ],
      "name": "setBridge",
      "outputs": [],
      "stateMutability": "nonpayable",
      "type": "function"
    },
    {
      "inputs": [
        {
          "internalType": "uint256",
          "name": "newMax",
          "type": "uint256"
        }
      ],
      "name": "setMaxAssetsPerRun",
      "outputs": [],
      "stateMutability": "nonpayable",
      "type": "function"
    },
    {
      "inputs": [
        {
          "internalType": "address",
          "name": "newOwner",
          "type": "address"
        }
      ],
      "name": "transferOwnership",
      "outputs": [],
      "stateMutability": "nonpayable",
      "type": "function"
    }
  ],
  "bytecode": "0x60406080815234620002185762000e8990813803806200001f8162000233565b93843982018183820312620002185782516001600160a01b038116929083900362000218576020848101516001600160401b03959192918682116200021857019280601f85011215620002185783519586116200021d5760059386851b9084806200008c81850162000233565b809a81520192820101928311620002185784809101915b83831062000207575050505060106003558315620001f75760018060a01b03199360009433818754161786556002541617600255835b8551811015620001e8578281851b870101518015620001d75780865284845282862080549060ff82161562000171575b5050808652600684527f660e838f8b7dd798089cd1b48a2eb33cd23ccf168bcc661c16fdebec62cfd791848488206001908160ff198254161790558551908152a260001981146200015d57600101620000d9565b634e487b7160e01b85526011600452602485fd5b6001809260ff1916179055600480549168010000000000000000831015620001c4578201808255821015620001b157875284872001819055388062000109565b634e487b7160e01b885260329052602487fd5b634e487b7160e01b895260418252602489fd5b82516306b7c75960e31b8152600490fd5b5051610c2f90816200025a8239f35b5163e6c4247b60e01b8152600490fd5b8251815291810191859101620000a3565b600080fd5b634e487b7160e01b600052604160045260246000fd5b6040519190601f01601f191682016001600160401b038111838210176200021d5760405256fe608060408181526004908136101561001657600080fd5b600092833560e01c9081630c6e8e21146107c6575080632a89637b1461072e5780632f5d3af61461070f5780634585e33b146104d25780635c69f7151461043e5780636e04ff0d146103c657806379ba5097146103585780638da5cb5b146103305780638dd14802146102b2578063c4b973701461022c578063dbc11830146101ff578063e30c3978146101d6578063e78cea92146101ad578063ed3c7d0c1461015d5763f2fde38b146100c957600080fd5b346101595760203660031901126101595781356001600160a01b038181169391849003610155578454169182330361014957831561013c575050600180546001600160a01b031916831790557f38d16b8cac22d99fc7c124b9cd0de2d3fa1faef420bfe791d8c362d765e227008380a380f35b5163e6c4247b60e01b8152fd5b516282b42960e81b8152fd5b8480fd5b8280fd5b508290346101a957806003193601126101a9576101786107f0565b82549091906001600160a01b0316330361019b57506101989192356109bb565b80f35b516282b42960e81b81528390fd5b5080fd5b8382346101a957816003193601126101a95760025490516001600160a01b039091168152602090f35b8382346101a957816003193601126101a95760015490516001600160a01b039091168152602090f35b509034610159576020366003190112610159578160209360ff923581526006855220541690519015158152f35b508290346101a957816003193601126101a9578051918284549081815260208091019583527f8a35acfbc15ff81a39ae7d344fd709f28e8600b4aa8c65c6b64bfe7fe36bd19b92905b82821061029b57610297868661028d828b0383610920565b519182918261088e565b0390f35b835487529586019560019384019390910190610275565b5034610159576020366003190112610159576001600160a01b038235818116939192908490036101555782855416330361014957831561013c575050600254826bffffffffffffffffffffffff60a01b821617600255167faae9beddccf584528e87b66c6ff2563825c8a1433305b8a656e9b5f9bf3904998380a380f35b8382346101a957816003193601126101a957905490516001600160a01b039091168152602090f35b5090346101595782600319360112610159576001546001600160a01b03808216939092903385900361014957505083546001600160a01b031980821685178655909116600155167f8be0079c531659141344cd1fd0a4f28419497f9722a3daafe3b4186f6b6457e08380a380f35b50823461043b576103d636610804565b50506102976103e3610ac0565b8051158015939061042757506104126104049185519283916020830161088e565b03601f198101835282610920565b8351938493845280602085015283019061084e565b84519150610434826108ee565b8152610412565b80fd5b509034610159576020366003190112610159578254813591906001600160a01b031633036104c557811580156104bb575b6104ad5750907f7a83de0c1694afa2a9567cab3e0411b1c81f02650053810bd617e33c8f28474e91600354908060035582519182526020820152a180f35b82516306b7c75960e31b8152fd5b506080821161046f565b82516282b42960e81b8152fd5b5034610159576104e136610804565b806106845750506104f0610ac0565b915b835b835181101561068057610507818561095a565b518086528560206006815260ff868320541615610674576002546001600160a01b0316803b15610159578287518092634bdbb3df60e11b825286898301528160249687925af1908161064b575b5061061b573d156105ea573d9167ffffffffffffffff83116105d9575085516105d49493927fc7fc8ed3dfe5583ca54b83bea5e280ded2ee77eead55efa17c40cca09477ba1c92906105af601f8201601f1916830184610920565b82523d8a8284013e5b6105cb885192828493845283019061084e565b0390a25b6108c9565b6104f4565b634e487b7160e01b89526041865288fd5b6105d4939291507fc7fc8ed3dfe5583ca54b83bea5e280ded2ee77eead55efa17c40cca09477ba1c906060906105b8565b5050906105d4917f5de5ccce72dfa431a249247d543cae06262e1fbeef554b53ef58b0a56fcd4ec98780a26108c9565b67ffffffffffffffff811161066257875238610554565b634e487b7160e01b8a5260418752838afd5b5050506105d4906108c9565b8480f35b81019060209081818403126107075780359067ffffffffffffffff821161070b57019180601f840112156107075782356106bd81610942565b936106ca86519586610920565b818552838086019260051b820101928311610703578301905b8282106106f45750505050916104f2565b813581529083019083016106e3565b8780fd5b8580fd5b8680fd5b8382346101a957816003193601126101a9576020906003549051908152f35b508290346101a957806003193601126101a95767ffffffffffffffff9083358281116107c257366023820112156107c257808501359283116107c257602490600595368386891b84010111610707576107856107f0565b86549094906001600160a01b03163303610149575050845b8481106107a8578580f35b806105cf85856107bd948b1b860101356109bb565b61079d565b8380fd5b929050346107c25760203660031901126107c2573583526005602090815292205460ff1615158152f35b6024359081151582036107ff57565b600080fd5b9060206003198301126107ff5760043567ffffffffffffffff928382116107ff57806023830112156107ff5781600401359384116107ff57602484830101116107ff576024019190565b919082519283825260005b84811061087a575050826000602080949584010152601f8019910116010190565b602081830181015184830182015201610859565b6020908160408183019282815285518094520193019160005b8281106108b5575050505090565b8351855293810193928101926001016108a7565b60001981146108d85760010190565b634e487b7160e01b600052601160045260246000fd5b6020810190811067ffffffffffffffff82111761090a57604052565b634e487b7160e01b600052604160045260246000fd5b90601f8019910116810190811067ffffffffffffffff82111761090a57604052565b67ffffffffffffffff811161090a5760051b60200190565b805182101561096e5760209160051b010190565b634e487b7160e01b600052603260045260246000fd5b60045481101561096e5760046000527f8a35acfbc15ff81a39ae7d344fd709f28e8600b4aa8c65c6b64bfe7fe36bd19b0190600090565b908115610aae576000828152600560205260408120805460ff811615610a27575b50507f660e838f8b7dd798089cd1b48a2eb33cd23ccf168bcc661c16fdebec62cfd79191604082856020945260068452209015159060ff1981541660ff8316179055604051908152a2565b60ff1916600117905560045468010000000000000000811015610a9a57916040602092610a7b8560017f660e838f8b7dd798089cd1b48a2eb33cd23ccf168bcc661c16fdebec62cfd7919701600455610984565b81549060031b9088821b91600019901b191617905592508193506109dc565b634e487b7160e01b82526041600452602482fd5b6040516306b7c75960e31b8152600490fd5b6004546000805b82811080610bee575b15610b1e57610ade81610984565b90549060031b1c600052600660205260ff60406000205416610b09575b610b04906108c9565b610ac7565b90610b16610b04916108c9565b919050610afb565b508015610bd457610b2e81610942565b90604093610b3e85519384610920565b818352601f19610b4d83610942565b019060209136838601378390600093845b87861080610bcb575b15610bc057610b7586610984565b90549060031b1c806000526006865260ff8a600020541615610bb55781610ba991610ba3610baf948b61095a565b526108c9565b956108c9565b94610b5e565b5094610baf906108c9565b505094509450505050565b50818110610b67565b5050604051610be2816108ee565b60008152600036813790565b506003548210610ad056fea26469706673582212204c2cd99993a2412e870e08df29271684fe46dbe9d3f2148178b337ff90f70a0f64736f6c63430008140033",
  "linkReferences": {},
  "deployedLinkReferences": {}
}