{
  "_format": "hh-sol-artifact-1",
  "contractName": "MockInstitutionalBridgeMonitor",
  "sourceName": "contracts/mocks/MockInstitutionalBridgeMonitor.sol",
  "abi": [
    {
      "anonymous": false,
      "inputs": [
        {
          "indexed": true,
          "internalType": "bytes32",
          "name": "assetId",
          "type": "bytes32"
        }
      ],
      "name": "ReserveMonitored",
      "type": "event"
    },
    {
      "inputs": [],
      "name": "lastMonitoredAssetId",
      "outputs": [
        {
          "internalType": "bytes32",
          "name": "",
          "type": "bytes32"
        }
      ],
      "stateMutability": "view",
      "type": "function"
    },
    {
      "inputs": [],
      "name": "monitorCallCount",
      "outputs": [
        {
          "internalType": "uint256",
          "name": "",
          "type": "uint256"
        }
      ],
      "stateMutability": "view",
      "type": "function"
    },
    {
      "inputs": [
        {
          "internalType": "bytes32",
          "name": "",
          "type": "bytes32"
        }
      ],
      "name": "monitorCallsByAsset",
      "outputs": [
        {
          "internalType": "uint256",
          "name": "",
          "type": "uint256"
        }
      ],
      "stateMutability": "view",
      "type": "function"
    },
    {
      "inputs": [
        {
          "internalType": "bytes32",
          "name": "assetId",
          "type": "bytes32"
        }
      ],
      "name": "monitorReserve",
      "outputs": [],
      "stateMutability": "nonpayable",
      "type": "function"
    },
    {
      "inputs": [
        {
          "internalType": "bytes32",
          "name": "assetId",
          "type": "bytes32"
        },
        {
          "internalType": "bool",
          "name": "shouldRevert",
          "type": "bool"
        }
      ],
      "name": "setShouldRevert",
      "outputs": [],
      "stateMutability": "nonpayable",
      "type": "function"
    },
    {
      "inputs": [
        {
          "internalType": "bytes32",
          "name": "",
          "type": "bytes32"
        }
      ],
      "name": "shouldRevertForAsset",
      "outputs": [
        {
          "internalType": "bool",
          "name": "",
          "type": "bool"
        }
      ],
      "stateMutability": "view",
      "type": "function"
    }
  ],
  "bytecode": "0x608080604052346100165761024c908161001c8239f35b600080fdfe608060408181526004918236101561001657600080fd5b600092833560e01c9182633853fa10146101f15750816380570995146101c457816397b767be146100e8578163a77a93af146100cb578163cecaffd614610088575063e4b474331461006757600080fd5b346100845781600319360112610084576020906001549051908152f35b5080fd5b919050346100c757806003193601126100c757602435918215158093036100c357358352600360205282209060ff8019835416911617905580f35b8380fd5b8280fd5b505034610084578160031936011261008457602091549051908152f35b9050346100c75760203660031901126100c757803591828452600360205260ff818520541661018b578354600181018091116101785784558260015582845260026020528320805491600183018093116101655750557fb06bce2c2a5139e3f881a9f8c8a16f7770825ecbe2e5fb1ad6925e847b6963d28280a280f35b634e487b7160e01b855260119052602484fd5b634e487b7160e01b855260118352602485fd5b906020606492519162461bcd60e51b835282015260136024820152721b5bd8dacb5b5bdb9a5d1bdc8b5c995d995c9d606a1b6044820152fd5b9050346100c75760203660031901126100c7578160209360ff923581526003855220541690519015158152f35b929150346100c35760203660031901126100c357926020933581526002845220548152f3fea2646970667358221220a06a759c28937d866141fd9b4c686b0eeff27c67dd587f33070f0ad7192df67164736f6c63430008140033",
  "linkReferences": {},
  "deployedLinkReferences": {}
}