{
  "_format": "hh-sol-artifact-1",
  "contractName": "MockMessageTransmitterV2",
  "sourceName": "contracts/mocks/MockMessageTransmitterV2.sol",
  "abi": [
    {
      "anonymous": false,
      "inputs": [
        {
          "indexed": false,
          "internalType": "bytes",
          "name": "message",
          "type": "bytes"
        },
        {
          "indexed": false,
          "internalType": "bytes",
          "name": "attestation",
          "type": "bytes"
        },
        {
          "indexed": false,
          "internalType": "bool",
          "name": "success",
          "type": "bool"
        }
      ],
      "name": "MessageReceived",
      "type": "event"
    },
    {
      "inputs": [
        {
          "internalType": "bytes",
          "name": "message",
          "type": "bytes"
        },
        {
          "internalType": "bytes",
          "name": "attestation",
          "type": "bytes"
        }
      ],
      "name": "receiveMessage",
      "outputs": [
        {
          "internalType": "bool",
          "name": "success",
          "type": "bool"
        }
      ],
      "stateMutability": "nonpayable",
      "type": "function"
    },
    {
      "inputs": [
        {
          "internalType": "bool",
          "name": "value",
          "type": "bool"
        }
      ],
      "name": "setShouldSucceed",
      "outputs": [],
      "stateMutability": "nonpayable",
      "type": "function"
    },
    {
      "inputs": [],
      "name": "shouldSucceed",
      "outputs": [
        {
          "internalType": "bool",
          "name": "",
          "type": "bool"
        }
      ],
      "stateMutability": "view",
      "type": "function"
    }
  ],
  "bytecode": "0x6080806040523461002357600160ff1960005416176000556101dd90816100298239f35b600080fdfe608080604052600436101561001357600080fd5b600090813560e01c90816357ecfd2814610098575080639e31ddb6146100665763e77deb2c1461004257600080fd5b3461006357806003193601126100635760ff60209154166040519015158152f35b80fd5b5034610063576020366003190112610063576004358015158091036100945760ff8019835416911617815580f35b5080fd5b9050346100945760403660031901126100945767ffffffffffffffff9060043582811161014f576100cd903690600401610153565b9260243590811161014b579161013660209560ff61012984956101157f4939584b3f3df270797adbac0e81f8c066858a4bdccd02e8b0ac703f32e0e3e9983690600401610153565b939094541698606087526060870191610186565b9184830389860152610186565b931515938460408301520390a1604051908152f35b8480fd5b8380fd5b9181601f840112156101815782359167ffffffffffffffff8311610181576020838186019501011161018157565b600080fd5b908060209392818452848401376000828201840152601f01601f191601019056fea2646970667358221220725e1b684d941658bbc057e49a2443a941ce7623e4790121a8b4e3abeaf29e3364736f6c63430008140033",
  "linkReferences": {},
  "deployedLinkReferences": {}
}