{
  "_format": "hh-sol-artifact-1",
  "contractName": "AethelredVesting",
  "sourceName": "contracts/AethelredVesting.sol",
  "abi": [
    {
      "inputs": [],
      "stateMutability": "nonpayable",
      "type": "constructor"
    },
    {
      "inputs": [],
      "name": "AccessControlBadConfirmation",
      "type": "error"
    },
    {
      "inputs": [
        {
          "internalType": "address",
          "name": "account",
          "type": "address"
        },
        {
          "internalType": "bytes32",
          "name": "neededRole",
          "type": "bytes32"
        }
      ],
      "name": "AccessControlUnauthorizedAccount",
      "type": "error"
    },
    {
      "inputs": [
        {
          "internalType": "address",
          "name": "target",
          "type": "address"
        }
      ],
      "name": "AddressEmptyCode",
      "type": "error"
    },
    {
      "inputs": [
        {
          "internalType": "address",
          "name": "account",
          "type": "address"
        }
      ],
      "name": "AddressInsufficientBalance",
      "type": "error"
    },
    {
      "inputs": [],
      "name": "AdminMustBeContract",
      "type": "error"
    },
    {
      "inputs": [],
      "name": "CategoryCapBelowAllocated",
      "type": "error"
    },
    {
      "inputs": [],
      "name": "CategoryCapExceeded",
      "type": "error"
    },
    {
      "inputs": [],
      "name": "CliffNotReached",
      "type": "error"
    },
    {
      "inputs": [
        {
          "internalType": "address",
          "name": "implementation",
          "type": "address"
        }
      ],
      "name": "ERC1967InvalidImplementation",
      "type": "error"
    },
    {
      "inputs": [],
      "name": "ERC1967NonPayable",
      "type": "error"
    },
    {
      "inputs": [],
      "name": "EnforcedPause",
      "type": "error"
    },
    {
      "inputs": [],
      "name": "ExpectedPause",
      "type": "error"
    },
    {
      "inputs": [],
      "name": "FailedInnerCall",
      "type": "error"
    },
    {
      "inputs": [],
      "name": "InvalidAmount",
      "type": "error"
    },
    {
      "inputs": [],
      "name": "InvalidBeneficiary",
      "type": "error"
    },
    {
      "inputs": [],
      "name": "InvalidDuration",
      "type": "error"
    },
    {
      "inputs": [],
      "name": "InvalidInitialization",
      "type": "error"
    },
    {
      "inputs": [],
      "name": "MaxSchedulesExceeded",
      "type": "error"
    },
    {
      "inputs": [],
      "name": "MilestoneAlreadyAchieved",
      "type": "error"
    },
    {
      "inputs": [],
      "name": "MilestoneIndexOutOfBounds",
      "type": "error"
    },
    {
      "inputs": [],
      "name": "MilestoneNotFound",
      "type": "error"
    },
    {
      "inputs": [],
      "name": "NotInitializing",
      "type": "error"
    },
    {
      "inputs": [],
      "name": "NotTransferable",
      "type": "error"
    },
    {
      "inputs": [],
      "name": "NothingToRelease",
      "type": "error"
    },
    {
      "inputs": [],
      "name": "ReentrancyGuardReentrantCall",
      "type": "error"
    },
    {
      "inputs": [
        {
          "internalType": "address",
          "name": "token",
          "type": "address"
        }
      ],
      "name": "SafeERC20FailedOperation",
      "type": "error"
    },
    {
      "inputs": [],
      "name": "ScheduleAlreadyActive",
      "type": "error"
    },
    {
      "inputs": [],
      "name": "ScheduleAlreadyRevoked",
      "type": "error"
    },
    {
      "inputs": [],
      "name": "ScheduleNotFound",
      "type": "error"
    },
    {
      "inputs": [],
      "name": "ScheduleNotRevocable",
      "type": "error"
    },
    {
      "inputs": [],
      "name": "TGEAlreadyOccurred",
      "type": "error"
    },
    {
      "inputs": [],
      "name": "TGENotOccurred",
      "type": "error"
    },
    {
      "inputs": [],
      "name": "UUPSUnauthorizedCallContext",
      "type": "error"
    },
    {
      "inputs": [
        {
          "internalType": "bytes32",
          "name": "slot",
          "type": "bytes32"
        }
      ],
      "name": "UUPSUnsupportedProxiableUUID",
      "type": "error"
    },
    {
      "inputs": [],
      "name": "UnauthorizedBeneficiary",
      "type": "error"
    },
    {
      "anonymous": false,
      "inputs": [
        {
          "indexed": true,
          "internalType": "bytes32",
          "name": "scheduleId",
          "type": "bytes32"
        },
        {
          "indexed": true,
          "internalType": "address",
          "name": "oldBeneficiary",
          "type": "address"
        },
        {
          "indexed": true,
          "internalType": "address",
          "name": "newBeneficiary",
          "type": "address"
        }
      ],
      "name": "BeneficiaryTransferred",
      "type": "event"
    },
    {
      "anonymous": false,
      "inputs": [
        {
          "indexed": false,
          "internalType": "enum AethelredVesting.AllocationCategory",
          "name": "category",
          "type": "uint8"
        },
        {
          "indexed": false,
          "internalType": "uint256",
          "name": "cap",
          "type": "uint256"
        }
      ],
      "name": "CategoryCapSet",
      "type": "event"
    },
    {
      "anonymous": false,
      "inputs": [
        {
          "indexed": false,
          "internalType": "uint64",
          "name": "version",
          "type": "uint64"
        }
      ],
      "name": "Initialized",
      "type": "event"
    },
    {
      "anonymous": false,
      "inputs": [
        {
          "indexed": true,
          "internalType": "bytes32",
          "name": "scheduleId",
          "type": "bytes32"
        },
        {
          "indexed": false,
          "internalType": "string",
          "name": "milestoneName",
          "type": "string"
        },
        {
          "indexed": false,
          "internalType": "uint256",
          "name": "unlockBps",
          "type": "uint256"
        },
        {
          "indexed": false,
          "internalType": "uint256",
          "name": "achievedAt",
          "type": "uint256"
        }
      ],
      "name": "MilestoneAchieved",
      "type": "event"
    },
    {
      "anonymous": false,
      "inputs": [
        {
          "indexed": true,
          "internalType": "bytes32",
          "name": "scheduleId",
          "type": "bytes32"
        },
        {
          "indexed": true,
          "internalType": "uint256",
          "name": "milestoneIndex",
          "type": "uint256"
        },
        {
          "indexed": true,
          "internalType": "address",
          "name": "attestor",
          "type": "address"
        },
        {
          "indexed": false,
          "internalType": "string",
          "name": "milestoneName",
          "type": "string"
        }
      ],
      "name": "MilestoneAttested",
      "type": "event"
    },
    {
      "anonymous": false,
      "inputs": [
        {
          "indexed": false,
          "internalType": "address",
          "name": "account",
          "type": "address"
        }
      ],
      "name": "Paused",
      "type": "event"
    },
    {
      "anonymous": false,
      "inputs": [
        {
          "indexed": true,
          "internalType": "bytes32",
          "name": "role",
          "type": "bytes32"
        },
        {
          "indexed": true,
          "internalType": "bytes32",
          "name": "previousAdminRole",
          "type": "bytes32"
        },
        {
          "indexed": true,
          "internalType": "bytes32",
          "name": "newAdminRole",
          "type": "bytes32"
        }
      ],
      "name": "RoleAdminChanged",
      "type": "event"
    },
    {
      "anonymous": false,
      "inputs": [
        {
          "indexed": true,
          "internalType": "bytes32",
          "name": "role",
          "type": "bytes32"
        },
        {
          "indexed": true,
          "internalType": "address",
          "name": "account",
          "type": "address"
        },
        {
          "indexed": true,
          "internalType": "address",
          "name": "sender",
          "type": "address"
        }
      ],
      "name": "RoleGranted",
      "type": "event"
    },
    {
      "anonymous": false,
      "inputs": [
        {
          "indexed": true,
          "internalType": "bytes32",
          "name": "role",
          "type": "bytes32"
        },
        {
          "indexed": true,
          "internalType": "address",
          "name": "account",
          "type": "address"
        },
        {
          "indexed": true,
          "internalType": "address",
          "name": "sender",
          "type": "address"
        }
      ],
      "name": "RoleRevoked",
      "type": "event"
    },
    {
      "anonymous": false,
      "inputs": [
        {
          "indexed": true,
          "internalType": "bytes32",
          "name": "scheduleId",
          "type": "bytes32"
        },
        {
          "indexed": false,
          "internalType": "uint256",
          "name": "startTime",
          "type": "uint256"
        }
      ],
      "name": "ScheduleActivated",
      "type": "event"
    },
    {
      "anonymous": false,
      "inputs": [
        {
          "indexed": true,
          "internalType": "bytes32",
          "name": "scheduleId",
          "type": "bytes32"
        },
        {
          "indexed": true,
          "internalType": "address",
          "name": "beneficiary",
          "type": "address"
        },
        {
          "indexed": false,
          "internalType": "uint256",
          "name": "unvestedAmount",
          "type": "uint256"
        },
        {
          "indexed": false,
          "internalType": "uint256",
          "name": "revokedAt",
          "type": "uint256"
        }
      ],
      "name": "ScheduleRevoked",
      "type": "event"
    },
    {
      "anonymous": false,
      "inputs": [
        {
          "indexed": false,
          "internalType": "uint256",
          "name": "timestamp",
          "type": "uint256"
        }
      ],
      "name": "TGEExecuted",
      "type": "event"
    },
    {
      "anonymous": false,
      "inputs": [
        {
          "indexed": true,
          "internalType": "bytes32",
          "name": "scheduleId",
          "type": "bytes32"
        },
        {
          "indexed": true,
          "internalType": "address",
          "name": "beneficiary",
          "type": "address"
        },
        {
          "indexed": false,
          "internalType": "uint256",
          "name": "amount",
          "type": "uint256"
        },
        {
          "indexed": false,
          "internalType": "uint256",
          "name": "totalReleased",
          "type": "uint256"
        }
      ],
      "name": "TokensReleased",
      "type": "event"
    },
    {
      "anonymous": false,
      "inputs": [
        {
          "indexed": false,
          "internalType": "address",
          "name": "account",
          "type": "address"
        }
      ],
      "name": "Unpaused",
      "type": "event"
    },
    {
      "anonymous": false,
      "inputs": [
        {
          "indexed": true,
          "internalType": "address",
          "name": "implementation",
          "type": "address"
        }
      ],
      "name": "Upgraded",
      "type": "event"
    },
    {
      "anonymous": false,
      "inputs": [
        {
          "indexed": true,
          "internalType": "bytes32",
          "name": "scheduleId",
          "type": "bytes32"
        },
        {
          "indexed": true,
          "internalType": "address",
          "name": "beneficiary",
          "type": "address"
        },
        {
          "indexed": false,
          "internalType": "uint256",
          "name": "totalAmount",
          "type": "uint256"
        },
        {
          "indexed": false,
          "internalType": "enum AethelredVesting.AllocationCategory",
          "name": "category",
          "type": "uint8"
        },
        {
          "indexed": false,
          "internalType": "enum AethelredVesting.VestingType",
          "name": "vestingType",
          "type": "uint8"
        },
        {
          "indexed": false,
          "internalType": "uint256",
          "name": "startTime",
          "type": "uint256"
        },
        {
          "indexed": false,
          "internalType": "uint256",
          "name": "cliffDuration",
          "type": "uint256"
        },
        {
          "indexed": false,
          "internalType": "uint256",
          "name": "vestingDuration",
          "type": "uint256"
        }
      ],
      "name": "VestingScheduleCreated",
      "type": "event"
    },
    {
      "inputs": [],
      "name": "BPS_DENOMINATOR",
      "outputs": [
        {
          "internalType": "uint256",
          "name": "",
          "type": "uint256"
        }
      ],
      "stateMutability": "view",
      "type": "function"
    },
    {
      "inputs": [],
      "name": "DEFAULT_ADMIN_ROLE",
      "outputs": [
        {
          "internalType": "bytes32",
          "name": "",
          "type": "bytes32"
        }
      ],
      "stateMutability": "view",
      "type": "function"
    },
    {
      "inputs": [],
      "name": "MAX_SCHEDULES_PER_BENEFICIARY",
      "outputs": [
        {
          "internalType": "uint256",
          "name": "",
          "type": "uint256"
        }
      ],
      "stateMutability": "view",
      "type": "function"
    },
    {
      "inputs": [],
      "name": "MILESTONE_ATTESTOR_ROLE",
      "outputs": [
        {
          "internalType": "bytes32",
          "name": "",
          "type": "bytes32"
        }
      ],
      "stateMutability": "view",
      "type": "function"
    },
    {
      "inputs": [],
      "name": "REVOKER_ROLE",
      "outputs": [
        {
          "internalType": "bytes32",
          "name": "",
          "type": "bytes32"
        }
      ],
      "stateMutability": "view",
      "type": "function"
    },
    {
      "inputs": [],
      "name": "UPGRADER_ROLE",
      "outputs": [
        {
          "internalType": "bytes32",
          "name": "",
          "type": "bytes32"
        }
      ],
      "stateMutability": "view",
      "type": "function"
    },
    {
      "inputs": [],
      "name": "UPGRADE_INTERFACE_VERSION",
      "outputs": [
        {
          "internalType": "string",
          "name": "",
          "type": "string"
        }
      ],
      "stateMutability": "view",
      "type": "function"
    },
    {
      "inputs": [],
      "name": "VESTING_ADMIN_ROLE",
      "outputs": [
        {
          "internalType": "bytes32",
          "name": "",
          "type": "bytes32"
        }
      ],
      "stateMutability": "view",
      "type": "function"
    },
    {
      "inputs": [
        {
          "internalType": "bytes32",
          "name": "scheduleId",
          "type": "bytes32"
        },
        {
          "internalType": "uint256",
          "name": "milestoneIndex",
          "type": "uint256"
        }
      ],
      "name": "achieveMilestone",
      "outputs": [],
      "stateMutability": "nonpayable",
      "type": "function"
    },
    {
      "inputs": [
        {
          "internalType": "bytes32",
          "name": "scheduleId",
          "type": "bytes32"
        }
      ],
      "name": "activateSchedule",
      "outputs": [],
      "stateMutability": "nonpayable",
      "type": "function"
    },
    {
      "inputs": [
        {
          "internalType": "address",
          "name": "",
          "type": "address"
        },
        {
          "internalType": "uint256",
          "name": "",
          "type": "uint256"
        }
      ],
      "name": "beneficiarySchedules",
      "outputs": [
        {
          "internalType": "bytes32",
          "name": "",
          "type": "bytes32"
        }
      ],
      "stateMutability": "view",
      "type": "function"
    },
    {
      "inputs": [
        {
          "internalType": "enum AethelredVesting.AllocationCategory",
          "name": "",
          "type": "uint8"
        }
      ],
      "name": "categoryAllocated",
      "outputs": [
        {
          "internalType": "uint256",
          "name": "",
          "type": "uint256"
        }
      ],
      "stateMutability": "view",
      "type": "function"
    },
    {
      "inputs": [
        {
          "internalType": "enum AethelredVesting.AllocationCategory",
          "name": "",
          "type": "uint8"
        }
      ],
      "name": "categoryCaps",
      "outputs": [
        {
          "internalType": "uint256",
          "name": "",
          "type": "uint256"
        }
      ],
      "stateMutability": "view",
      "type": "function"
    },
    {
      "inputs": [
        {
          "internalType": "enum AethelredVesting.AllocationCategory",
          "name": "",
          "type": "uint8"
        }
      ],
      "name": "categoryReleased",
      "outputs": [
        {
          "internalType": "uint256",
          "name": "",
          "type": "uint256"
        }
      ],
      "stateMutability": "view",
      "type": "function"
    },
    {
      "inputs": [
        {
          "internalType": "address",
          "name": "beneficiary",
          "type": "address"
        },
        {
          "internalType": "uint256",
          "name": "amount",
          "type": "uint256"
        }
      ],
      "name": "createCoreContributorSchedule",
      "outputs": [
        {
          "internalType": "bytes32",
          "name": "",
          "type": "bytes32"
        }
      ],
      "stateMutability": "nonpayable",
      "type": "function"
    },
    {
      "inputs": [
        {
          "internalType": "address",
          "name": "beneficiary",
          "type": "address"
        },
        {
          "internalType": "uint256",
          "name": "amount",
          "type": "uint256"
        },
        {
          "internalType": "enum AethelredVesting.AllocationCategory",
          "name": "category",
          "type": "uint8"
        },
        {
          "internalType": "enum AethelredVesting.VestingType",
          "name": "vestingType",
          "type": "uint8"
        },
        {
          "internalType": "uint256",
          "name": "cliffDuration",
          "type": "uint256"
        },
        {
          "internalType": "uint256",
          "name": "vestingDuration",
          "type": "uint256"
        },
        {
          "internalType": "uint256",
          "name": "tgeUnlockBps",
          "type": "uint256"
        },
        {
          "internalType": "uint256",
          "name": "cliffUnlockBps",
          "type": "uint256"
        },
        {
          "internalType": "bool",
          "name": "revocable",
          "type": "bool"
        },
        {
          "internalType": "bool",
          "name": "transferable",
          "type": "bool"
        }
      ],
      "name": "createCustomSchedule",
      "outputs": [
        {
          "internalType": "bytes32",
          "name": "",
          "type": "bytes32"
        }
      ],
      "stateMutability": "nonpayable",
      "type": "function"
    },
    {
      "inputs": [
        {
          "internalType": "address",
          "name": "beneficiary",
          "type": "address"
        },
        {
          "internalType": "uint256",
          "name": "amount",
          "type": "uint256"
        }
      ],
      "name": "createPublicSaleSchedule",
      "outputs": [
        {
          "internalType": "bytes32",
          "name": "",
          "type": "bytes32"
        }
      ],
      "stateMutability": "nonpayable",
      "type": "function"
    },
    {
      "inputs": [
        {
          "internalType": "address",
          "name": "beneficiary",
          "type": "address"
        },
        {
          "internalType": "uint256",
          "name": "amount",
          "type": "uint256"
        }
      ],
      "name": "createStrategicInvestorSchedule",
      "outputs": [
        {
          "internalType": "bytes32",
          "name": "",
          "type": "bytes32"
        }
      ],
      "stateMutability": "nonpayable",
      "type": "function"
    },
    {
      "inputs": [],
      "name": "executeTGE",
      "outputs": [],
      "stateMutability": "nonpayable",
      "type": "function"
    },
    {
      "inputs": [
        {
          "internalType": "address",
          "name": "beneficiary",
          "type": "address"
        }
      ],
      "name": "getBeneficiarySchedules",
      "outputs": [
        {
          "internalType": "bytes32[]",
          "name": "",
          "type": "bytes32[]"
        }
      ],
      "stateMutability": "view",
      "type": "function"
    },
    {
      "inputs": [
        {
          "internalType": "enum AethelredVesting.AllocationCategory",
          "name": "category",
          "type": "uint8"
        }
      ],
      "name": "getCategoryStats",
      "outputs": [
        {
          "internalType": "uint256",
          "name": "cap",
          "type": "uint256"
        },
        {
          "internalType": "uint256",
          "name": "allocated",
          "type": "uint256"
        },
        {
          "internalType": "uint256",
          "name": "released",
          "type": "uint256"
        }
      ],
      "stateMutability": "view",
      "type": "function"
    },
    {
      "inputs": [
        {
          "internalType": "bytes32",
          "name": "scheduleId",
          "type": "bytes32"
        }
      ],
      "name": "getReleasable",
      "outputs": [
        {
          "internalType": "uint256",
          "name": "",
          "type": "uint256"
        }
      ],
      "stateMutability": "view",
      "type": "function"
    },
    {
      "inputs": [
        {
          "internalType": "bytes32",
          "name": "role",
          "type": "bytes32"
        }
      ],
      "name": "getRoleAdmin",
      "outputs": [
        {
          "internalType": "bytes32",
          "name": "",
          "type": "bytes32"
        }
      ],
      "stateMutability": "view",
      "type": "function"
    },
    {
      "inputs": [
        {
          "internalType": "bytes32",
          "name": "scheduleId",
          "type": "bytes32"
        }
      ],
      "name": "getSchedule",
      "outputs": [
        {
          "components": [
            {
              "internalType": "bytes32",
              "name": "scheduleId",
              "type": "bytes32"
            },
            {
              "internalType": "address",
              "name": "beneficiary",
              "type": "address"
            },
            {
              "internalType": "uint256",
              "name": "totalAmount",
              "type": "uint256"
            },
            {
              "internalType": "uint256",
              "name": "releasedAmount",
              "type": "uint256"
            },
            {
              "internalType": "enum AethelredVesting.AllocationCategory",
              "name": "category",
              "type": "uint8"
            },
            {
              "internalType": "enum AethelredVesting.VestingType",
              "name": "vestingType",
              "type": "uint8"
            },
            {
              "internalType": "uint256",
              "name": "startTime",
              "type": "uint256"
            },
            {
              "internalType": "uint256",
              "name": "cliffDuration",
              "type": "uint256"
            },
            {
              "internalType": "uint256",
              "name": "vestingDuration",
              "type": "uint256"
            },
            {
              "internalType": "uint256",
              "name": "tgeUnlockBps",
              "type": "uint256"
            },
            {
              "internalType": "uint256",
              "name": "cliffUnlockBps",
              "type": "uint256"
            },
            {
              "internalType": "bool",
              "name": "revocable",
              "type": "bool"
            },
            {
              "internalType": "bool",
              "name": "revoked",
              "type": "bool"
            },
            {
              "internalType": "uint256",
              "name": "revokedTime",
              "type": "uint256"
            },
            {
              "internalType": "bool",
              "name": "transferable",
              "type": "bool"
            },
            {
              "internalType": "uint256",
              "name": "createdAt",
              "type": "uint256"
            }
          ],
          "internalType": "struct AethelredVesting.VestingSchedule",
          "name": "",
          "type": "tuple"
        }
      ],
      "stateMutability": "view",
      "type": "function"
    },
    {
      "inputs": [
        {
          "internalType": "bytes32",
          "name": "scheduleId",
          "type": "bytes32"
        }
      ],
      "name": "getVested",
      "outputs": [
        {
          "internalType": "uint256",
          "name": "",
          "type": "uint256"
        }
      ],
      "stateMutability": "view",
      "type": "function"
    },
    {
      "inputs": [
        {
          "internalType": "bytes32",
          "name": "role",
          "type": "bytes32"
        },
        {
          "internalType": "address",
          "name": "account",
          "type": "address"
        }
      ],
      "name": "grantRole",
      "outputs": [],
      "stateMutability": "nonpayable",
      "type": "function"
    },
    {
      "inputs": [
        {
          "internalType": "bytes32",
          "name": "role",
          "type": "bytes32"
        },
        {
          "internalType": "address",
          "name": "account",
          "type": "address"
        }
      ],
      "name": "hasRole",
      "outputs": [
        {
          "internalType": "bool",
          "name": "",
          "type": "bool"
        }
      ],
      "stateMutability": "view",
      "type": "function"
    },
    {
      "inputs": [
        {
          "internalType": "address",
          "name": "_token",
          "type": "address"
        },
        {
          "internalType": "address",
          "name": "_admin",
          "type": "address"
        }
      ],
      "name": "initialize",
      "outputs": [],
      "stateMutability": "nonpayable",
      "type": "function"
    },
    {
      "inputs": [],
      "name": "pause",
      "outputs": [],
      "stateMutability": "nonpayable",
      "type": "function"
    },
    {
      "inputs": [],
      "name": "paused",
      "outputs": [
        {
          "internalType": "bool",
          "name": "",
          "type": "bool"
        }
      ],
      "stateMutability": "view",
      "type": "function"
    },
    {
      "inputs": [],
      "name": "proxiableUUID",
      "outputs": [
        {
          "internalType": "bytes32",
          "name": "",
          "type": "bytes32"
        }
      ],
      "stateMutability": "view",
      "type": "function"
    },
    {
      "inputs": [
        {
          "internalType": "address",
          "name": "tokenAddress",
          "type": "address"
        },
        {
          "internalType": "uint256",
          "name": "amount",
          "type": "uint256"
        },
        {
          "internalType": "address",
          "name": "recipient",
          "type": "address"
        }
      ],
      "name": "recoverTokens",
      "outputs": [],
      "stateMutability": "nonpayable",
      "type": "function"
    },
    {
      "inputs": [
        {
          "internalType": "bytes32",
          "name": "scheduleId",
          "type": "bytes32"
        }
      ],
      "name": "release",
      "outputs": [
        {
          "internalType": "uint256",
          "name": "",
          "type": "uint256"
        }
      ],
      "stateMutability": "nonpayable",
      "type": "function"
    },
    {
      "inputs": [],
      "name": "releaseAll",
      "outputs": [
        {
          "internalType": "uint256",
          "name": "totalReleasedAmount",
          "type": "uint256"
        }
      ],
      "stateMutability": "nonpayable",
      "type": "function"
    },
    {
      "inputs": [
        {
          "internalType": "bytes32",
          "name": "role",
          "type": "bytes32"
        },
        {
          "internalType": "address",
          "name": "callerConfirmation",
          "type": "address"
        }
      ],
      "name": "renounceRole",
      "outputs": [],
      "stateMutability": "nonpayable",
      "type": "function"
    },
    {
      "inputs": [
        {
          "internalType": "bytes32",
          "name": "role",
          "type": "bytes32"
        },
        {
          "internalType": "address",
          "name": "account",
          "type": "address"
        }
      ],
      "name": "revokeRole",
      "outputs": [],
      "stateMutability": "nonpayable",
      "type": "function"
    },
    {
      "inputs": [
        {
          "internalType": "bytes32",
          "name": "scheduleId",
          "type": "bytes32"
        }
      ],
      "name": "revokeSchedule",
      "outputs": [],
      "stateMutability": "nonpayable",
      "type": "function"
    },
    {
      "inputs": [],
      "name": "scheduleCount",
      "outputs": [
        {
          "internalType": "uint256",
          "name": "",
          "type": "uint256"
        }
      ],
      "stateMutability": "view",
      "type": "function"
    },
    {
      "inputs": [
        {
          "internalType": "bytes32",
          "name": "",
          "type": "bytes32"
        },
        {
          "internalType": "uint256",
          "name": "",
          "type": "uint256"
        }
      ],
      "name": "scheduleMilestones",
      "outputs": [
        {
          "internalType": "string",
          "name": "name",
          "type": "string"
        },
        {
          "internalType": "uint256",
          "name": "unlockBps",
          "type": "uint256"
        },
        {
          "internalType": "bool",
          "name": "achieved",
          "type": "bool"
        },
        {
          "internalType": "uint256",
          "name": "achievedAt",
          "type": "uint256"
        }
      ],
      "stateMutability": "view",
      "type": "function"
    },
    {
      "inputs": [
        {
          "internalType": "bytes32",
          "name": "",
          "type": "bytes32"
        }
      ],
      "name": "schedules",
      "outputs": [
        {
          "internalType": "bytes32",
          "name": "scheduleId",
          "type": "bytes32"
        },
        {
          "internalType": "address",
          "name": "beneficiary",
          "type": "address"
        },
        {
          "internalType": "uint256",
          "name": "totalAmount",
          "type": "uint256"
        },
        {
          "internalType": "uint256",
          "name": "releasedAmount",
          "type": "uint256"
        },
        {
          "internalType": "enum AethelredVesting.AllocationCategory",
          "name": "category",
          "type": "uint8"
        },
        {
          "internalType": "enum AethelredVesting.VestingType",
          "name": "vestingType",
          "type": "uint8"
        },
        {
          "internalType": "uint256",
          "name": "startTime",
          "type": "uint256"
        },
        {
          "internalType": "uint256",
          "name": "cliffDuration",
          "type": "uint256"
        },
        {
          "internalType": "uint256",
          "name": "vestingDuration",
          "type": "uint256"
        },
        {
          "internalType": "uint256",
          "name": "tgeUnlockBps",
          "type": "uint256"
        },
        {
          "internalType": "uint256",
          "name": "cliffUnlockBps",
          "type": "uint256"
        },
        {
          "internalType": "bool",
          "name": "revocable",
          "type": "bool"
        },
        {
          "internalType": "bool",
          "name": "revoked",
          "type": "bool"
        },
        {
          "internalType": "uint256",
          "name": "revokedTime",
          "type": "uint256"
        },
        {
          "internalType": "bool",
          "name": "transferable",
          "type": "bool"
        },
        {
          "internalType": "uint256",
          "name": "createdAt",
          "type": "uint256"
        }
      ],
      "stateMutability": "view",
      "type": "function"
    },
    {
      "inputs": [
        {
          "internalType": "enum AethelredVesting.AllocationCategory",
          "name": "category",
          "type": "uint8"
        },
        {
          "internalType": "uint256",
          "name": "cap",
          "type": "uint256"
        }
      ],
      "name": "setCategoryCap",
      "outputs": [],
      "stateMutability": "nonpayable",
      "type": "function"
    },
    {
      "inputs": [
        {
          "internalType": "bytes4",
          "name": "interfaceId",
          "type": "bytes4"
        }
      ],
      "name": "supportsInterface",
      "outputs": [
        {
          "internalType": "bool",
          "name": "",
          "type": "bool"
        }
      ],
      "stateMutability": "view",
      "type": "function"
    },
    {
      "inputs": [],
      "name": "tgeOccurred",
      "outputs": [
        {
          "internalType": "bool",
          "name": "",
          "type": "bool"
        }
      ],
      "stateMutability": "view",
      "type": "function"
    },
    {
      "inputs": [],
      "name": "tgeTime",
      "outputs": [
        {
          "internalType": "uint256",
          "name": "",
          "type": "uint256"
        }
      ],
      "stateMutability": "view",
      "type": "function"
    },
    {
      "inputs": [],
      "name": "token",
      "outputs": [
        {
          "internalType": "contract IERC20",
          "name": "",
          "type": "address"
        }
      ],
      "stateMutability": "view",
      "type": "function"
    },
    {
      "inputs": [],
      "name": "totalAllocated",
      "outputs": [
        {
          "internalType": "uint256",
          "name": "",
          "type": "uint256"
        }
      ],
      "stateMutability": "view",
      "type": "function"
    },
    {
      "inputs": [],
      "name": "totalReleased",
      "outputs": [
        {
          "internalType": "uint256",
          "name": "",
          "type": "uint256"
        }
      ],
      "stateMutability": "view",
      "type": "function"
    },
    {
      "inputs": [
        {
          "internalType": "bytes32",
          "name": "scheduleId",
          "type": "bytes32"
        },
        {
          "internalType": "address",
          "name": "newBeneficiary",
          "type": "address"
        }
      ],
      "name": "transferBeneficiary",
      "outputs": [],
      "stateMutability": "nonpayable",
      "type": "function"
    },
    {
      "inputs": [],
      "name": "unpause",
      "outputs": [],
      "stateMutability": "nonpayable",
      "type": "function"
    },
    {
      "inputs": [
        {
          "internalType": "address",
          "name": "newImplementation",
          "type": "address"
        },
        {
          "internalType": "bytes",
          "name": "data",
          "type": "bytes"
        }
      ],
      "name": "upgradeToAndCall",
      "outputs": [],
      "stateMutability": "payable",
      "type": "function"
    },
    {
      "inputs": [],
      "name": "version",
      "outputs": [
        {
          "internalType": "string",
          "name": "",
          "type": "string"
        }
      ],
      "stateMutability": "pure",
      "type": "function"
    }
  ],
  "bytecode": "0x60a08060405234620000d157306080527ff0c57e16840df040f15088dc2f81fe391c3923bec73e23a9662efc9c229c6a009081549060ff8260401c16620000c257506001600160401b036002600160401b0319828216016200007c575b604051613a7b9081620000d78239608051818181611a390152611b1f0152f35b6001600160401b031990911681179091556040519081527fc7f505b2f371ae2175ee4913f4499e1f2633a7b5936321eed1cdaeb6115181d290602090a13880806200005c565b63f92ee8a960e01b8152600490fd5b600080fdfe608080604052600436101561001357600080fd5b60003560e01c90816301ffc9a714612da8575080631e4ee83d14612bc75780631f9f131c14612acc578063248a9ca314612a905780632f2ff15d14612a425780632f3bdff11461299e5780633163e3a81461298057806333140a351461261557806336568abe146125ce5780633adc277a146123945780633f4ba83a1461231c578063406baf49146123005780634135acaa1461227157806343011d23146120e157806345f7f249146120c357806346ca42411461206b578063485cc95514611d335780634f1ef28614611aa357806352d1902d14611a2657806354fd4d50146119e057806357733b6d146119b85780635be7fde8146118225780635c975abb146117f257806361b0a56e1461169957806362e9e836146112d957806367d42a8b1461116157806371109170146111265780637c4acabf146110eb5780637c8a3a8d146110b05780638456cb59146110485780638acadc2e14610eab5780638fdd511e14610df757806391a0b6b514610dcf57806391d1485414610d7557806395f4861714610d03578063a217fddf14610ce7578063a3b8d9701461097b578063ad3cb1cc14610931578063af20a45e14610551578063b1e421b814610533578063b7ef81e114610515578063c00c89cc146104ef578063d1e16bfa146103ea578063d53b9aec14610398578063d547741f14610348578063dd0824f714610325578063e101cd49146102f4578063e1a45218146102d7578063e33b7de3146102b9578063f72c0d8b1461027e5763fc0c546a1461025057600080fd5b34610279576000366003190112610279576000546040516001600160a01b039091168152602090f35b600080fd5b346102795760003660031901126102795760206040517f189ab7a9244df0848122154315af71fe140f3db0fe014031783b0946b8c9d2e38152f35b34610279576000366003190112610279576020600254604051908152f35b346102795760003660031901126102795760206040516127108152f35b346102795760203660031901126102795760043560088110156102795761031c602091612fdd565b54604051908152f35b3461027957600036600319011261027957602060ff600554166040519015158152f35b3461027957604036600319011261027957610396600435610367612dfb565b90806000526000805160206139c683398151915260205261039160016040600020015433906130d5565b61341a565b005b3461027957602036600319011261027957600435600881101561027957806103c1606092612fdd565b54906103d66103cf82612fc4565b5491612ff6565b549060405192835260208301526040820152f35b346102795760203660031901126102795760043560005260066020526040600020805490600160a01b600190036001820154169060028101546003820154600483015460058401546006850154600786015490600887015492600988015494600a89015496600b8a015498600c8b015460ff169a600d01549b604051809e81526020015260408d015260608c015260808b0160ff82169061048a91612f76565b60a08b019060081c60ff169061049f91612f83565b60c08a015260e089015261010088015261012087015261014086015260ff8116151561016086015260081c60ff1615156101808501526101a084015215156101c08301526101e082015261020090f35b3461027957602036600319011261027957602061050d600435613868565b604051908152f35b34610279576000366003190112610279576020600354604051908152f35b3461027957602036600319011261027957602061050d6004356138b3565b346102795760403660031901126102795761056a612e11565b6105733361300f565b6001600160a01b0381161561091f576024351561090d576001600160a01b038116600090815260076020526040902054600a11156108fb57600460005260096020526105c6602435604060002054613571565b6004600052600b6020527f12d0c11577e2f0950f57c455c117796550b79f444811db8ba2f69c57b646c78454106108e957600354604051602081019160018060a01b0384168352602435604083015260608201526060815261062781612edc565b51902060055460ff16156108e157600454915b6040519261064784612ea9565b82845260018060a01b038216602085015260243560408501526000606085015260046080850152600160a085015260c0840152600060e08401526303c267006101008401526108ca61012084015260006101408401526000610160840152600061018084015260006101a084015260016101c0840152426101e08401528160005260066020526040600020835181556001810160018060a01b036020860151166001600160601b0360a01b825416179055604084015160028201556060840151600382015560808401519360088510156108cb5760048201549060a08101519060058210156108cb57602096600d9360ff61ff006101e09560081b1692169061ffff19161717600485015560c0810151600585015560e081015160068501556101008101516007850155610120810151600885015561014081015160098501556107c7600a85016107ab6101608401511515829060ff801983541691151516179055565b610180830151815461ff00191690151560081b61ff0016179055565b6101a0810151600b8501556107f26101c08201511515600c86019060ff801983541691151516179055565b015191015560018060a01b03811660005260078352610815826040600020613596565b6108206003546135c0565b600355610831602435600154613571565b600155600460005260098352604060002061084f6024358254613571565b905560055460ff16156108b15781600080516020613a2683398151915260c0600454935b604051946024358652600488870152600160408701526060860152600060808601526303c2670060a086015260018060a01b031693a3604051908152f35b81600080516020613a2683398151915260c0600093610873565b634e487b7160e01b600052602160045260246000fd5b60009161063a565b6040516309d2cc7160e01b8152600490fd5b6040516302a3ee3560e51b8152600490fd5b60405163162908e360e11b8152600490fd5b604051631559b7d760e21b8152600490fd5b346102795760003660031901126102795761097760405161095181612ef8565b60058152640352e302e360dc1b6020820152604051918291602083526020830190612f36565b0390f35b3461027957604036600319011261027957610994612e11565b61099d3361300f565b6001600160a01b0381161561091f576024351561090d576001600160a01b038116600090815260076020526040902054600a11156108fb57600160005260096020526109f0602435604060002054613571565b6001600052600b6020527f72c6bfb7988af3a1efa6568f02a999bc52252641c659d85961ca3d372b57d5cf54106108e957600354604051602081019160018060a01b03841683526024356040830152606082015260608152610a5181612edc565b51902060055460ff1615610cdf57600454915b60405192610a7184612ea9565b82845260018060a01b038216602085015260243560408501526000606085015260016080850152600160a085015260c08401526301e1338060e0840152630784ce0061010084015260006101208401526109c46101408401526001610160840152600061018084015260006101a084015260006101c0840152426101e08401528160005260066020526040600020835181556001810160018060a01b036020860151166001600160601b0360a01b825416179055604084015160028201556060840151600382015560808401519360088510156108cb5760048201549060a08101519060058210156108cb57602096600d9360ff61ff006101e09560081b1692169061ffff19161717600485015560c0810151600585015560e08101516006850155610100810151600785015561012081015160088501556101408101516009850155610bd8600a85016107ab6101608401511515829060ff801983541691151516179055565b6101a0810151600b850155610c036101c08201511515600c86019060ff801983541691151516179055565b015191015560018060a01b03811660005260078352610c26826040600020613596565b610c316003546135c0565b600355610c42602435600154613571565b6001556001600052600983526040600020610c606024358254613571565b905560055460ff1615610cc55781600080516020613a2683398151915260c0600454935b6040519460243586526001888701526001604087015260608601526301e133806080860152630784ce0060a086015260018060a01b031693a3604051908152f35b81600080516020613a2683398151915260c0600093610c84565b600091610a64565b3461027957600036600319011261027957602060405160008152f35b3461027957600036600319011261027957610d1d3361300f565b60055460ff8116610d63576001904260045560ff1916176005557f1f3720b847ee6caeda27d3425f095412f50fe082a343c47b2f9a8126b53f3d486020604051428152a1005b604051630ea89a0360e01b8152600490fd5b3461027957604036600319011261027957610d8e612dfb565b6004356000526000805160206139c683398151915260205260406000209060018060a01b0316600052602052602060ff604060002054166040519015158152f35b346102795760203660031901126102795760043560088110156102795761031c602091612fc4565b3461027957602080600319360112610279576001600160a01b03610e19612e11565b1660005260078152604060002060405190818382549182815201908192600052846000209060005b86828210610e97578686610e5782880383612f14565b604051928392818401908285525180915260408401929160005b828110610e8057505050500390f35b835185528695509381019392810192600101610e71565b835485529093019260019283019201610e41565b3461027957602080600319360112610279576004357fce3f34913921da558f105cefb578d87278debbbd073a8d552b5de0d168deee30806000526000805160206139c68339815191528352604060002033600052835260ff604060002054161561102a575060008181526006835260409020600101546001600160a01b039081161561101857816000526006835260ff600a6040600020015460081c166110065781600052600683526040600020600a81019182549060ff821615610ff4576001837f954fce36f3b2084190b28237120faa94dedda6b06dbbb2be78196e266b273dd495610100610faa610fa0604098613703565b60028501546136e3565b9561ff00191617905542600b820155610fc48483546136e3565b8255610fd660ff600483015416612fc4565b610fe18582546136e3565b90550154169482519182524290820152a3005b604051630e6a74e160e11b8152600490fd5b604051636aba008960e11b8152600490fd5b60405163d858766960e01b8152600490fd5b6044906040519063e2517d3f60e01b82523360048301526024820152fd5b346102795760003660031901126102795761106233613092565b61106a6135cf565b6000805160206139e6833981519152600160ff198254161790557f62e78cea01bee320cd4e420270b5ea74000d11b0c9f74754ebdbfc544b05a2586020604051338152a1005b346102795760003660031901126102795760206040517fa8f45af456ec169d21f52f0673e869f84c82a5ecdb557cd556f1159a748bfb068152f35b346102795760003660031901126102795760206040517fce3f34913921da558f105cefb578d87278debbbd073a8d552b5de0d168deee308152f35b346102795760003660031901126102795760206040517ff955df90a2e8fe4c16c94d8cbe3f1073a398b180d52156e4cfc90ab3a43a8c0d8152f35b34610279576020806003193601126102795760043561117e6135fa565b6111866135cf565b60ff60055416156112c75760008181526006835260409020600101546001600160a01b039081161561101857816000526006835260ff600a6040600020015460081c1661100657816000526006835260406000209160018301928284541633036112b5576111f381613703565b906003810193611205855480946136e3565b9586156112a35761125a60ff60046040956112418b7fda1cdca732b08db55433f8cd713106a4ec9140585f978569b9915bfc045daa5999613571565b8a5561124f8b600254613571565b600255015416612ff6565b611265888254613571565b905561127a878360005416848454169061362a565b5416935481519086825287820152a36001600080516020613a0683398151915255604051908152f35b60405163b10205ed60e01b8152600490fd5b6040516318e289e160e11b8152600490fd5b604051637f987fa560e01b8152600490fd5b3461027957610140366003190112610279576112f3612e11565b600860443510156102795760056064351015610279576101043590811515820361027957610124359081151582036102795761132e3361300f565b6001600160a01b0381161561091f576024351561090d576127108060c4351161090d5760e4351161090d57611f4061136a60e43560c435613571565b1161090d576001600160a01b038116600090815260076020526040902054600a11156108fb576113a76024356113a1604435612fc4565b54613571565b6113b2604435612fdd565b54106108e957600354604051602081019160018060a01b038416835260243560408301526060820152606081526113e881612edc565b5190209160ff6005541660001461169157600454935b6040519461140b86612ea9565b8486526001600160a01b038416602087015260243560408701526000606087015261143b6044356080880161357e565b61144a60643560a0880161358a565b60c086015260843560e086015260a43561010086015260c43561012086015260e4356101408601521515610160850152600061018085015260006101a085015215156101c0840152426101e08401528160005260066020526040600020835181556001810160018060a01b036020860151166001600160601b0360a01b825416179055604084015160028201556060840151600382015560808401519360088510156108cb5760048201549060a08101519060058210156108cb57602096600d9360ff61ff006101e09560081b1692169061ffff19161717600485015560c0810151600585015560e08101516006850155610100810151600785015561012081015160088501556101408101516009850155611580600a85016107ab6101608401511515829060ff801983541691151516179055565b6101a0810151600b8501556115ab6101c08201511515600c86019060ff801983541691151516179055565b015191015560018060a01b038116600052600783526115ce826040600020613596565b6115d96003546135c0565b6003556115ea602435600154613571565b6001556115f8604435612fc4565b6116056024358254613571565b905560055460ff16156116775781600080516020613a2683398151915260c0600454935b604051946024358652611640888701604435612f76565b61164f60408701606435612f83565b6060860152608435608086015260a43560a08601526001600160a01b031693a3604051908152f35b81600080516020613a2683398151915260c0600093611629565b6000936113fe565b34610279576060366003190112610279576116b2612e11565b6024356044356001600160a01b03808216808303610279576116d333613092565b1561091f5780600054169316928084146116f2575b506103969261362a565b60015460025460249291818111156117e657602091611710916136e3565b915b6040516370a0823160e01b815230600482015293849182905afa9182156117da576000926117a7575b508082111561179e5761174d916136e3565b821161175957836116e8565b60405162461bcd60e51b815260206004820152601d60248201527f43616e6e6f74207265636f7665722076657374696e6720746f6b656e730000006044820152606490fd5b5050600061174d565b9091506020813d82116117d2575b816117c260209383612f14565b810103126102795751908561173b565b3d91506117b5565b6040513d6000823e3d90fd5b50506020600091611712565b3461027957600036600319011261027957602060ff6000805160206139e683398151915254166040519015158152f35b346102795760003660031901126102795761183b6135fa565b6118436135cf565b60ff8060055416156112c75760003360005260209160078352604060002090815491600a8084116119b0575b60005b8481106118b457868680156112a35760005461189a90829033906001600160a01b031661362a565b6001600080516020613a0683398151915255604051908152f35b6118be8184612f90565b9054600391821b1c600052600688526040600020858482015460081c166119a5576118e881613703565b90828101906118f9825480946136e3565b9283611913575b505050505061190e906135c0565b611872565b61190e95949a6119478a60046119599561192e898097613571565b8855600261193d878254613571565b9055015416612ff6565b611952838254613571565b9055613571565b986119648488612f90565b9054911b1c90546040519283528a8301527fda1cdca732b08db55433f8cd713106a4ec9140585f978569b9915bfc045daa5960403393a39088808080611900565b505061190e906135c0565b92508261186f565b346102795760203660031901126102795760043560088110156102795761031c602091612ff6565b3461027957600036600319011261027957610977604051611a0081612ef8565b60058152640312e302e360dc1b6020820152604051918291602083526020830190612f36565b34610279576000366003190112610279577f00000000000000000000000000000000000000000000000000000000000000006001600160a01b03163003611a915760206040517f360894a13ba1a3210667c828492db98dca3e2076cc3735a920a3ca505d382bbc8152f35b60405163703e46dd60e11b8152600490fd5b604036600319011261027957611ab7612e11565b602490813567ffffffffffffffff8111610279573660238201121561027957806004013591611ae583612fa8565b611af26040519182612f14565b83815260209384820193368783830101116102795781600092888893018737830101526001600160a01b037f00000000000000000000000000000000000000000000000000000000000000008116308114908115611d05575b50611a91577f189ab7a9244df0848122154315af71fe140f3db0fe014031783b0946b8c9d2e3806000526000805160206139c68339815191528652604060002033600052865260ff6040600020541615611ce857506040516352d1902d60e01b8152908316948082600481895afa918291600093611cb8575b5050611be257604051634c9c8ce360e01b8152600481018690528690fd5b8490867f360894a13ba1a3210667c828492db98dca3e2076cc3735a920a3ca505d382bbc91828103611ca35750843b15611c8d575080546001600160a01b03191682179055604051907fbc7cd75a20ee27fd9adebab32041f755214dbc6bffa90cc0225b39da2e5c2d3b600080a2815115611c73575060006103969381925190845af4611c6d61349d565b916134cd565b9250505034611c7e57005b63b398979f60e01b8152600490fd5b604051634c9c8ce360e01b815260048101849052fd5b60405190632a87526960e21b82526004820152fd5b9080929350813d8311611ce1575b611cd08183612f14565b810103126102795751908780611bc4565b503d611cc6565b866044916040519163e2517d3f60e01b8352336004840152820152fd5b9050817f360894a13ba1a3210667c828492db98dca3e2076cc3735a920a3ca505d382bbc5416141587611b4b565b3461027957604036600319011261027957611d4c612e11565b611d54612dfb565b7ff0c57e16840df040f15088dc2f81fe391c3923bec73e23a9662efc9c229c6a009182549160ff8360401c16159267ffffffffffffffff811680159081612063575b6001149081612059575b159081612050575b5061203e5767ffffffffffffffff19811660011785558361201f575b50611dcd613530565b611dd5613530565b611ddd613530565b611de5613530565b6000805160206139e6833981519152805460ff19169055611e04613530565b611e0c613530565b6001600080516020613a06833981519152556001600160a01b0391821691821561091f5781161561091f57611e7a91611e44826138dd565b6001600160601b0360a01b6000541617600055611e6081613113565b50611e6a816131a1565b50611e7481613251565b506132fb565b50600b6020526b09b18ab5df7180b6b80000007fdf7de25b7f1fd6d0b5205f0e18f1f35bd7b8d84cce336588d184533ce43a6f76556b06765c793fa10079d00000007f72c6bfb7988af3a1efa6568f02a999bc52252641c659d85961ca3d372b57d5cf556b04d8c55aefb8c05b5c0000007fa50eece07c7db1631545c0069bd8f5f54d5935e215d59097edf258a44ba91634556b033b2e3c9fd0803ce80000007f64c15cc42be7899b001f818cf4433057002112c418d1d3a67cd5cb453051d33e8190557f12d0c11577e2f0950f57c455c117796550b79f444811db8ba2f69c57b646c784556b019d971e4fe8401e740000007febae6141bae5521e99e0a8d610356b0f501fea54980b59c84841db43ba7204f48190557f0387e9d1203691d8e3362a7e4c6723de358a4010d7f31ecbec3fbfc61d1c75fc81905560076000527ff5559028dc9ba50d75343c779b2f75e13a84a14662932fc67a486f263ca31a9655611fe257005b68ff00000000000000001981541690557fc7f505b2f371ae2175ee4913f4499e1f2633a7b5936321eed1cdaeb6115181d2602060405160018152a1005b68ffffffffffffffffff19166801000000000000000117845584611dc4565b60405163f92ee8a960e01b8152600490fd5b90501586611da8565b303b159150611da0565b859150611d96565b3461027957604036600319011261027957612084612e11565b6001600160a01b0316600090815260076020526040902080546024359190821015610279576020916120b591612f90565b90546040519160031b1c8152f35b34610279576000366003190112610279576020600154604051908152f35b34610279576120ef36612e27565b6120f83361300f565b816000526020906006825260018060a01b03600160406000200154161561101857826000526006825260ff600a6040600020015460081c16611006577ff955df90a2e8fe4c16c94d8cbe3f1073a398b180d52156e4cfc90ab3a43a8c0d806000526000805160206139c68339815191528352604060002033600052835260ff604060002054161561102a575082600052600882526040600020805482101561225f57816121a491612e3d565b50600281019283549260ff841661224d577f71f914f5ab771003fb050069028f39fb48b1234734fc4d47b3a649c990fcf42794600161223e9560ff191617905542600384015560405190828252867fb40afa9ccdd6eefc920dd348ff38eba78099061a0aa3987eb2a914c33cc70a693393806122228782018961390f565b0390a4600182015460405193849360608552606085019061390f565b918301524260408301520390a2005b604051633385ebe760e21b8152600490fd5b604051636c0b8c3360e11b8152600490fd5b346102795760403660031901126102795760043560088110156102795760243561229a33613092565b6122a382612fc4565b5481106122ee5781816040926122d97f230df9f8ea945c8c4dbc84472a2ffe72ad065c1b9adddc2c1529e65086c62ca095612fdd565b556122e683518093612f76565b6020820152a1005b604051630bf42eb360e41b8152600490fd5b34610279576000366003190112610279576020604051600a8152f35b346102795760003660031901126102795761233633613092565b6000805160206139e6833981519152805460ff8116156123825760ff191690557f5db9ee0a495bf2e6ff9c91a7834c1ba4fdd244a5e8aa4e537bd38aeae4b073aa6020604051338152a1005b604051638dfc202b60e01b8152600490fd5b346102795760203660031901126102795760006101e06040516123b681612ea9565b8281528260208201528260408201528260608201528260808201528260a08201528260c08201528260e08201528261010082015282610120820152826101408201528261016082015282610180820152826101a0820152826101c0820152015260043560005260066020526102006040600020600d6040519161243883612ea9565b8054835260018101546001600160a01b031660208401526002810154604084015260038101546060840152600481015461248b9060ff9061247e8183166080880161357e565b60081c1660a0850161358a565b600581015460c0840152600681015460e084015260078101546101008401526008810154610120840152600981015461014084015260ff600a820154818116151561016086015260081c161515610180840152600b8101546101a084015260ff600c8201541615156101c084015201546101e08201526101e0604051918051835260018060a01b036020820151166020840152604081015160408401526060810151606084015261254460808201516080850190612f76565b61255660a082015160a0850190612f83565b60c081015160c084015260e081015160e0840152610100810151610100840152610120810151610120840152610140810151610140840152610160810151151561016084015261018081015115156101808401526101a08101516101a08401526101c081015115156101c084015201516101e0820152f35b34610279576040366003190112610279576125e7612dfb565b336001600160a01b03821603612603576103969060043561341a565b60405163334bd91960e11b8152600490fd5b346102795760403660031901126102795761262e612e11565b6126373361300f565b6001600160a01b0381161561091f576024351561090d576001600160a01b038116600090815260076020526040902054600a11156108fb576005600052600960205261268a602435604060002054613571565b6005600052600b6020527febae6141bae5521e99e0a8d610356b0f501fea54980b59c84841db43ba7204f454106108e957600354604051602081019160018060a01b038416835260243560408301526060820152606081526126eb81612edc565b51902060055460ff161561297857600454915b6040519261270b84612ea9565b82845260018060a01b038216602085015260243560408501526000606085015260056080850152600160a085015260c08401526301e1338060e0840152630784ce00610100840152600061012084015260006101408401526000610160840152600061018084015260006101a084015260016101c0840152426101e08401528160005260066020526040600020835181556001810160018060a01b036020860151166001600160601b0360a01b825416179055604084015160028201556060840151600382015560808401519360088510156108cb5760048201549060a08101519060058210156108cb57602096600d9360ff61ff006101e09560081b1692169061ffff19161717600485015560c0810151600585015560e08101516006850155610100810151600785015561012081015160088501556101408101516009850155612871600a85016107ab6101608401511515829060ff801983541691151516179055565b6101a0810151600b85015561289c6101c08201511515600c86019060ff801983541691151516179055565b015191015560018060a01b038116600052600783526128bf826040600020613596565b6128ca6003546135c0565b6003556128db602435600154613571565b60015560056000526009835260406000206128f96024358254613571565b905560055460ff161561295e5781600080516020613a2683398151915260c0600454935b6040519460243586526005888701526001604087015260608601526301e133806080860152630784ce0060a086015260018060a01b031693a3604051908152f35b81600080516020613a2683398151915260c060009361291d565b6000916126fe565b34610279576000366003190112610279576020600454604051908152f35b34610279576020366003190112610279576004356129bb3361300f565b60ff60055416156112c7576000818152600660205260409020600101546001600160a01b0316156110185780600052600660205260056040600020018054612a305760207f4621b146fe735fd465d12937263a5884d5284346a4c908a69ca4f9292230d91191600454809155604051908152a2005b604051630df792bd60e21b8152600490fd5b3461027957604036600319011261027957610396600435612a61612dfb565b90806000526000805160206139c6833981519152602052612a8b60016040600020015433906130d5565b6133a5565b34610279576020366003190112610279576004356000526000805160206139c68339815191526020526020600160406000200154604051908152f35b3461027957612ada36612e27565b9060005260209060088252604060002090815481101561027957612afd91612e3d565b5090604051906000928054612b1181612e6f565b808552600191808316908115612bab5750600114612b74575b50612b3a84612b60960385612f14565b81015490600360ff60028301541691015491604051958695608087526080870190612f36565b938501521515604084015260608301520390f35b945081600052826000206000905b868210612b985750840183019450612b3a612b2a565b8054868301860152908401908201612b82565b60ff19168587015250151560051b840183019450612b3a612b2a565b3461027957604036600319011261027957600435612be3612dfb565b9080600052600660205260018060a01b0360019181836040600020015416156110185780600052600660205260ff600a6040600020015460081c166110065780600052600660205260406000209183830190815495818716948533036112b557600c015460ff1615612d96571694851561091f576001600160a01b03191685179055600082815260076020526040812090845b612cbc575b858484826000526007602052612c95816040600020613596565b7fef88aee3aa8bd916e723746513494c2d602df564cf02f10a5594c5708f24b4a0600080a4005b815480821015612d90578390612cd28385612f90565b929054600393841b1c14612cf1575050612ceb906135c0565b84612c76565b949550929360001991828201918211612d7a57612d21612d14612d3a9386612f90565b905490871b1c9185612f90565b90919082549060031b91821b91600019901b1916179055565b81548015612d6457810192612d4f8484612f90565b81939154921b1b191690555581908480612c7b565b634e487b7160e01b600052603160045260246000fd5b634e487b7160e01b600052601160045260246000fd5b50612c7b565b60405163dc8d8db760e01b8152600490fd5b34610279576020366003190112610279576004359063ffffffff60e01b821680920361027957602091637965db0b60e01b8114908115612dea575b5015158152f35b6301ffc9a760e01b14905083612de3565b602435906001600160a01b038216820361027957565b600435906001600160a01b038216820361027957565b6040906003190112610279576004359060243590565b8054821015612e595760005260206000209060021b0190600090565b634e487b7160e01b600052603260045260246000fd5b90600182811c92168015612e9f575b6020831014612e8957565b634e487b7160e01b600052602260045260246000fd5b91607f1691612e7e565b610200810190811067ffffffffffffffff821117612ec657604052565b634e487b7160e01b600052604160045260246000fd5b6080810190811067ffffffffffffffff821117612ec657604052565b6040810190811067ffffffffffffffff821117612ec657604052565b90601f8019910116810190811067ffffffffffffffff821117612ec657604052565b919082519283825260005b848110612f62575050826000602080949584010152601f8019910116010190565b602081830181015184830182015201612f41565b9060088210156108cb5752565b9060058210156108cb5752565b8054821015612e595760005260206000200190600090565b67ffffffffffffffff8111612ec657601f01601f191660200190565b60088110156108cb576000526009602052604060002090565b60088110156108cb57600052600b602052604060002090565b60088110156108cb57600052600a602052604060002090565b6001600160a01b031660008181527f0c4b4592a1188bbc4f5781efb8ab0edc3960544c5a902f0f64f57a4177014c2060205260409020547fa8f45af456ec169d21f52f0673e869f84c82a5ecdb557cd556f1159a748bfb069060ff1615613074575050565b604492506040519163e2517d3f60e01b835260048301526024820152fd5b6001600160a01b031660008181527fb7db2dd08fcb62d0c9e08c51941cae53c267786a0b75803fb7960902fc8ef97d602052604081205460ff1615613074575050565b806000526000805160206139c683398151915260205260406000209160018060a01b0316918260005260205260ff6040600020541615613074575050565b6001600160a01b031660008181527fb7db2dd08fcb62d0c9e08c51941cae53c267786a0b75803fb7960902fc8ef97d60205260408120549091906000805160206139c68339815191529060ff1661319c578280526020526040822081835260205260408220600160ff1982541617905533916000805160206139a68339815191528180a4600190565b505090565b6001600160a01b031660008181527f0c4b4592a1188bbc4f5781efb8ab0edc3960544c5a902f0f64f57a4177014c2060205260408120549091907fa8f45af456ec169d21f52f0673e869f84c82a5ecdb557cd556f1159a748bfb06906000805160206139c68339815191529060ff1661324b578184526020526040832082845260205260408320600160ff198254161790556000805160206139a6833981519152339380a4600190565b50505090565b6001600160a01b031660008181527fe9fc50efec9d5a552b673173225a8b63793e401f3a9eee4ea7b532f7185c51ef60205260408120549091907fce3f34913921da558f105cefb578d87278debbbd073a8d552b5de0d168deee30906000805160206139c68339815191529060ff1661324b578184526020526040832082845260205260408320600160ff198254161790556000805160206139a6833981519152339380a4600190565b6001600160a01b031660008181527fab71e3f32666744d246edff3f96e4bdafee2e9867098cdd118a979a7464786a860205260408120549091907f189ab7a9244df0848122154315af71fe140f3db0fe014031783b0946b8c9d2e3906000805160206139c68339815191529060ff1661324b578184526020526040832082845260205260408320600160ff198254161790556000805160206139a6833981519152339380a4600190565b906000918083526000805160206139c683398151915280602052604084209260018060a01b03169283855260205260ff6040852054161560001461324b578184526020526040832082845260205260408320600160ff198254161790556000805160206139a6833981519152339380a4600190565b906000918083526000805160206139c683398151915280602052604084209260018060a01b03169283855260205260ff60408520541660001461324b57818452602052604083208284526020526040832060ff1981541690557ff6391f5c32d9c69d2a47ea670b442974b53935d1edc7fd64eb21e047a839171b339380a4600190565b3d156134c8573d906134ae82612fa8565b916134bc6040519384612f14565b82523d6000602084013e565b606090565b906134f457508051156134e257805190602001fd5b604051630a12f52160e11b8152600490fd5b81511580613527575b613505575090565b604051639996b31560e01b81526001600160a01b039091166004820152602490fd5b50803b156134fd565b60ff7ff0c57e16840df040f15088dc2f81fe391c3923bec73e23a9662efc9c229c6a005460401c161561355f57565b604051631afcd79f60e31b8152600490fd5b91908201809211612d7a57565b60088210156108cb5752565b60058210156108cb5752565b9081549168010000000000000000831015612ec65782612d219160016135be95018155612f90565b565b6000198114612d7a5760010190565b60ff6000805160206139e683398151915254166135e857565b60405163d93c066560e01b8152600490fd5b600080516020613a0683398151915260028154146136185760029055565b604051633ee5aeb560e01b8152600490fd5b60405163a9059cbb60e01b602082019081526001600160a01b03938416602483015260448083019590955293815292916136849161366785612edc565b1692600080938192519082875af161367d61349d565b90846134cd565b9081519182151592836136b4575b50505061369c5750565b60249060405190635274afe760e01b82526004820152fd5b8192935090602091810103126136df5760200151908115918215036136dc5750388080613692565b80fd5b5080fd5b91908203918211612d7a57565b81810292918115918404141715612d7a57565b60ff60055416156138625760058101548015613859575b600a82015460081c60ff161561385257600b820154915b81831061384a5760ff600482015460081c1660058110156108cb5760021461384057600281015492613776612710938461376f6008860154886136f0565b04926136e3565b92600683015490818510613837579060078693926137986009870154866136f0565b04940154938415801561382d575b6138245781851115613824576137df826137d96137e5946137d3856137ce896137eb9b6136e3565b6136e3565b986136e3565b976136e3565b92613571565b926136f0565b91801561380e576137fd920490613571565b81811115613809575090565b905090565b634e487b7160e01b600052601260045260246000fd5b50505050505090565b50848610156137a6565b50509250505090565b6002015492915050565b505050600090565b4291613731565b5060045461371a565b50600090565b600090815260066020526040902060018101546001600160a01b0316156138625760ff600a82015460081c16613862578060036138a76138b093613703565b910154906136e3565b90565b600090815260066020526040902060018101546001600160a01b031615613862576138b090613703565b3b6135be57617a6946148015613904575b6135be5760405163b597f86560e01b8152600490fd5b5061053946146138ee565b906000929180549161392083612e6f565b9182825260019384811690816000146139825750600114613942575b50505050565b90919394506000526020928360002092846000945b83861061396e57505050500101903880808061393c565b805485870183015294019385908201613957565b9294505050602093945060ff191683830152151560051b0101903880808061393c56fe2f8788117e7eff1d82e926ec794901d17c78024a50270940304540a733656f0d02dd7bc7dec4dceedda775e58dd541e08a116c6c53815c0bd028192f7b626800cd5ed15c6e187e77e9aee88184c21f4f2182ab5827cb3b7e07fbedcd63f033009b779b17422d0df92223018b32b4d1fa46e071723d6817e2486d003becc55f00bdf74650f19d8cb3289eabf0d43277ca01e51e704ba70fb87604e37cc7581173a2646970667358221220ac1540e8a17310129d6cd682e0e555b340d797efc4e7bda2d13b287fe9cf9b7d64736f6c63430008140033",
  "linkReferences": {},
  "deployedLinkReferences": {}
}