{
  "_format": "hh-sol-artifact-1",
  "contractName": "SovereignGovernanceTimelock",
  "sourceName": "contracts/SovereignGovernanceTimelock.sol",
  "abi": [
    {
      "inputs": [
        {
          "internalType": "uint256",
          "name": "minDelay",
          "type": "uint256"
        },
        {
          "internalType": "address[]",
          "name": "proposers",
          "type": "address[]"
        },
        {
          "internalType": "address[]",
          "name": "executors",
          "type": "address[]"
        },
        {
          "internalType": "address",
          "name": "admin",
          "type": "address"
        }
      ],
      "stateMutability": "nonpayable",
      "type": "constructor"
    },
    {
      "inputs": [],
      "name": "AccessControlBadConfirmation",
      "type": "error"
    },
    {
      "inputs": [
        {
          "internalType": "address",
          "name": "account",
          "type": "address"
        },
        {
          "internalType": "bytes32",
          "name": "neededRole",
          "type": "bytes32"
        }
      ],
      "name": "AccessControlUnauthorizedAccount",
      "type": "error"
    },
    {
      "inputs": [],
      "name": "AdminMustBeContract",
      "type": "error"
    },
    {
      "inputs": [],
      "name": "ECDSAInvalidSignature",
      "type": "error"
    },
    {
      "inputs": [
        {
          "internalType": "uint256",
          "name": "length",
          "type": "uint256"
        }
      ],
      "name": "ECDSAInvalidSignatureLength",
      "type": "error"
    },
    {
      "inputs": [
        {
          "internalType": "bytes32",
          "name": "s",
          "type": "bytes32"
        }
      ],
      "name": "ECDSAInvalidSignatureS",
      "type": "error"
    },
    {
      "inputs": [],
      "name": "FailedInnerCall",
      "type": "error"
    },
    {
      "inputs": [],
      "name": "InvalidAddress",
      "type": "error"
    },
    {
      "inputs": [],
      "name": "InvalidDeadline",
      "type": "error"
    },
    {
      "inputs": [],
      "name": "InvalidKeyType",
      "type": "error"
    },
    {
      "inputs": [],
      "name": "InvalidSignature",
      "type": "error"
    },
    {
      "inputs": [],
      "name": "OperationAlreadyExecuted",
      "type": "error"
    },
    {
      "inputs": [],
      "name": "OperationAlreadyQueued",
      "type": "error"
    },
    {
      "inputs": [],
      "name": "OperationNotQueued",
      "type": "error"
    },
    {
      "inputs": [],
      "name": "RotationDelayTooShort",
      "type": "error"
    },
    {
      "inputs": [
        {
          "internalType": "uint256",
          "name": "delay",
          "type": "uint256"
        },
        {
          "internalType": "uint256",
          "name": "minDelay",
          "type": "uint256"
        }
      ],
      "name": "TimelockInsufficientDelay",
      "type": "error"
    },
    {
      "inputs": [
        {
          "internalType": "uint256",
          "name": "targets",
          "type": "uint256"
        },
        {
          "internalType": "uint256",
          "name": "payloads",
          "type": "uint256"
        },
        {
          "internalType": "uint256",
          "name": "values",
          "type": "uint256"
        }
      ],
      "name": "TimelockInvalidOperationLength",
      "type": "error"
    },
    {
      "inputs": [
        {
          "internalType": "address",
          "name": "caller",
          "type": "address"
        }
      ],
      "name": "TimelockUnauthorizedCaller",
      "type": "error"
    },
    {
      "inputs": [
        {
          "internalType": "bytes32",
          "name": "predecessorId",
          "type": "bytes32"
        }
      ],
      "name": "TimelockUnexecutedPredecessor",
      "type": "error"
    },
    {
      "inputs": [
        {
          "internalType": "bytes32",
          "name": "operationId",
          "type": "bytes32"
        },
        {
          "internalType": "bytes32",
          "name": "expectedStates",
          "type": "bytes32"
        }
      ],
      "name": "TimelockUnexpectedOperationState",
      "type": "error"
    },
    {
      "anonymous": false,
      "inputs": [
        {
          "indexed": true,
          "internalType": "bytes32",
          "name": "id",
          "type": "bytes32"
        },
        {
          "indexed": true,
          "internalType": "uint256",
          "name": "index",
          "type": "uint256"
        },
        {
          "indexed": false,
          "internalType": "address",
          "name": "target",
          "type": "address"
        },
        {
          "indexed": false,
          "internalType": "uint256",
          "name": "value",
          "type": "uint256"
        },
        {
          "indexed": false,
          "internalType": "bytes",
          "name": "data",
          "type": "bytes"
        }
      ],
      "name": "CallExecuted",
      "type": "event"
    },
    {
      "anonymous": false,
      "inputs": [
        {
          "indexed": true,
          "internalType": "bytes32",
          "name": "id",
          "type": "bytes32"
        },
        {
          "indexed": false,
          "internalType": "bytes32",
          "name": "salt",
          "type": "bytes32"
        }
      ],
      "name": "CallSalt",
      "type": "event"
    },
    {
      "anonymous": false,
      "inputs": [
        {
          "indexed": true,
          "internalType": "bytes32",
          "name": "id",
          "type": "bytes32"
        },
        {
          "indexed": true,
          "internalType": "uint256",
          "name": "index",
          "type": "uint256"
        },
        {
          "indexed": false,
          "internalType": "address",
          "name": "target",
          "type": "address"
        },
        {
          "indexed": false,
          "internalType": "uint256",
          "name": "value",
          "type": "uint256"
        },
        {
          "indexed": false,
          "internalType": "bytes",
          "name": "data",
          "type": "bytes"
        },
        {
          "indexed": false,
          "internalType": "bytes32",
          "name": "predecessor",
          "type": "bytes32"
        },
        {
          "indexed": false,
          "internalType": "uint256",
          "name": "delay",
          "type": "uint256"
        }
      ],
      "name": "CallScheduled",
      "type": "event"
    },
    {
      "anonymous": false,
      "inputs": [
        {
          "indexed": true,
          "internalType": "bytes32",
          "name": "id",
          "type": "bytes32"
        }
      ],
      "name": "Cancelled",
      "type": "event"
    },
    {
      "anonymous": false,
      "inputs": [
        {
          "indexed": true,
          "internalType": "bytes32",
          "name": "operationId",
          "type": "bytes32"
        },
        {
          "indexed": true,
          "internalType": "address",
          "name": "bridge",
          "type": "address"
        },
        {
          "indexed": false,
          "internalType": "address",
          "name": "issuerKey",
          "type": "address"
        },
        {
          "indexed": false,
          "internalType": "address",
          "name": "issuerRecoveryKey",
          "type": "address"
        },
        {
          "indexed": false,
          "internalType": "address",
          "name": "foundationKey",
          "type": "address"
        },
        {
          "indexed": false,
          "internalType": "address",
          "name": "auditorKey",
          "type": "address"
        },
        {
          "indexed": false,
          "internalType": "address",
          "name": "guardianKey",
          "type": "address"
        }
      ],
      "name": "KeyRotationExecuted",
      "type": "event"
    },
    {
      "anonymous": false,
      "inputs": [
        {
          "indexed": true,
          "internalType": "bytes32",
          "name": "operationId",
          "type": "bytes32"
        },
        {
          "indexed": true,
          "internalType": "address",
          "name": "bridge",
          "type": "address"
        },
        {
          "indexed": true,
          "internalType": "enum SovereignGovernanceTimelock.KeyType",
          "name": "keyType",
          "type": "uint8"
        },
        {
          "indexed": false,
          "internalType": "address",
          "name": "newKey",
          "type": "address"
        },
        {
          "indexed": false,
          "internalType": "uint256",
          "name": "executeAfter",
          "type": "uint256"
        }
      ],
      "name": "KeyRotationQueued",
      "type": "event"
    },
    {
      "anonymous": false,
      "inputs": [
        {
          "indexed": false,
          "internalType": "uint256",
          "name": "oldDuration",
          "type": "uint256"
        },
        {
          "indexed": false,
          "internalType": "uint256",
          "name": "newDuration",
          "type": "uint256"
        }
      ],
      "name": "MinDelayChange",
      "type": "event"
    },
    {
      "anonymous": false,
      "inputs": [
        {
          "indexed": true,
          "internalType": "bytes32",
          "name": "role",
          "type": "bytes32"
        },
        {
          "indexed": true,
          "internalType": "bytes32",
          "name": "previousAdminRole",
          "type": "bytes32"
        },
        {
          "indexed": true,
          "internalType": "bytes32",
          "name": "newAdminRole",
          "type": "bytes32"
        }
      ],
      "name": "RoleAdminChanged",
      "type": "event"
    },
    {
      "anonymous": false,
      "inputs": [
        {
          "indexed": true,
          "internalType": "bytes32",
          "name": "role",
          "type": "bytes32"
        },
        {
          "indexed": true,
          "internalType": "address",
          "name": "account",
          "type": "address"
        },
        {
          "indexed": true,
          "internalType": "address",
          "name": "sender",
          "type": "address"
        }
      ],
      "name": "RoleGranted",
      "type": "event"
    },
    {
      "anonymous": false,
      "inputs": [
        {
          "indexed": true,
          "internalType": "bytes32",
          "name": "role",
          "type": "bytes32"
        },
        {
          "indexed": true,
          "internalType": "address",
          "name": "account",
          "type": "address"
        },
        {
          "indexed": true,
          "internalType": "address",
          "name": "sender",
          "type": "address"
        }
      ],
      "name": "RoleRevoked",
      "type": "event"
    },
    {
      "inputs": [],
      "name": "CANCELLER_ROLE",
      "outputs": [
        {
          "internalType": "bytes32",
          "name": "",
          "type": "bytes32"
        }
      ],
      "stateMutability": "view",
      "type": "function"
    },
    {
      "inputs": [],
      "name": "DEFAULT_ADMIN_ROLE",
      "outputs": [
        {
          "internalType": "bytes32",
          "name": "",
          "type": "bytes32"
        }
      ],
      "stateMutability": "view",
      "type": "function"
    },
    {
      "inputs": [],
      "name": "EXECUTOR_ROLE",
      "outputs": [
        {
          "internalType": "bytes32",
          "name": "",
          "type": "bytes32"
        }
      ],
      "stateMutability": "view",
      "type": "function"
    },
    {
      "inputs": [],
      "name": "MIN_KEY_ROTATION_DELAY",
      "outputs": [
        {
          "internalType": "uint256",
          "name": "",
          "type": "uint256"
        }
      ],
      "stateMutability": "view",
      "type": "function"
    },
    {
      "inputs": [],
      "name": "PROPOSER_ROLE",
      "outputs": [
        {
          "internalType": "bytes32",
          "name": "",
          "type": "bytes32"
        }
      ],
      "stateMutability": "view",
      "type": "function"
    },
    {
      "inputs": [
        {
          "internalType": "bytes32",
          "name": "id",
          "type": "bytes32"
        }
      ],
      "name": "cancel",
      "outputs": [],
      "stateMutability": "nonpayable",
      "type": "function"
    },
    {
      "inputs": [
        {
          "internalType": "address",
          "name": "target",
          "type": "address"
        },
        {
          "internalType": "uint256",
          "name": "value",
          "type": "uint256"
        },
        {
          "internalType": "bytes",
          "name": "payload",
          "type": "bytes"
        },
        {
          "internalType": "bytes32",
          "name": "predecessor",
          "type": "bytes32"
        },
        {
          "internalType": "bytes32",
          "name": "salt",
          "type": "bytes32"
        }
      ],
      "name": "execute",
      "outputs": [],
      "stateMutability": "payable",
      "type": "function"
    },
    {
      "inputs": [
        {
          "internalType": "address[]",
          "name": "targets",
          "type": "address[]"
        },
        {
          "internalType": "uint256[]",
          "name": "values",
          "type": "uint256[]"
        },
        {
          "internalType": "bytes[]",
          "name": "payloads",
          "type": "bytes[]"
        },
        {
          "internalType": "bytes32",
          "name": "predecessor",
          "type": "bytes32"
        },
        {
          "internalType": "bytes32",
          "name": "salt",
          "type": "bytes32"
        }
      ],
      "name": "executeBatch",
      "outputs": [],
      "stateMutability": "payable",
      "type": "function"
    },
    {
      "inputs": [
        {
          "internalType": "bytes32",
          "name": "operationId",
          "type": "bytes32"
        }
      ],
      "name": "executeKeyRotation",
      "outputs": [],
      "stateMutability": "nonpayable",
      "type": "function"
    },
    {
      "inputs": [],
      "name": "getMinDelay",
      "outputs": [
        {
          "internalType": "uint256",
          "name": "",
          "type": "uint256"
        }
      ],
      "stateMutability": "view",
      "type": "function"
    },
    {
      "inputs": [
        {
          "internalType": "bytes32",
          "name": "id",
          "type": "bytes32"
        }
      ],
      "name": "getOperationState",
      "outputs": [
        {
          "internalType": "enum TimelockController.OperationState",
          "name": "",
          "type": "uint8"
        }
      ],
      "stateMutability": "view",
      "type": "function"
    },
    {
      "inputs": [
        {
          "internalType": "bytes32",
          "name": "role",
          "type": "bytes32"
        }
      ],
      "name": "getRoleAdmin",
      "outputs": [
        {
          "internalType": "bytes32",
          "name": "",
          "type": "bytes32"
        }
      ],
      "stateMutability": "view",
      "type": "function"
    },
    {
      "inputs": [
        {
          "internalType": "bytes32",
          "name": "id",
          "type": "bytes32"
        }
      ],
      "name": "getTimestamp",
      "outputs": [
        {
          "internalType": "uint256",
          "name": "",
          "type": "uint256"
        }
      ],
      "stateMutability": "view",
      "type": "function"
    },
    {
      "inputs": [
        {
          "internalType": "bytes32",
          "name": "role",
          "type": "bytes32"
        },
        {
          "internalType": "address",
          "name": "account",
          "type": "address"
        }
      ],
      "name": "grantRole",
      "outputs": [],
      "stateMutability": "nonpayable",
      "type": "function"
    },
    {
      "inputs": [
        {
          "internalType": "bytes32",
          "name": "role",
          "type": "bytes32"
        },
        {
          "internalType": "address",
          "name": "account",
          "type": "address"
        }
      ],
      "name": "hasRole",
      "outputs": [
        {
          "internalType": "bool",
          "name": "",
          "type": "bool"
        }
      ],
      "stateMutability": "view",
      "type": "function"
    },
    {
      "inputs": [
        {
          "internalType": "address",
          "name": "target",
          "type": "address"
        },
        {
          "internalType": "uint256",
          "name": "value",
          "type": "uint256"
        },
        {
          "internalType": "bytes",
          "name": "data",
          "type": "bytes"
        },
        {
          "internalType": "bytes32",
          "name": "predecessor",
          "type": "bytes32"
        },
        {
          "internalType": "bytes32",
          "name": "salt",
          "type": "bytes32"
        }
      ],
      "name": "hashOperation",
      "outputs": [
        {
          "internalType": "bytes32",
          "name": "",
          "type": "bytes32"
        }
      ],
      "stateMutability": "pure",
      "type": "function"
    },
    {
      "inputs": [
        {
          "internalType": "address[]",
          "name": "targets",
          "type": "address[]"
        },
        {
          "internalType": "uint256[]",
          "name": "values",
          "type": "uint256[]"
        },
        {
          "internalType": "bytes[]",
          "name": "payloads",
          "type": "bytes[]"
        },
        {
          "internalType": "bytes32",
          "name": "predecessor",
          "type": "bytes32"
        },
        {
          "internalType": "bytes32",
          "name": "salt",
          "type": "bytes32"
        }
      ],
      "name": "hashOperationBatch",
      "outputs": [
        {
          "internalType": "bytes32",
          "name": "",
          "type": "bytes32"
        }
      ],
      "stateMutability": "pure",
      "type": "function"
    },
    {
      "inputs": [
        {
          "internalType": "bytes32",
          "name": "id",
          "type": "bytes32"
        }
      ],
      "name": "isOperation",
      "outputs": [
        {
          "internalType": "bool",
          "name": "",
          "type": "bool"
        }
      ],
      "stateMutability": "view",
      "type": "function"
    },
    {
      "inputs": [
        {
          "internalType": "bytes32",
          "name": "id",
          "type": "bytes32"
        }
      ],
      "name": "isOperationDone",
      "outputs": [
        {
          "internalType": "bool",
          "name": "",
          "type": "bool"
        }
      ],
      "stateMutability": "view",
      "type": "function"
    },
    {
      "inputs": [
        {
          "internalType": "bytes32",
          "name": "id",
          "type": "bytes32"
        }
      ],
      "name": "isOperationPending",
      "outputs": [
        {
          "internalType": "bool",
          "name": "",
          "type": "bool"
        }
      ],
      "stateMutability": "view",
      "type": "function"
    },
    {
      "inputs": [
        {
          "internalType": "bytes32",
          "name": "id",
          "type": "bytes32"
        }
      ],
      "name": "isOperationReady",
      "outputs": [
        {
          "internalType": "bool",
          "name": "",
          "type": "bool"
        }
      ],
      "stateMutability": "view",
      "type": "function"
    },
    {
      "inputs": [
        {
          "internalType": "address",
          "name": "",
          "type": "address"
        },
        {
          "internalType": "address",
          "name": "",
          "type": "address"
        },
        {
          "internalType": "uint256[]",
          "name": "",
          "type": "uint256[]"
        },
        {
          "internalType": "uint256[]",
          "name": "",
          "type": "uint256[]"
        },
        {
          "internalType": "bytes",
          "name": "",
          "type": "bytes"
        }
      ],
      "name": "onERC1155BatchReceived",
      "outputs": [
        {
          "internalType": "bytes4",
          "name": "",
          "type": "bytes4"
        }
      ],
      "stateMutability": "nonpayable",
      "type": "function"
    },
    {
      "inputs": [
        {
          "internalType": "address",
          "name": "",
          "type": "address"
        },
        {
          "internalType": "address",
          "name": "",
          "type": "address"
        },
        {
          "internalType": "uint256",
          "name": "",
          "type": "uint256"
        },
        {
          "internalType": "uint256",
          "name": "",
          "type": "uint256"
        },
        {
          "internalType": "bytes",
          "name": "",
          "type": "bytes"
        }
      ],
      "name": "onERC1155Received",
      "outputs": [
        {
          "internalType": "bytes4",
          "name": "",
          "type": "bytes4"
        }
      ],
      "stateMutability": "nonpayable",
      "type": "function"
    },
    {
      "inputs": [
        {
          "internalType": "address",
          "name": "",
          "type": "address"
        },
        {
          "internalType": "address",
          "name": "",
          "type": "address"
        },
        {
          "internalType": "uint256",
          "name": "",
          "type": "uint256"
        },
        {
          "internalType": "bytes",
          "name": "",
          "type": "bytes"
        }
      ],
      "name": "onERC721Received",
      "outputs": [
        {
          "internalType": "bytes4",
          "name": "",
          "type": "bytes4"
        }
      ],
      "stateMutability": "nonpayable",
      "type": "function"
    },
    {
      "inputs": [
        {
          "internalType": "bytes32",
          "name": "role",
          "type": "bytes32"
        },
        {
          "internalType": "address",
          "name": "callerConfirmation",
          "type": "address"
        }
      ],
      "name": "renounceRole",
      "outputs": [],
      "stateMutability": "nonpayable",
      "type": "function"
    },
    {
      "inputs": [
        {
          "internalType": "bytes32",
          "name": "role",
          "type": "bytes32"
        },
        {
          "internalType": "address",
          "name": "account",
          "type": "address"
        }
      ],
      "name": "revokeRole",
      "outputs": [],
      "stateMutability": "nonpayable",
      "type": "function"
    },
    {
      "inputs": [
        {
          "internalType": "address",
          "name": "bridge",
          "type": "address"
        },
        {
          "internalType": "enum SovereignGovernanceTimelock.KeyType",
          "name": "keyType",
          "type": "uint8"
        },
        {
          "internalType": "address",
          "name": "newKey",
          "type": "address"
        },
        {
          "internalType": "bytes32",
          "name": "predecessor",
          "type": "bytes32"
        },
        {
          "internalType": "bytes32",
          "name": "salt",
          "type": "bytes32"
        },
        {
          "internalType": "uint256",
          "name": "deadline",
          "type": "uint256"
        },
        {
          "internalType": "bytes",
          "name": "issuerSignature",
          "type": "bytes"
        },
        {
          "internalType": "bytes",
          "name": "foundationSignature",
          "type": "bytes"
        }
      ],
      "name": "rotateKey",
      "outputs": [
        {
          "internalType": "bytes32",
          "name": "operationId",
          "type": "bytes32"
        }
      ],
      "stateMutability": "nonpayable",
      "type": "function"
    },
    {
      "inputs": [
        {
          "internalType": "bytes32",
          "name": "",
          "type": "bytes32"
        }
      ],
      "name": "rotationOperations",
      "outputs": [
        {
          "internalType": "bool",
          "name": "exists",
          "type": "bool"
        },
        {
          "internalType": "bool",
          "name": "executed",
          "type": "bool"
        },
        {
          "internalType": "address",
          "name": "bridge",
          "type": "address"
        },
        {
          "internalType": "address",
          "name": "newIssuerKey",
          "type": "address"
        },
        {
          "internalType": "address",
          "name": "newIssuerRecoveryKey",
          "type": "address"
        },
        {
          "internalType": "address",
          "name": "newFoundationKey",
          "type": "address"
        },
        {
          "internalType": "address",
          "name": "newAuditorKey",
          "type": "address"
        },
        {
          "internalType": "address",
          "name": "newGuardianKey",
          "type": "address"
        },
        {
          "internalType": "bytes32",
          "name": "predecessor",
          "type": "bytes32"
        },
        {
          "internalType": "bytes32",
          "name": "salt",
          "type": "bytes32"
        },
        {
          "internalType": "bool",
          "name": "usePrimaryKeySetter",
          "type": "bool"
        }
      ],
      "stateMutability": "view",
      "type": "function"
    },
    {
      "inputs": [
        {
          "internalType": "address",
          "name": "target",
          "type": "address"
        },
        {
          "internalType": "uint256",
          "name": "value",
          "type": "uint256"
        },
        {
          "internalType": "bytes",
          "name": "data",
          "type": "bytes"
        },
        {
          "internalType": "bytes32",
          "name": "predecessor",
          "type": "bytes32"
        },
        {
          "internalType": "bytes32",
          "name": "salt",
          "type": "bytes32"
        },
        {
          "internalType": "uint256",
          "name": "delay",
          "type": "uint256"
        }
      ],
      "name": "schedule",
      "outputs": [],
      "stateMutability": "nonpayable",
      "type": "function"
    },
    {
      "inputs": [
        {
          "internalType": "address[]",
          "name": "targets",
          "type": "address[]"
        },
        {
          "internalType": "uint256[]",
          "name": "values",
          "type": "uint256[]"
        },
        {
          "internalType": "bytes[]",
          "name": "payloads",
          "type": "bytes[]"
        },
        {
          "internalType": "bytes32",
          "name": "predecessor",
          "type": "bytes32"
        },
        {
          "internalType": "bytes32",
          "name": "salt",
          "type": "bytes32"
        },
        {
          "internalType": "uint256",
          "name": "delay",
          "type": "uint256"
        }
      ],
      "name": "scheduleBatch",
      "outputs": [],
      "stateMutability": "nonpayable",
      "type": "function"
    },
    {
      "inputs": [
        {
          "internalType": "bytes4",
          "name": "interfaceId",
          "type": "bytes4"
        }
      ],
      "name": "supportsInterface",
      "outputs": [
        {
          "internalType": "bool",
          "name": "",
          "type": "bool"
        }
      ],
      "stateMutability": "view",
      "type": "function"
    },
    {
      "inputs": [
        {
          "internalType": "uint256",
          "name": "newDelay",
          "type": "uint256"
        }
      ],
      "name": "updateDelay",
      "outputs": [],
      "stateMutability": "nonpayable",
      "type": "function"
    },
    {
      "stateMutability": "payable",
      "type": "receive"
    }
  ],
  "bytecode": "0x604060808152346200019f5762002959803803806200001e81620001a4565b92833981016080828203126200019f57815160208301516001600160401b03908181116200019f578362000054918601620001f5565b92858501519182116200019f57620000756060916200007d938701620001f5565b9401620001e0565b926200008930620002b8565b506001600160a01b03948486166200018d575b60005b8451811015620000ee5780620000c788620000bf620000e894896200028d565b511662000338565b50620000e188620000d983896200028d565b5116620003da565b5062000267565b6200009f565b508593508460005b8351811015620001245780620000e187620001166200011e94886200028d565b511662000477565b620000f6565b5062093a8084806002557f11c24f4ead16507c69ac467fbd5e4eed5fb5c699626d2cc6d66421df253886d584805160008152836020820152a1106200017c576200016e9062000514565b516123ca90816200056f8239f35b81516308f6f23760e11b8152600490fd5b6200019885620002b8565b506200009c565b600080fd5b6040519190601f01601f191682016001600160401b03811183821017620001ca57604052565b634e487b7160e01b600052604160045260246000fd5b51906001600160a01b03821682036200019f57565b81601f820112156200019f578051916001600160401b038311620001ca578260051b602092838062000229818501620001a4565b8097815201928201019283116200019f578301905b8282106200024d575050505090565b8380916200025b84620001e0565b8152019101906200023e565b6000198114620002775760010190565b634e487b7160e01b600052601160045260246000fd5b8051821015620002a25760209160051b010190565b634e487b7160e01b600052603260045260246000fd5b6001600160a01b031660008181527fad3228b676f7d3cd4284a5443f17f1962b36e491b30a40b2405849e597ba5fb5602052604081205490919060ff166200033457818052816020526040822081835260205260408220600160ff198254161790553391600080516020620029398339815191528180a4600190565b5090565b6001600160a01b031660008181527f3412d5605ac6cd444957cedb533e5dacad6378b4bc819ebe3652188a665066d560205260408120549091907fb09aa5aeb3702cfd50b6b62bc4532604938f21248a27a1d5ca736082b6819cc19060ff16620003d557808352826020526040832082845260205260408320600160ff1982541617905560008051602062002939833981519152339380a4600190565b505090565b6001600160a01b031660008181527fc3ad33e20b0c56a223ad5104fff154aa010f8715b9c981fd38fdc60a4d1a52fb60205260408120549091907ffd643c72710c63c0180259aba6b2d05451e3591a24e58b62239378085726f7839060ff16620003d557808352826020526040832082845260205260408320600160ff1982541617905560008051602062002939833981519152339380a4600190565b6001600160a01b031660008181527fdae2aa361dfd1ca020a396615627d436107c35eff9fe7738a3512819782d706960205260408120549091907fd8aa0f3194971a2a116679f7c2090f6939c8d4e01a2a8d7e41d55e5351469e639060ff16620003d557808352826020526040832082845260205260408320600160ff1982541617905560008051602062002939833981519152339380a4600190565b6001600160a01b038116156200055c573b6200054e57617a694614801562000550575b6200054e5760405163b597f86560e01b8152600490fd5b565b50610539461462000537565b60405163e6c4247b60e01b8152600490fdfe6080604052600436101561001b575b361561001957600080fd5b005b6000803560e01c806301d5062a1461178657806301ffc9a71461171557806307bd0265146116ec578063134008d31461164a57806313bc9f2014611617578063150b7a02146115c15780631d31db2614611380578063248a9ca3146113545780632ab0f529146113215780632f2ff15d146112e257806331d50750146112ba57806336568abe1461127257806352f5d86014610987578063584b153e1461095e57806364d62353146108f25780637958004c146108c25780638065657f146108a25780638f2a0bb01461070e5780638f61f4f5146106d357806390b1f06a146106b557806391d148541461066a578063a217fddf1461064e578063b08e51c014610613578063b1c5f427146105e8578063bc197c811461055b578063c4d252f51461046b578063d45c443514610441578063d547741f146103fe578063e38335e5146102ba578063f23a6e6114610260578063f27a0c92146102425763f64263c214610187575061000e565b3461023f57602036600319011261023f57604061016091600435815260036020522080549060018060a01b03908160018201541682600283015416836003840154168460048501541690856005860154169260068601549460ff6008600789015498015416976040519960ff811615158b5260ff8160081c16151560208c015260101c1660408a01526060890152608088015260a087015260c086015260e08501526101008401526101208301521515610140820152f35b80fd5b503461023f578060031936011261023f576020600254604051908152f35b503461023f5760a036600319011261023f5761027a611864565b5061028361187a565b506084356001600160401b0381116102b6576102a3903690600401611991565b5060405163f23a6e6160e01b8152602090f35b5080fd5b506102c4366119ff565b600080516020612375833981519152899897929896959394965288602052604089206000805260205260ff60406000205416156103f0575b8282148015906103e6575b6103bb5761031e61032591898689878a888e611da4565b97886120bb565b875b81811061033b578861033889612138565b80f35b8080897fc2617efa69bab66782fa219543714338489c4e9e178271560a91b82c3f612b5889896103ae610395868f61038e828f928f908f6103b69f6103839161038893611f3f565b611f65565b97611f3f565b3595611f79565b906103a282828787612066565b60405194859485612042565b0390a3611f1a565b610327565b506040516001624fcdef60e01b03198152600481019190915260248101929092526044820152606490fd5b5083821415610307565b6103f933611b49565b6102fc565b503461023f57604036600319011261023f5761043d60043561041e61187a565b908084528360205261043860016040862001543390611b9c565b611c4b565b5080f35b503461023f57602036600319011261023f5760406020916004358152600183522054604051908152f35b503461023f57602036600319011261023f573360009081527fc3ad33e20b0c56a223ad5104fff154aa010f8715b9c981fd38fdc60a4d1a52fb6020526040902054600435907ffd643c72710c63c0180259aba6b2d05451e3591a24e58b62239378085726f7839060ff161561053d57506104e481611cc0565b1561051e5780825260016020528160408120557fbaa1eb22f2a492ba1a5fea61b8df4d27c6c8b5f3971e63bb58fa14ff72eedb708280a280f35b60449060405190635ead8eb560e01b8252600482015260066024820152fd5b6044906040519063e2517d3f60e01b82523360048301526024820152fd5b503461023f5760a036600319011261023f57610575611864565b5061057e61187a565b506001600160401b036044358181116105e45761059f903690600401611a60565b506064358181116105e4576105b8903690600401611a60565b506084359081116102b6576105d1903690600401611991565b5060405163bc197c8160e01b8152602090f35b8280fd5b503461023f57602061060b6105fc366119ff565b96959095949194939293611da4565b604051908152f35b503461023f578060031936011261023f5760206040517ffd643c72710c63c0180259aba6b2d05451e3591a24e58b62239378085726f7838152f35b503461023f578060031936011261023f57602090604051908152f35b503461023f57604036600319011261023f57604061068661187a565b91600435815280602052209060018060a01b0316600052602052602060ff604060002054166040519015158152f35b503461023f578060031936011261023f57602060405162093a808152f35b503461023f578060031936011261023f5760206040517fb09aa5aeb3702cfd50b6b62bc4532604938f21248a27a1d5ca736082b6819cc18152f35b503461023f5760c036600319011261023f576001600160401b036004358181116105e4576107409036906004016119cf565b919060243582811161089e5761075a9036906004016119cf565b909260443590811161089a576107749036906004016119cf565b9390916064356084359560a4359261078b33611ac6565b808914801590610890575b610867576107aa88848489858a8f8e611da4565b986107b5858b611fc7565b898b5b8281106107fc578c828c806107cb578280f35b60207f20fda5fd27a1ea7bf5b9567f143ac5470bb059374a27e8f67cb44f946f6d038791604051908152a281808280f35b80610860927f4cf4410cc57040e44862ef0f45f3dd5a5e02db8eb8add648d4b0e236f1d07dca8b8b6103ae8f8c6108538f928e61084c8f8f906108466103838f8097948195611f3f565b99611f3f565b3597611f79565b9060405196879687611ee2565b8a906107b8565b6040516001624fcdef60e01b03198152600481018a905260248101929092526044820152606490fd5b5081891415610796565b8580fd5b8480fd5b503461023f57602061060b6108b6366118bd565b94939093929192611d4f565b503461023f57602036600319011261023f5760206108e1600435611cf2565b604051906108ee816119af565b8152f35b503461023f57602036600319011261023f57600435303303610946577f11c24f4ead16507c69ac467fbd5e4eed5fb5c699626d2cc6d66421df253886d560406002548151908152836020820152a160025580f35b60405163e2850c5960e01b8152336004820152602490fd5b503461023f57602036600319011261023f57602061097d600435611cc0565b6040519015158152f35b503461023f5761010036600319011261023f576109a2611864565b600560243510156102b6576044356001600160a01b038116900361126d5760c4356001600160401b0381116105e4576109df903690600401611890565b919060e4356001600160401b03811161089e57610a00903690600401611890565b9190610a0b33611ac6565b6001600160a01b03841615801561125a575b611248574260a4351061123657600460ff602435161161122457604051631f23e10560e01b8152946020866004816001600160a01b0389165afa9586156112195787966111f8575b5060405163178adf6760e21b81528694906020816004816001600160a01b038b165afa9081156111ed5789916111ce575b5060405163c533e95d60e01b815290926020826004816001600160a01b038c165afa9182156111c3578a926111a2575b5060405163a4981ba560e01b8152919485926020816004816001600160a01b038e165afa90811561101c578c91611183575b50604051631900eb7f60e01b81529097906020816004816001600160a01b038f165afa908115611178578d91611149575b509a60405191610120602084015260176101408401527f41455448454c5245445f524f544154455f4b45595f563100000000000000000061016084015230604084015246606084015260018060a01b038c16608084015260243560a084015260018060a01b036044351660c084015260643560e084015260843561010084015260a4356101208401526101608352826101808101106001600160401b0361018085011117610fbc57610c1e610c24918f603c9086610180610c2d9801604052602081519101207f19457468657265756d205369676e6564204d6573736167653a0a3332000000008252601c522096369161195a565b8561221d565b909391936122e9565b6001600160a01b0391821691161480159490611116575b50505050611104576000936024356110ac575060443590845b61108757602435159360243561109b575b858515611073575b50841561103957604051633f6ad15960e11b60208201526001600160a01b038085166024830152808616604483015282166064820152610cc381608481015b03601f19810183528261191e565b925b6002549562093a8087106110275760405199638065657f60e01b8b5260208b80610cfb8d608435908b60643591600486016121ed565b0381305afa9a8b1561101c578c9b610fe4575b508a8c52600360205260ff60408d205416610fd25760405193846101608101106001600160401b0361016087011117610fbc57610160850160409081526001865260208087018f90526001600160a01b038d8116838901529586166060880152968516608087015297841660a0860152831660c085015290911660e0830152606435610100830152608435610120808401919091529015156101408301908152898b5260039093529389208151815460ff191690151560ff161781558994610eb9939192600892919060208101518554604083015162010000600160b01b0360109190911b1661ff00921515871b92909216610100600160b01b03199091161717855560608101516001860180546001600160a01b039283166001600160a01b031991821617909155608083015160028801805491841691831691909117905560a083015160038801805491841691831691909117905560c083015160048801805491841691831691909117905560e0830151600588018054919093169116179055610100810151600686015501516007840155519101805460ff191691151560ff16919091179055565b303b156102b65760405162ea831560e11b81526001600160a01b03861660048201526024810183905260c0604482015290829082908190610efe9060c48301906121ad565b606435606483015260843560848301528660a4830152038183305af18015610fb157610f9d575b5050610f319042611fba565b90610f8957602093506040519060018060a01b0360443516825284820152827fdc27601ac79e0a08a00159d0b45849e059ebdd39ba892b4e5016fa7f87f9d6d660406024359460018060a01b031693a4604051908152f35b634e487b7160e01b84526021600452602484fd5b610fa69061190b565b61089e578438610f25565b6040513d84823e3d90fd5b634e487b7160e01b600052604160045260246000fd5b604051636d73436160e11b8152600490fd5b909a506020813d602011611014575b816110006020938361191e565b8101031261101057519938610d0e565b8b80fd5b3d9150610ff3565b6040513d8e823e3d90fd5b6040516308f6f23760e11b8152600490fd5b604051633013b4a760e21b60208201526001600160a01b0380841660248301528916604482015261106d8160648101610cb5565b92610cc5565b909450611087576002602435149385610c76565b634e487b7160e01b88526021600452602488fd5b600095506024356001149450610c6e565b916024356001036110c35750604435919084610c5d565b919093506000926002602435146000146110e35750829360443593610c5d565b92936024356003036110f9575060443584610c5d565b604435965084610c5d565b604051638baa579f60e01b8152600490fd5b6111319450610c24929161112b91369161195a565b9061221d565b6001600160a01b039182169116141538808080610c44565b61116b915060203d602011611171575b611163818361191e565b81019061218e565b38610b29565b503d611159565b6040513d8f823e3d90fd5b61119c915060203d60201161117157611163818361191e565b38610af8565b6111bc91925060203d60201161117157611163818361191e565b9038610ac6565b6040513d8c823e3d90fd5b6111e7915060203d60201161117157611163818361191e565b38610a96565b6040513d8b823e3d90fd5b61121291965060203d60201161117157611163818361191e565b9438610a65565b6040513d89823e3d90fd5b604051630db732d160e21b8152600490fd5b604051631da7447960e21b8152600490fd5b60405163e6c4247b60e01b8152600490fd5b506044356001600160a01b031615610a1d565b600080fd5b503461023f57604036600319011261023f5761128c61187a565b336001600160a01b038216036112a85761043d90600435611c4b565b60405163334bd91960e11b8152600490fd5b503461023f57602036600319011261023f5760206112d9600435611cf2565b61097d816119af565b503461023f57604036600319011261023f5761043d60043561130261187a565b908084528360205261131c60016040862001543390611b9c565b611bcd565b503461023f57602036600319011261023f576020611340600435611cf2565b611349816119af565b600360405191148152f35b503461023f57602036600319011261023f57600160406020926004358152808452200154604051908152f35b503461023f576020806003193601126102b657600435600080516020612375833981519152835282825260408320838052825260ff604084205416156115b3575b80835260038252604083209182549060ff8216156115a15760ff8260081c1661158f57600884015460ff161561154d57600184015460038501546004860154604051633f6ad15960e11b858201526001600160a01b0393841660248201529183166044830152909116606482015261143c8160848101610cb5565b856006860154600787015492303b156105e45760405163134008d360e01b81526001600160a01b039690948593849361147d9360101c8a16600486016121ed565b038183305af180156115425761150a575b507fa1c1e259f1cd42b6c292e42b7eb13d295425db17b1b6da42481b867a530abbe89160a09161010061ff0019875416179081875582600188015416968360028201541684600383015416908560058160048601541694015416936040519a8b528a015260408901526060880152608087015260101c1693a380f35b9160a091956115397fa1c1e259f1cd42b6c292e42b7eb13d295425db17b1b6da42481b867a530abbe89461190b565b9591509161148e565b6040513d88823e3d90fd5b60028401546005850154604051633013b4a760e21b848201526001600160a01b0392831660248201529116604482015261158a8160648101610cb5565b61143c565b604051632e108c6960e21b8152600490fd5b6040516319d5611d60e21b8152600490fd5b6115bc33611b49565b6113c1565b503461023f57608036600319011261023f576115db611864565b506115e461187a565b506064356001600160401b0381116102b657611604903690600401611991565b50604051630a85bd0160e11b8152602090f35b503461023f57602036600319011261023f576020611636600435611cf2565b61163f816119af565b600260405191148152f35b506103386116ca826116d67fc2617efa69bab66782fa219543714338489c4e9e178271560a91b82c3f612b586116c1611682366118bd565b6000805160206123758339815191528a9995979299949394528960205260408a208a805260205260ff60408b205416156116de575b8884848989611d4f565b988997886120bb565b6103a282828787612066565b0390a3612138565b6116e733611b49565b6116b7565b503461023f578060031936011261023f5760206040516000805160206123758339815191528152f35b503461023f57602036600319011261023f5760043563ffffffff60e01b81168091036102b657602090630271189760e51b811490811561175b575b506040519015158152f35b637965db0b60e01b811491508115611775575b5082611750565b6301ffc9a760e01b1490508261176e565b503461023f5760c036600319011261023f576117a0611864565b60443590826024356001600160401b0384116102b6576117e57f4cf4410cc57040e44862ef0f45f3dd5a5e02db8eb8add648d4b0e236f1d07dca943690600401611890565b949091606435946118276084359660a4359061180033611ac6565b61180e89828c8a8989611d4f565b998a9761181b848a611fc7565b60405196879687611ee2565b0390a380611833578280f35b60207f20fda5fd27a1ea7bf5b9567f143ac5470bb059374a27e8f67cb44f946f6d038791604051908152a238808280f35b600435906001600160a01b038216820361126d57565b602435906001600160a01b038216820361126d57565b9181601f8401121561126d578235916001600160401b03831161126d576020838186019501011161126d57565b60a060031982011261126d576004356001600160a01b038116810361126d579160243591604435906001600160401b03821161126d576118ff91600401611890565b90916064359060843590565b6001600160401b038111610fbc57604052565b90601f801991011681019081106001600160401b03821117610fbc57604052565b6001600160401b038111610fbc57601f01601f191660200190565b9291926119668261193f565b91611974604051938461191e565b82948184528183011161126d578281602093846000960137010152565b9080601f8301121561126d578160206119ac9335910161195a565b90565b600411156119b957565b634e487b7160e01b600052602160045260246000fd5b9181601f8401121561126d578235916001600160401b03831161126d576020808501948460051b01011161126d57565b9060a060031983011261126d576001600160401b0360043581811161126d5783611a2b916004016119cf565b9390939260243583811161126d5782611a46916004016119cf565b9390939260443591821161126d576118ff916004016119cf565b9080601f8301121561126d578135906001600160401b038211610fbc578160051b60405193602093611a948584018761191e565b8552838086019282010192831161126d578301905b828210611ab7575050505090565b81358152908301908301611aa9565b6001600160a01b031660008181527f3412d5605ac6cd444957cedb533e5dacad6378b4bc819ebe3652188a665066d560205260409020547fb09aa5aeb3702cfd50b6b62bc4532604938f21248a27a1d5ca736082b6819cc19060ff1615611b2b575050565b604492506040519163e2517d3f60e01b835260048301526024820152fd5b6001600160a01b031660008181527fdae2aa361dfd1ca020a396615627d436107c35eff9fe7738a3512819782d706960205260409020546000805160206123758339815191529060ff1615611b2b575050565b80600052600060205260406000209160018060a01b0316918260005260205260ff6040600020541615611b2b575050565b9060009180835282602052604083209160018060a01b03169182845260205260ff60408420541615600014611c4657808352826020526040832082845260205260408320600160ff198254161790557f2f8788117e7eff1d82e926ec794901d17c78024a50270940304540a733656f0d339380a4600190565b505090565b9060009180835282602052604083209160018060a01b03169182845260205260ff604084205416600014611c465780835282602052604083208284526020526040832060ff1981541690557ff6391f5c32d9c69d2a47ea670b442974b53935d1edc7fd64eb21e047a839171b339380a4600190565b611cc990611cf2565b611cd2816119af565b60018114908115611ce1575090565b60029150611cee816119af565b1490565b60005260016020526040600020548015600014611d0f5750600090565b60018103611d1d5750600390565b421015611d2957600190565b600290565b908060209392818452848401376000828201840152601f01601f1916010190565b94611d85611d9e94959293604051968795602087019960018060a01b03168a52604087015260a0606087015260c0860191611d2e565b91608084015260a083015203601f19810183528261191e565b51902090565b969294909695919560405196602091828901998060c08b0160a08d525260e08a01919060005b818110611eba57505050601f19898203810160408b0152888252976001600160fb1b03811161126d579089969495939897929160051b80928a830137019380888601878703606089015252604085019460408260051b82010195836000925b848410611e5157505050505050611d9e9550608084015260a08301520390810183528261191e565b9193969850919398999496603f198282030184528935601e198436030181121561126d5783018681019190356001600160401b03811161126d57803603831361126d57611ea388928392600195611d2e565b9b0194019401918b98969394919a9997959a611e29565b90919283359060018060a01b03821680920361126d5790815285019285019190600101611dca565b929093611f10926080959897969860018060a01b03168552602085015260a0604085015260a0840191611d2e565b9460608201520152565b6000198114611f295760010190565b634e487b7160e01b600052601160045260246000fd5b9190811015611f4f5760051b0190565b634e487b7160e01b600052603260045260246000fd5b356001600160a01b038116810361126d5790565b9190811015611f4f5760051b81013590601e198136030182121561126d5701908135916001600160401b03831161126d57602001823603811361126d579190565b91908201809211611f2957565b90611fd182611cf2565b611fda816119af565b612022576002548082106120045750611ff39042611fba565b906000526001602052604060002055565b6044925060405191635433660960e01b835260048301526024820152fd5b604051635ead8eb560e01b81526004810183905260016024820152604490fd5b6119ac949260609260018060a01b0316825260208201528160408201520191611d2e565b6120b093600093928493826040519384928337810185815203925af13d156120b3573d906120938261193f565b916120a1604051938461191e565b82523d6000602084013e612163565b50565b606090612163565b60026120c682611cf2565b6120cf816119af565b036121195750801515806120fd575b6120e55750565b6024906040519063121534c360e31b82526004820152fd5b50600361210982611cf2565b612112816119af565b14156120de565b60449060405190635ead8eb560e01b8252600482015260046024820152fd5b600261214382611cf2565b61214c816119af565b036121195760005260016020526001604060002055565b90919061218c575080511561217a57805190602001fd5b604051630a12f52160e11b8152600490fd5b565b9081602091031261126d57516001600160a01b038116810361126d5790565b919082519283825260005b8481106121d9575050826000602080949584010152601f8019910116010190565b6020818301810151848301820152016121b8565b6001600160a01b0390911681526000602082015260a06040820181905292949392608092611f10918301906121ad565b815191906041830361224e5761224792506020820151906060604084015193015160001a90612259565b9192909190565b505060009160029190565b91907f7fffffffffffffffffffffffffffffff5d576e7357a4501ddfe92f46681b20a084116122dd57926020929160ff608095604051948552168484015260408301526060820152600092839182805260015afa156122d15780516001600160a01b038116156122c857918190565b50809160019190565b604051903d90823e3d90fd5b50505060009160039190565b6122f2816119af565b806122fb575050565b612304816119af565b6001810361231e5760405163f645eedf60e01b8152600490fd5b612327816119af565b600281036123485760405163fce698f760e01b815260048101839052602490fd5b806123546003926119af565b1461235c5750565b602490604051906335e2f38360e21b82526004820152fdfed8aa0f3194971a2a116679f7c2090f6939c8d4e01a2a8d7e41d55e5351469e63a26469706673582212200222cae336b3389e74ad5c5c1fcf07623ac06fdcafe64269799c63fb9bf26c8164736f6c634300081400332f8788117e7eff1d82e926ec794901d17c78024a50270940304540a733656f0d",
  "linkReferences": {},
  "deployedLinkReferences": {}
}